{
	"contracts/Voting2.sol": {
		"Voting": {
			"abi": [
				{
					"anonymous": false,
					"inputs": [
						{
							"indexed": true,
							"internalType": "address",
							"name": "previousOwner",
							"type": "address"
						},
						{
							"indexed": true,
							"internalType": "address",
							"name": "newOwner",
							"type": "address"
						}
					],
					"name": "OwnershipTransferred",
					"type": "event"
				},
				{
					"anonymous": false,
					"inputs": [
						{
							"indexed": false,
							"internalType": "uint256",
							"name": "proposalId",
							"type": "uint256"
						}
					],
					"name": "ProposalRegistered",
					"type": "event"
				},
				{
					"anonymous": false,
					"inputs": [
						{
							"indexed": false,
							"internalType": "address",
							"name": "voter",
							"type": "address"
						},
						{
							"indexed": false,
							"internalType": "uint256",
							"name": "proposalId",
							"type": "uint256"
						}
					],
					"name": "Voted",
					"type": "event"
				},
				{
					"anonymous": false,
					"inputs": [
						{
							"indexed": false,
							"internalType": "address",
							"name": "voterAddress",
							"type": "address"
						}
					],
					"name": "VoterRegistered",
					"type": "event"
				},
				{
					"anonymous": false,
					"inputs": [
						{
							"indexed": false,
							"internalType": "enum Voting.WorkflowStatus",
							"name": "previousStatus",
							"type": "uint8"
						},
						{
							"indexed": false,
							"internalType": "enum Voting.WorkflowStatus",
							"name": "newStatus",
							"type": "uint8"
						}
					],
					"name": "WorkflowStatusChange",
					"type": "event"
				},
				{
					"inputs": [],
					"name": "endVotingSession",
					"outputs": [],
					"stateMutability": "nonpayable",
					"type": "function"
				},
				{
					"inputs": [],
					"name": "getWinner",
					"outputs": [
						{
							"internalType": "uint256",
							"name": "winningProposalId",
							"type": "uint256"
						}
					],
					"stateMutability": "view",
					"type": "function"
				},
				{
					"inputs": [],
					"name": "owner",
					"outputs": [
						{
							"internalType": "address",
							"name": "",
							"type": "address"
						}
					],
					"stateMutability": "view",
					"type": "function"
				},
				{
					"inputs": [
						{
							"internalType": "uint256",
							"name": "",
							"type": "uint256"
						}
					],
					"name": "proposals",
					"outputs": [
						{
							"internalType": "string",
							"name": "description",
							"type": "string"
						},
						{
							"internalType": "uint256",
							"name": "voteCount",
							"type": "uint256"
						}
					],
					"stateMutability": "view",
					"type": "function"
				},
				{
					"inputs": [
						{
							"internalType": "string",
							"name": "_description",
							"type": "string"
						}
					],
					"name": "registerProposal",
					"outputs": [],
					"stateMutability": "nonpayable",
					"type": "function"
				},
				{
					"inputs": [
						{
							"internalType": "address",
							"name": "_voterAddress",
							"type": "address"
						}
					],
					"name": "registerVoter",
					"outputs": [],
					"stateMutability": "nonpayable",
					"type": "function"
				},
				{
					"inputs": [],
					"name": "renounceOwnership",
					"outputs": [],
					"stateMutability": "nonpayable",
					"type": "function"
				},
				{
					"inputs": [],
					"name": "startProposalsRegistration",
					"outputs": [],
					"stateMutability": "nonpayable",
					"type": "function"
				},
				{
					"inputs": [],
					"name": "startVotingSession",
					"outputs": [],
					"stateMutability": "nonpayable",
					"type": "function"
				},
				{
					"inputs": [
						{
							"internalType": "address",
							"name": "newOwner",
							"type": "address"
						}
					],
					"name": "transferOwnership",
					"outputs": [],
					"stateMutability": "nonpayable",
					"type": "function"
				},
				{
					"inputs": [
						{
							"internalType": "uint256",
							"name": "_proposalId",
							"type": "uint256"
						}
					],
					"name": "vote",
					"outputs": [],
					"stateMutability": "nonpayable",
					"type": "function"
				},
				{
					"inputs": [
						{
							"internalType": "address",
							"name": "",
							"type": "address"
						}
					],
					"name": "voters",
					"outputs": [
						{
							"internalType": "bool",
							"name": "isRegistered",
							"type": "bool"
						},
						{
							"internalType": "bool",
							"name": "hasVoted",
							"type": "bool"
						},
						{
							"internalType": "uint256",
							"name": "votedProposalId",
							"type": "uint256"
						}
					],
					"stateMutability": "view",
					"type": "function"
				},
				{
					"inputs": [],
					"name": "workflowStatus",
					"outputs": [
						{
							"internalType": "enum Voting.WorkflowStatus",
							"name": "",
							"type": "uint8"
						}
					],
					"stateMutability": "view",
					"type": "function"
				}
			],
			"devdoc": {
				"kind": "dev",
				"methods": {
					"owner()": {
						"details": "Returns the address of the current owner."
					},
					"renounceOwnership()": {
						"details": "Leaves the contract without owner. It will not be possible to call `onlyOwner` functions. Can only be called by the current owner. NOTE: Renouncing ownership will leave the contract without an owner, thereby disabling any functionality that is only available to the owner."
					},
					"transferOwnership(address)": {
						"details": "Transfers ownership of the contract to a new account (`newOwner`). Can only be called by the current owner."
					}
				},
				"version": 1
			},
			"evm": {
				"assembly": "    /* \"contracts/Voting2.sol\":117:3963  contract Voting is Ownable {... */\n  mstore(0x40, 0x80)\n  callvalue\n  dup1\n  iszero\n  tag_1\n  jumpi\n  0x00\n  dup1\n  revert\ntag_1:\n  pop\n    /* \"@openzeppelin/contracts/access/Ownable.sol\":936:968  _transferOwnership(_msgSender()) */\n  tag_4\n    /* \"@openzeppelin/contracts/access/Ownable.sol\":955:967  _msgSender() */\n  tag_5\n    /* \"@openzeppelin/contracts/access/Ownable.sol\":955:965  _msgSender */\n  shl(0x20, tag_6)\n    /* \"@openzeppelin/contracts/access/Ownable.sol\":955:967  _msgSender() */\n  0x20\n  shr\n  jump\t// in\ntag_5:\n    /* \"@openzeppelin/contracts/access/Ownable.sol\":936:954  _transferOwnership */\n  shl(0x20, tag_7)\n    /* \"@openzeppelin/contracts/access/Ownable.sol\":936:968  _transferOwnership(_msgSender()) */\n  0x20\n  shr\n  jump\t// in\ntag_4:\n    /* \"contracts/Voting2.sol\":117:3963  contract Voting is Ownable {... */\n  jump(tag_8)\n    /* \"@openzeppelin/contracts/utils/Context.sol\":640:736  function _msgSender() internal view virtual returns (address) {... */\ntag_6:\n    /* \"@openzeppelin/contracts/utils/Context.sol\":693:700  address */\n  0x00\n    /* \"@openzeppelin/contracts/utils/Context.sol\":719:729  msg.sender */\n  caller\n    /* \"@openzeppelin/contracts/utils/Context.sol\":712:729  return msg.sender */\n  swap1\n  pop\n    /* \"@openzeppelin/contracts/utils/Context.sol\":640:736  function _msgSender() internal view virtual returns (address) {... */\n  swap1\n  jump\t// out\n    /* \"@openzeppelin/contracts/access/Ownable.sol\":2426:2613  function _transferOwnership(address newOwner) internal virtual {... */\ntag_7:\n    /* \"@openzeppelin/contracts/access/Ownable.sol\":2499:2515  address oldOwner */\n  0x00\n    /* \"@openzeppelin/contracts/access/Ownable.sol\":2518:2524  _owner */\n  dup1\n  0x00\n  swap1\n  sload\n  swap1\n  0x0100\n  exp\n  swap1\n  div\n  0xffffffffffffffffffffffffffffffffffffffff\n  and\n    /* \"@openzeppelin/contracts/access/Ownable.sol\":2499:2524  address oldOwner = _owner */\n  swap1\n  pop\n    /* \"@openzeppelin/contracts/access/Ownable.sol\":2543:2551  newOwner */\n  dup2\n    /* \"@openzeppelin/contracts/access/Ownable.sol\":2534:2540  _owner */\n  0x00\n  dup1\n    /* \"@openzeppelin/contracts/access/Ownable.sol\":2534:2551  _owner = newOwner */\n  0x0100\n  exp\n  dup2\n  sload\n  dup2\n  0xffffffffffffffffffffffffffffffffffffffff\n  mul\n  not\n  and\n  swap1\n  dup4\n  0xffffffffffffffffffffffffffffffffffffffff\n  and\n  mul\n  or\n  swap1\n  sstore\n  pop\n    /* \"@openzeppelin/contracts/access/Ownable.sol\":2597:2605  newOwner */\n  dup2\n    /* \"@openzeppelin/contracts/access/Ownable.sol\":2566:2606  OwnershipTransferred(oldOwner, newOwner) */\n  0xffffffffffffffffffffffffffffffffffffffff\n  and\n    /* \"@openzeppelin/contracts/access/Ownable.sol\":2587:2595  oldOwner */\n  dup2\n    /* \"@openzeppelin/contracts/access/Ownable.sol\":2566:2606  OwnershipTransferred(oldOwner, newOwner) */\n  0xffffffffffffffffffffffffffffffffffffffff\n  and\n  0x8be0079c531659141344cd1fd0a4f28419497f9722a3daafe3b4186f6b6457e0\n  mload(0x40)\n  mload(0x40)\n  dup1\n  swap2\n  sub\n  swap1\n  log3\n    /* \"@openzeppelin/contracts/access/Ownable.sol\":2489:2613  {... */\n  pop\n    /* \"@openzeppelin/contracts/access/Ownable.sol\":2426:2613  function _transferOwnership(address newOwner) internal virtual {... */\n  pop\n  jump\t// out\n    /* \"contracts/Voting2.sol\":117:3963  contract Voting is Ownable {... */\ntag_8:\n  dataSize(sub_0)\n  dup1\n  dataOffset(sub_0)\n  0x00\n  codecopy\n  0x00\n  return\nstop\n\nsub_0: assembly {\n        /* \"contracts/Voting2.sol\":117:3963  contract Voting is Ownable {... */\n      mstore(0x40, 0x80)\n      callvalue\n      dup1\n      iszero\n      tag_1\n      jumpi\n      0x00\n      dup1\n      revert\n    tag_1:\n      pop\n      jumpi(tag_2, lt(calldatasize, 0x04))\n      shr(0xe0, calldataload(0x00))\n      dup1\n      0x8e7ea5b2\n      gt\n      tag_16\n      jumpi\n      dup1\n      0xa7bfab16\n      gt\n      tag_17\n      jumpi\n      dup1\n      0xa7bfab16\n      eq\n      tag_12\n      jumpi\n      dup1\n      0xe09b8c79\n      eq\n      tag_13\n      jumpi\n      dup1\n      0xee74c678\n      eq\n      tag_14\n      jumpi\n      dup1\n      0xf2fde38b\n      eq\n      tag_15\n      jumpi\n      jump(tag_2)\n    tag_17:\n      dup1\n      0x8e7ea5b2\n      eq\n      tag_9\n      jumpi\n      dup1\n      0xa1edffa2\n      eq\n      tag_10\n      jumpi\n      dup1\n      0xa3ec138d\n      eq\n      tag_11\n      jumpi\n      jump(tag_2)\n    tag_16:\n      dup1\n      0x0121b93f\n      eq\n      tag_3\n      jumpi\n      dup1\n      0x013cf08b\n      eq\n      tag_4\n      jumpi\n      dup1\n      0x2f95355b\n      eq\n      tag_5\n      jumpi\n      dup1\n      0x38db6dd3\n      eq\n      tag_6\n      jumpi\n      dup1\n      0x715018a6\n      eq\n      tag_7\n      jumpi\n      dup1\n      0x8da5cb5b\n      eq\n      tag_8\n      jumpi\n    tag_2:\n      0x00\n      dup1\n      revert\n        /* \"contracts/Voting2.sol\":2551:3215  function vote(uint _proposalId) public {... */\n    tag_3:\n      tag_18\n      0x04\n      dup1\n      calldatasize\n      sub\n      dup2\n      add\n      swap1\n      tag_19\n      swap2\n      swap1\n      tag_20\n      jump\t// in\n    tag_19:\n      tag_21\n      jump\t// in\n    tag_18:\n      stop\n        /* \"contracts/Voting2.sol\":197:224  Proposal[] public proposals */\n    tag_4:\n      tag_22\n      0x04\n      dup1\n      calldatasize\n      sub\n      dup2\n      add\n      swap1\n      tag_23\n      swap2\n      swap1\n      tag_20\n      jump\t// in\n    tag_23:\n      tag_24\n      jump\t// in\n    tag_22:\n      mload(0x40)\n      tag_25\n      swap3\n      swap2\n      swap1\n      tag_26\n      jump\t// in\n    tag_25:\n      mload(0x40)\n      dup1\n      swap2\n      sub\n      swap1\n      return\n        /* \"contracts/Voting2.sol\":1780:2283  function registerProposal(string memory _description) public {... */\n    tag_5:\n      tag_27\n      0x04\n      dup1\n      calldatasize\n      sub\n      dup2\n      add\n      swap1\n      tag_28\n      swap2\n      swap1\n      tag_29\n      jump\t// in\n    tag_28:\n      tag_30\n      jump\t// in\n    tag_27:\n      stop\n        /* \"contracts/Voting2.sol\":961:1505  function registerVoter(address _voterAddress) public onlyOwner {... */\n    tag_6:\n      tag_31\n      0x04\n      dup1\n      calldatasize\n      sub\n      dup2\n      add\n      swap1\n      tag_32\n      swap2\n      swap1\n      tag_33\n      jump\t// in\n    tag_32:\n      tag_34\n      jump\t// in\n    tag_31:\n      stop\n        /* \"@openzeppelin/contracts/access/Ownable.sol\":1824:1925  function renounceOwnership() public virtual onlyOwner {... */\n    tag_7:\n      tag_35\n      tag_36\n      jump\t// in\n    tag_35:\n      stop\n        /* \"@openzeppelin/contracts/access/Ownable.sol\":1201:1286  function owner() public view virtual returns (address) {... */\n    tag_8:\n      tag_37\n      tag_38\n      jump\t// in\n    tag_37:\n      mload(0x40)\n      tag_39\n      swap2\n      swap1\n      tag_40\n      jump\t// in\n    tag_39:\n      mload(0x40)\n      dup1\n      swap2\n      sub\n      swap1\n      return\n        /* \"contracts/Voting2.sol\":3465:3960  function getWinner() public view returns (uint winningProposalId) {... */\n    tag_9:\n      tag_41\n      tag_42\n      jump\t// in\n    tag_41:\n      mload(0x40)\n      tag_43\n      swap2\n      swap1\n      tag_44\n      jump\t// in\n    tag_43:\n      mload(0x40)\n      dup1\n      swap2\n      sub\n      swap1\n      return\n        /* \"contracts/Voting2.sol\":231:267  WorkflowStatus public workflowStatus */\n    tag_10:\n      tag_45\n      tag_46\n      jump\t// in\n    tag_45:\n      mload(0x40)\n      tag_47\n      swap2\n      swap1\n      tag_48\n      jump\t// in\n    tag_47:\n      mload(0x40)\n      dup1\n      swap2\n      sub\n      swap1\n      return\n        /* \"contracts/Voting2.sol\":151:190  mapping(address => Voter) public voters */\n    tag_11:\n      tag_49\n      0x04\n      dup1\n      calldatasize\n      sub\n      dup2\n      add\n      swap1\n      tag_50\n      swap2\n      swap1\n      tag_33\n      jump\t// in\n    tag_50:\n      tag_51\n      jump\t// in\n    tag_49:\n      mload(0x40)\n      tag_52\n      swap4\n      swap3\n      swap2\n      swap1\n      tag_53\n      jump\t// in\n    tag_52:\n      mload(0x40)\n      dup1\n      swap2\n      sub\n      swap1\n      return\n        /* \"contracts/Voting2.sol\":3223:3457  function endVotingSession() public onlyOwner {... */\n    tag_12:\n      tag_54\n      tag_55\n      jump\t// in\n    tag_54:\n      stop\n        /* \"contracts/Voting2.sol\":1513:1772  function startProposalsRegistration() public onlyOwner {... */\n    tag_13:\n      tag_56\n      tag_57\n      jump\t// in\n    tag_56:\n      stop\n        /* \"contracts/Voting2.sol\":2291:2543  function startVotingSession() public onlyOwner {... */\n    tag_14:\n      tag_58\n      tag_59\n      jump\t// in\n    tag_58:\n      stop\n        /* \"@openzeppelin/contracts/access/Ownable.sol\":2074:2272  function transferOwnership(address newOwner) public virtual onlyOwner {... */\n    tag_15:\n      tag_60\n      0x04\n      dup1\n      calldatasize\n      sub\n      dup2\n      add\n      swap1\n      tag_61\n      swap2\n      swap1\n      tag_33\n      jump\t// in\n    tag_61:\n      tag_62\n      jump\t// in\n    tag_60:\n      stop\n        /* \"contracts/Voting2.sol\":2551:3215  function vote(uint _proposalId) public {... */\n    tag_21:\n        /* \"contracts/Voting2.sol\":2641:2676  WorkflowStatus.VotingSessionStarted */\n      0x03\n        /* \"contracts/Voting2.sol\":2623:2676  workflowStatus == WorkflowStatus.VotingSessionStarted */\n      0x05\n      dup2\n      gt\n      iszero\n      tag_64\n      jumpi\n      tag_65\n      tag_66\n      jump\t// in\n    tag_65:\n    tag_64:\n        /* \"contracts/Voting2.sol\":2623:2637  workflowStatus */\n      0x03\n      0x00\n      swap1\n      sload\n      swap1\n      0x0100\n      exp\n      swap1\n      div\n      0xff\n      and\n        /* \"contracts/Voting2.sol\":2623:2676  workflowStatus == WorkflowStatus.VotingSessionStarted */\n      0x05\n      dup2\n      gt\n      iszero\n      tag_67\n      jumpi\n      tag_68\n      tag_66\n      jump\t// in\n    tag_68:\n    tag_67:\n      eq\n        /* \"contracts/Voting2.sol\":2601:2728  require(... */\n      tag_69\n      jumpi\n      mload(0x40)\n      0x08c379a000000000000000000000000000000000000000000000000000000000\n      dup2\n      mstore\n      0x04\n      add\n      tag_70\n      swap1\n      tag_71\n      jump\t// in\n    tag_70:\n      mload(0x40)\n      dup1\n      swap2\n      sub\n      swap1\n      revert\n    tag_69:\n        /* \"contracts/Voting2.sol\":2761:2767  voters */\n      0x01\n        /* \"contracts/Voting2.sol\":2761:2779  voters[msg.sender] */\n      0x00\n        /* \"contracts/Voting2.sol\":2768:2778  msg.sender */\n      caller\n        /* \"contracts/Voting2.sol\":2761:2779  voters[msg.sender] */\n      0xffffffffffffffffffffffffffffffffffffffff\n      and\n      0xffffffffffffffffffffffffffffffffffffffff\n      and\n      dup2\n      mstore\n      0x20\n      add\n      swap1\n      dup2\n      mstore\n      0x20\n      add\n      0x00\n      keccak256\n        /* \"contracts/Voting2.sol\":2761:2792  voters[msg.sender].isRegistered */\n      0x00\n      add\n      0x00\n      swap1\n      sload\n      swap1\n      0x0100\n      exp\n      swap1\n      div\n      0xff\n      and\n        /* \"contracts/Voting2.sol\":2739:2852  require(... */\n      tag_72\n      jumpi\n      mload(0x40)\n      0x08c379a000000000000000000000000000000000000000000000000000000000\n      dup2\n      mstore\n      0x04\n      add\n      tag_73\n      swap1\n      tag_74\n      jump\t// in\n    tag_73:\n      mload(0x40)\n      dup1\n      swap2\n      sub\n      swap1\n      revert\n    tag_72:\n        /* \"contracts/Voting2.sol\":2872:2878  voters */\n      0x01\n        /* \"contracts/Voting2.sol\":2872:2890  voters[msg.sender] */\n      0x00\n        /* \"contracts/Voting2.sol\":2879:2889  msg.sender */\n      caller\n        /* \"contracts/Voting2.sol\":2872:2890  voters[msg.sender] */\n      0xffffffffffffffffffffffffffffffffffffffff\n      and\n      0xffffffffffffffffffffffffffffffffffffffff\n      and\n      dup2\n      mstore\n      0x20\n      add\n      swap1\n      dup2\n      mstore\n      0x20\n      add\n      0x00\n      keccak256\n        /* \"contracts/Voting2.sol\":2872:2899  voters[msg.sender].hasVoted */\n      0x00\n      add\n      0x01\n      swap1\n      sload\n      swap1\n      0x0100\n      exp\n      swap1\n      div\n      0xff\n      and\n        /* \"contracts/Voting2.sol\":2871:2899  !voters[msg.sender].hasVoted */\n      iszero\n        /* \"contracts/Voting2.sol\":2863:2932  require(!voters[msg.sender].hasVoted, \"The voter has already voted.\") */\n      tag_75\n      jumpi\n      mload(0x40)\n      0x08c379a000000000000000000000000000000000000000000000000000000000\n      dup2\n      mstore\n      0x04\n      add\n      tag_76\n      swap1\n      tag_77\n      jump\t// in\n    tag_76:\n      mload(0x40)\n      dup1\n      swap2\n      sub\n      swap1\n      revert\n    tag_75:\n        /* \"contracts/Voting2.sol\":2965:2974  proposals */\n      0x02\n        /* \"contracts/Voting2.sol\":2965:2981  proposals.length */\n      dup1\n      sload\n      swap1\n      pop\n        /* \"contracts/Voting2.sol\":2951:2962  _proposalId */\n      dup2\n        /* \"contracts/Voting2.sol\":2951:2981  _proposalId < proposals.length */\n      lt\n        /* \"contracts/Voting2.sol\":2943:3006  require(_proposalId < proposals.length, \"Invalid proposal ID.\") */\n      tag_78\n      jumpi\n      mload(0x40)\n      0x08c379a000000000000000000000000000000000000000000000000000000000\n      dup2\n      mstore\n      0x04\n      add\n      tag_79\n      swap1\n      tag_80\n      jump\t// in\n    tag_79:\n      mload(0x40)\n      dup1\n      swap2\n      sub\n      swap1\n      revert\n    tag_78:\n        /* \"contracts/Voting2.sol\":3049:3053  true */\n      0x01\n        /* \"contracts/Voting2.sol\":3019:3025  voters */\n      dup1\n        /* \"contracts/Voting2.sol\":3019:3037  voters[msg.sender] */\n      0x00\n        /* \"contracts/Voting2.sol\":3026:3036  msg.sender */\n      caller\n        /* \"contracts/Voting2.sol\":3019:3037  voters[msg.sender] */\n      0xffffffffffffffffffffffffffffffffffffffff\n      and\n      0xffffffffffffffffffffffffffffffffffffffff\n      and\n      dup2\n      mstore\n      0x20\n      add\n      swap1\n      dup2\n      mstore\n      0x20\n      add\n      0x00\n      keccak256\n        /* \"contracts/Voting2.sol\":3019:3046  voters[msg.sender].hasVoted */\n      0x00\n      add\n      0x01\n        /* \"contracts/Voting2.sol\":3019:3053  voters[msg.sender].hasVoted = true */\n      0x0100\n      exp\n      dup2\n      sload\n      dup2\n      0xff\n      mul\n      not\n      and\n      swap1\n      dup4\n      iszero\n      iszero\n      mul\n      or\n      swap1\n      sstore\n      pop\n        /* \"contracts/Voting2.sol\":3101:3112  _proposalId */\n      dup1\n        /* \"contracts/Voting2.sol\":3064:3070  voters */\n      0x01\n        /* \"contracts/Voting2.sol\":3064:3082  voters[msg.sender] */\n      0x00\n        /* \"contracts/Voting2.sol\":3071:3081  msg.sender */\n      caller\n        /* \"contracts/Voting2.sol\":3064:3082  voters[msg.sender] */\n      0xffffffffffffffffffffffffffffffffffffffff\n      and\n      0xffffffffffffffffffffffffffffffffffffffff\n      and\n      dup2\n      mstore\n      0x20\n      add\n      swap1\n      dup2\n      mstore\n      0x20\n      add\n      0x00\n      keccak256\n        /* \"contracts/Voting2.sol\":3064:3098  voters[msg.sender].votedProposalId */\n      0x01\n      add\n        /* \"contracts/Voting2.sol\":3064:3112  voters[msg.sender].votedProposalId = _proposalId */\n      dup2\n      swap1\n      sstore\n      pop\n        /* \"contracts/Voting2.sol\":3125:3134  proposals */\n      0x02\n        /* \"contracts/Voting2.sol\":3135:3146  _proposalId */\n      dup2\n        /* \"contracts/Voting2.sol\":3125:3147  proposals[_proposalId] */\n      dup2\n      sload\n      dup2\n      lt\n      tag_81\n      jumpi\n      tag_82\n      tag_83\n      jump\t// in\n    tag_82:\n    tag_81:\n      swap1\n      0x00\n      mstore\n      keccak256(0x00, 0x20)\n      swap1\n      0x02\n      mul\n      add\n        /* \"contracts/Voting2.sol\":3125:3157  proposals[_proposalId].voteCount */\n      0x01\n      add\n      0x00\n        /* \"contracts/Voting2.sol\":3125:3159  proposals[_proposalId].voteCount++ */\n      dup2\n      sload\n      dup1\n      swap3\n      swap2\n      swap1\n      tag_85\n      swap1\n      tag_86\n      jump\t// in\n    tag_85:\n      swap2\n      swap1\n      pop\n      sstore\n      pop\n        /* \"contracts/Voting2.sol\":3177:3207  Voted(msg.sender, _proposalId) */\n      0x4d99b957a2bc29a30ebd96a7be8e68fe50a3c701db28a91436490b7d53870ca4\n        /* \"contracts/Voting2.sol\":3183:3193  msg.sender */\n      caller\n        /* \"contracts/Voting2.sol\":3195:3206  _proposalId */\n      dup3\n        /* \"contracts/Voting2.sol\":3177:3207  Voted(msg.sender, _proposalId) */\n      mload(0x40)\n      tag_87\n      swap3\n      swap2\n      swap1\n      tag_88\n      jump\t// in\n    tag_87:\n      mload(0x40)\n      dup1\n      swap2\n      sub\n      swap1\n      log1\n        /* \"contracts/Voting2.sol\":2551:3215  function vote(uint _proposalId) public {... */\n      pop\n      jump\t// out\n        /* \"contracts/Voting2.sol\":197:224  Proposal[] public proposals */\n    tag_24:\n      0x02\n      dup2\n      dup2\n      sload\n      dup2\n      lt\n      tag_89\n      jumpi\n      0x00\n      dup1\n      revert\n    tag_89:\n      swap1\n      0x00\n      mstore\n      keccak256(0x00, 0x20)\n      swap1\n      0x02\n      mul\n      add\n      0x00\n      swap2\n      pop\n      swap1\n      pop\n      dup1\n      0x00\n      add\n      dup1\n      sload\n      tag_91\n      swap1\n      tag_92\n      jump\t// in\n    tag_91:\n      dup1\n      0x1f\n      add\n      0x20\n      dup1\n      swap2\n      div\n      mul\n      0x20\n      add\n      mload(0x40)\n      swap1\n      dup2\n      add\n      0x40\n      mstore\n      dup1\n      swap3\n      swap2\n      swap1\n      dup2\n      dup2\n      mstore\n      0x20\n      add\n      dup3\n      dup1\n      sload\n      tag_93\n      swap1\n      tag_92\n      jump\t// in\n    tag_93:\n      dup1\n      iszero\n      tag_94\n      jumpi\n      dup1\n      0x1f\n      lt\n      tag_95\n      jumpi\n      0x0100\n      dup1\n      dup4\n      sload\n      div\n      mul\n      dup4\n      mstore\n      swap2\n      0x20\n      add\n      swap2\n      jump(tag_94)\n    tag_95:\n      dup3\n      add\n      swap2\n      swap1\n      0x00\n      mstore\n      keccak256(0x00, 0x20)\n      swap1\n    tag_96:\n      dup2\n      sload\n      dup2\n      mstore\n      swap1\n      0x01\n      add\n      swap1\n      0x20\n      add\n      dup1\n      dup4\n      gt\n      tag_96\n      jumpi\n      dup3\n      swap1\n      sub\n      0x1f\n      and\n      dup3\n      add\n      swap2\n    tag_94:\n      pop\n      pop\n      pop\n      pop\n      pop\n      swap1\n      dup1\n      0x01\n      add\n      sload\n      swap1\n      pop\n      dup3\n      jump\t// out\n        /* \"contracts/Voting2.sol\":1780:2283  function registerProposal(string memory _description) public {... */\n    tag_30:\n        /* \"contracts/Voting2.sol\":1892:1935  WorkflowStatus.ProposalsRegistrationStarted */\n      0x01\n        /* \"contracts/Voting2.sol\":1874:1935  workflowStatus == WorkflowStatus.ProposalsRegistrationStarted */\n      0x05\n      dup2\n      gt\n      iszero\n      tag_98\n      jumpi\n      tag_99\n      tag_66\n      jump\t// in\n    tag_99:\n    tag_98:\n        /* \"contracts/Voting2.sol\":1874:1888  workflowStatus */\n      0x03\n      0x00\n      swap1\n      sload\n      swap1\n      0x0100\n      exp\n      swap1\n      div\n      0xff\n      and\n        /* \"contracts/Voting2.sol\":1874:1935  workflowStatus == WorkflowStatus.ProposalsRegistrationStarted */\n      0x05\n      dup2\n      gt\n      iszero\n      tag_100\n      jumpi\n      tag_101\n      tag_66\n      jump\t// in\n    tag_101:\n    tag_100:\n      eq\n        /* \"contracts/Voting2.sol\":1852:2001  require(... */\n      tag_102\n      jumpi\n      mload(0x40)\n      0x08c379a000000000000000000000000000000000000000000000000000000000\n      dup2\n      mstore\n      0x04\n      add\n      tag_103\n      swap1\n      tag_104\n      jump\t// in\n    tag_103:\n      mload(0x40)\n      dup1\n      swap2\n      sub\n      swap1\n      revert\n    tag_102:\n        /* \"contracts/Voting2.sol\":2034:2040  voters */\n      0x01\n        /* \"contracts/Voting2.sol\":2034:2052  voters[msg.sender] */\n      0x00\n        /* \"contracts/Voting2.sol\":2041:2051  msg.sender */\n      caller\n        /* \"contracts/Voting2.sol\":2034:2052  voters[msg.sender] */\n      0xffffffffffffffffffffffffffffffffffffffff\n      and\n      0xffffffffffffffffffffffffffffffffffffffff\n      and\n      dup2\n      mstore\n      0x20\n      add\n      swap1\n      dup2\n      mstore\n      0x20\n      add\n      0x00\n      keccak256\n        /* \"contracts/Voting2.sol\":2034:2065  voters[msg.sender].isRegistered */\n      0x00\n      add\n      0x00\n      swap1\n      sload\n      swap1\n      0x0100\n      exp\n      swap1\n      div\n      0xff\n      and\n        /* \"contracts/Voting2.sol\":2012:2137  require(... */\n      tag_105\n      jumpi\n      mload(0x40)\n      0x08c379a000000000000000000000000000000000000000000000000000000000\n      dup2\n      mstore\n      0x04\n      add\n      tag_106\n      swap1\n      tag_107\n      jump\t// in\n    tag_106:\n      mload(0x40)\n      dup1\n      swap2\n      sub\n      swap1\n      revert\n    tag_105:\n        /* \"contracts/Voting2.sol\":2150:2159  proposals */\n      0x02\n        /* \"contracts/Voting2.sol\":2165:2216  Proposal({description: _description, voteCount: 0}) */\n      mload(0x40)\n      dup1\n      0x40\n      add\n      0x40\n      mstore\n      dup1\n        /* \"contracts/Voting2.sol\":2188:2200  _description */\n      dup4\n        /* \"contracts/Voting2.sol\":2165:2216  Proposal({description: _description, voteCount: 0}) */\n      dup2\n      mstore\n      0x20\n      add\n        /* \"contracts/Voting2.sol\":2213:2214  0 */\n      0x00\n        /* \"contracts/Voting2.sol\":2165:2216  Proposal({description: _description, voteCount: 0}) */\n      dup2\n      mstore\n      pop\n        /* \"contracts/Voting2.sol\":2150:2217  proposals.push(Proposal({description: _description, voteCount: 0})) */\n      swap1\n      dup1\n      0x01\n      dup2\n      sload\n      add\n      dup1\n      dup3\n      sstore\n      dup1\n      swap2\n      pop\n      pop\n      0x01\n      swap1\n      sub\n      swap1\n      0x00\n      mstore\n      keccak256(0x00, 0x20)\n      swap1\n      0x02\n      mul\n      add\n      0x00\n      swap1\n      swap2\n      swap1\n      swap2\n      swap1\n      swap2\n      pop\n      0x00\n      dup3\n      add\n      mload\n      dup2\n      0x00\n      add\n      swap1\n      dup2\n      tag_109\n      swap2\n      swap1\n      tag_110\n      jump\t// in\n    tag_109:\n      pop\n      0x20\n      dup3\n      add\n      mload\n      dup2\n      0x01\n      add\n      sstore\n      pop\n      pop\n        /* \"contracts/Voting2.sol\":2235:2275  ProposalRegistered(proposals.length - 1) */\n      0x92e393e9b54e2f801d3ea4beb0c5e71a21cc34a5d34b77d0fb8a3aa1650dc18f\n        /* \"contracts/Voting2.sol\":2273:2274  1 */\n      0x01\n        /* \"contracts/Voting2.sol\":2254:2263  proposals */\n      0x02\n        /* \"contracts/Voting2.sol\":2254:2270  proposals.length */\n      dup1\n      sload\n      swap1\n      pop\n        /* \"contracts/Voting2.sol\":2254:2274  proposals.length - 1 */\n      tag_111\n      swap2\n      swap1\n      tag_112\n      jump\t// in\n    tag_111:\n        /* \"contracts/Voting2.sol\":2235:2275  ProposalRegistered(proposals.length - 1) */\n      mload(0x40)\n      tag_113\n      swap2\n      swap1\n      tag_44\n      jump\t// in\n    tag_113:\n      mload(0x40)\n      dup1\n      swap2\n      sub\n      swap1\n      log1\n        /* \"contracts/Voting2.sol\":1780:2283  function registerProposal(string memory _description) public {... */\n      pop\n      jump\t// out\n        /* \"contracts/Voting2.sol\":961:1505  function registerVoter(address _voterAddress) public onlyOwner {... */\n    tag_34:\n        /* \"@openzeppelin/contracts/access/Ownable.sol\":1094:1107  _checkOwner() */\n      tag_115\n        /* \"@openzeppelin/contracts/access/Ownable.sol\":1094:1105  _checkOwner */\n      tag_116\n        /* \"@openzeppelin/contracts/access/Ownable.sol\":1094:1107  _checkOwner() */\n      jump\t// in\n    tag_115:\n        /* \"contracts/Voting2.sol\":1075:1107  WorkflowStatus.RegisteringVoters */\n      0x00\n        /* \"contracts/Voting2.sol\":1057:1107  workflowStatus == WorkflowStatus.RegisteringVoters */\n      0x05\n      dup2\n      gt\n      iszero\n      tag_118\n      jumpi\n      tag_119\n      tag_66\n      jump\t// in\n    tag_119:\n    tag_118:\n        /* \"contracts/Voting2.sol\":1057:1071  workflowStatus */\n      0x03\n      0x00\n      swap1\n      sload\n      swap1\n      0x0100\n      exp\n      swap1\n      div\n      0xff\n      and\n        /* \"contracts/Voting2.sol\":1057:1107  workflowStatus == WorkflowStatus.RegisteringVoters */\n      0x05\n      dup2\n      gt\n      iszero\n      tag_120\n      jumpi\n      tag_121\n      tag_66\n      jump\t// in\n    tag_121:\n    tag_120:\n      eq\n        /* \"contracts/Voting2.sol\":1035:1170  require(... */\n      tag_122\n      jumpi\n      mload(0x40)\n      0x08c379a000000000000000000000000000000000000000000000000000000000\n      dup2\n      mstore\n      0x04\n      add\n      tag_123\n      swap1\n      tag_124\n      jump\t// in\n    tag_123:\n      mload(0x40)\n      dup1\n      swap2\n      sub\n      swap1\n      revert\n    tag_122:\n        /* \"contracts/Voting2.sol\":1204:1210  voters */\n      0x01\n        /* \"contracts/Voting2.sol\":1204:1225  voters[_voterAddress] */\n      0x00\n        /* \"contracts/Voting2.sol\":1211:1224  _voterAddress */\n      dup3\n        /* \"contracts/Voting2.sol\":1204:1225  voters[_voterAddress] */\n      0xffffffffffffffffffffffffffffffffffffffff\n      and\n      0xffffffffffffffffffffffffffffffffffffffff\n      and\n      dup2\n      mstore\n      0x20\n      add\n      swap1\n      dup2\n      mstore\n      0x20\n      add\n      0x00\n      keccak256\n        /* \"contracts/Voting2.sol\":1204:1238  voters[_voterAddress].isRegistered */\n      0x00\n      add\n      0x00\n      swap1\n      sload\n      swap1\n      0x0100\n      exp\n      swap1\n      div\n      0xff\n      and\n        /* \"contracts/Voting2.sol\":1203:1238  !voters[_voterAddress].isRegistered */\n      iszero\n        /* \"contracts/Voting2.sol\":1181:1298  require(... */\n      tag_125\n      jumpi\n      mload(0x40)\n      0x08c379a000000000000000000000000000000000000000000000000000000000\n      dup2\n      mstore\n      0x04\n      add\n      tag_126\n      swap1\n      tag_127\n      jump\t// in\n    tag_126:\n      mload(0x40)\n      dup1\n      swap2\n      sub\n      swap1\n      revert\n    tag_125:\n        /* \"contracts/Voting2.sol\":1335:1449  Voter({... */\n      mload(0x40)\n      dup1\n      0x60\n      add\n      0x40\n      mstore\n      dup1\n        /* \"contracts/Voting2.sol\":1370:1374  true */\n      0x01\n        /* \"contracts/Voting2.sol\":1335:1449  Voter({... */\n      iszero\n      iszero\n      dup2\n      mstore\n      0x20\n      add\n        /* \"contracts/Voting2.sol\":1399:1404  false */\n      0x00\n        /* \"contracts/Voting2.sol\":1335:1449  Voter({... */\n      iszero\n      iszero\n      dup2\n      mstore\n      0x20\n      add\n        /* \"contracts/Voting2.sol\":1436:1437  0 */\n      0x00\n        /* \"contracts/Voting2.sol\":1335:1449  Voter({... */\n      dup2\n      mstore\n      pop\n        /* \"contracts/Voting2.sol\":1311:1317  voters */\n      0x01\n        /* \"contracts/Voting2.sol\":1311:1332  voters[_voterAddress] */\n      0x00\n        /* \"contracts/Voting2.sol\":1318:1331  _voterAddress */\n      dup4\n        /* \"contracts/Voting2.sol\":1311:1332  voters[_voterAddress] */\n      0xffffffffffffffffffffffffffffffffffffffff\n      and\n      0xffffffffffffffffffffffffffffffffffffffff\n      and\n      dup2\n      mstore\n      0x20\n      add\n      swap1\n      dup2\n      mstore\n      0x20\n      add\n      0x00\n      keccak256\n        /* \"contracts/Voting2.sol\":1311:1449  voters[_voterAddress] = Voter({... */\n      0x00\n      dup3\n      add\n      mload\n      dup2\n      0x00\n      add\n      exp(0x0100, 0x00)\n      dup2\n      sload\n      dup2\n      0xff\n      mul\n      not\n      and\n      swap1\n      dup4\n      iszero\n      iszero\n      mul\n      or\n      swap1\n      sstore\n      pop\n      0x20\n      dup3\n      add\n      mload\n      dup2\n      0x00\n      add\n      exp(0x0100, 0x01)\n      dup2\n      sload\n      dup2\n      0xff\n      mul\n      not\n      and\n      swap1\n      dup4\n      iszero\n      iszero\n      mul\n      or\n      swap1\n      sstore\n      pop\n      0x40\n      dup3\n      add\n      mload\n      dup2\n      0x01\n      add\n      sstore\n      swap1\n      pop\n      pop\n        /* \"contracts/Voting2.sol\":1467:1497  VoterRegistered(_voterAddress) */\n      0xb6be2187d059cc2a55fe29e0e503b566e1e0f8c8780096e185429350acffd3dd\n        /* \"contracts/Voting2.sol\":1483:1496  _voterAddress */\n      dup2\n        /* \"contracts/Voting2.sol\":1467:1497  VoterRegistered(_voterAddress) */\n      mload(0x40)\n      tag_128\n      swap2\n      swap1\n      tag_40\n      jump\t// in\n    tag_128:\n      mload(0x40)\n      dup1\n      swap2\n      sub\n      swap1\n      log1\n        /* \"contracts/Voting2.sol\":961:1505  function registerVoter(address _voterAddress) public onlyOwner {... */\n      pop\n      jump\t// out\n        /* \"@openzeppelin/contracts/access/Ownable.sol\":1824:1925  function renounceOwnership() public virtual onlyOwner {... */\n    tag_36:\n        /* \"@openzeppelin/contracts/access/Ownable.sol\":1094:1107  _checkOwner() */\n      tag_130\n        /* \"@openzeppelin/contracts/access/Ownable.sol\":1094:1105  _checkOwner */\n      tag_116\n        /* \"@openzeppelin/contracts/access/Ownable.sol\":1094:1107  _checkOwner() */\n      jump\t// in\n    tag_130:\n        /* \"@openzeppelin/contracts/access/Ownable.sol\":1888:1918  _transferOwnership(address(0)) */\n      tag_132\n        /* \"@openzeppelin/contracts/access/Ownable.sol\":1915:1916  0 */\n      0x00\n        /* \"@openzeppelin/contracts/access/Ownable.sol\":1888:1906  _transferOwnership */\n      tag_133\n        /* \"@openzeppelin/contracts/access/Ownable.sol\":1888:1918  _transferOwnership(address(0)) */\n      jump\t// in\n    tag_132:\n        /* \"@openzeppelin/contracts/access/Ownable.sol\":1824:1925  function renounceOwnership() public virtual onlyOwner {... */\n      jump\t// out\n        /* \"@openzeppelin/contracts/access/Ownable.sol\":1201:1286  function owner() public view virtual returns (address) {... */\n    tag_38:\n        /* \"@openzeppelin/contracts/access/Ownable.sol\":1247:1254  address */\n      0x00\n        /* \"@openzeppelin/contracts/access/Ownable.sol\":1273:1279  _owner */\n      dup1\n      0x00\n      swap1\n      sload\n      swap1\n      0x0100\n      exp\n      swap1\n      div\n      0xffffffffffffffffffffffffffffffffffffffff\n      and\n        /* \"@openzeppelin/contracts/access/Ownable.sol\":1266:1279  return _owner */\n      swap1\n      pop\n        /* \"@openzeppelin/contracts/access/Ownable.sol\":1201:1286  function owner() public view virtual returns (address) {... */\n      swap1\n      jump\t// out\n        /* \"contracts/Voting2.sol\":3465:3960  function getWinner() public view returns (uint winningProposalId) {... */\n    tag_42:\n        /* \"contracts/Voting2.sol\":3507:3529  uint winningProposalId */\n      0x00\n        /* \"contracts/Voting2.sol\":3582:3609  WorkflowStatus.VotesTallied */\n      0x05\n        /* \"contracts/Voting2.sol\":3564:3609  workflowStatus == WorkflowStatus.VotesTallied */\n      dup1\n      dup2\n      gt\n      iszero\n      tag_136\n      jumpi\n      tag_137\n      tag_66\n      jump\t// in\n    tag_137:\n    tag_136:\n        /* \"contracts/Voting2.sol\":3564:3578  workflowStatus */\n      0x03\n      0x00\n      swap1\n      sload\n      swap1\n      0x0100\n      exp\n      swap1\n      div\n      0xff\n      and\n        /* \"contracts/Voting2.sol\":3564:3609  workflowStatus == WorkflowStatus.VotesTallied */\n      0x05\n      dup2\n      gt\n      iszero\n      tag_138\n      jumpi\n      tag_139\n      tag_66\n      jump\t// in\n    tag_139:\n    tag_138:\n      eq\n        /* \"contracts/Voting2.sol\":3542:3671  require(... */\n      tag_140\n      jumpi\n      mload(0x40)\n      0x08c379a000000000000000000000000000000000000000000000000000000000\n      dup2\n      mstore\n      0x04\n      add\n      tag_141\n      swap1\n      tag_142\n      jump\t// in\n    tag_141:\n      mload(0x40)\n      dup1\n      swap2\n      sub\n      swap1\n      revert\n    tag_140:\n        /* \"contracts/Voting2.sol\":3684:3705  uint winningVoteCount */\n      0x00\n        /* \"contracts/Voting2.sol\":3725:3731  uint i */\n      dup1\n        /* \"contracts/Voting2.sol\":3720:3953  for (uint i = 0; i < proposals.length; i++) {... */\n    tag_143:\n        /* \"contracts/Voting2.sol\":3741:3750  proposals */\n      0x02\n        /* \"contracts/Voting2.sol\":3741:3757  proposals.length */\n      dup1\n      sload\n      swap1\n      pop\n        /* \"contracts/Voting2.sol\":3737:3738  i */\n      dup2\n        /* \"contracts/Voting2.sol\":3737:3757  i < proposals.length */\n      lt\n        /* \"contracts/Voting2.sol\":3720:3953  for (uint i = 0; i < proposals.length; i++) {... */\n      iszero\n      tag_144\n      jumpi\n        /* \"contracts/Voting2.sol\":3808:3824  winningVoteCount */\n      dup2\n        /* \"contracts/Voting2.sol\":3783:3792  proposals */\n      0x02\n        /* \"contracts/Voting2.sol\":3793:3794  i */\n      dup3\n        /* \"contracts/Voting2.sol\":3783:3795  proposals[i] */\n      dup2\n      sload\n      dup2\n      lt\n      tag_146\n      jumpi\n      tag_147\n      tag_83\n      jump\t// in\n    tag_147:\n    tag_146:\n      swap1\n      0x00\n      mstore\n      keccak256(0x00, 0x20)\n      swap1\n      0x02\n      mul\n      add\n        /* \"contracts/Voting2.sol\":3783:3805  proposals[i].voteCount */\n      0x01\n      add\n      sload\n        /* \"contracts/Voting2.sol\":3783:3824  proposals[i].voteCount > winningVoteCount */\n      gt\n        /* \"contracts/Voting2.sol\":3779:3942  if (proposals[i].voteCount > winningVoteCount) {... */\n      iszero\n      tag_149\n      jumpi\n        /* \"contracts/Voting2.sol\":3864:3873  proposals */\n      0x02\n        /* \"contracts/Voting2.sol\":3874:3875  i */\n      dup2\n        /* \"contracts/Voting2.sol\":3864:3876  proposals[i] */\n      dup2\n      sload\n      dup2\n      lt\n      tag_150\n      jumpi\n      tag_151\n      tag_83\n      jump\t// in\n    tag_151:\n    tag_150:\n      swap1\n      0x00\n      mstore\n      keccak256(0x00, 0x20)\n      swap1\n      0x02\n      mul\n      add\n        /* \"contracts/Voting2.sol\":3864:3886  proposals[i].voteCount */\n      0x01\n      add\n      sload\n        /* \"contracts/Voting2.sol\":3845:3886  winningVoteCount = proposals[i].voteCount */\n      swap2\n      pop\n        /* \"contracts/Voting2.sol\":3925:3926  i */\n      dup1\n        /* \"contracts/Voting2.sol\":3905:3926  winningProposalId = i */\n      swap3\n      pop\n        /* \"contracts/Voting2.sol\":3779:3942  if (proposals[i].voteCount > winningVoteCount) {... */\n    tag_149:\n        /* \"contracts/Voting2.sol\":3759:3762  i++ */\n      dup1\n      dup1\n      tag_153\n      swap1\n      tag_86\n      jump\t// in\n    tag_153:\n      swap2\n      pop\n      pop\n        /* \"contracts/Voting2.sol\":3720:3953  for (uint i = 0; i < proposals.length; i++) {... */\n      jump(tag_143)\n    tag_144:\n      pop\n        /* \"contracts/Voting2.sol\":3531:3960  {... */\n      pop\n        /* \"contracts/Voting2.sol\":3465:3960  function getWinner() public view returns (uint winningProposalId) {... */\n      swap1\n      jump\t// out\n        /* \"contracts/Voting2.sol\":231:267  WorkflowStatus public workflowStatus */\n    tag_46:\n      0x03\n      0x00\n      swap1\n      sload\n      swap1\n      0x0100\n      exp\n      swap1\n      div\n      0xff\n      and\n      dup2\n      jump\t// out\n        /* \"contracts/Voting2.sol\":151:190  mapping(address => Voter) public voters */\n    tag_51:\n      mstore(0x20, 0x01)\n      dup1\n      0x00\n      mstore\n      keccak256(0x00, 0x40)\n      0x00\n      swap2\n      pop\n      swap1\n      pop\n      dup1\n      0x00\n      add\n      0x00\n      swap1\n      sload\n      swap1\n      0x0100\n      exp\n      swap1\n      div\n      0xff\n      and\n      swap1\n      dup1\n      0x00\n      add\n      0x01\n      swap1\n      sload\n      swap1\n      0x0100\n      exp\n      swap1\n      div\n      0xff\n      and\n      swap1\n      dup1\n      0x01\n      add\n      sload\n      swap1\n      pop\n      dup4\n      jump\t// out\n        /* \"contracts/Voting2.sol\":3223:3457  function endVotingSession() public onlyOwner {... */\n    tag_55:\n        /* \"@openzeppelin/contracts/access/Ownable.sol\":1094:1107  _checkOwner() */\n      tag_155\n        /* \"@openzeppelin/contracts/access/Ownable.sol\":1094:1105  _checkOwner */\n      tag_116\n        /* \"@openzeppelin/contracts/access/Ownable.sol\":1094:1107  _checkOwner() */\n      jump\t// in\n    tag_155:\n        /* \"contracts/Voting2.sol\":3296:3323  WorkflowStatus.VotesTallied */\n      0x05\n        /* \"contracts/Voting2.sol\":3279:3293  workflowStatus */\n      0x03\n      0x00\n        /* \"contracts/Voting2.sol\":3279:3323  workflowStatus = WorkflowStatus.VotesTallied */\n      0x0100\n      exp\n      dup2\n      sload\n      dup2\n      0xff\n      mul\n      not\n      and\n      swap1\n      dup4\n      0x05\n      dup2\n      gt\n      iszero\n      tag_157\n      jumpi\n      tag_158\n      tag_66\n      jump\t// in\n    tag_158:\n    tag_157:\n      mul\n      or\n      swap1\n      sstore\n      pop\n        /* \"contracts/Voting2.sol\":3341:3449  WorkflowStatusChange(... */\n      0x0a97a4ee45751e2abf3e4fc8946939630b11b371ea8ae39ccdc3056e98f5cc3f\n        /* \"contracts/Voting2.sol\":3376:3409  WorkflowStatus.VotingSessionEnded */\n      0x04\n        /* \"contracts/Voting2.sol\":3424:3438  workflowStatus */\n      0x03\n      0x00\n      swap1\n      sload\n      swap1\n      0x0100\n      exp\n      swap1\n      div\n      0xff\n      and\n        /* \"contracts/Voting2.sol\":3341:3449  WorkflowStatusChange(... */\n      mload(0x40)\n      tag_159\n      swap3\n      swap2\n      swap1\n      tag_160\n      jump\t// in\n    tag_159:\n      mload(0x40)\n      dup1\n      swap2\n      sub\n      swap1\n      log1\n        /* \"contracts/Voting2.sol\":3223:3457  function endVotingSession() public onlyOwner {... */\n      jump\t// out\n        /* \"contracts/Voting2.sol\":1513:1772  function startProposalsRegistration() public onlyOwner {... */\n    tag_57:\n        /* \"@openzeppelin/contracts/access/Ownable.sol\":1094:1107  _checkOwner() */\n      tag_162\n        /* \"@openzeppelin/contracts/access/Ownable.sol\":1094:1105  _checkOwner */\n      tag_116\n        /* \"@openzeppelin/contracts/access/Ownable.sol\":1094:1107  _checkOwner() */\n      jump\t// in\n    tag_162:\n        /* \"contracts/Voting2.sol\":1596:1639  WorkflowStatus.ProposalsRegistrationStarted */\n      0x01\n        /* \"contracts/Voting2.sol\":1579:1593  workflowStatus */\n      0x03\n      0x00\n        /* \"contracts/Voting2.sol\":1579:1639  workflowStatus = WorkflowStatus.ProposalsRegistrationStarted */\n      0x0100\n      exp\n      dup2\n      sload\n      dup2\n      0xff\n      mul\n      not\n      and\n      swap1\n      dup4\n      0x05\n      dup2\n      gt\n      iszero\n      tag_164\n      jumpi\n      tag_165\n      tag_66\n      jump\t// in\n    tag_165:\n    tag_164:\n      mul\n      or\n      swap1\n      sstore\n      pop\n        /* \"contracts/Voting2.sol\":1657:1764  WorkflowStatusChange(... */\n      0x0a97a4ee45751e2abf3e4fc8946939630b11b371ea8ae39ccdc3056e98f5cc3f\n        /* \"contracts/Voting2.sol\":1692:1724  WorkflowStatus.RegisteringVoters */\n      0x00\n        /* \"contracts/Voting2.sol\":1739:1753  workflowStatus */\n      0x03\n      0x00\n      swap1\n      sload\n      swap1\n      0x0100\n      exp\n      swap1\n      div\n      0xff\n      and\n        /* \"contracts/Voting2.sol\":1657:1764  WorkflowStatusChange(... */\n      mload(0x40)\n      tag_166\n      swap3\n      swap2\n      swap1\n      tag_160\n      jump\t// in\n    tag_166:\n      mload(0x40)\n      dup1\n      swap2\n      sub\n      swap1\n      log1\n        /* \"contracts/Voting2.sol\":1513:1772  function startProposalsRegistration() public onlyOwner {... */\n      jump\t// out\n        /* \"contracts/Voting2.sol\":2291:2543  function startVotingSession() public onlyOwner {... */\n    tag_59:\n        /* \"@openzeppelin/contracts/access/Ownable.sol\":1094:1107  _checkOwner() */\n      tag_168\n        /* \"@openzeppelin/contracts/access/Ownable.sol\":1094:1105  _checkOwner */\n      tag_116\n        /* \"@openzeppelin/contracts/access/Ownable.sol\":1094:1107  _checkOwner() */\n      jump\t// in\n    tag_168:\n        /* \"contracts/Voting2.sol\":2366:2401  WorkflowStatus.VotingSessionStarted */\n      0x03\n        /* \"contracts/Voting2.sol\":2349:2363  workflowStatus */\n      dup1\n      0x00\n        /* \"contracts/Voting2.sol\":2349:2401  workflowStatus = WorkflowStatus.VotingSessionStarted */\n      0x0100\n      exp\n      dup2\n      sload\n      dup2\n      0xff\n      mul\n      not\n      and\n      swap1\n      dup4\n      0x05\n      dup2\n      gt\n      iszero\n      tag_170\n      jumpi\n      tag_171\n      tag_66\n      jump\t// in\n    tag_171:\n    tag_170:\n      mul\n      or\n      swap1\n      sstore\n      pop\n        /* \"contracts/Voting2.sol\":2419:2535  WorkflowStatusChange(... */\n      0x0a97a4ee45751e2abf3e4fc8946939630b11b371ea8ae39ccdc3056e98f5cc3f\n        /* \"contracts/Voting2.sol\":2454:2495  WorkflowStatus.ProposalsRegistrationEnded */\n      0x02\n        /* \"contracts/Voting2.sol\":2510:2524  workflowStatus */\n      0x03\n      0x00\n      swap1\n      sload\n      swap1\n      0x0100\n      exp\n      swap1\n      div\n      0xff\n      and\n        /* \"contracts/Voting2.sol\":2419:2535  WorkflowStatusChange(... */\n      mload(0x40)\n      tag_172\n      swap3\n      swap2\n      swap1\n      tag_160\n      jump\t// in\n    tag_172:\n      mload(0x40)\n      dup1\n      swap2\n      sub\n      swap1\n      log1\n        /* \"contracts/Voting2.sol\":2291:2543  function startVotingSession() public onlyOwner {... */\n      jump\t// out\n        /* \"@openzeppelin/contracts/access/Ownable.sol\":2074:2272  function transferOwnership(address newOwner) public virtual onlyOwner {... */\n    tag_62:\n        /* \"@openzeppelin/contracts/access/Ownable.sol\":1094:1107  _checkOwner() */\n      tag_174\n        /* \"@openzeppelin/contracts/access/Ownable.sol\":1094:1105  _checkOwner */\n      tag_116\n        /* \"@openzeppelin/contracts/access/Ownable.sol\":1094:1107  _checkOwner() */\n      jump\t// in\n    tag_174:\n        /* \"@openzeppelin/contracts/access/Ownable.sol\":2182:2183  0 */\n      0x00\n        /* \"@openzeppelin/contracts/access/Ownable.sol\":2162:2184  newOwner != address(0) */\n      0xffffffffffffffffffffffffffffffffffffffff\n      and\n        /* \"@openzeppelin/contracts/access/Ownable.sol\":2162:2170  newOwner */\n      dup2\n        /* \"@openzeppelin/contracts/access/Ownable.sol\":2162:2184  newOwner != address(0) */\n      0xffffffffffffffffffffffffffffffffffffffff\n      and\n      sub\n        /* \"@openzeppelin/contracts/access/Ownable.sol\":2154:2227  require(newOwner != address(0), \"Ownable: new owner is the zero address\") */\n      tag_176\n      jumpi\n      mload(0x40)\n      0x08c379a000000000000000000000000000000000000000000000000000000000\n      dup2\n      mstore\n      0x04\n      add\n      tag_177\n      swap1\n      tag_178\n      jump\t// in\n    tag_177:\n      mload(0x40)\n      dup1\n      swap2\n      sub\n      swap1\n      revert\n    tag_176:\n        /* \"@openzeppelin/contracts/access/Ownable.sol\":2237:2265  _transferOwnership(newOwner) */\n      tag_179\n        /* \"@openzeppelin/contracts/access/Ownable.sol\":2256:2264  newOwner */\n      dup2\n        /* \"@openzeppelin/contracts/access/Ownable.sol\":2237:2255  _transferOwnership */\n      tag_133\n        /* \"@openzeppelin/contracts/access/Ownable.sol\":2237:2265  _transferOwnership(newOwner) */\n      jump\t// in\n    tag_179:\n        /* \"@openzeppelin/contracts/access/Ownable.sol\":2074:2272  function transferOwnership(address newOwner) public virtual onlyOwner {... */\n      pop\n      jump\t// out\n        /* \"@openzeppelin/contracts/access/Ownable.sol\":1359:1489  function _checkOwner() internal view virtual {... */\n    tag_116:\n        /* \"@openzeppelin/contracts/access/Ownable.sol\":1433:1445  _msgSender() */\n      tag_181\n        /* \"@openzeppelin/contracts/access/Ownable.sol\":1433:1443  _msgSender */\n      tag_182\n        /* \"@openzeppelin/contracts/access/Ownable.sol\":1433:1445  _msgSender() */\n      jump\t// in\n    tag_181:\n        /* \"@openzeppelin/contracts/access/Ownable.sol\":1422:1445  owner() == _msgSender() */\n      0xffffffffffffffffffffffffffffffffffffffff\n      and\n        /* \"@openzeppelin/contracts/access/Ownable.sol\":1422:1429  owner() */\n      tag_183\n        /* \"@openzeppelin/contracts/access/Ownable.sol\":1422:1427  owner */\n      tag_38\n        /* \"@openzeppelin/contracts/access/Ownable.sol\":1422:1429  owner() */\n      jump\t// in\n    tag_183:\n        /* \"@openzeppelin/contracts/access/Ownable.sol\":1422:1445  owner() == _msgSender() */\n      0xffffffffffffffffffffffffffffffffffffffff\n      and\n      eq\n        /* \"@openzeppelin/contracts/access/Ownable.sol\":1414:1482  require(owner() == _msgSender(), \"Ownable: caller is not the owner\") */\n      tag_184\n      jumpi\n      mload(0x40)\n      0x08c379a000000000000000000000000000000000000000000000000000000000\n      dup2\n      mstore\n      0x04\n      add\n      tag_185\n      swap1\n      tag_186\n      jump\t// in\n    tag_185:\n      mload(0x40)\n      dup1\n      swap2\n      sub\n      swap1\n      revert\n    tag_184:\n        /* \"@openzeppelin/contracts/access/Ownable.sol\":1359:1489  function _checkOwner() internal view virtual {... */\n      jump\t// out\n        /* \"@openzeppelin/contracts/access/Ownable.sol\":2426:2613  function _transferOwnership(address newOwner) internal virtual {... */\n    tag_133:\n        /* \"@openzeppelin/contracts/access/Ownable.sol\":2499:2515  address oldOwner */\n      0x00\n        /* \"@openzeppelin/contracts/access/Ownable.sol\":2518:2524  _owner */\n      dup1\n      0x00\n      swap1\n      sload\n      swap1\n      0x0100\n      exp\n      swap1\n      div\n      0xffffffffffffffffffffffffffffffffffffffff\n      and\n        /* \"@openzeppelin/contracts/access/Ownable.sol\":2499:2524  address oldOwner = _owner */\n      swap1\n      pop\n        /* \"@openzeppelin/contracts/access/Ownable.sol\":2543:2551  newOwner */\n      dup2\n        /* \"@openzeppelin/contracts/access/Ownable.sol\":2534:2540  _owner */\n      0x00\n      dup1\n        /* \"@openzeppelin/contracts/access/Ownable.sol\":2534:2551  _owner = newOwner */\n      0x0100\n      exp\n      dup2\n      sload\n      dup2\n      0xffffffffffffffffffffffffffffffffffffffff\n      mul\n      not\n      and\n      swap1\n      dup4\n      0xffffffffffffffffffffffffffffffffffffffff\n      and\n      mul\n      or\n      swap1\n      sstore\n      pop\n        /* \"@openzeppelin/contracts/access/Ownable.sol\":2597:2605  newOwner */\n      dup2\n        /* \"@openzeppelin/contracts/access/Ownable.sol\":2566:2606  OwnershipTransferred(oldOwner, newOwner) */\n      0xffffffffffffffffffffffffffffffffffffffff\n      and\n        /* \"@openzeppelin/contracts/access/Ownable.sol\":2587:2595  oldOwner */\n      dup2\n        /* \"@openzeppelin/contracts/access/Ownable.sol\":2566:2606  OwnershipTransferred(oldOwner, newOwner) */\n      0xffffffffffffffffffffffffffffffffffffffff\n      and\n      0x8be0079c531659141344cd1fd0a4f28419497f9722a3daafe3b4186f6b6457e0\n      mload(0x40)\n      mload(0x40)\n      dup1\n      swap2\n      sub\n      swap1\n      log3\n        /* \"@openzeppelin/contracts/access/Ownable.sol\":2489:2613  {... */\n      pop\n        /* \"@openzeppelin/contracts/access/Ownable.sol\":2426:2613  function _transferOwnership(address newOwner) internal virtual {... */\n      pop\n      jump\t// out\n        /* \"@openzeppelin/contracts/utils/Context.sol\":640:736  function _msgSender() internal view virtual returns (address) {... */\n    tag_182:\n        /* \"@openzeppelin/contracts/utils/Context.sol\":693:700  address */\n      0x00\n        /* \"@openzeppelin/contracts/utils/Context.sol\":719:729  msg.sender */\n      caller\n        /* \"@openzeppelin/contracts/utils/Context.sol\":712:729  return msg.sender */\n      swap1\n      pop\n        /* \"@openzeppelin/contracts/utils/Context.sol\":640:736  function _msgSender() internal view virtual returns (address) {... */\n      swap1\n      jump\t// out\n        /* \"#utility.yul\":7:82   */\n    tag_189:\n        /* \"#utility.yul\":40:46   */\n      0x00\n        /* \"#utility.yul\":73:75   */\n      0x40\n        /* \"#utility.yul\":67:76   */\n      mload\n        /* \"#utility.yul\":57:76   */\n      swap1\n      pop\n        /* \"#utility.yul\":7:82   */\n      swap1\n      jump\t// out\n        /* \"#utility.yul\":88:205   */\n    tag_190:\n        /* \"#utility.yul\":197:198   */\n      0x00\n        /* \"#utility.yul\":194:195   */\n      dup1\n        /* \"#utility.yul\":187:199   */\n      revert\n        /* \"#utility.yul\":211:328   */\n    tag_191:\n        /* \"#utility.yul\":320:321   */\n      0x00\n        /* \"#utility.yul\":317:318   */\n      dup1\n        /* \"#utility.yul\":310:322   */\n      revert\n        /* \"#utility.yul\":334:411   */\n    tag_192:\n        /* \"#utility.yul\":371:378   */\n      0x00\n        /* \"#utility.yul\":400:405   */\n      dup2\n        /* \"#utility.yul\":389:405   */\n      swap1\n      pop\n        /* \"#utility.yul\":334:411   */\n      swap2\n      swap1\n      pop\n      jump\t// out\n        /* \"#utility.yul\":417:539   */\n    tag_193:\n        /* \"#utility.yul\":490:514   */\n      tag_266\n        /* \"#utility.yul\":508:513   */\n      dup2\n        /* \"#utility.yul\":490:514   */\n      tag_192\n      jump\t// in\n    tag_266:\n        /* \"#utility.yul\":483:488   */\n      dup2\n        /* \"#utility.yul\":480:515   */\n      eq\n        /* \"#utility.yul\":470:533   */\n      tag_267\n      jumpi\n        /* \"#utility.yul\":529:530   */\n      0x00\n        /* \"#utility.yul\":526:527   */\n      dup1\n        /* \"#utility.yul\":519:531   */\n      revert\n        /* \"#utility.yul\":470:533   */\n    tag_267:\n        /* \"#utility.yul\":417:539   */\n      pop\n      jump\t// out\n        /* \"#utility.yul\":545:684   */\n    tag_194:\n        /* \"#utility.yul\":591:596   */\n      0x00\n        /* \"#utility.yul\":629:635   */\n      dup2\n        /* \"#utility.yul\":616:636   */\n      calldataload\n        /* \"#utility.yul\":607:636   */\n      swap1\n      pop\n        /* \"#utility.yul\":645:678   */\n      tag_269\n        /* \"#utility.yul\":672:677   */\n      dup2\n        /* \"#utility.yul\":645:678   */\n      tag_193\n      jump\t// in\n    tag_269:\n        /* \"#utility.yul\":545:684   */\n      swap3\n      swap2\n      pop\n      pop\n      jump\t// out\n        /* \"#utility.yul\":690:1019   */\n    tag_20:\n        /* \"#utility.yul\":749:755   */\n      0x00\n        /* \"#utility.yul\":798:800   */\n      0x20\n        /* \"#utility.yul\":786:795   */\n      dup3\n        /* \"#utility.yul\":777:784   */\n      dup5\n        /* \"#utility.yul\":773:796   */\n      sub\n        /* \"#utility.yul\":769:801   */\n      slt\n        /* \"#utility.yul\":766:885   */\n      iszero\n      tag_271\n      jumpi\n        /* \"#utility.yul\":804:883   */\n      tag_272\n      tag_190\n      jump\t// in\n    tag_272:\n        /* \"#utility.yul\":766:885   */\n    tag_271:\n        /* \"#utility.yul\":924:925   */\n      0x00\n        /* \"#utility.yul\":949:1002   */\n      tag_273\n        /* \"#utility.yul\":994:1001   */\n      dup5\n        /* \"#utility.yul\":985:991   */\n      dup3\n        /* \"#utility.yul\":974:983   */\n      dup6\n        /* \"#utility.yul\":970:992   */\n      add\n        /* \"#utility.yul\":949:1002   */\n      tag_194\n      jump\t// in\n    tag_273:\n        /* \"#utility.yul\":939:1002   */\n      swap2\n      pop\n        /* \"#utility.yul\":895:1012   */\n      pop\n        /* \"#utility.yul\":690:1019   */\n      swap3\n      swap2\n      pop\n      pop\n      jump\t// out\n        /* \"#utility.yul\":1025:1124   */\n    tag_195:\n        /* \"#utility.yul\":1077:1083   */\n      0x00\n        /* \"#utility.yul\":1111:1116   */\n      dup2\n        /* \"#utility.yul\":1105:1117   */\n      mload\n        /* \"#utility.yul\":1095:1117   */\n      swap1\n      pop\n        /* \"#utility.yul\":1025:1124   */\n      swap2\n      swap1\n      pop\n      jump\t// out\n        /* \"#utility.yul\":1130:1299   */\n    tag_196:\n        /* \"#utility.yul\":1214:1225   */\n      0x00\n        /* \"#utility.yul\":1248:1254   */\n      dup3\n        /* \"#utility.yul\":1243:1246   */\n      dup3\n        /* \"#utility.yul\":1236:1255   */\n      mstore\n        /* \"#utility.yul\":1288:1292   */\n      0x20\n        /* \"#utility.yul\":1283:1286   */\n      dup3\n        /* \"#utility.yul\":1279:1293   */\n      add\n        /* \"#utility.yul\":1264:1293   */\n      swap1\n      pop\n        /* \"#utility.yul\":1130:1299   */\n      swap3\n      swap2\n      pop\n      pop\n      jump\t// out\n        /* \"#utility.yul\":1305:1551   */\n    tag_197:\n        /* \"#utility.yul\":1386:1387   */\n      0x00\n        /* \"#utility.yul\":1396:1509   */\n    tag_277:\n        /* \"#utility.yul\":1410:1416   */\n      dup4\n        /* \"#utility.yul\":1407:1408   */\n      dup2\n        /* \"#utility.yul\":1404:1417   */\n      lt\n        /* \"#utility.yul\":1396:1509   */\n      iszero\n      tag_279\n      jumpi\n        /* \"#utility.yul\":1495:1496   */\n      dup1\n        /* \"#utility.yul\":1490:1493   */\n      dup3\n        /* \"#utility.yul\":1486:1497   */\n      add\n        /* \"#utility.yul\":1480:1498   */\n      mload\n        /* \"#utility.yul\":1476:1477   */\n      dup2\n        /* \"#utility.yul\":1471:1474   */\n      dup5\n        /* \"#utility.yul\":1467:1478   */\n      add\n        /* \"#utility.yul\":1460:1499   */\n      mstore\n        /* \"#utility.yul\":1432:1434   */\n      0x20\n        /* \"#utility.yul\":1429:1430   */\n      dup2\n        /* \"#utility.yul\":1425:1435   */\n      add\n        /* \"#utility.yul\":1420:1435   */\n      swap1\n      pop\n        /* \"#utility.yul\":1396:1509   */\n      jump(tag_277)\n    tag_279:\n        /* \"#utility.yul\":1543:1544   */\n      0x00\n        /* \"#utility.yul\":1534:1540   */\n      dup5\n        /* \"#utility.yul\":1529:1532   */\n      dup5\n        /* \"#utility.yul\":1525:1541   */\n      add\n        /* \"#utility.yul\":1518:1545   */\n      mstore\n        /* \"#utility.yul\":1367:1551   */\n      pop\n        /* \"#utility.yul\":1305:1551   */\n      pop\n      pop\n      pop\n      jump\t// out\n        /* \"#utility.yul\":1557:1659   */\n    tag_198:\n        /* \"#utility.yul\":1598:1604   */\n      0x00\n        /* \"#utility.yul\":1649:1651   */\n      0x1f\n        /* \"#utility.yul\":1645:1652   */\n      not\n        /* \"#utility.yul\":1640:1642   */\n      0x1f\n        /* \"#utility.yul\":1633:1638   */\n      dup4\n        /* \"#utility.yul\":1629:1643   */\n      add\n        /* \"#utility.yul\":1625:1653   */\n      and\n        /* \"#utility.yul\":1615:1653   */\n      swap1\n      pop\n        /* \"#utility.yul\":1557:1659   */\n      swap2\n      swap1\n      pop\n      jump\t// out\n        /* \"#utility.yul\":1665:2042   */\n    tag_199:\n        /* \"#utility.yul\":1753:1756   */\n      0x00\n        /* \"#utility.yul\":1781:1820   */\n      tag_282\n        /* \"#utility.yul\":1814:1819   */\n      dup3\n        /* \"#utility.yul\":1781:1820   */\n      tag_195\n      jump\t// in\n    tag_282:\n        /* \"#utility.yul\":1836:1907   */\n      tag_283\n        /* \"#utility.yul\":1900:1906   */\n      dup2\n        /* \"#utility.yul\":1895:1898   */\n      dup6\n        /* \"#utility.yul\":1836:1907   */\n      tag_196\n      jump\t// in\n    tag_283:\n        /* \"#utility.yul\":1829:1907   */\n      swap4\n      pop\n        /* \"#utility.yul\":1916:1981   */\n      tag_284\n        /* \"#utility.yul\":1974:1980   */\n      dup2\n        /* \"#utility.yul\":1969:1972   */\n      dup6\n        /* \"#utility.yul\":1962:1966   */\n      0x20\n        /* \"#utility.yul\":1955:1960   */\n      dup7\n        /* \"#utility.yul\":1951:1967   */\n      add\n        /* \"#utility.yul\":1916:1981   */\n      tag_197\n      jump\t// in\n    tag_284:\n        /* \"#utility.yul\":2006:2035   */\n      tag_285\n        /* \"#utility.yul\":2028:2034   */\n      dup2\n        /* \"#utility.yul\":2006:2035   */\n      tag_198\n      jump\t// in\n    tag_285:\n        /* \"#utility.yul\":2001:2004   */\n      dup5\n        /* \"#utility.yul\":1997:2036   */\n      add\n        /* \"#utility.yul\":1990:2036   */\n      swap2\n      pop\n        /* \"#utility.yul\":1757:2042   */\n      pop\n        /* \"#utility.yul\":1665:2042   */\n      swap3\n      swap2\n      pop\n      pop\n      jump\t// out\n        /* \"#utility.yul\":2048:2166   */\n    tag_200:\n        /* \"#utility.yul\":2135:2159   */\n      tag_287\n        /* \"#utility.yul\":2153:2158   */\n      dup2\n        /* \"#utility.yul\":2135:2159   */\n      tag_192\n      jump\t// in\n    tag_287:\n        /* \"#utility.yul\":2130:2133   */\n      dup3\n        /* \"#utility.yul\":2123:2160   */\n      mstore\n        /* \"#utility.yul\":2048:2166   */\n      pop\n      pop\n      jump\t// out\n        /* \"#utility.yul\":2172:2595   */\n    tag_26:\n        /* \"#utility.yul\":2313:2317   */\n      0x00\n        /* \"#utility.yul\":2351:2353   */\n      0x40\n        /* \"#utility.yul\":2340:2349   */\n      dup3\n        /* \"#utility.yul\":2336:2354   */\n      add\n        /* \"#utility.yul\":2328:2354   */\n      swap1\n      pop\n        /* \"#utility.yul\":2400:2409   */\n      dup2\n        /* \"#utility.yul\":2394:2398   */\n      dup2\n        /* \"#utility.yul\":2390:2410   */\n      sub\n        /* \"#utility.yul\":2386:2387   */\n      0x00\n        /* \"#utility.yul\":2375:2384   */\n      dup4\n        /* \"#utility.yul\":2371:2388   */\n      add\n        /* \"#utility.yul\":2364:2411   */\n      mstore\n        /* \"#utility.yul\":2428:2506   */\n      tag_289\n        /* \"#utility.yul\":2501:2505   */\n      dup2\n        /* \"#utility.yul\":2492:2498   */\n      dup6\n        /* \"#utility.yul\":2428:2506   */\n      tag_199\n      jump\t// in\n    tag_289:\n        /* \"#utility.yul\":2420:2506   */\n      swap1\n      pop\n        /* \"#utility.yul\":2516:2588   */\n      tag_290\n        /* \"#utility.yul\":2584:2586   */\n      0x20\n        /* \"#utility.yul\":2573:2582   */\n      dup4\n        /* \"#utility.yul\":2569:2587   */\n      add\n        /* \"#utility.yul\":2560:2566   */\n      dup5\n        /* \"#utility.yul\":2516:2588   */\n      tag_200\n      jump\t// in\n    tag_290:\n        /* \"#utility.yul\":2172:2595   */\n      swap4\n      swap3\n      pop\n      pop\n      pop\n      jump\t// out\n        /* \"#utility.yul\":2601:2718   */\n    tag_201:\n        /* \"#utility.yul\":2710:2711   */\n      0x00\n        /* \"#utility.yul\":2707:2708   */\n      dup1\n        /* \"#utility.yul\":2700:2712   */\n      revert\n        /* \"#utility.yul\":2724:2841   */\n    tag_202:\n        /* \"#utility.yul\":2833:2834   */\n      0x00\n        /* \"#utility.yul\":2830:2831   */\n      dup1\n        /* \"#utility.yul\":2823:2835   */\n      revert\n        /* \"#utility.yul\":2847:3027   */\n    tag_203:\n        /* \"#utility.yul\":2895:2972   */\n      0x4e487b7100000000000000000000000000000000000000000000000000000000\n        /* \"#utility.yul\":2892:2893   */\n      0x00\n        /* \"#utility.yul\":2885:2973   */\n      mstore\n        /* \"#utility.yul\":2992:2996   */\n      0x41\n        /* \"#utility.yul\":2989:2990   */\n      0x04\n        /* \"#utility.yul\":2982:2997   */\n      mstore\n        /* \"#utility.yul\":3016:3020   */\n      0x24\n        /* \"#utility.yul\":3013:3014   */\n      0x00\n        /* \"#utility.yul\":3006:3021   */\n      revert\n        /* \"#utility.yul\":3033:3314   */\n    tag_204:\n        /* \"#utility.yul\":3116:3143   */\n      tag_295\n        /* \"#utility.yul\":3138:3142   */\n      dup3\n        /* \"#utility.yul\":3116:3143   */\n      tag_198\n      jump\t// in\n    tag_295:\n        /* \"#utility.yul\":3108:3114   */\n      dup2\n        /* \"#utility.yul\":3104:3144   */\n      add\n        /* \"#utility.yul\":3246:3252   */\n      dup2\n        /* \"#utility.yul\":3234:3244   */\n      dup2\n        /* \"#utility.yul\":3231:3253   */\n      lt\n        /* \"#utility.yul\":3210:3228   */\n      0xffffffffffffffff\n        /* \"#utility.yul\":3198:3208   */\n      dup3\n        /* \"#utility.yul\":3195:3229   */\n      gt\n        /* \"#utility.yul\":3192:3254   */\n      or\n        /* \"#utility.yul\":3189:3277   */\n      iszero\n      tag_296\n      jumpi\n        /* \"#utility.yul\":3257:3275   */\n      tag_297\n      tag_203\n      jump\t// in\n    tag_297:\n        /* \"#utility.yul\":3189:3277   */\n    tag_296:\n        /* \"#utility.yul\":3297:3307   */\n      dup1\n        /* \"#utility.yul\":3293:3295   */\n      0x40\n        /* \"#utility.yul\":3286:3308   */\n      mstore\n        /* \"#utility.yul\":3076:3314   */\n      pop\n        /* \"#utility.yul\":3033:3314   */\n      pop\n      pop\n      jump\t// out\n        /* \"#utility.yul\":3320:3449   */\n    tag_205:\n        /* \"#utility.yul\":3354:3360   */\n      0x00\n        /* \"#utility.yul\":3381:3401   */\n      tag_299\n      tag_189\n      jump\t// in\n    tag_299:\n        /* \"#utility.yul\":3371:3401   */\n      swap1\n      pop\n        /* \"#utility.yul\":3410:3443   */\n      tag_300\n        /* \"#utility.yul\":3438:3442   */\n      dup3\n        /* \"#utility.yul\":3430:3436   */\n      dup3\n        /* \"#utility.yul\":3410:3443   */\n      tag_204\n      jump\t// in\n    tag_300:\n        /* \"#utility.yul\":3320:3449   */\n      swap2\n      swap1\n      pop\n      jump\t// out\n        /* \"#utility.yul\":3455:3763   */\n    tag_206:\n        /* \"#utility.yul\":3517:3521   */\n      0x00\n        /* \"#utility.yul\":3607:3625   */\n      0xffffffffffffffff\n        /* \"#utility.yul\":3599:3605   */\n      dup3\n        /* \"#utility.yul\":3596:3626   */\n      gt\n        /* \"#utility.yul\":3593:3649   */\n      iszero\n      tag_302\n      jumpi\n        /* \"#utility.yul\":3629:3647   */\n      tag_303\n      tag_203\n      jump\t// in\n    tag_303:\n        /* \"#utility.yul\":3593:3649   */\n    tag_302:\n        /* \"#utility.yul\":3667:3696   */\n      tag_304\n        /* \"#utility.yul\":3689:3695   */\n      dup3\n        /* \"#utility.yul\":3667:3696   */\n      tag_198\n      jump\t// in\n    tag_304:\n        /* \"#utility.yul\":3659:3696   */\n      swap1\n      pop\n        /* \"#utility.yul\":3751:3755   */\n      0x20\n        /* \"#utility.yul\":3745:3749   */\n      dup2\n        /* \"#utility.yul\":3741:3756   */\n      add\n        /* \"#utility.yul\":3733:3756   */\n      swap1\n      pop\n        /* \"#utility.yul\":3455:3763   */\n      swap2\n      swap1\n      pop\n      jump\t// out\n        /* \"#utility.yul\":3769:3915   */\n    tag_207:\n        /* \"#utility.yul\":3866:3872   */\n      dup3\n        /* \"#utility.yul\":3861:3864   */\n      dup2\n        /* \"#utility.yul\":3856:3859   */\n      dup4\n        /* \"#utility.yul\":3843:3873   */\n      calldatacopy\n        /* \"#utility.yul\":3907:3908   */\n      0x00\n        /* \"#utility.yul\":3898:3904   */\n      dup4\n        /* \"#utility.yul\":3893:3896   */\n      dup4\n        /* \"#utility.yul\":3889:3905   */\n      add\n        /* \"#utility.yul\":3882:3909   */\n      mstore\n        /* \"#utility.yul\":3769:3915   */\n      pop\n      pop\n      pop\n      jump\t// out\n        /* \"#utility.yul\":3921:4346   */\n    tag_208:\n        /* \"#utility.yul\":3999:4004   */\n      0x00\n        /* \"#utility.yul\":4024:4090   */\n      tag_307\n        /* \"#utility.yul\":4040:4089   */\n      tag_308\n        /* \"#utility.yul\":4082:4088   */\n      dup5\n        /* \"#utility.yul\":4040:4089   */\n      tag_206\n      jump\t// in\n    tag_308:\n        /* \"#utility.yul\":4024:4090   */\n      tag_205\n      jump\t// in\n    tag_307:\n        /* \"#utility.yul\":4015:4090   */\n      swap1\n      pop\n        /* \"#utility.yul\":4113:4119   */\n      dup3\n        /* \"#utility.yul\":4106:4111   */\n      dup2\n        /* \"#utility.yul\":4099:4120   */\n      mstore\n        /* \"#utility.yul\":4151:4155   */\n      0x20\n        /* \"#utility.yul\":4144:4149   */\n      dup2\n        /* \"#utility.yul\":4140:4156   */\n      add\n        /* \"#utility.yul\":4189:4192   */\n      dup5\n        /* \"#utility.yul\":4180:4186   */\n      dup5\n        /* \"#utility.yul\":4175:4178   */\n      dup5\n        /* \"#utility.yul\":4171:4187   */\n      add\n        /* \"#utility.yul\":4168:4193   */\n      gt\n        /* \"#utility.yul\":4165:4277   */\n      iszero\n      tag_309\n      jumpi\n        /* \"#utility.yul\":4196:4275   */\n      tag_310\n      tag_202\n      jump\t// in\n    tag_310:\n        /* \"#utility.yul\":4165:4277   */\n    tag_309:\n        /* \"#utility.yul\":4286:4340   */\n      tag_311\n        /* \"#utility.yul\":4333:4339   */\n      dup5\n        /* \"#utility.yul\":4328:4331   */\n      dup3\n        /* \"#utility.yul\":4323:4326   */\n      dup6\n        /* \"#utility.yul\":4286:4340   */\n      tag_207\n      jump\t// in\n    tag_311:\n        /* \"#utility.yul\":4005:4346   */\n      pop\n        /* \"#utility.yul\":3921:4346   */\n      swap4\n      swap3\n      pop\n      pop\n      pop\n      jump\t// out\n        /* \"#utility.yul\":4366:4706   */\n    tag_209:\n        /* \"#utility.yul\":4422:4427   */\n      0x00\n        /* \"#utility.yul\":4471:4474   */\n      dup3\n        /* \"#utility.yul\":4464:4468   */\n      0x1f\n        /* \"#utility.yul\":4456:4462   */\n      dup4\n        /* \"#utility.yul\":4452:4469   */\n      add\n        /* \"#utility.yul\":4448:4475   */\n      slt\n        /* \"#utility.yul\":4438:4560   */\n      tag_313\n      jumpi\n        /* \"#utility.yul\":4479:4558   */\n      tag_314\n      tag_201\n      jump\t// in\n    tag_314:\n        /* \"#utility.yul\":4438:4560   */\n    tag_313:\n        /* \"#utility.yul\":4596:4602   */\n      dup2\n        /* \"#utility.yul\":4583:4603   */\n      calldataload\n        /* \"#utility.yul\":4621:4700   */\n      tag_315\n        /* \"#utility.yul\":4696:4699   */\n      dup5\n        /* \"#utility.yul\":4688:4694   */\n      dup3\n        /* \"#utility.yul\":4681:4685   */\n      0x20\n        /* \"#utility.yul\":4673:4679   */\n      dup7\n        /* \"#utility.yul\":4669:4686   */\n      add\n        /* \"#utility.yul\":4621:4700   */\n      tag_208\n      jump\t// in\n    tag_315:\n        /* \"#utility.yul\":4612:4700   */\n      swap2\n      pop\n        /* \"#utility.yul\":4428:4706   */\n      pop\n        /* \"#utility.yul\":4366:4706   */\n      swap3\n      swap2\n      pop\n      pop\n      jump\t// out\n        /* \"#utility.yul\":4712:5221   */\n    tag_29:\n        /* \"#utility.yul\":4781:4787   */\n      0x00\n        /* \"#utility.yul\":4830:4832   */\n      0x20\n        /* \"#utility.yul\":4818:4827   */\n      dup3\n        /* \"#utility.yul\":4809:4816   */\n      dup5\n        /* \"#utility.yul\":4805:4828   */\n      sub\n        /* \"#utility.yul\":4801:4833   */\n      slt\n        /* \"#utility.yul\":4798:4917   */\n      iszero\n      tag_317\n      jumpi\n        /* \"#utility.yul\":4836:4915   */\n      tag_318\n      tag_190\n      jump\t// in\n    tag_318:\n        /* \"#utility.yul\":4798:4917   */\n    tag_317:\n        /* \"#utility.yul\":4984:4985   */\n      0x00\n        /* \"#utility.yul\":4973:4982   */\n      dup3\n        /* \"#utility.yul\":4969:4986   */\n      add\n        /* \"#utility.yul\":4956:4987   */\n      calldataload\n        /* \"#utility.yul\":5014:5032   */\n      0xffffffffffffffff\n        /* \"#utility.yul\":5006:5012   */\n      dup2\n        /* \"#utility.yul\":5003:5033   */\n      gt\n        /* \"#utility.yul\":5000:5117   */\n      iszero\n      tag_319\n      jumpi\n        /* \"#utility.yul\":5036:5115   */\n      tag_320\n      tag_191\n      jump\t// in\n    tag_320:\n        /* \"#utility.yul\":5000:5117   */\n    tag_319:\n        /* \"#utility.yul\":5141:5204   */\n      tag_321\n        /* \"#utility.yul\":5196:5203   */\n      dup5\n        /* \"#utility.yul\":5187:5193   */\n      dup3\n        /* \"#utility.yul\":5176:5185   */\n      dup6\n        /* \"#utility.yul\":5172:5194   */\n      add\n        /* \"#utility.yul\":5141:5204   */\n      tag_209\n      jump\t// in\n    tag_321:\n        /* \"#utility.yul\":5131:5204   */\n      swap2\n      pop\n        /* \"#utility.yul\":4927:5214   */\n      pop\n        /* \"#utility.yul\":4712:5221   */\n      swap3\n      swap2\n      pop\n      pop\n      jump\t// out\n        /* \"#utility.yul\":5227:5353   */\n    tag_210:\n        /* \"#utility.yul\":5264:5271   */\n      0x00\n        /* \"#utility.yul\":5304:5346   */\n      0xffffffffffffffffffffffffffffffffffffffff\n        /* \"#utility.yul\":5297:5302   */\n      dup3\n        /* \"#utility.yul\":5293:5347   */\n      and\n        /* \"#utility.yul\":5282:5347   */\n      swap1\n      pop\n        /* \"#utility.yul\":5227:5353   */\n      swap2\n      swap1\n      pop\n      jump\t// out\n        /* \"#utility.yul\":5359:5455   */\n    tag_211:\n        /* \"#utility.yul\":5396:5403   */\n      0x00\n        /* \"#utility.yul\":5425:5449   */\n      tag_324\n        /* \"#utility.yul\":5443:5448   */\n      dup3\n        /* \"#utility.yul\":5425:5449   */\n      tag_210\n      jump\t// in\n    tag_324:\n        /* \"#utility.yul\":5414:5449   */\n      swap1\n      pop\n        /* \"#utility.yul\":5359:5455   */\n      swap2\n      swap1\n      pop\n      jump\t// out\n        /* \"#utility.yul\":5461:5583   */\n    tag_212:\n        /* \"#utility.yul\":5534:5558   */\n      tag_326\n        /* \"#utility.yul\":5552:5557   */\n      dup2\n        /* \"#utility.yul\":5534:5558   */\n      tag_211\n      jump\t// in\n    tag_326:\n        /* \"#utility.yul\":5527:5532   */\n      dup2\n        /* \"#utility.yul\":5524:5559   */\n      eq\n        /* \"#utility.yul\":5514:5577   */\n      tag_327\n      jumpi\n        /* \"#utility.yul\":5573:5574   */\n      0x00\n        /* \"#utility.yul\":5570:5571   */\n      dup1\n        /* \"#utility.yul\":5563:5575   */\n      revert\n        /* \"#utility.yul\":5514:5577   */\n    tag_327:\n        /* \"#utility.yul\":5461:5583   */\n      pop\n      jump\t// out\n        /* \"#utility.yul\":5589:5728   */\n    tag_213:\n        /* \"#utility.yul\":5635:5640   */\n      0x00\n        /* \"#utility.yul\":5673:5679   */\n      dup2\n        /* \"#utility.yul\":5660:5680   */\n      calldataload\n        /* \"#utility.yul\":5651:5680   */\n      swap1\n      pop\n        /* \"#utility.yul\":5689:5722   */\n      tag_329\n        /* \"#utility.yul\":5716:5721   */\n      dup2\n        /* \"#utility.yul\":5689:5722   */\n      tag_212\n      jump\t// in\n    tag_329:\n        /* \"#utility.yul\":5589:5728   */\n      swap3\n      swap2\n      pop\n      pop\n      jump\t// out\n        /* \"#utility.yul\":5734:6063   */\n    tag_33:\n        /* \"#utility.yul\":5793:5799   */\n      0x00\n        /* \"#utility.yul\":5842:5844   */\n      0x20\n        /* \"#utility.yul\":5830:5839   */\n      dup3\n        /* \"#utility.yul\":5821:5828   */\n      dup5\n        /* \"#utility.yul\":5817:5840   */\n      sub\n        /* \"#utility.yul\":5813:5845   */\n      slt\n        /* \"#utility.yul\":5810:5929   */\n      iszero\n      tag_331\n      jumpi\n        /* \"#utility.yul\":5848:5927   */\n      tag_332\n      tag_190\n      jump\t// in\n    tag_332:\n        /* \"#utility.yul\":5810:5929   */\n    tag_331:\n        /* \"#utility.yul\":5968:5969   */\n      0x00\n        /* \"#utility.yul\":5993:6046   */\n      tag_333\n        /* \"#utility.yul\":6038:6045   */\n      dup5\n        /* \"#utility.yul\":6029:6035   */\n      dup3\n        /* \"#utility.yul\":6018:6027   */\n      dup6\n        /* \"#utility.yul\":6014:6036   */\n      add\n        /* \"#utility.yul\":5993:6046   */\n      tag_213\n      jump\t// in\n    tag_333:\n        /* \"#utility.yul\":5983:6046   */\n      swap2\n      pop\n        /* \"#utility.yul\":5939:6056   */\n      pop\n        /* \"#utility.yul\":5734:6063   */\n      swap3\n      swap2\n      pop\n      pop\n      jump\t// out\n        /* \"#utility.yul\":6069:6187   */\n    tag_214:\n        /* \"#utility.yul\":6156:6180   */\n      tag_335\n        /* \"#utility.yul\":6174:6179   */\n      dup2\n        /* \"#utility.yul\":6156:6180   */\n      tag_211\n      jump\t// in\n    tag_335:\n        /* \"#utility.yul\":6151:6154   */\n      dup3\n        /* \"#utility.yul\":6144:6181   */\n      mstore\n        /* \"#utility.yul\":6069:6187   */\n      pop\n      pop\n      jump\t// out\n        /* \"#utility.yul\":6193:6415   */\n    tag_40:\n        /* \"#utility.yul\":6286:6290   */\n      0x00\n        /* \"#utility.yul\":6324:6326   */\n      0x20\n        /* \"#utility.yul\":6313:6322   */\n      dup3\n        /* \"#utility.yul\":6309:6327   */\n      add\n        /* \"#utility.yul\":6301:6327   */\n      swap1\n      pop\n        /* \"#utility.yul\":6337:6408   */\n      tag_337\n        /* \"#utility.yul\":6405:6406   */\n      0x00\n        /* \"#utility.yul\":6394:6403   */\n      dup4\n        /* \"#utility.yul\":6390:6407   */\n      add\n        /* \"#utility.yul\":6381:6387   */\n      dup5\n        /* \"#utility.yul\":6337:6408   */\n      tag_214\n      jump\t// in\n    tag_337:\n        /* \"#utility.yul\":6193:6415   */\n      swap3\n      swap2\n      pop\n      pop\n      jump\t// out\n        /* \"#utility.yul\":6421:6643   */\n    tag_44:\n        /* \"#utility.yul\":6514:6518   */\n      0x00\n        /* \"#utility.yul\":6552:6554   */\n      0x20\n        /* \"#utility.yul\":6541:6550   */\n      dup3\n        /* \"#utility.yul\":6537:6555   */\n      add\n        /* \"#utility.yul\":6529:6555   */\n      swap1\n      pop\n        /* \"#utility.yul\":6565:6636   */\n      tag_339\n        /* \"#utility.yul\":6633:6634   */\n      0x00\n        /* \"#utility.yul\":6622:6631   */\n      dup4\n        /* \"#utility.yul\":6618:6635   */\n      add\n        /* \"#utility.yul\":6609:6615   */\n      dup5\n        /* \"#utility.yul\":6565:6636   */\n      tag_200\n      jump\t// in\n    tag_339:\n        /* \"#utility.yul\":6421:6643   */\n      swap3\n      swap2\n      pop\n      pop\n      jump\t// out\n        /* \"#utility.yul\":6649:6829   */\n    tag_66:\n        /* \"#utility.yul\":6697:6774   */\n      0x4e487b7100000000000000000000000000000000000000000000000000000000\n        /* \"#utility.yul\":6694:6695   */\n      0x00\n        /* \"#utility.yul\":6687:6775   */\n      mstore\n        /* \"#utility.yul\":6794:6798   */\n      0x21\n        /* \"#utility.yul\":6791:6792   */\n      0x04\n        /* \"#utility.yul\":6784:6799   */\n      mstore\n        /* \"#utility.yul\":6818:6822   */\n      0x24\n        /* \"#utility.yul\":6815:6816   */\n      0x00\n        /* \"#utility.yul\":6808:6823   */\n      revert\n        /* \"#utility.yul\":6835:6958   */\n    tag_215:\n        /* \"#utility.yul\":6926:6927   */\n      0x06\n        /* \"#utility.yul\":6919:6924   */\n      dup2\n        /* \"#utility.yul\":6916:6928   */\n      lt\n        /* \"#utility.yul\":6906:6952   */\n      tag_342\n      jumpi\n        /* \"#utility.yul\":6932:6950   */\n      tag_343\n      tag_66\n      jump\t// in\n    tag_343:\n        /* \"#utility.yul\":6906:6952   */\n    tag_342:\n        /* \"#utility.yul\":6835:6958   */\n      pop\n      jump\t// out\n        /* \"#utility.yul\":6964:7111   */\n    tag_216:\n        /* \"#utility.yul\":7019:7026   */\n      0x00\n        /* \"#utility.yul\":7048:7053   */\n      dup2\n        /* \"#utility.yul\":7037:7053   */\n      swap1\n      pop\n        /* \"#utility.yul\":7054:7105   */\n      tag_345\n        /* \"#utility.yul\":7099:7104   */\n      dup3\n        /* \"#utility.yul\":7054:7105   */\n      tag_215\n      jump\t// in\n    tag_345:\n        /* \"#utility.yul\":6964:7111   */\n      swap2\n      swap1\n      pop\n      jump\t// out\n        /* \"#utility.yul\":7117:7264   */\n    tag_217:\n        /* \"#utility.yul\":7183:7192   */\n      0x00\n        /* \"#utility.yul\":7216:7258   */\n      tag_347\n        /* \"#utility.yul\":7252:7257   */\n      dup3\n        /* \"#utility.yul\":7216:7258   */\n      tag_216\n      jump\t// in\n    tag_347:\n        /* \"#utility.yul\":7203:7258   */\n      swap1\n      pop\n        /* \"#utility.yul\":7117:7264   */\n      swap2\n      swap1\n      pop\n      jump\t// out\n        /* \"#utility.yul\":7270:7433   */\n    tag_218:\n        /* \"#utility.yul\":7373:7426   */\n      tag_349\n        /* \"#utility.yul\":7420:7425   */\n      dup2\n        /* \"#utility.yul\":7373:7426   */\n      tag_217\n      jump\t// in\n    tag_349:\n        /* \"#utility.yul\":7368:7371   */\n      dup3\n        /* \"#utility.yul\":7361:7427   */\n      mstore\n        /* \"#utility.yul\":7270:7433   */\n      pop\n      pop\n      jump\t// out\n        /* \"#utility.yul\":7439:7693   */\n    tag_48:\n        /* \"#utility.yul\":7548:7552   */\n      0x00\n        /* \"#utility.yul\":7586:7588   */\n      0x20\n        /* \"#utility.yul\":7575:7584   */\n      dup3\n        /* \"#utility.yul\":7571:7589   */\n      add\n        /* \"#utility.yul\":7563:7589   */\n      swap1\n      pop\n        /* \"#utility.yul\":7599:7686   */\n      tag_351\n        /* \"#utility.yul\":7683:7684   */\n      0x00\n        /* \"#utility.yul\":7672:7681   */\n      dup4\n        /* \"#utility.yul\":7668:7685   */\n      add\n        /* \"#utility.yul\":7659:7665   */\n      dup5\n        /* \"#utility.yul\":7599:7686   */\n      tag_218\n      jump\t// in\n    tag_351:\n        /* \"#utility.yul\":7439:7693   */\n      swap3\n      swap2\n      pop\n      pop\n      jump\t// out\n        /* \"#utility.yul\":7699:7789   */\n    tag_219:\n        /* \"#utility.yul\":7733:7740   */\n      0x00\n        /* \"#utility.yul\":7776:7781   */\n      dup2\n        /* \"#utility.yul\":7769:7782   */\n      iszero\n        /* \"#utility.yul\":7762:7783   */\n      iszero\n        /* \"#utility.yul\":7751:7783   */\n      swap1\n      pop\n        /* \"#utility.yul\":7699:7789   */\n      swap2\n      swap1\n      pop\n      jump\t// out\n        /* \"#utility.yul\":7795:7904   */\n    tag_220:\n        /* \"#utility.yul\":7876:7897   */\n      tag_354\n        /* \"#utility.yul\":7891:7896   */\n      dup2\n        /* \"#utility.yul\":7876:7897   */\n      tag_219\n      jump\t// in\n    tag_354:\n        /* \"#utility.yul\":7871:7874   */\n      dup3\n        /* \"#utility.yul\":7864:7898   */\n      mstore\n        /* \"#utility.yul\":7795:7904   */\n      pop\n      pop\n      jump\t// out\n        /* \"#utility.yul\":7910:8328   */\n    tag_53:\n        /* \"#utility.yul\":8047:8051   */\n      0x00\n        /* \"#utility.yul\":8085:8087   */\n      0x60\n        /* \"#utility.yul\":8074:8083   */\n      dup3\n        /* \"#utility.yul\":8070:8088   */\n      add\n        /* \"#utility.yul\":8062:8088   */\n      swap1\n      pop\n        /* \"#utility.yul\":8098:8163   */\n      tag_356\n        /* \"#utility.yul\":8160:8161   */\n      0x00\n        /* \"#utility.yul\":8149:8158   */\n      dup4\n        /* \"#utility.yul\":8145:8162   */\n      add\n        /* \"#utility.yul\":8136:8142   */\n      dup7\n        /* \"#utility.yul\":8098:8163   */\n      tag_220\n      jump\t// in\n    tag_356:\n        /* \"#utility.yul\":8173:8239   */\n      tag_357\n        /* \"#utility.yul\":8235:8237   */\n      0x20\n        /* \"#utility.yul\":8224:8233   */\n      dup4\n        /* \"#utility.yul\":8220:8238   */\n      add\n        /* \"#utility.yul\":8211:8217   */\n      dup6\n        /* \"#utility.yul\":8173:8239   */\n      tag_220\n      jump\t// in\n    tag_357:\n        /* \"#utility.yul\":8249:8321   */\n      tag_358\n        /* \"#utility.yul\":8317:8319   */\n      0x40\n        /* \"#utility.yul\":8306:8315   */\n      dup4\n        /* \"#utility.yul\":8302:8320   */\n      add\n        /* \"#utility.yul\":8293:8299   */\n      dup5\n        /* \"#utility.yul\":8249:8321   */\n      tag_200\n      jump\t// in\n    tag_358:\n        /* \"#utility.yul\":7910:8328   */\n      swap5\n      swap4\n      pop\n      pop\n      pop\n      pop\n      jump\t// out\n        /* \"#utility.yul\":8334:8508   */\n    tag_221:\n        /* \"#utility.yul\":8474:8500   */\n      0x43616e277420766f746520617420746869732074696d652e0000000000000000\n        /* \"#utility.yul\":8470:8471   */\n      0x00\n        /* \"#utility.yul\":8462:8468   */\n      dup3\n        /* \"#utility.yul\":8458:8472   */\n      add\n        /* \"#utility.yul\":8451:8501   */\n      mstore\n        /* \"#utility.yul\":8334:8508   */\n      pop\n      jump\t// out\n        /* \"#utility.yul\":8514:8880   */\n    tag_222:\n        /* \"#utility.yul\":8656:8659   */\n      0x00\n        /* \"#utility.yul\":8677:8744   */\n      tag_361\n        /* \"#utility.yul\":8741:8743   */\n      0x18\n        /* \"#utility.yul\":8736:8739   */\n      dup4\n        /* \"#utility.yul\":8677:8744   */\n      tag_196\n      jump\t// in\n    tag_361:\n        /* \"#utility.yul\":8670:8744   */\n      swap2\n      pop\n        /* \"#utility.yul\":8753:8846   */\n      tag_362\n        /* \"#utility.yul\":8842:8845   */\n      dup3\n        /* \"#utility.yul\":8753:8846   */\n      tag_221\n      jump\t// in\n    tag_362:\n        /* \"#utility.yul\":8871:8873   */\n      0x20\n        /* \"#utility.yul\":8866:8869   */\n      dup3\n        /* \"#utility.yul\":8862:8874   */\n      add\n        /* \"#utility.yul\":8855:8874   */\n      swap1\n      pop\n        /* \"#utility.yul\":8514:8880   */\n      swap2\n      swap1\n      pop\n      jump\t// out\n        /* \"#utility.yul\":8886:9305   */\n    tag_71:\n        /* \"#utility.yul\":9052:9056   */\n      0x00\n        /* \"#utility.yul\":9090:9092   */\n      0x20\n        /* \"#utility.yul\":9079:9088   */\n      dup3\n        /* \"#utility.yul\":9075:9093   */\n      add\n        /* \"#utility.yul\":9067:9093   */\n      swap1\n      pop\n        /* \"#utility.yul\":9139:9148   */\n      dup2\n        /* \"#utility.yul\":9133:9137   */\n      dup2\n        /* \"#utility.yul\":9129:9149   */\n      sub\n        /* \"#utility.yul\":9125:9126   */\n      0x00\n        /* \"#utility.yul\":9114:9123   */\n      dup4\n        /* \"#utility.yul\":9110:9127   */\n      add\n        /* \"#utility.yul\":9103:9150   */\n      mstore\n        /* \"#utility.yul\":9167:9298   */\n      tag_364\n        /* \"#utility.yul\":9293:9297   */\n      dup2\n        /* \"#utility.yul\":9167:9298   */\n      tag_222\n      jump\t// in\n    tag_364:\n        /* \"#utility.yul\":9159:9298   */\n      swap1\n      pop\n        /* \"#utility.yul\":8886:9305   */\n      swap2\n      swap1\n      pop\n      jump\t// out\n        /* \"#utility.yul\":9311:9493   */\n    tag_223:\n        /* \"#utility.yul\":9451:9485   */\n      0x4f6e6c79207265676973746572656420766f746572732063616e20766f74652e\n        /* \"#utility.yul\":9447:9448   */\n      0x00\n        /* \"#utility.yul\":9439:9445   */\n      dup3\n        /* \"#utility.yul\":9435:9449   */\n      add\n        /* \"#utility.yul\":9428:9486   */\n      mstore\n        /* \"#utility.yul\":9311:9493   */\n      pop\n      jump\t// out\n        /* \"#utility.yul\":9499:9865   */\n    tag_224:\n        /* \"#utility.yul\":9641:9644   */\n      0x00\n        /* \"#utility.yul\":9662:9729   */\n      tag_367\n        /* \"#utility.yul\":9726:9728   */\n      0x20\n        /* \"#utility.yul\":9721:9724   */\n      dup4\n        /* \"#utility.yul\":9662:9729   */\n      tag_196\n      jump\t// in\n    tag_367:\n        /* \"#utility.yul\":9655:9729   */\n      swap2\n      pop\n        /* \"#utility.yul\":9738:9831   */\n      tag_368\n        /* \"#utility.yul\":9827:9830   */\n      dup3\n        /* \"#utility.yul\":9738:9831   */\n      tag_223\n      jump\t// in\n    tag_368:\n        /* \"#utility.yul\":9856:9858   */\n      0x20\n        /* \"#utility.yul\":9851:9854   */\n      dup3\n        /* \"#utility.yul\":9847:9859   */\n      add\n        /* \"#utility.yul\":9840:9859   */\n      swap1\n      pop\n        /* \"#utility.yul\":9499:9865   */\n      swap2\n      swap1\n      pop\n      jump\t// out\n        /* \"#utility.yul\":9871:10290   */\n    tag_74:\n        /* \"#utility.yul\":10037:10041   */\n      0x00\n        /* \"#utility.yul\":10075:10077   */\n      0x20\n        /* \"#utility.yul\":10064:10073   */\n      dup3\n        /* \"#utility.yul\":10060:10078   */\n      add\n        /* \"#utility.yul\":10052:10078   */\n      swap1\n      pop\n        /* \"#utility.yul\":10124:10133   */\n      dup2\n        /* \"#utility.yul\":10118:10122   */\n      dup2\n        /* \"#utility.yul\":10114:10134   */\n      sub\n        /* \"#utility.yul\":10110:10111   */\n      0x00\n        /* \"#utility.yul\":10099:10108   */\n      dup4\n        /* \"#utility.yul\":10095:10112   */\n      add\n        /* \"#utility.yul\":10088:10135   */\n      mstore\n        /* \"#utility.yul\":10152:10283   */\n      tag_370\n        /* \"#utility.yul\":10278:10282   */\n      dup2\n        /* \"#utility.yul\":10152:10283   */\n      tag_224\n      jump\t// in\n    tag_370:\n        /* \"#utility.yul\":10144:10283   */\n      swap1\n      pop\n        /* \"#utility.yul\":9871:10290   */\n      swap2\n      swap1\n      pop\n      jump\t// out\n        /* \"#utility.yul\":10296:10474   */\n    tag_225:\n        /* \"#utility.yul\":10436:10466   */\n      0x54686520766f7465722068617320616c726561647920766f7465642e00000000\n        /* \"#utility.yul\":10432:10433   */\n      0x00\n        /* \"#utility.yul\":10424:10430   */\n      dup3\n        /* \"#utility.yul\":10420:10434   */\n      add\n        /* \"#utility.yul\":10413:10467   */\n      mstore\n        /* \"#utility.yul\":10296:10474   */\n      pop\n      jump\t// out\n        /* \"#utility.yul\":10480:10846   */\n    tag_226:\n        /* \"#utility.yul\":10622:10625   */\n      0x00\n        /* \"#utility.yul\":10643:10710   */\n      tag_373\n        /* \"#utility.yul\":10707:10709   */\n      0x1c\n        /* \"#utility.yul\":10702:10705   */\n      dup4\n        /* \"#utility.yul\":10643:10710   */\n      tag_196\n      jump\t// in\n    tag_373:\n        /* \"#utility.yul\":10636:10710   */\n      swap2\n      pop\n        /* \"#utility.yul\":10719:10812   */\n      tag_374\n        /* \"#utility.yul\":10808:10811   */\n      dup3\n        /* \"#utility.yul\":10719:10812   */\n      tag_225\n      jump\t// in\n    tag_374:\n        /* \"#utility.yul\":10837:10839   */\n      0x20\n        /* \"#utility.yul\":10832:10835   */\n      dup3\n        /* \"#utility.yul\":10828:10840   */\n      add\n        /* \"#utility.yul\":10821:10840   */\n      swap1\n      pop\n        /* \"#utility.yul\":10480:10846   */\n      swap2\n      swap1\n      pop\n      jump\t// out\n        /* \"#utility.yul\":10852:11271   */\n    tag_77:\n        /* \"#utility.yul\":11018:11022   */\n      0x00\n        /* \"#utility.yul\":11056:11058   */\n      0x20\n        /* \"#utility.yul\":11045:11054   */\n      dup3\n        /* \"#utility.yul\":11041:11059   */\n      add\n        /* \"#utility.yul\":11033:11059   */\n      swap1\n      pop\n        /* \"#utility.yul\":11105:11114   */\n      dup2\n        /* \"#utility.yul\":11099:11103   */\n      dup2\n        /* \"#utility.yul\":11095:11115   */\n      sub\n        /* \"#utility.yul\":11091:11092   */\n      0x00\n        /* \"#utility.yul\":11080:11089   */\n      dup4\n        /* \"#utility.yul\":11076:11093   */\n      add\n        /* \"#utility.yul\":11069:11116   */\n      mstore\n        /* \"#utility.yul\":11133:11264   */\n      tag_376\n        /* \"#utility.yul\":11259:11263   */\n      dup2\n        /* \"#utility.yul\":11133:11264   */\n      tag_226\n      jump\t// in\n    tag_376:\n        /* \"#utility.yul\":11125:11264   */\n      swap1\n      pop\n        /* \"#utility.yul\":10852:11271   */\n      swap2\n      swap1\n      pop\n      jump\t// out\n        /* \"#utility.yul\":11277:11447   */\n    tag_227:\n        /* \"#utility.yul\":11417:11439   */\n      0x496e76616c69642070726f706f73616c2049442e000000000000000000000000\n        /* \"#utility.yul\":11413:11414   */\n      0x00\n        /* \"#utility.yul\":11405:11411   */\n      dup3\n        /* \"#utility.yul\":11401:11415   */\n      add\n        /* \"#utility.yul\":11394:11440   */\n      mstore\n        /* \"#utility.yul\":11277:11447   */\n      pop\n      jump\t// out\n        /* \"#utility.yul\":11453:11819   */\n    tag_228:\n        /* \"#utility.yul\":11595:11598   */\n      0x00\n        /* \"#utility.yul\":11616:11683   */\n      tag_379\n        /* \"#utility.yul\":11680:11682   */\n      0x14\n        /* \"#utility.yul\":11675:11678   */\n      dup4\n        /* \"#utility.yul\":11616:11683   */\n      tag_196\n      jump\t// in\n    tag_379:\n        /* \"#utility.yul\":11609:11683   */\n      swap2\n      pop\n        /* \"#utility.yul\":11692:11785   */\n      tag_380\n        /* \"#utility.yul\":11781:11784   */\n      dup3\n        /* \"#utility.yul\":11692:11785   */\n      tag_227\n      jump\t// in\n    tag_380:\n        /* \"#utility.yul\":11810:11812   */\n      0x20\n        /* \"#utility.yul\":11805:11808   */\n      dup3\n        /* \"#utility.yul\":11801:11813   */\n      add\n        /* \"#utility.yul\":11794:11813   */\n      swap1\n      pop\n        /* \"#utility.yul\":11453:11819   */\n      swap2\n      swap1\n      pop\n      jump\t// out\n        /* \"#utility.yul\":11825:12244   */\n    tag_80:\n        /* \"#utility.yul\":11991:11995   */\n      0x00\n        /* \"#utility.yul\":12029:12031   */\n      0x20\n        /* \"#utility.yul\":12018:12027   */\n      dup3\n        /* \"#utility.yul\":12014:12032   */\n      add\n        /* \"#utility.yul\":12006:12032   */\n      swap1\n      pop\n        /* \"#utility.yul\":12078:12087   */\n      dup2\n        /* \"#utility.yul\":12072:12076   */\n      dup2\n        /* \"#utility.yul\":12068:12088   */\n      sub\n        /* \"#utility.yul\":12064:12065   */\n      0x00\n        /* \"#utility.yul\":12053:12062   */\n      dup4\n        /* \"#utility.yul\":12049:12066   */\n      add\n        /* \"#utility.yul\":12042:12089   */\n      mstore\n        /* \"#utility.yul\":12106:12237   */\n      tag_382\n        /* \"#utility.yul\":12232:12236   */\n      dup2\n        /* \"#utility.yul\":12106:12237   */\n      tag_228\n      jump\t// in\n    tag_382:\n        /* \"#utility.yul\":12098:12237   */\n      swap1\n      pop\n        /* \"#utility.yul\":11825:12244   */\n      swap2\n      swap1\n      pop\n      jump\t// out\n        /* \"#utility.yul\":12250:12430   */\n    tag_83:\n        /* \"#utility.yul\":12298:12375   */\n      0x4e487b7100000000000000000000000000000000000000000000000000000000\n        /* \"#utility.yul\":12295:12296   */\n      0x00\n        /* \"#utility.yul\":12288:12376   */\n      mstore\n        /* \"#utility.yul\":12395:12399   */\n      0x32\n        /* \"#utility.yul\":12392:12393   */\n      0x04\n        /* \"#utility.yul\":12385:12400   */\n      mstore\n        /* \"#utility.yul\":12419:12423   */\n      0x24\n        /* \"#utility.yul\":12416:12417   */\n      0x00\n        /* \"#utility.yul\":12409:12424   */\n      revert\n        /* \"#utility.yul\":12436:12616   */\n    tag_229:\n        /* \"#utility.yul\":12484:12561   */\n      0x4e487b7100000000000000000000000000000000000000000000000000000000\n        /* \"#utility.yul\":12481:12482   */\n      0x00\n        /* \"#utility.yul\":12474:12562   */\n      mstore\n        /* \"#utility.yul\":12581:12585   */\n      0x11\n        /* \"#utility.yul\":12578:12579   */\n      0x04\n        /* \"#utility.yul\":12571:12586   */\n      mstore\n        /* \"#utility.yul\":12605:12609   */\n      0x24\n        /* \"#utility.yul\":12602:12603   */\n      0x00\n        /* \"#utility.yul\":12595:12610   */\n      revert\n        /* \"#utility.yul\":12622:12855   */\n    tag_86:\n        /* \"#utility.yul\":12661:12664   */\n      0x00\n        /* \"#utility.yul\":12684:12708   */\n      tag_386\n        /* \"#utility.yul\":12702:12707   */\n      dup3\n        /* \"#utility.yul\":12684:12708   */\n      tag_192\n      jump\t// in\n    tag_386:\n        /* \"#utility.yul\":12675:12708   */\n      swap2\n      pop\n        /* \"#utility.yul\":12730:12796   */\n      0xffffffffffffffffffffffffffffffffffffffffffffffffffffffffffffffff\n        /* \"#utility.yul\":12723:12728   */\n      dup3\n        /* \"#utility.yul\":12720:12797   */\n      sub\n        /* \"#utility.yul\":12717:12820   */\n      tag_387\n      jumpi\n        /* \"#utility.yul\":12800:12818   */\n      tag_388\n      tag_229\n      jump\t// in\n    tag_388:\n        /* \"#utility.yul\":12717:12820   */\n    tag_387:\n        /* \"#utility.yul\":12847:12848   */\n      0x01\n        /* \"#utility.yul\":12840:12845   */\n      dup3\n        /* \"#utility.yul\":12836:12849   */\n      add\n        /* \"#utility.yul\":12829:12849   */\n      swap1\n      pop\n        /* \"#utility.yul\":12622:12855   */\n      swap2\n      swap1\n      pop\n      jump\t// out\n        /* \"#utility.yul\":12861:13193   */\n    tag_88:\n        /* \"#utility.yul\":12982:12986   */\n      0x00\n        /* \"#utility.yul\":13020:13022   */\n      0x40\n        /* \"#utility.yul\":13009:13018   */\n      dup3\n        /* \"#utility.yul\":13005:13023   */\n      add\n        /* \"#utility.yul\":12997:13023   */\n      swap1\n      pop\n        /* \"#utility.yul\":13033:13104   */\n      tag_390\n        /* \"#utility.yul\":13101:13102   */\n      0x00\n        /* \"#utility.yul\":13090:13099   */\n      dup4\n        /* \"#utility.yul\":13086:13103   */\n      add\n        /* \"#utility.yul\":13077:13083   */\n      dup6\n        /* \"#utility.yul\":13033:13104   */\n      tag_214\n      jump\t// in\n    tag_390:\n        /* \"#utility.yul\":13114:13186   */\n      tag_391\n        /* \"#utility.yul\":13182:13184   */\n      0x20\n        /* \"#utility.yul\":13171:13180   */\n      dup4\n        /* \"#utility.yul\":13167:13185   */\n      add\n        /* \"#utility.yul\":13158:13164   */\n      dup5\n        /* \"#utility.yul\":13114:13186   */\n      tag_200\n      jump\t// in\n    tag_391:\n        /* \"#utility.yul\":12861:13193   */\n      swap4\n      swap3\n      pop\n      pop\n      pop\n      jump\t// out\n        /* \"#utility.yul\":13199:13379   */\n    tag_230:\n        /* \"#utility.yul\":13247:13324   */\n      0x4e487b7100000000000000000000000000000000000000000000000000000000\n        /* \"#utility.yul\":13244:13245   */\n      0x00\n        /* \"#utility.yul\":13237:13325   */\n      mstore\n        /* \"#utility.yul\":13344:13348   */\n      0x22\n        /* \"#utility.yul\":13341:13342   */\n      0x04\n        /* \"#utility.yul\":13334:13349   */\n      mstore\n        /* \"#utility.yul\":13368:13372   */\n      0x24\n        /* \"#utility.yul\":13365:13366   */\n      0x00\n        /* \"#utility.yul\":13358:13373   */\n      revert\n        /* \"#utility.yul\":13385:13705   */\n    tag_92:\n        /* \"#utility.yul\":13429:13435   */\n      0x00\n        /* \"#utility.yul\":13466:13467   */\n      0x02\n        /* \"#utility.yul\":13460:13464   */\n      dup3\n        /* \"#utility.yul\":13456:13468   */\n      div\n        /* \"#utility.yul\":13446:13468   */\n      swap1\n      pop\n        /* \"#utility.yul\":13513:13514   */\n      0x01\n        /* \"#utility.yul\":13507:13511   */\n      dup3\n        /* \"#utility.yul\":13503:13515   */\n      and\n        /* \"#utility.yul\":13534:13552   */\n      dup1\n        /* \"#utility.yul\":13524:13605   */\n      tag_394\n      jumpi\n        /* \"#utility.yul\":13590:13594   */\n      0x7f\n        /* \"#utility.yul\":13582:13588   */\n      dup3\n        /* \"#utility.yul\":13578:13595   */\n      and\n        /* \"#utility.yul\":13568:13595   */\n      swap2\n      pop\n        /* \"#utility.yul\":13524:13605   */\n    tag_394:\n        /* \"#utility.yul\":13652:13654   */\n      0x20\n        /* \"#utility.yul\":13644:13650   */\n      dup3\n        /* \"#utility.yul\":13641:13655   */\n      lt\n        /* \"#utility.yul\":13621:13639   */\n      dup2\n        /* \"#utility.yul\":13618:13656   */\n      sub\n        /* \"#utility.yul\":13615:13699   */\n      tag_395\n      jumpi\n        /* \"#utility.yul\":13671:13689   */\n      tag_396\n      tag_230\n      jump\t// in\n    tag_396:\n        /* \"#utility.yul\":13615:13699   */\n    tag_395:\n        /* \"#utility.yul\":13436:13705   */\n      pop\n        /* \"#utility.yul\":13385:13705   */\n      swap2\n      swap1\n      pop\n      jump\t// out\n        /* \"#utility.yul\":13711:13936   */\n    tag_231:\n        /* \"#utility.yul\":13851:13885   */\n      0x43616e27742072656769737465722070726f706f73616c732061742074686973\n        /* \"#utility.yul\":13847:13848   */\n      0x00\n        /* \"#utility.yul\":13839:13845   */\n      dup3\n        /* \"#utility.yul\":13835:13849   */\n      add\n        /* \"#utility.yul\":13828:13886   */\n      mstore\n        /* \"#utility.yul\":13920:13928   */\n      0x2074696d652e0000000000000000000000000000000000000000000000000000\n        /* \"#utility.yul\":13915:13917   */\n      0x20\n        /* \"#utility.yul\":13907:13913   */\n      dup3\n        /* \"#utility.yul\":13903:13918   */\n      add\n        /* \"#utility.yul\":13896:13929   */\n      mstore\n        /* \"#utility.yul\":13711:13936   */\n      pop\n      jump\t// out\n        /* \"#utility.yul\":13942:14308   */\n    tag_232:\n        /* \"#utility.yul\":14084:14087   */\n      0x00\n        /* \"#utility.yul\":14105:14172   */\n      tag_399\n        /* \"#utility.yul\":14169:14171   */\n      0x26\n        /* \"#utility.yul\":14164:14167   */\n      dup4\n        /* \"#utility.yul\":14105:14172   */\n      tag_196\n      jump\t// in\n    tag_399:\n        /* \"#utility.yul\":14098:14172   */\n      swap2\n      pop\n        /* \"#utility.yul\":14181:14274   */\n      tag_400\n        /* \"#utility.yul\":14270:14273   */\n      dup3\n        /* \"#utility.yul\":14181:14274   */\n      tag_231\n      jump\t// in\n    tag_400:\n        /* \"#utility.yul\":14299:14301   */\n      0x40\n        /* \"#utility.yul\":14294:14297   */\n      dup3\n        /* \"#utility.yul\":14290:14302   */\n      add\n        /* \"#utility.yul\":14283:14302   */\n      swap1\n      pop\n        /* \"#utility.yul\":13942:14308   */\n      swap2\n      swap1\n      pop\n      jump\t// out\n        /* \"#utility.yul\":14314:14733   */\n    tag_104:\n        /* \"#utility.yul\":14480:14484   */\n      0x00\n        /* \"#utility.yul\":14518:14520   */\n      0x20\n        /* \"#utility.yul\":14507:14516   */\n      dup3\n        /* \"#utility.yul\":14503:14521   */\n      add\n        /* \"#utility.yul\":14495:14521   */\n      swap1\n      pop\n        /* \"#utility.yul\":14567:14576   */\n      dup2\n        /* \"#utility.yul\":14561:14565   */\n      dup2\n        /* \"#utility.yul\":14557:14577   */\n      sub\n        /* \"#utility.yul\":14553:14554   */\n      0x00\n        /* \"#utility.yul\":14542:14551   */\n      dup4\n        /* \"#utility.yul\":14538:14555   */\n      add\n        /* \"#utility.yul\":14531:14578   */\n      mstore\n        /* \"#utility.yul\":14595:14726   */\n      tag_402\n        /* \"#utility.yul\":14721:14725   */\n      dup2\n        /* \"#utility.yul\":14595:14726   */\n      tag_232\n      jump\t// in\n    tag_402:\n        /* \"#utility.yul\":14587:14726   */\n      swap1\n      pop\n        /* \"#utility.yul\":14314:14733   */\n      swap2\n      swap1\n      pop\n      jump\t// out\n        /* \"#utility.yul\":14739:14970   */\n    tag_233:\n        /* \"#utility.yul\":14879:14913   */\n      0x4f6e6c79207265676973746572656420766f746572732063616e207375626d69\n        /* \"#utility.yul\":14875:14876   */\n      0x00\n        /* \"#utility.yul\":14867:14873   */\n      dup3\n        /* \"#utility.yul\":14863:14877   */\n      add\n        /* \"#utility.yul\":14856:14914   */\n      mstore\n        /* \"#utility.yul\":14948:14962   */\n      0x742070726f706f73616c732e0000000000000000000000000000000000000000\n        /* \"#utility.yul\":14943:14945   */\n      0x20\n        /* \"#utility.yul\":14935:14941   */\n      dup3\n        /* \"#utility.yul\":14931:14946   */\n      add\n        /* \"#utility.yul\":14924:14963   */\n      mstore\n        /* \"#utility.yul\":14739:14970   */\n      pop\n      jump\t// out\n        /* \"#utility.yul\":14976:15342   */\n    tag_234:\n        /* \"#utility.yul\":15118:15121   */\n      0x00\n        /* \"#utility.yul\":15139:15206   */\n      tag_405\n        /* \"#utility.yul\":15203:15205   */\n      0x2c\n        /* \"#utility.yul\":15198:15201   */\n      dup4\n        /* \"#utility.yul\":15139:15206   */\n      tag_196\n      jump\t// in\n    tag_405:\n        /* \"#utility.yul\":15132:15206   */\n      swap2\n      pop\n        /* \"#utility.yul\":15215:15308   */\n      tag_406\n        /* \"#utility.yul\":15304:15307   */\n      dup3\n        /* \"#utility.yul\":15215:15308   */\n      tag_233\n      jump\t// in\n    tag_406:\n        /* \"#utility.yul\":15333:15335   */\n      0x40\n        /* \"#utility.yul\":15328:15331   */\n      dup3\n        /* \"#utility.yul\":15324:15336   */\n      add\n        /* \"#utility.yul\":15317:15336   */\n      swap1\n      pop\n        /* \"#utility.yul\":14976:15342   */\n      swap2\n      swap1\n      pop\n      jump\t// out\n        /* \"#utility.yul\":15348:15767   */\n    tag_107:\n        /* \"#utility.yul\":15514:15518   */\n      0x00\n        /* \"#utility.yul\":15552:15554   */\n      0x20\n        /* \"#utility.yul\":15541:15550   */\n      dup3\n        /* \"#utility.yul\":15537:15555   */\n      add\n        /* \"#utility.yul\":15529:15555   */\n      swap1\n      pop\n        /* \"#utility.yul\":15601:15610   */\n      dup2\n        /* \"#utility.yul\":15595:15599   */\n      dup2\n        /* \"#utility.yul\":15591:15611   */\n      sub\n        /* \"#utility.yul\":15587:15588   */\n      0x00\n        /* \"#utility.yul\":15576:15585   */\n      dup4\n        /* \"#utility.yul\":15572:15589   */\n      add\n        /* \"#utility.yul\":15565:15612   */\n      mstore\n        /* \"#utility.yul\":15629:15760   */\n      tag_408\n        /* \"#utility.yul\":15755:15759   */\n      dup2\n        /* \"#utility.yul\":15629:15760   */\n      tag_234\n      jump\t// in\n    tag_408:\n        /* \"#utility.yul\":15621:15760   */\n      swap1\n      pop\n        /* \"#utility.yul\":15348:15767   */\n      swap2\n      swap1\n      pop\n      jump\t// out\n        /* \"#utility.yul\":15773:15914   */\n    tag_235:\n        /* \"#utility.yul\":15822:15826   */\n      0x00\n        /* \"#utility.yul\":15845:15848   */\n      dup2\n        /* \"#utility.yul\":15837:15848   */\n      swap1\n      pop\n        /* \"#utility.yul\":15868:15871   */\n      dup2\n        /* \"#utility.yul\":15865:15866   */\n      0x00\n        /* \"#utility.yul\":15858:15872   */\n      mstore\n        /* \"#utility.yul\":15902:15906   */\n      0x20\n        /* \"#utility.yul\":15899:15900   */\n      0x00\n        /* \"#utility.yul\":15889:15907   */\n      keccak256\n        /* \"#utility.yul\":15881:15907   */\n      swap1\n      pop\n        /* \"#utility.yul\":15773:15914   */\n      swap2\n      swap1\n      pop\n      jump\t// out\n        /* \"#utility.yul\":15920:16013   */\n    tag_236:\n        /* \"#utility.yul\":15957:15963   */\n      0x00\n        /* \"#utility.yul\":16004:16006   */\n      0x20\n        /* \"#utility.yul\":15999:16001   */\n      0x1f\n        /* \"#utility.yul\":15992:15997   */\n      dup4\n        /* \"#utility.yul\":15988:16002   */\n      add\n        /* \"#utility.yul\":15984:16007   */\n      div\n        /* \"#utility.yul\":15974:16007   */\n      swap1\n      pop\n        /* \"#utility.yul\":15920:16013   */\n      swap2\n      swap1\n      pop\n      jump\t// out\n        /* \"#utility.yul\":16019:16126   */\n    tag_237:\n        /* \"#utility.yul\":16063:16071   */\n      0x00\n        /* \"#utility.yul\":16113:16118   */\n      dup3\n        /* \"#utility.yul\":16107:16111   */\n      dup3\n        /* \"#utility.yul\":16103:16119   */\n      shl\n        /* \"#utility.yul\":16082:16119   */\n      swap1\n      pop\n        /* \"#utility.yul\":16019:16126   */\n      swap3\n      swap2\n      pop\n      pop\n      jump\t// out\n        /* \"#utility.yul\":16132:16525   */\n    tag_238:\n        /* \"#utility.yul\":16201:16207   */\n      0x00\n        /* \"#utility.yul\":16251:16252   */\n      0x08\n        /* \"#utility.yul\":16239:16249   */\n      dup4\n        /* \"#utility.yul\":16235:16253   */\n      mul\n        /* \"#utility.yul\":16274:16371   */\n      tag_413\n        /* \"#utility.yul\":16304:16370   */\n      0xffffffffffffffffffffffffffffffffffffffffffffffffffffffffffffffff\n        /* \"#utility.yul\":16293:16302   */\n      dup3\n        /* \"#utility.yul\":16274:16371   */\n      tag_237\n      jump\t// in\n    tag_413:\n        /* \"#utility.yul\":16392:16431   */\n      tag_414\n        /* \"#utility.yul\":16422:16430   */\n      dup7\n        /* \"#utility.yul\":16411:16420   */\n      dup4\n        /* \"#utility.yul\":16392:16431   */\n      tag_237\n      jump\t// in\n    tag_414:\n        /* \"#utility.yul\":16380:16431   */\n      swap6\n      pop\n        /* \"#utility.yul\":16464:16468   */\n      dup1\n        /* \"#utility.yul\":16460:16469   */\n      not\n        /* \"#utility.yul\":16453:16458   */\n      dup5\n        /* \"#utility.yul\":16449:16470   */\n      and\n        /* \"#utility.yul\":16440:16470   */\n      swap4\n      pop\n        /* \"#utility.yul\":16513:16517   */\n      dup1\n        /* \"#utility.yul\":16503:16511   */\n      dup7\n        /* \"#utility.yul\":16499:16518   */\n      and\n        /* \"#utility.yul\":16492:16497   */\n      dup5\n        /* \"#utility.yul\":16489:16519   */\n      or\n        /* \"#utility.yul\":16479:16519   */\n      swap3\n      pop\n        /* \"#utility.yul\":16208:16525   */\n      pop\n      pop\n        /* \"#utility.yul\":16132:16525   */\n      swap4\n      swap3\n      pop\n      pop\n      pop\n      jump\t// out\n        /* \"#utility.yul\":16531:16591   */\n    tag_239:\n        /* \"#utility.yul\":16559:16562   */\n      0x00\n        /* \"#utility.yul\":16580:16585   */\n      dup2\n        /* \"#utility.yul\":16573:16585   */\n      swap1\n      pop\n        /* \"#utility.yul\":16531:16591   */\n      swap2\n      swap1\n      pop\n      jump\t// out\n        /* \"#utility.yul\":16597:16739   */\n    tag_240:\n        /* \"#utility.yul\":16647:16656   */\n      0x00\n        /* \"#utility.yul\":16680:16733   */\n      tag_417\n        /* \"#utility.yul\":16698:16732   */\n      tag_418\n        /* \"#utility.yul\":16707:16731   */\n      tag_419\n        /* \"#utility.yul\":16725:16730   */\n      dup5\n        /* \"#utility.yul\":16707:16731   */\n      tag_192\n      jump\t// in\n    tag_419:\n        /* \"#utility.yul\":16698:16732   */\n      tag_239\n      jump\t// in\n    tag_418:\n        /* \"#utility.yul\":16680:16733   */\n      tag_192\n      jump\t// in\n    tag_417:\n        /* \"#utility.yul\":16667:16733   */\n      swap1\n      pop\n        /* \"#utility.yul\":16597:16739   */\n      swap2\n      swap1\n      pop\n      jump\t// out\n        /* \"#utility.yul\":16745:16820   */\n    tag_241:\n        /* \"#utility.yul\":16788:16791   */\n      0x00\n        /* \"#utility.yul\":16809:16814   */\n      dup2\n        /* \"#utility.yul\":16802:16814   */\n      swap1\n      pop\n        /* \"#utility.yul\":16745:16820   */\n      swap2\n      swap1\n      pop\n      jump\t// out\n        /* \"#utility.yul\":16826:17095   */\n    tag_242:\n        /* \"#utility.yul\":16936:16975   */\n      tag_422\n        /* \"#utility.yul\":16967:16974   */\n      dup4\n        /* \"#utility.yul\":16936:16975   */\n      tag_240\n      jump\t// in\n    tag_422:\n        /* \"#utility.yul\":16997:17088   */\n      tag_423\n        /* \"#utility.yul\":17046:17087   */\n      tag_424\n        /* \"#utility.yul\":17070:17086   */\n      dup3\n        /* \"#utility.yul\":17046:17087   */\n      tag_241\n      jump\t// in\n    tag_424:\n        /* \"#utility.yul\":17038:17044   */\n      dup5\n        /* \"#utility.yul\":17031:17035   */\n      dup5\n        /* \"#utility.yul\":17025:17036   */\n      sload\n        /* \"#utility.yul\":16997:17088   */\n      tag_238\n      jump\t// in\n    tag_423:\n        /* \"#utility.yul\":16991:16995   */\n      dup3\n        /* \"#utility.yul\":16984:17089   */\n      sstore\n        /* \"#utility.yul\":16902:17095   */\n      pop\n        /* \"#utility.yul\":16826:17095   */\n      pop\n      pop\n      pop\n      jump\t// out\n        /* \"#utility.yul\":17101:17174   */\n    tag_243:\n        /* \"#utility.yul\":17146:17149   */\n      0x00\n        /* \"#utility.yul\":17101:17174   */\n      swap1\n      jump\t// out\n        /* \"#utility.yul\":17180:17369   */\n    tag_244:\n        /* \"#utility.yul\":17257:17289   */\n      tag_427\n      tag_243\n      jump\t// in\n    tag_427:\n        /* \"#utility.yul\":17298:17363   */\n      tag_428\n        /* \"#utility.yul\":17356:17362   */\n      dup2\n        /* \"#utility.yul\":17348:17354   */\n      dup5\n        /* \"#utility.yul\":17342:17346   */\n      dup5\n        /* \"#utility.yul\":17298:17363   */\n      tag_242\n      jump\t// in\n    tag_428:\n        /* \"#utility.yul\":17233:17369   */\n      pop\n        /* \"#utility.yul\":17180:17369   */\n      pop\n      pop\n      jump\t// out\n        /* \"#utility.yul\":17375:17561   */\n    tag_245:\n        /* \"#utility.yul\":17435:17555   */\n    tag_430:\n        /* \"#utility.yul\":17452:17455   */\n      dup2\n        /* \"#utility.yul\":17445:17450   */\n      dup2\n        /* \"#utility.yul\":17442:17456   */\n      lt\n        /* \"#utility.yul\":17435:17555   */\n      iszero\n      tag_432\n      jumpi\n        /* \"#utility.yul\":17506:17545   */\n      tag_433\n        /* \"#utility.yul\":17543:17544   */\n      0x00\n        /* \"#utility.yul\":17536:17541   */\n      dup3\n        /* \"#utility.yul\":17506:17545   */\n      tag_244\n      jump\t// in\n    tag_433:\n        /* \"#utility.yul\":17479:17480   */\n      0x01\n        /* \"#utility.yul\":17472:17477   */\n      dup2\n        /* \"#utility.yul\":17468:17481   */\n      add\n        /* \"#utility.yul\":17459:17481   */\n      swap1\n      pop\n        /* \"#utility.yul\":17435:17555   */\n      jump(tag_430)\n    tag_432:\n        /* \"#utility.yul\":17375:17561   */\n      pop\n      pop\n      jump\t// out\n        /* \"#utility.yul\":17567:18110   */\n    tag_246:\n        /* \"#utility.yul\":17668:17670   */\n      0x1f\n        /* \"#utility.yul\":17663:17666   */\n      dup3\n        /* \"#utility.yul\":17660:17671   */\n      gt\n        /* \"#utility.yul\":17657:18103   */\n      iszero\n      tag_435\n      jumpi\n        /* \"#utility.yul\":17702:17740   */\n      tag_436\n        /* \"#utility.yul\":17734:17739   */\n      dup2\n        /* \"#utility.yul\":17702:17740   */\n      tag_235\n      jump\t// in\n    tag_436:\n        /* \"#utility.yul\":17786:17815   */\n      tag_437\n        /* \"#utility.yul\":17804:17814   */\n      dup5\n        /* \"#utility.yul\":17786:17815   */\n      tag_236\n      jump\t// in\n    tag_437:\n        /* \"#utility.yul\":17776:17784   */\n      dup2\n        /* \"#utility.yul\":17772:17816   */\n      add\n        /* \"#utility.yul\":17969:17971   */\n      0x20\n        /* \"#utility.yul\":17957:17967   */\n      dup6\n        /* \"#utility.yul\":17954:17972   */\n      lt\n        /* \"#utility.yul\":17951:18000   */\n      iszero\n      tag_438\n      jumpi\n        /* \"#utility.yul\":17990:17998   */\n      dup2\n        /* \"#utility.yul\":17975:17998   */\n      swap1\n      pop\n        /* \"#utility.yul\":17951:18000   */\n    tag_438:\n        /* \"#utility.yul\":18013:18093   */\n      tag_439\n        /* \"#utility.yul\":18069:18091   */\n      tag_440\n        /* \"#utility.yul\":18087:18090   */\n      dup6\n        /* \"#utility.yul\":18069:18091   */\n      tag_236\n      jump\t// in\n    tag_440:\n        /* \"#utility.yul\":18059:18067   */\n      dup4\n        /* \"#utility.yul\":18055:18092   */\n      add\n        /* \"#utility.yul\":18042:18053   */\n      dup3\n        /* \"#utility.yul\":18013:18093   */\n      tag_245\n      jump\t// in\n    tag_439:\n        /* \"#utility.yul\":17672:18103   */\n      pop\n      pop\n        /* \"#utility.yul\":17657:18103   */\n    tag_435:\n        /* \"#utility.yul\":17567:18110   */\n      pop\n      pop\n      pop\n      jump\t// out\n        /* \"#utility.yul\":18116:18233   */\n    tag_247:\n        /* \"#utility.yul\":18170:18178   */\n      0x00\n        /* \"#utility.yul\":18220:18225   */\n      dup3\n        /* \"#utility.yul\":18214:18218   */\n      dup3\n        /* \"#utility.yul\":18210:18226   */\n      shr\n        /* \"#utility.yul\":18189:18226   */\n      swap1\n      pop\n        /* \"#utility.yul\":18116:18233   */\n      swap3\n      swap2\n      pop\n      pop\n      jump\t// out\n        /* \"#utility.yul\":18239:18408   */\n    tag_248:\n        /* \"#utility.yul\":18283:18289   */\n      0x00\n        /* \"#utility.yul\":18316:18367   */\n      tag_443\n        /* \"#utility.yul\":18364:18365   */\n      0x00\n        /* \"#utility.yul\":18360:18366   */\n      not\n        /* \"#utility.yul\":18352:18357   */\n      dup5\n        /* \"#utility.yul\":18349:18350   */\n      0x08\n        /* \"#utility.yul\":18345:18358   */\n      mul\n        /* \"#utility.yul\":18316:18367   */\n      tag_247\n      jump\t// in\n    tag_443:\n        /* \"#utility.yul\":18312:18368   */\n      not\n        /* \"#utility.yul\":18397:18401   */\n      dup1\n        /* \"#utility.yul\":18391:18395   */\n      dup4\n        /* \"#utility.yul\":18387:18402   */\n      and\n        /* \"#utility.yul\":18377:18402   */\n      swap2\n      pop\n        /* \"#utility.yul\":18290:18408   */\n      pop\n        /* \"#utility.yul\":18239:18408   */\n      swap3\n      swap2\n      pop\n      pop\n      jump\t// out\n        /* \"#utility.yul\":18413:18708   */\n    tag_249:\n        /* \"#utility.yul\":18489:18493   */\n      0x00\n        /* \"#utility.yul\":18635:18664   */\n      tag_445\n        /* \"#utility.yul\":18660:18663   */\n      dup4\n        /* \"#utility.yul\":18654:18658   */\n      dup4\n        /* \"#utility.yul\":18635:18664   */\n      tag_248\n      jump\t// in\n    tag_445:\n        /* \"#utility.yul\":18627:18664   */\n      swap2\n      pop\n        /* \"#utility.yul\":18697:18700   */\n      dup3\n        /* \"#utility.yul\":18694:18695   */\n      0x02\n        /* \"#utility.yul\":18690:18701   */\n      mul\n        /* \"#utility.yul\":18684:18688   */\n      dup3\n        /* \"#utility.yul\":18681:18702   */\n      or\n        /* \"#utility.yul\":18673:18702   */\n      swap1\n      pop\n        /* \"#utility.yul\":18413:18708   */\n      swap3\n      swap2\n      pop\n      pop\n      jump\t// out\n        /* \"#utility.yul\":18713:20108   */\n    tag_110:\n        /* \"#utility.yul\":18830:18867   */\n      tag_447\n        /* \"#utility.yul\":18863:18866   */\n      dup3\n        /* \"#utility.yul\":18830:18867   */\n      tag_195\n      jump\t// in\n    tag_447:\n        /* \"#utility.yul\":18932:18950   */\n      0xffffffffffffffff\n        /* \"#utility.yul\":18924:18930   */\n      dup2\n        /* \"#utility.yul\":18921:18951   */\n      gt\n        /* \"#utility.yul\":18918:18974   */\n      iszero\n      tag_448\n      jumpi\n        /* \"#utility.yul\":18954:18972   */\n      tag_449\n      tag_203\n      jump\t// in\n    tag_449:\n        /* \"#utility.yul\":18918:18974   */\n    tag_448:\n        /* \"#utility.yul\":18998:19036   */\n      tag_450\n        /* \"#utility.yul\":19030:19034   */\n      dup3\n        /* \"#utility.yul\":19024:19035   */\n      sload\n        /* \"#utility.yul\":18998:19036   */\n      tag_92\n      jump\t// in\n    tag_450:\n        /* \"#utility.yul\":19083:19150   */\n      tag_451\n        /* \"#utility.yul\":19143:19149   */\n      dup3\n        /* \"#utility.yul\":19135:19141   */\n      dup3\n        /* \"#utility.yul\":19129:19133   */\n      dup6\n        /* \"#utility.yul\":19083:19150   */\n      tag_246\n      jump\t// in\n    tag_451:\n        /* \"#utility.yul\":19177:19178   */\n      0x00\n        /* \"#utility.yul\":19201:19205   */\n      0x20\n        /* \"#utility.yul\":19188:19205   */\n      swap1\n      pop\n        /* \"#utility.yul\":19233:19235   */\n      0x1f\n        /* \"#utility.yul\":19225:19231   */\n      dup4\n        /* \"#utility.yul\":19222:19236   */\n      gt\n        /* \"#utility.yul\":19250:19251   */\n      0x01\n        /* \"#utility.yul\":19245:19863   */\n      dup2\n      eq\n      tag_453\n      jumpi\n        /* \"#utility.yul\":19907:19908   */\n      0x00\n        /* \"#utility.yul\":19924:19930   */\n      dup5\n        /* \"#utility.yul\":19921:19998   */\n      iszero\n      tag_454\n      jumpi\n        /* \"#utility.yul\":19973:19982   */\n      dup3\n        /* \"#utility.yul\":19968:19971   */\n      dup8\n        /* \"#utility.yul\":19964:19983   */\n      add\n        /* \"#utility.yul\":19958:19984   */\n      mload\n        /* \"#utility.yul\":19949:19984   */\n      swap1\n      pop\n        /* \"#utility.yul\":19921:19998   */\n    tag_454:\n        /* \"#utility.yul\":20024:20091   */\n      tag_455\n        /* \"#utility.yul\":20084:20090   */\n      dup6\n        /* \"#utility.yul\":20077:20082   */\n      dup3\n        /* \"#utility.yul\":20024:20091   */\n      tag_249\n      jump\t// in\n    tag_455:\n        /* \"#utility.yul\":20018:20022   */\n      dup7\n        /* \"#utility.yul\":20011:20092   */\n      sstore\n        /* \"#utility.yul\":19880:20102   */\n      pop\n        /* \"#utility.yul\":19215:20102   */\n      jump(tag_452)\n        /* \"#utility.yul\":19245:19863   */\n    tag_453:\n        /* \"#utility.yul\":19297:19301   */\n      0x1f\n        /* \"#utility.yul\":19293:19302   */\n      not\n        /* \"#utility.yul\":19285:19291   */\n      dup5\n        /* \"#utility.yul\":19281:19303   */\n      and\n        /* \"#utility.yul\":19331:19368   */\n      tag_456\n        /* \"#utility.yul\":19363:19367   */\n      dup7\n        /* \"#utility.yul\":19331:19368   */\n      tag_235\n      jump\t// in\n    tag_456:\n        /* \"#utility.yul\":19390:19391   */\n      0x00\n        /* \"#utility.yul\":19404:19612   */\n    tag_457:\n        /* \"#utility.yul\":19418:19425   */\n      dup3\n        /* \"#utility.yul\":19415:19416   */\n      dup2\n        /* \"#utility.yul\":19412:19426   */\n      lt\n        /* \"#utility.yul\":19404:19612   */\n      iszero\n      tag_459\n      jumpi\n        /* \"#utility.yul\":19497:19506   */\n      dup5\n        /* \"#utility.yul\":19492:19495   */\n      dup10\n        /* \"#utility.yul\":19488:19507   */\n      add\n        /* \"#utility.yul\":19482:19508   */\n      mload\n        /* \"#utility.yul\":19474:19480   */\n      dup3\n        /* \"#utility.yul\":19467:19509   */\n      sstore\n        /* \"#utility.yul\":19548:19549   */\n      0x01\n        /* \"#utility.yul\":19540:19546   */\n      dup3\n        /* \"#utility.yul\":19536:19550   */\n      add\n        /* \"#utility.yul\":19526:19550   */\n      swap2\n      pop\n        /* \"#utility.yul\":19595:19597   */\n      0x20\n        /* \"#utility.yul\":19584:19593   */\n      dup6\n        /* \"#utility.yul\":19580:19598   */\n      add\n        /* \"#utility.yul\":19567:19598   */\n      swap5\n      pop\n        /* \"#utility.yul\":19441:19445   */\n      0x20\n        /* \"#utility.yul\":19438:19439   */\n      dup2\n        /* \"#utility.yul\":19434:19446   */\n      add\n        /* \"#utility.yul\":19429:19446   */\n      swap1\n      pop\n        /* \"#utility.yul\":19404:19612   */\n      jump(tag_457)\n    tag_459:\n        /* \"#utility.yul\":19640:19646   */\n      dup7\n        /* \"#utility.yul\":19631:19638   */\n      dup4\n        /* \"#utility.yul\":19628:19647   */\n      lt\n        /* \"#utility.yul\":19625:19804   */\n      iszero\n      tag_460\n      jumpi\n        /* \"#utility.yul\":19698:19707   */\n      dup5\n        /* \"#utility.yul\":19693:19696   */\n      dup10\n        /* \"#utility.yul\":19689:19708   */\n      add\n        /* \"#utility.yul\":19683:19709   */\n      mload\n        /* \"#utility.yul\":19741:19789   */\n      tag_461\n        /* \"#utility.yul\":19783:19787   */\n      0x1f\n        /* \"#utility.yul\":19775:19781   */\n      dup10\n        /* \"#utility.yul\":19771:19788   */\n      and\n        /* \"#utility.yul\":19760:19769   */\n      dup3\n        /* \"#utility.yul\":19741:19789   */\n      tag_248\n      jump\t// in\n    tag_461:\n        /* \"#utility.yul\":19733:19739   */\n      dup4\n        /* \"#utility.yul\":19726:19790   */\n      sstore\n        /* \"#utility.yul\":19648:19804   */\n      pop\n        /* \"#utility.yul\":19625:19804   */\n    tag_460:\n        /* \"#utility.yul\":19850:19851   */\n      0x01\n        /* \"#utility.yul\":19846:19847   */\n      0x02\n        /* \"#utility.yul\":19838:19844   */\n      dup9\n        /* \"#utility.yul\":19834:19848   */\n      mul\n        /* \"#utility.yul\":19830:19852   */\n      add\n        /* \"#utility.yul\":19824:19828   */\n      dup9\n        /* \"#utility.yul\":19817:19853   */\n      sstore\n        /* \"#utility.yul\":19252:19863   */\n      pop\n      pop\n      pop\n        /* \"#utility.yul\":19215:20102   */\n    tag_452:\n      pop\n        /* \"#utility.yul\":18805:20108   */\n      pop\n      pop\n      pop\n        /* \"#utility.yul\":18713:20108   */\n      pop\n      pop\n      jump\t// out\n        /* \"#utility.yul\":20114:20308   */\n    tag_112:\n        /* \"#utility.yul\":20154:20158   */\n      0x00\n        /* \"#utility.yul\":20174:20194   */\n      tag_463\n        /* \"#utility.yul\":20192:20193   */\n      dup3\n        /* \"#utility.yul\":20174:20194   */\n      tag_192\n      jump\t// in\n    tag_463:\n        /* \"#utility.yul\":20169:20194   */\n      swap2\n      pop\n        /* \"#utility.yul\":20208:20228   */\n      tag_464\n        /* \"#utility.yul\":20226:20227   */\n      dup4\n        /* \"#utility.yul\":20208:20228   */\n      tag_192\n      jump\t// in\n    tag_464:\n        /* \"#utility.yul\":20203:20228   */\n      swap3\n      pop\n        /* \"#utility.yul\":20252:20253   */\n      dup3\n        /* \"#utility.yul\":20249:20250   */\n      dup3\n        /* \"#utility.yul\":20245:20254   */\n      sub\n        /* \"#utility.yul\":20237:20254   */\n      swap1\n      pop\n        /* \"#utility.yul\":20276:20277   */\n      dup2\n        /* \"#utility.yul\":20270:20274   */\n      dup2\n        /* \"#utility.yul\":20267:20278   */\n      gt\n        /* \"#utility.yul\":20264:20301   */\n      iszero\n      tag_465\n      jumpi\n        /* \"#utility.yul\":20281:20299   */\n      tag_466\n      tag_229\n      jump\t// in\n    tag_466:\n        /* \"#utility.yul\":20264:20301   */\n    tag_465:\n        /* \"#utility.yul\":20114:20308   */\n      swap3\n      swap2\n      pop\n      pop\n      jump\t// out\n        /* \"#utility.yul\":20314:20536   */\n    tag_250:\n        /* \"#utility.yul\":20454:20488   */\n      0x43616e277420726567697374657220766f746572732061742074686973207469\n        /* \"#utility.yul\":20450:20451   */\n      0x00\n        /* \"#utility.yul\":20442:20448   */\n      dup3\n        /* \"#utility.yul\":20438:20452   */\n      add\n        /* \"#utility.yul\":20431:20489   */\n      mstore\n        /* \"#utility.yul\":20523:20528   */\n      0x6d652e0000000000000000000000000000000000000000000000000000000000\n        /* \"#utility.yul\":20518:20520   */\n      0x20\n        /* \"#utility.yul\":20510:20516   */\n      dup3\n        /* \"#utility.yul\":20506:20521   */\n      add\n        /* \"#utility.yul\":20499:20529   */\n      mstore\n        /* \"#utility.yul\":20314:20536   */\n      pop\n      jump\t// out\n        /* \"#utility.yul\":20542:20908   */\n    tag_251:\n        /* \"#utility.yul\":20684:20687   */\n      0x00\n        /* \"#utility.yul\":20705:20772   */\n      tag_469\n        /* \"#utility.yul\":20769:20771   */\n      0x23\n        /* \"#utility.yul\":20764:20767   */\n      dup4\n        /* \"#utility.yul\":20705:20772   */\n      tag_196\n      jump\t// in\n    tag_469:\n        /* \"#utility.yul\":20698:20772   */\n      swap2\n      pop\n        /* \"#utility.yul\":20781:20874   */\n      tag_470\n        /* \"#utility.yul\":20870:20873   */\n      dup3\n        /* \"#utility.yul\":20781:20874   */\n      tag_250\n      jump\t// in\n    tag_470:\n        /* \"#utility.yul\":20899:20901   */\n      0x40\n        /* \"#utility.yul\":20894:20897   */\n      dup3\n        /* \"#utility.yul\":20890:20902   */\n      add\n        /* \"#utility.yul\":20883:20902   */\n      swap1\n      pop\n        /* \"#utility.yul\":20542:20908   */\n      swap2\n      swap1\n      pop\n      jump\t// out\n        /* \"#utility.yul\":20914:21333   */\n    tag_124:\n        /* \"#utility.yul\":21080:21084   */\n      0x00\n        /* \"#utility.yul\":21118:21120   */\n      0x20\n        /* \"#utility.yul\":21107:21116   */\n      dup3\n        /* \"#utility.yul\":21103:21121   */\n      add\n        /* \"#utility.yul\":21095:21121   */\n      swap1\n      pop\n        /* \"#utility.yul\":21167:21176   */\n      dup2\n        /* \"#utility.yul\":21161:21165   */\n      dup2\n        /* \"#utility.yul\":21157:21177   */\n      sub\n        /* \"#utility.yul\":21153:21154   */\n      0x00\n        /* \"#utility.yul\":21142:21151   */\n      dup4\n        /* \"#utility.yul\":21138:21155   */\n      add\n        /* \"#utility.yul\":21131:21178   */\n      mstore\n        /* \"#utility.yul\":21195:21326   */\n      tag_472\n        /* \"#utility.yul\":21321:21325   */\n      dup2\n        /* \"#utility.yul\":21195:21326   */\n      tag_251\n      jump\t// in\n    tag_472:\n        /* \"#utility.yul\":21187:21326   */\n      swap1\n      pop\n        /* \"#utility.yul\":20914:21333   */\n      swap2\n      swap1\n      pop\n      jump\t// out\n        /* \"#utility.yul\":21339:21521   */\n    tag_252:\n        /* \"#utility.yul\":21479:21513   */\n      0x54686520766f74657220697320616c726561647920726567697374657265642e\n        /* \"#utility.yul\":21475:21476   */\n      0x00\n        /* \"#utility.yul\":21467:21473   */\n      dup3\n        /* \"#utility.yul\":21463:21477   */\n      add\n        /* \"#utility.yul\":21456:21514   */\n      mstore\n        /* \"#utility.yul\":21339:21521   */\n      pop\n      jump\t// out\n        /* \"#utility.yul\":21527:21893   */\n    tag_253:\n        /* \"#utility.yul\":21669:21672   */\n      0x00\n        /* \"#utility.yul\":21690:21757   */\n      tag_475\n        /* \"#utility.yul\":21754:21756   */\n      0x20\n        /* \"#utility.yul\":21749:21752   */\n      dup4\n        /* \"#utility.yul\":21690:21757   */\n      tag_196\n      jump\t// in\n    tag_475:\n        /* \"#utility.yul\":21683:21757   */\n      swap2\n      pop\n        /* \"#utility.yul\":21766:21859   */\n      tag_476\n        /* \"#utility.yul\":21855:21858   */\n      dup3\n        /* \"#utility.yul\":21766:21859   */\n      tag_252\n      jump\t// in\n    tag_476:\n        /* \"#utility.yul\":21884:21886   */\n      0x20\n        /* \"#utility.yul\":21879:21882   */\n      dup3\n        /* \"#utility.yul\":21875:21887   */\n      add\n        /* \"#utility.yul\":21868:21887   */\n      swap1\n      pop\n        /* \"#utility.yul\":21527:21893   */\n      swap2\n      swap1\n      pop\n      jump\t// out\n        /* \"#utility.yul\":21899:22318   */\n    tag_127:\n        /* \"#utility.yul\":22065:22069   */\n      0x00\n        /* \"#utility.yul\":22103:22105   */\n      0x20\n        /* \"#utility.yul\":22092:22101   */\n      dup3\n        /* \"#utility.yul\":22088:22106   */\n      add\n        /* \"#utility.yul\":22080:22106   */\n      swap1\n      pop\n        /* \"#utility.yul\":22152:22161   */\n      dup2\n        /* \"#utility.yul\":22146:22150   */\n      dup2\n        /* \"#utility.yul\":22142:22162   */\n      sub\n        /* \"#utility.yul\":22138:22139   */\n      0x00\n        /* \"#utility.yul\":22127:22136   */\n      dup4\n        /* \"#utility.yul\":22123:22140   */\n      add\n        /* \"#utility.yul\":22116:22163   */\n      mstore\n        /* \"#utility.yul\":22180:22311   */\n      tag_478\n        /* \"#utility.yul\":22306:22310   */\n      dup2\n        /* \"#utility.yul\":22180:22311   */\n      tag_253\n      jump\t// in\n    tag_478:\n        /* \"#utility.yul\":22172:22311   */\n      swap1\n      pop\n        /* \"#utility.yul\":21899:22318   */\n      swap2\n      swap1\n      pop\n      jump\t// out\n        /* \"#utility.yul\":22324:22545   */\n    tag_254:\n        /* \"#utility.yul\":22464:22498   */\n      0x43616e277420676574207468652077696e6e657220617420746869732074696d\n        /* \"#utility.yul\":22460:22461   */\n      0x00\n        /* \"#utility.yul\":22452:22458   */\n      dup3\n        /* \"#utility.yul\":22448:22462   */\n      add\n        /* \"#utility.yul\":22441:22499   */\n      mstore\n        /* \"#utility.yul\":22533:22537   */\n      0x652e000000000000000000000000000000000000000000000000000000000000\n        /* \"#utility.yul\":22528:22530   */\n      0x20\n        /* \"#utility.yul\":22520:22526   */\n      dup3\n        /* \"#utility.yul\":22516:22531   */\n      add\n        /* \"#utility.yul\":22509:22538   */\n      mstore\n        /* \"#utility.yul\":22324:22545   */\n      pop\n      jump\t// out\n        /* \"#utility.yul\":22551:22917   */\n    tag_255:\n        /* \"#utility.yul\":22693:22696   */\n      0x00\n        /* \"#utility.yul\":22714:22781   */\n      tag_481\n        /* \"#utility.yul\":22778:22780   */\n      0x22\n        /* \"#utility.yul\":22773:22776   */\n      dup4\n        /* \"#utility.yul\":22714:22781   */\n      tag_196\n      jump\t// in\n    tag_481:\n        /* \"#utility.yul\":22707:22781   */\n      swap2\n      pop\n        /* \"#utility.yul\":22790:22883   */\n      tag_482\n        /* \"#utility.yul\":22879:22882   */\n      dup3\n        /* \"#utility.yul\":22790:22883   */\n      tag_254\n      jump\t// in\n    tag_482:\n        /* \"#utility.yul\":22908:22910   */\n      0x40\n        /* \"#utility.yul\":22903:22906   */\n      dup3\n        /* \"#utility.yul\":22899:22911   */\n      add\n        /* \"#utility.yul\":22892:22911   */\n      swap1\n      pop\n        /* \"#utility.yul\":22551:22917   */\n      swap2\n      swap1\n      pop\n      jump\t// out\n        /* \"#utility.yul\":22923:23342   */\n    tag_142:\n        /* \"#utility.yul\":23089:23093   */\n      0x00\n        /* \"#utility.yul\":23127:23129   */\n      0x20\n        /* \"#utility.yul\":23116:23125   */\n      dup3\n        /* \"#utility.yul\":23112:23130   */\n      add\n        /* \"#utility.yul\":23104:23130   */\n      swap1\n      pop\n        /* \"#utility.yul\":23176:23185   */\n      dup2\n        /* \"#utility.yul\":23170:23174   */\n      dup2\n        /* \"#utility.yul\":23166:23186   */\n      sub\n        /* \"#utility.yul\":23162:23163   */\n      0x00\n        /* \"#utility.yul\":23151:23160   */\n      dup4\n        /* \"#utility.yul\":23147:23164   */\n      add\n        /* \"#utility.yul\":23140:23187   */\n      mstore\n        /* \"#utility.yul\":23204:23335   */\n      tag_484\n        /* \"#utility.yul\":23330:23334   */\n      dup2\n        /* \"#utility.yul\":23204:23335   */\n      tag_255\n      jump\t// in\n    tag_484:\n        /* \"#utility.yul\":23196:23335   */\n      swap1\n      pop\n        /* \"#utility.yul\":22923:23342   */\n      swap2\n      swap1\n      pop\n      jump\t// out\n        /* \"#utility.yul\":23348:23744   */\n    tag_160:\n        /* \"#utility.yul\":23501:23505   */\n      0x00\n        /* \"#utility.yul\":23539:23541   */\n      0x40\n        /* \"#utility.yul\":23528:23537   */\n      dup3\n        /* \"#utility.yul\":23524:23542   */\n      add\n        /* \"#utility.yul\":23516:23542   */\n      swap1\n      pop\n        /* \"#utility.yul\":23552:23639   */\n      tag_486\n        /* \"#utility.yul\":23636:23637   */\n      0x00\n        /* \"#utility.yul\":23625:23634   */\n      dup4\n        /* \"#utility.yul\":23621:23638   */\n      add\n        /* \"#utility.yul\":23612:23618   */\n      dup6\n        /* \"#utility.yul\":23552:23639   */\n      tag_218\n      jump\t// in\n    tag_486:\n        /* \"#utility.yul\":23649:23737   */\n      tag_487\n        /* \"#utility.yul\":23733:23735   */\n      0x20\n        /* \"#utility.yul\":23722:23731   */\n      dup4\n        /* \"#utility.yul\":23718:23736   */\n      add\n        /* \"#utility.yul\":23709:23715   */\n      dup5\n        /* \"#utility.yul\":23649:23737   */\n      tag_218\n      jump\t// in\n    tag_487:\n        /* \"#utility.yul\":23348:23744   */\n      swap4\n      swap3\n      pop\n      pop\n      pop\n      jump\t// out\n        /* \"#utility.yul\":23750:23975   */\n    tag_256:\n        /* \"#utility.yul\":23890:23924   */\n      0x4f776e61626c653a206e6577206f776e657220697320746865207a65726f2061\n        /* \"#utility.yul\":23886:23887   */\n      0x00\n        /* \"#utility.yul\":23878:23884   */\n      dup3\n        /* \"#utility.yul\":23874:23888   */\n      add\n        /* \"#utility.yul\":23867:23925   */\n      mstore\n        /* \"#utility.yul\":23959:23967   */\n      0x6464726573730000000000000000000000000000000000000000000000000000\n        /* \"#utility.yul\":23954:23956   */\n      0x20\n        /* \"#utility.yul\":23946:23952   */\n      dup3\n        /* \"#utility.yul\":23942:23957   */\n      add\n        /* \"#utility.yul\":23935:23968   */\n      mstore\n        /* \"#utility.yul\":23750:23975   */\n      pop\n      jump\t// out\n        /* \"#utility.yul\":23981:24347   */\n    tag_257:\n        /* \"#utility.yul\":24123:24126   */\n      0x00\n        /* \"#utility.yul\":24144:24211   */\n      tag_490\n        /* \"#utility.yul\":24208:24210   */\n      0x26\n        /* \"#utility.yul\":24203:24206   */\n      dup4\n        /* \"#utility.yul\":24144:24211   */\n      tag_196\n      jump\t// in\n    tag_490:\n        /* \"#utility.yul\":24137:24211   */\n      swap2\n      pop\n        /* \"#utility.yul\":24220:24313   */\n      tag_491\n        /* \"#utility.yul\":24309:24312   */\n      dup3\n        /* \"#utility.yul\":24220:24313   */\n      tag_256\n      jump\t// in\n    tag_491:\n        /* \"#utility.yul\":24338:24340   */\n      0x40\n        /* \"#utility.yul\":24333:24336   */\n      dup3\n        /* \"#utility.yul\":24329:24341   */\n      add\n        /* \"#utility.yul\":24322:24341   */\n      swap1\n      pop\n        /* \"#utility.yul\":23981:24347   */\n      swap2\n      swap1\n      pop\n      jump\t// out\n        /* \"#utility.yul\":24353:24772   */\n    tag_178:\n        /* \"#utility.yul\":24519:24523   */\n      0x00\n        /* \"#utility.yul\":24557:24559   */\n      0x20\n        /* \"#utility.yul\":24546:24555   */\n      dup3\n        /* \"#utility.yul\":24542:24560   */\n      add\n        /* \"#utility.yul\":24534:24560   */\n      swap1\n      pop\n        /* \"#utility.yul\":24606:24615   */\n      dup2\n        /* \"#utility.yul\":24600:24604   */\n      dup2\n        /* \"#utility.yul\":24596:24616   */\n      sub\n        /* \"#utility.yul\":24592:24593   */\n      0x00\n        /* \"#utility.yul\":24581:24590   */\n      dup4\n        /* \"#utility.yul\":24577:24594   */\n      add\n        /* \"#utility.yul\":24570:24617   */\n      mstore\n        /* \"#utility.yul\":24634:24765   */\n      tag_493\n        /* \"#utility.yul\":24760:24764   */\n      dup2\n        /* \"#utility.yul\":24634:24765   */\n      tag_257\n      jump\t// in\n    tag_493:\n        /* \"#utility.yul\":24626:24765   */\n      swap1\n      pop\n        /* \"#utility.yul\":24353:24772   */\n      swap2\n      swap1\n      pop\n      jump\t// out\n        /* \"#utility.yul\":24778:24960   */\n    tag_258:\n        /* \"#utility.yul\":24918:24952   */\n      0x4f776e61626c653a2063616c6c6572206973206e6f7420746865206f776e6572\n        /* \"#utility.yul\":24914:24915   */\n      0x00\n        /* \"#utility.yul\":24906:24912   */\n      dup3\n        /* \"#utility.yul\":24902:24916   */\n      add\n        /* \"#utility.yul\":24895:24953   */\n      mstore\n        /* \"#utility.yul\":24778:24960   */\n      pop\n      jump\t// out\n        /* \"#utility.yul\":24966:25332   */\n    tag_259:\n        /* \"#utility.yul\":25108:25111   */\n      0x00\n        /* \"#utility.yul\":25129:25196   */\n      tag_496\n        /* \"#utility.yul\":25193:25195   */\n      0x20\n        /* \"#utility.yul\":25188:25191   */\n      dup4\n        /* \"#utility.yul\":25129:25196   */\n      tag_196\n      jump\t// in\n    tag_496:\n        /* \"#utility.yul\":25122:25196   */\n      swap2\n      pop\n        /* \"#utility.yul\":25205:25298   */\n      tag_497\n        /* \"#utility.yul\":25294:25297   */\n      dup3\n        /* \"#utility.yul\":25205:25298   */\n      tag_258\n      jump\t// in\n    tag_497:\n        /* \"#utility.yul\":25323:25325   */\n      0x20\n        /* \"#utility.yul\":25318:25321   */\n      dup3\n        /* \"#utility.yul\":25314:25326   */\n      add\n        /* \"#utility.yul\":25307:25326   */\n      swap1\n      pop\n        /* \"#utility.yul\":24966:25332   */\n      swap2\n      swap1\n      pop\n      jump\t// out\n        /* \"#utility.yul\":25338:25757   */\n    tag_186:\n        /* \"#utility.yul\":25504:25508   */\n      0x00\n        /* \"#utility.yul\":25542:25544   */\n      0x20\n        /* \"#utility.yul\":25531:25540   */\n      dup3\n        /* \"#utility.yul\":25527:25545   */\n      add\n        /* \"#utility.yul\":25519:25545   */\n      swap1\n      pop\n        /* \"#utility.yul\":25591:25600   */\n      dup2\n        /* \"#utility.yul\":25585:25589   */\n      dup2\n        /* \"#utility.yul\":25581:25601   */\n      sub\n        /* \"#utility.yul\":25577:25578   */\n      0x00\n        /* \"#utility.yul\":25566:25575   */\n      dup4\n        /* \"#utility.yul\":25562:25579   */\n      add\n        /* \"#utility.yul\":25555:25602   */\n      mstore\n        /* \"#utility.yul\":25619:25750   */\n      tag_499\n        /* \"#utility.yul\":25745:25749   */\n      dup2\n        /* \"#utility.yul\":25619:25750   */\n      tag_259\n      jump\t// in\n    tag_499:\n        /* \"#utility.yul\":25611:25750   */\n      swap1\n      pop\n        /* \"#utility.yul\":25338:25757   */\n      swap2\n      swap1\n      pop\n      jump\t// out\n\n    auxdata: 0xa264697066735822122087ac44a8f081b4b01411ad77ac1394b8f3e99a80be5fc98e9611312994d0f4c664736f6c63430008150033\n}\n",
				"bytecode": {
					"linkReferences": {},
					"object": "608060405234801561001057600080fd5b5061002d61002261003260201b60201c565b61003a60201b60201c565b6100fe565b600033905090565b60008060009054906101000a900473ffffffffffffffffffffffffffffffffffffffff169050816000806101000a81548173ffffffffffffffffffffffffffffffffffffffff021916908373ffffffffffffffffffffffffffffffffffffffff1602179055508173ffffffffffffffffffffffffffffffffffffffff168173ffffffffffffffffffffffffffffffffffffffff167f8be0079c531659141344cd1fd0a4f28419497f9722a3daafe3b4186f6b6457e060405160405180910390a35050565b611c6f8061010d6000396000f3fe608060405234801561001057600080fd5b50600436106100cf5760003560e01c80638e7ea5b21161008c578063a7bfab1611610066578063a7bfab16146101ef578063e09b8c79146101f9578063ee74c67814610203578063f2fde38b1461020d576100cf565b80638e7ea5b214610181578063a1edffa21461019f578063a3ec138d146101bd576100cf565b80630121b93f146100d4578063013cf08b146100f05780632f95355b1461012157806338db6dd31461013d578063715018a6146101595780638da5cb5b14610163575b600080fd5b6100ee60048036038101906100e99190610e9f565b610229565b005b61010a60048036038101906101059190610e9f565b61051d565b604051610118929190610f6b565b60405180910390f35b61013b600480360381019061013691906110d0565b6105d9565b005b61015760048036038101906101529190611177565b61078c565b005b610161610982565b005b61016b610996565b60405161017891906111b3565b60405180910390f35b6101896109bf565b60405161019691906111ce565b60405180910390f35b6101a7610ab8565b6040516101b49190611260565b60405180910390f35b6101d760048036038101906101d29190611177565b610acb565b6040516101e693929190611296565b60405180910390f35b6101f7610b0f565b005b610201610b8d565b005b61020b610c0b565b005b61022760048036038101906102229190611177565b610c88565b005b6003600581111561023d5761023c6111e9565b5b600360009054906101000a900460ff16600581111561025f5761025e6111e9565b5b1461029f576040517f08c379a000000000000000000000000000000000000000000000000000000000815260040161029690611319565b60405180910390fd5b600160003373ffffffffffffffffffffffffffffffffffffffff1673ffffffffffffffffffffffffffffffffffffffff16815260200190815260200160002060000160009054906101000a900460ff1661032e576040517f08c379a000000000000000000000000000000000000000000000000000000000815260040161032590611385565b60405180910390fd5b600160003373ffffffffffffffffffffffffffffffffffffffff1673ffffffffffffffffffffffffffffffffffffffff16815260200190815260200160002060000160019054906101000a900460ff16156103be576040517f08c379a00000000000000000000000000000000000000000000000000000000081526004016103b5906113f1565b60405180910390fd5b6002805490508110610405576040517f08c379a00000000000000000000000000000000000000000000000000000000081526004016103fc9061145d565b60405180910390fd5b60018060003373ffffffffffffffffffffffffffffffffffffffff1673ffffffffffffffffffffffffffffffffffffffff16815260200190815260200160002060000160016101000a81548160ff02191690831515021790555080600160003373ffffffffffffffffffffffffffffffffffffffff1673ffffffffffffffffffffffffffffffffffffffff16815260200190815260200160002060010181905550600281815481106104ba576104b961147d565b5b906000526020600020906002020160010160008154809291906104dc906114db565b91905055507f4d99b957a2bc29a30ebd96a7be8e68fe50a3c701db28a91436490b7d53870ca43382604051610512929190611523565b60405180910390a150565b6002818154811061052d57600080fd5b90600052602060002090600202016000915090508060000180546105509061157b565b80601f016020809104026020016040519081016040528092919081815260200182805461057c9061157b565b80156105c95780601f1061059e576101008083540402835291602001916105c9565b820191906000526020600020905b8154815290600101906020018083116105ac57829003601f168201915b5050505050908060010154905082565b600160058111156105ed576105ec6111e9565b5b600360009054906101000a900460ff16600581111561060f5761060e6111e9565b5b1461064f576040517f08c379a00000000000000000000000000000000000000000000000000000000081526004016106469061161e565b60405180910390fd5b600160003373ffffffffffffffffffffffffffffffffffffffff1673ffffffffffffffffffffffffffffffffffffffff16815260200190815260200160002060000160009054906101000a900460ff166106de576040517f08c379a00000000000000000000000000000000000000000000000000000000081526004016106d5906116b0565b60405180910390fd5b60026040518060400160405280838152602001600081525090806001815401808255809150506001900390600052602060002090600202016000909190919091506000820151816000019081610734919061187c565b506020820151816001015550507f92e393e9b54e2f801d3ea4beb0c5e71a21cc34a5d34b77d0fb8a3aa1650dc18f6001600280549050610774919061194e565b60405161078191906111ce565b60405180910390a150565b610794610d0b565b600060058111156107a8576107a76111e9565b5b600360009054906101000a900460ff1660058111156107ca576107c96111e9565b5b1461080a576040517f08c379a0000000000000000000000000000000000000000000000000000000008152600401610801906119f4565b60405180910390fd5b600160008273ffffffffffffffffffffffffffffffffffffffff1673ffffffffffffffffffffffffffffffffffffffff16815260200190815260200160002060000160009054906101000a900460ff161561089a576040517f08c379a000000000000000000000000000000000000000000000000000000000815260040161089190611a60565b60405180910390fd5b60405180606001604052806001151581526020016000151581526020016000815250600160008373ffffffffffffffffffffffffffffffffffffffff1673ffffffffffffffffffffffffffffffffffffffff16815260200190815260200160002060008201518160000160006101000a81548160ff02191690831515021790555060208201518160000160016101000a81548160ff021916908315150217905550604082015181600101559050507fb6be2187d059cc2a55fe29e0e503b566e1e0f8c8780096e185429350acffd3dd8160405161097791906111b3565b60405180910390a150565b61098a610d0b565b6109946000610d89565b565b60008060009054906101000a900473ffffffffffffffffffffffffffffffffffffffff16905090565b60006005808111156109d4576109d36111e9565b5b600360009054906101000a900460ff1660058111156109f6576109f56111e9565b5b14610a36576040517f08c379a0000000000000000000000000000000000000000000000000000000008152600401610a2d90611af2565b60405180910390fd5b6000805b600280549050811015610ab3578160028281548110610a5c57610a5b61147d565b5b9060005260206000209060020201600101541115610aa05760028181548110610a8857610a8761147d565b5b90600052602060002090600202016001015491508092505b8080610aab906114db565b915050610a3a565b505090565b600360009054906101000a900460ff1681565b60016020528060005260406000206000915090508060000160009054906101000a900460ff16908060000160019054906101000a900460ff16908060010154905083565b610b17610d0b565b6005600360006101000a81548160ff02191690836005811115610b3d57610b3c6111e9565b5b02179055507f0a97a4ee45751e2abf3e4fc8946939630b11b371ea8ae39ccdc3056e98f5cc3f6004600360009054906101000a900460ff16604051610b83929190611b12565b60405180910390a1565b610b95610d0b565b6001600360006101000a81548160ff02191690836005811115610bbb57610bba6111e9565b5b02179055507f0a97a4ee45751e2abf3e4fc8946939630b11b371ea8ae39ccdc3056e98f5cc3f6000600360009054906101000a900460ff16604051610c01929190611b12565b60405180910390a1565b610c13610d0b565b60038060006101000a81548160ff02191690836005811115610c3857610c376111e9565b5b02179055507f0a97a4ee45751e2abf3e4fc8946939630b11b371ea8ae39ccdc3056e98f5cc3f6002600360009054906101000a900460ff16604051610c7e929190611b12565b60405180910390a1565b610c90610d0b565b600073ffffffffffffffffffffffffffffffffffffffff168173ffffffffffffffffffffffffffffffffffffffff1603610cff576040517f08c379a0000000000000000000000000000000000000000000000000000000008152600401610cf690611bad565b60405180910390fd5b610d0881610d89565b50565b610d13610e4d565b73ffffffffffffffffffffffffffffffffffffffff16610d31610996565b73ffffffffffffffffffffffffffffffffffffffff1614610d87576040517f08c379a0000000000000000000000000000000000000000000000000000000008152600401610d7e90611c19565b60405180910390fd5b565b60008060009054906101000a900473ffffffffffffffffffffffffffffffffffffffff169050816000806101000a81548173ffffffffffffffffffffffffffffffffffffffff021916908373ffffffffffffffffffffffffffffffffffffffff1602179055508173ffffffffffffffffffffffffffffffffffffffff168173ffffffffffffffffffffffffffffffffffffffff167f8be0079c531659141344cd1fd0a4f28419497f9722a3daafe3b4186f6b6457e060405160405180910390a35050565b600033905090565b6000604051905090565b600080fd5b600080fd5b6000819050919050565b610e7c81610e69565b8114610e8757600080fd5b50565b600081359050610e9981610e73565b92915050565b600060208284031215610eb557610eb4610e5f565b5b6000610ec384828501610e8a565b91505092915050565b600081519050919050565b600082825260208201905092915050565b60005b83811015610f06578082015181840152602081019050610eeb565b60008484015250505050565b6000601f19601f8301169050919050565b6000610f2e82610ecc565b610f388185610ed7565b9350610f48818560208601610ee8565b610f5181610f12565b840191505092915050565b610f6581610e69565b82525050565b60006040820190508181036000830152610f858185610f23565b9050610f946020830184610f5c565b9392505050565b600080fd5b600080fd5b7f4e487b7100000000000000000000000000000000000000000000000000000000600052604160045260246000fd5b610fdd82610f12565b810181811067ffffffffffffffff82111715610ffc57610ffb610fa5565b5b80604052505050565b600061100f610e55565b905061101b8282610fd4565b919050565b600067ffffffffffffffff82111561103b5761103a610fa5565b5b61104482610f12565b9050602081019050919050565b82818337600083830152505050565b600061107361106e84611020565b611005565b90508281526020810184848401111561108f5761108e610fa0565b5b61109a848285611051565b509392505050565b600082601f8301126110b7576110b6610f9b565b5b81356110c7848260208601611060565b91505092915050565b6000602082840312156110e6576110e5610e5f565b5b600082013567ffffffffffffffff81111561110457611103610e64565b5b611110848285016110a2565b91505092915050565b600073ffffffffffffffffffffffffffffffffffffffff82169050919050565b600061114482611119565b9050919050565b61115481611139565b811461115f57600080fd5b50565b6000813590506111718161114b565b92915050565b60006020828403121561118d5761118c610e5f565b5b600061119b84828501611162565b91505092915050565b6111ad81611139565b82525050565b60006020820190506111c860008301846111a4565b92915050565b60006020820190506111e36000830184610f5c565b92915050565b7f4e487b7100000000000000000000000000000000000000000000000000000000600052602160045260246000fd5b60068110611229576112286111e9565b5b50565b600081905061123a82611218565b919050565b600061124a8261122c565b9050919050565b61125a8161123f565b82525050565b60006020820190506112756000830184611251565b92915050565b60008115159050919050565b6112908161127b565b82525050565b60006060820190506112ab6000830186611287565b6112b86020830185611287565b6112c56040830184610f5c565b949350505050565b7f43616e277420766f746520617420746869732074696d652e0000000000000000600082015250565b6000611303601883610ed7565b915061130e826112cd565b602082019050919050565b60006020820190508181036000830152611332816112f6565b9050919050565b7f4f6e6c79207265676973746572656420766f746572732063616e20766f74652e600082015250565b600061136f602083610ed7565b915061137a82611339565b602082019050919050565b6000602082019050818103600083015261139e81611362565b9050919050565b7f54686520766f7465722068617320616c726561647920766f7465642e00000000600082015250565b60006113db601c83610ed7565b91506113e6826113a5565b602082019050919050565b6000602082019050818103600083015261140a816113ce565b9050919050565b7f496e76616c69642070726f706f73616c2049442e000000000000000000000000600082015250565b6000611447601483610ed7565b915061145282611411565b602082019050919050565b600060208201905081810360008301526114768161143a565b9050919050565b7f4e487b7100000000000000000000000000000000000000000000000000000000600052603260045260246000fd5b7f4e487b7100000000000000000000000000000000000000000000000000000000600052601160045260246000fd5b60006114e682610e69565b91507fffffffffffffffffffffffffffffffffffffffffffffffffffffffffffffffff8203611518576115176114ac565b5b600182019050919050565b600060408201905061153860008301856111a4565b6115456020830184610f5c565b9392505050565b7f4e487b7100000000000000000000000000000000000000000000000000000000600052602260045260246000fd5b6000600282049050600182168061159357607f821691505b6020821081036115a6576115a561154c565b5b50919050565b7f43616e27742072656769737465722070726f706f73616c73206174207468697360008201527f2074696d652e0000000000000000000000000000000000000000000000000000602082015250565b6000611608602683610ed7565b9150611613826115ac565b604082019050919050565b60006020820190508181036000830152611637816115fb565b9050919050565b7f4f6e6c79207265676973746572656420766f746572732063616e207375626d6960008201527f742070726f706f73616c732e0000000000000000000000000000000000000000602082015250565b600061169a602c83610ed7565b91506116a58261163e565b604082019050919050565b600060208201905081810360008301526116c98161168d565b9050919050565b60008190508160005260206000209050919050565b60006020601f8301049050919050565b600082821b905092915050565b6000600883026117327fffffffffffffffffffffffffffffffffffffffffffffffffffffffffffffffff826116f5565b61173c86836116f5565b95508019841693508086168417925050509392505050565b6000819050919050565b600061177961177461176f84610e69565b611754565b610e69565b9050919050565b6000819050919050565b6117938361175e565b6117a761179f82611780565b848454611702565b825550505050565b600090565b6117bc6117af565b6117c781848461178a565b505050565b5b818110156117eb576117e06000826117b4565b6001810190506117cd565b5050565b601f82111561183057611801816116d0565b61180a846116e5565b81016020851015611819578190505b61182d611825856116e5565b8301826117cc565b50505b505050565b600082821c905092915050565b600061185360001984600802611835565b1980831691505092915050565b600061186c8383611842565b9150826002028217905092915050565b61188582610ecc565b67ffffffffffffffff81111561189e5761189d610fa5565b5b6118a8825461157b565b6118b38282856117ef565b600060209050601f8311600181146118e657600084156118d4578287015190505b6118de8582611860565b865550611946565b601f1984166118f4866116d0565b60005b8281101561191c578489015182556001820191506020850194506020810190506118f7565b868310156119395784890151611935601f891682611842565b8355505b6001600288020188555050505b505050505050565b600061195982610e69565b915061196483610e69565b925082820390508181111561197c5761197b6114ac565b5b92915050565b7f43616e277420726567697374657220766f74657273206174207468697320746960008201527f6d652e0000000000000000000000000000000000000000000000000000000000602082015250565b60006119de602383610ed7565b91506119e982611982565b604082019050919050565b60006020820190508181036000830152611a0d816119d1565b9050919050565b7f54686520766f74657220697320616c726561647920726567697374657265642e600082015250565b6000611a4a602083610ed7565b9150611a5582611a14565b602082019050919050565b60006020820190508181036000830152611a7981611a3d565b9050919050565b7f43616e277420676574207468652077696e6e657220617420746869732074696d60008201527f652e000000000000000000000000000000000000000000000000000000000000602082015250565b6000611adc602283610ed7565b9150611ae782611a80565b604082019050919050565b60006020820190508181036000830152611b0b81611acf565b9050919050565b6000604082019050611b276000830185611251565b611b346020830184611251565b9392505050565b7f4f776e61626c653a206e6577206f776e657220697320746865207a65726f206160008201527f6464726573730000000000000000000000000000000000000000000000000000602082015250565b6000611b97602683610ed7565b9150611ba282611b3b565b604082019050919050565b60006020820190508181036000830152611bc681611b8a565b9050919050565b7f4f776e61626c653a2063616c6c6572206973206e6f7420746865206f776e6572600082015250565b6000611c03602083610ed7565b9150611c0e82611bcd565b602082019050919050565b60006020820190508181036000830152611c3281611bf6565b905091905056fea264697066735822122087ac44a8f081b4b01411ad77ac1394b8f3e99a80be5fc98e9611312994d0f4c664736f6c63430008150033",
					"opcodes": "PUSH1 0x80 PUSH1 0x40 MSTORE CALLVALUE DUP1 ISZERO PUSH2 0x10 JUMPI PUSH1 0x0 DUP1 REVERT JUMPDEST POP PUSH2 0x2D PUSH2 0x22 PUSH2 0x32 PUSH1 0x20 SHL PUSH1 0x20 SHR JUMP JUMPDEST PUSH2 0x3A PUSH1 0x20 SHL PUSH1 0x20 SHR JUMP JUMPDEST PUSH2 0xFE JUMP JUMPDEST PUSH1 0x0 CALLER SWAP1 POP SWAP1 JUMP JUMPDEST PUSH1 0x0 DUP1 PUSH1 0x0 SWAP1 SLOAD SWAP1 PUSH2 0x100 EXP SWAP1 DIV PUSH20 0xFFFFFFFFFFFFFFFFFFFFFFFFFFFFFFFFFFFFFFFF AND SWAP1 POP DUP2 PUSH1 0x0 DUP1 PUSH2 0x100 EXP DUP2 SLOAD DUP2 PUSH20 0xFFFFFFFFFFFFFFFFFFFFFFFFFFFFFFFFFFFFFFFF MUL NOT AND SWAP1 DUP4 PUSH20 0xFFFFFFFFFFFFFFFFFFFFFFFFFFFFFFFFFFFFFFFF AND MUL OR SWAP1 SSTORE POP DUP2 PUSH20 0xFFFFFFFFFFFFFFFFFFFFFFFFFFFFFFFFFFFFFFFF AND DUP2 PUSH20 0xFFFFFFFFFFFFFFFFFFFFFFFFFFFFFFFFFFFFFFFF AND PUSH32 0x8BE0079C531659141344CD1FD0A4F28419497F9722A3DAAFE3B4186F6B6457E0 PUSH1 0x40 MLOAD PUSH1 0x40 MLOAD DUP1 SWAP2 SUB SWAP1 LOG3 POP POP JUMP JUMPDEST PUSH2 0x1C6F DUP1 PUSH2 0x10D PUSH1 0x0 CODECOPY PUSH1 0x0 RETURN INVALID PUSH1 0x80 PUSH1 0x40 MSTORE CALLVALUE DUP1 ISZERO PUSH2 0x10 JUMPI PUSH1 0x0 DUP1 REVERT JUMPDEST POP PUSH1 0x4 CALLDATASIZE LT PUSH2 0xCF JUMPI PUSH1 0x0 CALLDATALOAD PUSH1 0xE0 SHR DUP1 PUSH4 0x8E7EA5B2 GT PUSH2 0x8C JUMPI DUP1 PUSH4 0xA7BFAB16 GT PUSH2 0x66 JUMPI DUP1 PUSH4 0xA7BFAB16 EQ PUSH2 0x1EF JUMPI DUP1 PUSH4 0xE09B8C79 EQ PUSH2 0x1F9 JUMPI DUP1 PUSH4 0xEE74C678 EQ PUSH2 0x203 JUMPI DUP1 PUSH4 0xF2FDE38B EQ PUSH2 0x20D JUMPI PUSH2 0xCF JUMP JUMPDEST DUP1 PUSH4 0x8E7EA5B2 EQ PUSH2 0x181 JUMPI DUP1 PUSH4 0xA1EDFFA2 EQ PUSH2 0x19F JUMPI DUP1 PUSH4 0xA3EC138D EQ PUSH2 0x1BD JUMPI PUSH2 0xCF JUMP JUMPDEST DUP1 PUSH4 0x121B93F EQ PUSH2 0xD4 JUMPI DUP1 PUSH4 0x13CF08B EQ PUSH2 0xF0 JUMPI DUP1 PUSH4 0x2F95355B EQ PUSH2 0x121 JUMPI DUP1 PUSH4 0x38DB6DD3 EQ PUSH2 0x13D JUMPI DUP1 PUSH4 0x715018A6 EQ PUSH2 0x159 JUMPI DUP1 PUSH4 0x8DA5CB5B EQ PUSH2 0x163 JUMPI JUMPDEST PUSH1 0x0 DUP1 REVERT JUMPDEST PUSH2 0xEE PUSH1 0x4 DUP1 CALLDATASIZE SUB DUP2 ADD SWAP1 PUSH2 0xE9 SWAP2 SWAP1 PUSH2 0xE9F JUMP JUMPDEST PUSH2 0x229 JUMP JUMPDEST STOP JUMPDEST PUSH2 0x10A PUSH1 0x4 DUP1 CALLDATASIZE SUB DUP2 ADD SWAP1 PUSH2 0x105 SWAP2 SWAP1 PUSH2 0xE9F JUMP JUMPDEST PUSH2 0x51D JUMP JUMPDEST PUSH1 0x40 MLOAD PUSH2 0x118 SWAP3 SWAP2 SWAP1 PUSH2 0xF6B JUMP JUMPDEST PUSH1 0x40 MLOAD DUP1 SWAP2 SUB SWAP1 RETURN JUMPDEST PUSH2 0x13B PUSH1 0x4 DUP1 CALLDATASIZE SUB DUP2 ADD SWAP1 PUSH2 0x136 SWAP2 SWAP1 PUSH2 0x10D0 JUMP JUMPDEST PUSH2 0x5D9 JUMP JUMPDEST STOP JUMPDEST PUSH2 0x157 PUSH1 0x4 DUP1 CALLDATASIZE SUB DUP2 ADD SWAP1 PUSH2 0x152 SWAP2 SWAP1 PUSH2 0x1177 JUMP JUMPDEST PUSH2 0x78C JUMP JUMPDEST STOP JUMPDEST PUSH2 0x161 PUSH2 0x982 JUMP JUMPDEST STOP JUMPDEST PUSH2 0x16B PUSH2 0x996 JUMP JUMPDEST PUSH1 0x40 MLOAD PUSH2 0x178 SWAP2 SWAP1 PUSH2 0x11B3 JUMP JUMPDEST PUSH1 0x40 MLOAD DUP1 SWAP2 SUB SWAP1 RETURN JUMPDEST PUSH2 0x189 PUSH2 0x9BF JUMP JUMPDEST PUSH1 0x40 MLOAD PUSH2 0x196 SWAP2 SWAP1 PUSH2 0x11CE JUMP JUMPDEST PUSH1 0x40 MLOAD DUP1 SWAP2 SUB SWAP1 RETURN JUMPDEST PUSH2 0x1A7 PUSH2 0xAB8 JUMP JUMPDEST PUSH1 0x40 MLOAD PUSH2 0x1B4 SWAP2 SWAP1 PUSH2 0x1260 JUMP JUMPDEST PUSH1 0x40 MLOAD DUP1 SWAP2 SUB SWAP1 RETURN JUMPDEST PUSH2 0x1D7 PUSH1 0x4 DUP1 CALLDATASIZE SUB DUP2 ADD SWAP1 PUSH2 0x1D2 SWAP2 SWAP1 PUSH2 0x1177 JUMP JUMPDEST PUSH2 0xACB JUMP JUMPDEST PUSH1 0x40 MLOAD PUSH2 0x1E6 SWAP4 SWAP3 SWAP2 SWAP1 PUSH2 0x1296 JUMP JUMPDEST PUSH1 0x40 MLOAD DUP1 SWAP2 SUB SWAP1 RETURN JUMPDEST PUSH2 0x1F7 PUSH2 0xB0F JUMP JUMPDEST STOP JUMPDEST PUSH2 0x201 PUSH2 0xB8D JUMP JUMPDEST STOP JUMPDEST PUSH2 0x20B PUSH2 0xC0B JUMP JUMPDEST STOP JUMPDEST PUSH2 0x227 PUSH1 0x4 DUP1 CALLDATASIZE SUB DUP2 ADD SWAP1 PUSH2 0x222 SWAP2 SWAP1 PUSH2 0x1177 JUMP JUMPDEST PUSH2 0xC88 JUMP JUMPDEST STOP JUMPDEST PUSH1 0x3 PUSH1 0x5 DUP2 GT ISZERO PUSH2 0x23D JUMPI PUSH2 0x23C PUSH2 0x11E9 JUMP JUMPDEST JUMPDEST PUSH1 0x3 PUSH1 0x0 SWAP1 SLOAD SWAP1 PUSH2 0x100 EXP SWAP1 DIV PUSH1 0xFF AND PUSH1 0x5 DUP2 GT ISZERO PUSH2 0x25F JUMPI PUSH2 0x25E PUSH2 0x11E9 JUMP JUMPDEST JUMPDEST EQ PUSH2 0x29F JUMPI PUSH1 0x40 MLOAD PUSH32 0x8C379A000000000000000000000000000000000000000000000000000000000 DUP2 MSTORE PUSH1 0x4 ADD PUSH2 0x296 SWAP1 PUSH2 0x1319 JUMP JUMPDEST PUSH1 0x40 MLOAD DUP1 SWAP2 SUB SWAP1 REVERT JUMPDEST PUSH1 0x1 PUSH1 0x0 CALLER PUSH20 0xFFFFFFFFFFFFFFFFFFFFFFFFFFFFFFFFFFFFFFFF AND PUSH20 0xFFFFFFFFFFFFFFFFFFFFFFFFFFFFFFFFFFFFFFFF AND DUP2 MSTORE PUSH1 0x20 ADD SWAP1 DUP2 MSTORE PUSH1 0x20 ADD PUSH1 0x0 KECCAK256 PUSH1 0x0 ADD PUSH1 0x0 SWAP1 SLOAD SWAP1 PUSH2 0x100 EXP SWAP1 DIV PUSH1 0xFF AND PUSH2 0x32E JUMPI PUSH1 0x40 MLOAD PUSH32 0x8C379A000000000000000000000000000000000000000000000000000000000 DUP2 MSTORE PUSH1 0x4 ADD PUSH2 0x325 SWAP1 PUSH2 0x1385 JUMP JUMPDEST PUSH1 0x40 MLOAD DUP1 SWAP2 SUB SWAP1 REVERT JUMPDEST PUSH1 0x1 PUSH1 0x0 CALLER PUSH20 0xFFFFFFFFFFFFFFFFFFFFFFFFFFFFFFFFFFFFFFFF AND PUSH20 0xFFFFFFFFFFFFFFFFFFFFFFFFFFFFFFFFFFFFFFFF AND DUP2 MSTORE PUSH1 0x20 ADD SWAP1 DUP2 MSTORE PUSH1 0x20 ADD PUSH1 0x0 KECCAK256 PUSH1 0x0 ADD PUSH1 0x1 SWAP1 SLOAD SWAP1 PUSH2 0x100 EXP SWAP1 DIV PUSH1 0xFF AND ISZERO PUSH2 0x3BE JUMPI PUSH1 0x40 MLOAD PUSH32 0x8C379A000000000000000000000000000000000000000000000000000000000 DUP2 MSTORE PUSH1 0x4 ADD PUSH2 0x3B5 SWAP1 PUSH2 0x13F1 JUMP JUMPDEST PUSH1 0x40 MLOAD DUP1 SWAP2 SUB SWAP1 REVERT JUMPDEST PUSH1 0x2 DUP1 SLOAD SWAP1 POP DUP2 LT PUSH2 0x405 JUMPI PUSH1 0x40 MLOAD PUSH32 0x8C379A000000000000000000000000000000000000000000000000000000000 DUP2 MSTORE PUSH1 0x4 ADD PUSH2 0x3FC SWAP1 PUSH2 0x145D JUMP JUMPDEST PUSH1 0x40 MLOAD DUP1 SWAP2 SUB SWAP1 REVERT JUMPDEST PUSH1 0x1 DUP1 PUSH1 0x0 CALLER PUSH20 0xFFFFFFFFFFFFFFFFFFFFFFFFFFFFFFFFFFFFFFFF AND PUSH20 0xFFFFFFFFFFFFFFFFFFFFFFFFFFFFFFFFFFFFFFFF AND DUP2 MSTORE PUSH1 0x20 ADD SWAP1 DUP2 MSTORE PUSH1 0x20 ADD PUSH1 0x0 KECCAK256 PUSH1 0x0 ADD PUSH1 0x1 PUSH2 0x100 EXP DUP2 SLOAD DUP2 PUSH1 0xFF MUL NOT AND SWAP1 DUP4 ISZERO ISZERO MUL OR SWAP1 SSTORE POP DUP1 PUSH1 0x1 PUSH1 0x0 CALLER PUSH20 0xFFFFFFFFFFFFFFFFFFFFFFFFFFFFFFFFFFFFFFFF AND PUSH20 0xFFFFFFFFFFFFFFFFFFFFFFFFFFFFFFFFFFFFFFFF AND DUP2 MSTORE PUSH1 0x20 ADD SWAP1 DUP2 MSTORE PUSH1 0x20 ADD PUSH1 0x0 KECCAK256 PUSH1 0x1 ADD DUP2 SWAP1 SSTORE POP PUSH1 0x2 DUP2 DUP2 SLOAD DUP2 LT PUSH2 0x4BA JUMPI PUSH2 0x4B9 PUSH2 0x147D JUMP JUMPDEST JUMPDEST SWAP1 PUSH1 0x0 MSTORE PUSH1 0x20 PUSH1 0x0 KECCAK256 SWAP1 PUSH1 0x2 MUL ADD PUSH1 0x1 ADD PUSH1 0x0 DUP2 SLOAD DUP1 SWAP3 SWAP2 SWAP1 PUSH2 0x4DC SWAP1 PUSH2 0x14DB JUMP JUMPDEST SWAP2 SWAP1 POP SSTORE POP PUSH32 0x4D99B957A2BC29A30EBD96A7BE8E68FE50A3C701DB28A91436490B7D53870CA4 CALLER DUP3 PUSH1 0x40 MLOAD PUSH2 0x512 SWAP3 SWAP2 SWAP1 PUSH2 0x1523 JUMP JUMPDEST PUSH1 0x40 MLOAD DUP1 SWAP2 SUB SWAP1 LOG1 POP JUMP JUMPDEST PUSH1 0x2 DUP2 DUP2 SLOAD DUP2 LT PUSH2 0x52D JUMPI PUSH1 0x0 DUP1 REVERT JUMPDEST SWAP1 PUSH1 0x0 MSTORE PUSH1 0x20 PUSH1 0x0 KECCAK256 SWAP1 PUSH1 0x2 MUL ADD PUSH1 0x0 SWAP2 POP SWAP1 POP DUP1 PUSH1 0x0 ADD DUP1 SLOAD PUSH2 0x550 SWAP1 PUSH2 0x157B JUMP JUMPDEST DUP1 PUSH1 0x1F ADD PUSH1 0x20 DUP1 SWAP2 DIV MUL PUSH1 0x20 ADD PUSH1 0x40 MLOAD SWAP1 DUP2 ADD PUSH1 0x40 MSTORE DUP1 SWAP3 SWAP2 SWAP1 DUP2 DUP2 MSTORE PUSH1 0x20 ADD DUP3 DUP1 SLOAD PUSH2 0x57C SWAP1 PUSH2 0x157B JUMP JUMPDEST DUP1 ISZERO PUSH2 0x5C9 JUMPI DUP1 PUSH1 0x1F LT PUSH2 0x59E JUMPI PUSH2 0x100 DUP1 DUP4 SLOAD DIV MUL DUP4 MSTORE SWAP2 PUSH1 0x20 ADD SWAP2 PUSH2 0x5C9 JUMP JUMPDEST DUP3 ADD SWAP2 SWAP1 PUSH1 0x0 MSTORE PUSH1 0x20 PUSH1 0x0 KECCAK256 SWAP1 JUMPDEST DUP2 SLOAD DUP2 MSTORE SWAP1 PUSH1 0x1 ADD SWAP1 PUSH1 0x20 ADD DUP1 DUP4 GT PUSH2 0x5AC JUMPI DUP3 SWAP1 SUB PUSH1 0x1F AND DUP3 ADD SWAP2 JUMPDEST POP POP POP POP POP SWAP1 DUP1 PUSH1 0x1 ADD SLOAD SWAP1 POP DUP3 JUMP JUMPDEST PUSH1 0x1 PUSH1 0x5 DUP2 GT ISZERO PUSH2 0x5ED JUMPI PUSH2 0x5EC PUSH2 0x11E9 JUMP JUMPDEST JUMPDEST PUSH1 0x3 PUSH1 0x0 SWAP1 SLOAD SWAP1 PUSH2 0x100 EXP SWAP1 DIV PUSH1 0xFF AND PUSH1 0x5 DUP2 GT ISZERO PUSH2 0x60F JUMPI PUSH2 0x60E PUSH2 0x11E9 JUMP JUMPDEST JUMPDEST EQ PUSH2 0x64F JUMPI PUSH1 0x40 MLOAD PUSH32 0x8C379A000000000000000000000000000000000000000000000000000000000 DUP2 MSTORE PUSH1 0x4 ADD PUSH2 0x646 SWAP1 PUSH2 0x161E JUMP JUMPDEST PUSH1 0x40 MLOAD DUP1 SWAP2 SUB SWAP1 REVERT JUMPDEST PUSH1 0x1 PUSH1 0x0 CALLER PUSH20 0xFFFFFFFFFFFFFFFFFFFFFFFFFFFFFFFFFFFFFFFF AND PUSH20 0xFFFFFFFFFFFFFFFFFFFFFFFFFFFFFFFFFFFFFFFF AND DUP2 MSTORE PUSH1 0x20 ADD SWAP1 DUP2 MSTORE PUSH1 0x20 ADD PUSH1 0x0 KECCAK256 PUSH1 0x0 ADD PUSH1 0x0 SWAP1 SLOAD SWAP1 PUSH2 0x100 EXP SWAP1 DIV PUSH1 0xFF AND PUSH2 0x6DE JUMPI PUSH1 0x40 MLOAD PUSH32 0x8C379A000000000000000000000000000000000000000000000000000000000 DUP2 MSTORE PUSH1 0x4 ADD PUSH2 0x6D5 SWAP1 PUSH2 0x16B0 JUMP JUMPDEST PUSH1 0x40 MLOAD DUP1 SWAP2 SUB SWAP1 REVERT JUMPDEST PUSH1 0x2 PUSH1 0x40 MLOAD DUP1 PUSH1 0x40 ADD PUSH1 0x40 MSTORE DUP1 DUP4 DUP2 MSTORE PUSH1 0x20 ADD PUSH1 0x0 DUP2 MSTORE POP SWAP1 DUP1 PUSH1 0x1 DUP2 SLOAD ADD DUP1 DUP3 SSTORE DUP1 SWAP2 POP POP PUSH1 0x1 SWAP1 SUB SWAP1 PUSH1 0x0 MSTORE PUSH1 0x20 PUSH1 0x0 KECCAK256 SWAP1 PUSH1 0x2 MUL ADD PUSH1 0x0 SWAP1 SWAP2 SWAP1 SWAP2 SWAP1 SWAP2 POP PUSH1 0x0 DUP3 ADD MLOAD DUP2 PUSH1 0x0 ADD SWAP1 DUP2 PUSH2 0x734 SWAP2 SWAP1 PUSH2 0x187C JUMP JUMPDEST POP PUSH1 0x20 DUP3 ADD MLOAD DUP2 PUSH1 0x1 ADD SSTORE POP POP PUSH32 0x92E393E9B54E2F801D3EA4BEB0C5E71A21CC34A5D34B77D0FB8A3AA1650DC18F PUSH1 0x1 PUSH1 0x2 DUP1 SLOAD SWAP1 POP PUSH2 0x774 SWAP2 SWAP1 PUSH2 0x194E JUMP JUMPDEST PUSH1 0x40 MLOAD PUSH2 0x781 SWAP2 SWAP1 PUSH2 0x11CE JUMP JUMPDEST PUSH1 0x40 MLOAD DUP1 SWAP2 SUB SWAP1 LOG1 POP JUMP JUMPDEST PUSH2 0x794 PUSH2 0xD0B JUMP JUMPDEST PUSH1 0x0 PUSH1 0x5 DUP2 GT ISZERO PUSH2 0x7A8 JUMPI PUSH2 0x7A7 PUSH2 0x11E9 JUMP JUMPDEST JUMPDEST PUSH1 0x3 PUSH1 0x0 SWAP1 SLOAD SWAP1 PUSH2 0x100 EXP SWAP1 DIV PUSH1 0xFF AND PUSH1 0x5 DUP2 GT ISZERO PUSH2 0x7CA JUMPI PUSH2 0x7C9 PUSH2 0x11E9 JUMP JUMPDEST JUMPDEST EQ PUSH2 0x80A JUMPI PUSH1 0x40 MLOAD PUSH32 0x8C379A000000000000000000000000000000000000000000000000000000000 DUP2 MSTORE PUSH1 0x4 ADD PUSH2 0x801 SWAP1 PUSH2 0x19F4 JUMP JUMPDEST PUSH1 0x40 MLOAD DUP1 SWAP2 SUB SWAP1 REVERT JUMPDEST PUSH1 0x1 PUSH1 0x0 DUP3 PUSH20 0xFFFFFFFFFFFFFFFFFFFFFFFFFFFFFFFFFFFFFFFF AND PUSH20 0xFFFFFFFFFFFFFFFFFFFFFFFFFFFFFFFFFFFFFFFF AND DUP2 MSTORE PUSH1 0x20 ADD SWAP1 DUP2 MSTORE PUSH1 0x20 ADD PUSH1 0x0 KECCAK256 PUSH1 0x0 ADD PUSH1 0x0 SWAP1 SLOAD SWAP1 PUSH2 0x100 EXP SWAP1 DIV PUSH1 0xFF AND ISZERO PUSH2 0x89A JUMPI PUSH1 0x40 MLOAD PUSH32 0x8C379A000000000000000000000000000000000000000000000000000000000 DUP2 MSTORE PUSH1 0x4 ADD PUSH2 0x891 SWAP1 PUSH2 0x1A60 JUMP JUMPDEST PUSH1 0x40 MLOAD DUP1 SWAP2 SUB SWAP1 REVERT JUMPDEST PUSH1 0x40 MLOAD DUP1 PUSH1 0x60 ADD PUSH1 0x40 MSTORE DUP1 PUSH1 0x1 ISZERO ISZERO DUP2 MSTORE PUSH1 0x20 ADD PUSH1 0x0 ISZERO ISZERO DUP2 MSTORE PUSH1 0x20 ADD PUSH1 0x0 DUP2 MSTORE POP PUSH1 0x1 PUSH1 0x0 DUP4 PUSH20 0xFFFFFFFFFFFFFFFFFFFFFFFFFFFFFFFFFFFFFFFF AND PUSH20 0xFFFFFFFFFFFFFFFFFFFFFFFFFFFFFFFFFFFFFFFF AND DUP2 MSTORE PUSH1 0x20 ADD SWAP1 DUP2 MSTORE PUSH1 0x20 ADD PUSH1 0x0 KECCAK256 PUSH1 0x0 DUP3 ADD MLOAD DUP2 PUSH1 0x0 ADD PUSH1 0x0 PUSH2 0x100 EXP DUP2 SLOAD DUP2 PUSH1 0xFF MUL NOT AND SWAP1 DUP4 ISZERO ISZERO MUL OR SWAP1 SSTORE POP PUSH1 0x20 DUP3 ADD MLOAD DUP2 PUSH1 0x0 ADD PUSH1 0x1 PUSH2 0x100 EXP DUP2 SLOAD DUP2 PUSH1 0xFF MUL NOT AND SWAP1 DUP4 ISZERO ISZERO MUL OR SWAP1 SSTORE POP PUSH1 0x40 DUP3 ADD MLOAD DUP2 PUSH1 0x1 ADD SSTORE SWAP1 POP POP PUSH32 0xB6BE2187D059CC2A55FE29E0E503B566E1E0F8C8780096E185429350ACFFD3DD DUP2 PUSH1 0x40 MLOAD PUSH2 0x977 SWAP2 SWAP1 PUSH2 0x11B3 JUMP JUMPDEST PUSH1 0x40 MLOAD DUP1 SWAP2 SUB SWAP1 LOG1 POP JUMP JUMPDEST PUSH2 0x98A PUSH2 0xD0B JUMP JUMPDEST PUSH2 0x994 PUSH1 0x0 PUSH2 0xD89 JUMP JUMPDEST JUMP JUMPDEST PUSH1 0x0 DUP1 PUSH1 0x0 SWAP1 SLOAD SWAP1 PUSH2 0x100 EXP SWAP1 DIV PUSH20 0xFFFFFFFFFFFFFFFFFFFFFFFFFFFFFFFFFFFFFFFF AND SWAP1 POP SWAP1 JUMP JUMPDEST PUSH1 0x0 PUSH1 0x5 DUP1 DUP2 GT ISZERO PUSH2 0x9D4 JUMPI PUSH2 0x9D3 PUSH2 0x11E9 JUMP JUMPDEST JUMPDEST PUSH1 0x3 PUSH1 0x0 SWAP1 SLOAD SWAP1 PUSH2 0x100 EXP SWAP1 DIV PUSH1 0xFF AND PUSH1 0x5 DUP2 GT ISZERO PUSH2 0x9F6 JUMPI PUSH2 0x9F5 PUSH2 0x11E9 JUMP JUMPDEST JUMPDEST EQ PUSH2 0xA36 JUMPI PUSH1 0x40 MLOAD PUSH32 0x8C379A000000000000000000000000000000000000000000000000000000000 DUP2 MSTORE PUSH1 0x4 ADD PUSH2 0xA2D SWAP1 PUSH2 0x1AF2 JUMP JUMPDEST PUSH1 0x40 MLOAD DUP1 SWAP2 SUB SWAP1 REVERT JUMPDEST PUSH1 0x0 DUP1 JUMPDEST PUSH1 0x2 DUP1 SLOAD SWAP1 POP DUP2 LT ISZERO PUSH2 0xAB3 JUMPI DUP2 PUSH1 0x2 DUP3 DUP2 SLOAD DUP2 LT PUSH2 0xA5C JUMPI PUSH2 0xA5B PUSH2 0x147D JUMP JUMPDEST JUMPDEST SWAP1 PUSH1 0x0 MSTORE PUSH1 0x20 PUSH1 0x0 KECCAK256 SWAP1 PUSH1 0x2 MUL ADD PUSH1 0x1 ADD SLOAD GT ISZERO PUSH2 0xAA0 JUMPI PUSH1 0x2 DUP2 DUP2 SLOAD DUP2 LT PUSH2 0xA88 JUMPI PUSH2 0xA87 PUSH2 0x147D JUMP JUMPDEST JUMPDEST SWAP1 PUSH1 0x0 MSTORE PUSH1 0x20 PUSH1 0x0 KECCAK256 SWAP1 PUSH1 0x2 MUL ADD PUSH1 0x1 ADD SLOAD SWAP2 POP DUP1 SWAP3 POP JUMPDEST DUP1 DUP1 PUSH2 0xAAB SWAP1 PUSH2 0x14DB JUMP JUMPDEST SWAP2 POP POP PUSH2 0xA3A JUMP JUMPDEST POP POP SWAP1 JUMP JUMPDEST PUSH1 0x3 PUSH1 0x0 SWAP1 SLOAD SWAP1 PUSH2 0x100 EXP SWAP1 DIV PUSH1 0xFF AND DUP2 JUMP JUMPDEST PUSH1 0x1 PUSH1 0x20 MSTORE DUP1 PUSH1 0x0 MSTORE PUSH1 0x40 PUSH1 0x0 KECCAK256 PUSH1 0x0 SWAP2 POP SWAP1 POP DUP1 PUSH1 0x0 ADD PUSH1 0x0 SWAP1 SLOAD SWAP1 PUSH2 0x100 EXP SWAP1 DIV PUSH1 0xFF AND SWAP1 DUP1 PUSH1 0x0 ADD PUSH1 0x1 SWAP1 SLOAD SWAP1 PUSH2 0x100 EXP SWAP1 DIV PUSH1 0xFF AND SWAP1 DUP1 PUSH1 0x1 ADD SLOAD SWAP1 POP DUP4 JUMP JUMPDEST PUSH2 0xB17 PUSH2 0xD0B JUMP JUMPDEST PUSH1 0x5 PUSH1 0x3 PUSH1 0x0 PUSH2 0x100 EXP DUP2 SLOAD DUP2 PUSH1 0xFF MUL NOT AND SWAP1 DUP4 PUSH1 0x5 DUP2 GT ISZERO PUSH2 0xB3D JUMPI PUSH2 0xB3C PUSH2 0x11E9 JUMP JUMPDEST JUMPDEST MUL OR SWAP1 SSTORE POP PUSH32 0xA97A4EE45751E2ABF3E4FC8946939630B11B371EA8AE39CCDC3056E98F5CC3F PUSH1 0x4 PUSH1 0x3 PUSH1 0x0 SWAP1 SLOAD SWAP1 PUSH2 0x100 EXP SWAP1 DIV PUSH1 0xFF AND PUSH1 0x40 MLOAD PUSH2 0xB83 SWAP3 SWAP2 SWAP1 PUSH2 0x1B12 JUMP JUMPDEST PUSH1 0x40 MLOAD DUP1 SWAP2 SUB SWAP1 LOG1 JUMP JUMPDEST PUSH2 0xB95 PUSH2 0xD0B JUMP JUMPDEST PUSH1 0x1 PUSH1 0x3 PUSH1 0x0 PUSH2 0x100 EXP DUP2 SLOAD DUP2 PUSH1 0xFF MUL NOT AND SWAP1 DUP4 PUSH1 0x5 DUP2 GT ISZERO PUSH2 0xBBB JUMPI PUSH2 0xBBA PUSH2 0x11E9 JUMP JUMPDEST JUMPDEST MUL OR SWAP1 SSTORE POP PUSH32 0xA97A4EE45751E2ABF3E4FC8946939630B11B371EA8AE39CCDC3056E98F5CC3F PUSH1 0x0 PUSH1 0x3 PUSH1 0x0 SWAP1 SLOAD SWAP1 PUSH2 0x100 EXP SWAP1 DIV PUSH1 0xFF AND PUSH1 0x40 MLOAD PUSH2 0xC01 SWAP3 SWAP2 SWAP1 PUSH2 0x1B12 JUMP JUMPDEST PUSH1 0x40 MLOAD DUP1 SWAP2 SUB SWAP1 LOG1 JUMP JUMPDEST PUSH2 0xC13 PUSH2 0xD0B JUMP JUMPDEST PUSH1 0x3 DUP1 PUSH1 0x0 PUSH2 0x100 EXP DUP2 SLOAD DUP2 PUSH1 0xFF MUL NOT AND SWAP1 DUP4 PUSH1 0x5 DUP2 GT ISZERO PUSH2 0xC38 JUMPI PUSH2 0xC37 PUSH2 0x11E9 JUMP JUMPDEST JUMPDEST MUL OR SWAP1 SSTORE POP PUSH32 0xA97A4EE45751E2ABF3E4FC8946939630B11B371EA8AE39CCDC3056E98F5CC3F PUSH1 0x2 PUSH1 0x3 PUSH1 0x0 SWAP1 SLOAD SWAP1 PUSH2 0x100 EXP SWAP1 DIV PUSH1 0xFF AND PUSH1 0x40 MLOAD PUSH2 0xC7E SWAP3 SWAP2 SWAP1 PUSH2 0x1B12 JUMP JUMPDEST PUSH1 0x40 MLOAD DUP1 SWAP2 SUB SWAP1 LOG1 JUMP JUMPDEST PUSH2 0xC90 PUSH2 0xD0B JUMP JUMPDEST PUSH1 0x0 PUSH20 0xFFFFFFFFFFFFFFFFFFFFFFFFFFFFFFFFFFFFFFFF AND DUP2 PUSH20 0xFFFFFFFFFFFFFFFFFFFFFFFFFFFFFFFFFFFFFFFF AND SUB PUSH2 0xCFF JUMPI PUSH1 0x40 MLOAD PUSH32 0x8C379A000000000000000000000000000000000000000000000000000000000 DUP2 MSTORE PUSH1 0x4 ADD PUSH2 0xCF6 SWAP1 PUSH2 0x1BAD JUMP JUMPDEST PUSH1 0x40 MLOAD DUP1 SWAP2 SUB SWAP1 REVERT JUMPDEST PUSH2 0xD08 DUP2 PUSH2 0xD89 JUMP JUMPDEST POP JUMP JUMPDEST PUSH2 0xD13 PUSH2 0xE4D JUMP JUMPDEST PUSH20 0xFFFFFFFFFFFFFFFFFFFFFFFFFFFFFFFFFFFFFFFF AND PUSH2 0xD31 PUSH2 0x996 JUMP JUMPDEST PUSH20 0xFFFFFFFFFFFFFFFFFFFFFFFFFFFFFFFFFFFFFFFF AND EQ PUSH2 0xD87 JUMPI PUSH1 0x40 MLOAD PUSH32 0x8C379A000000000000000000000000000000000000000000000000000000000 DUP2 MSTORE PUSH1 0x4 ADD PUSH2 0xD7E SWAP1 PUSH2 0x1C19 JUMP JUMPDEST PUSH1 0x40 MLOAD DUP1 SWAP2 SUB SWAP1 REVERT JUMPDEST JUMP JUMPDEST PUSH1 0x0 DUP1 PUSH1 0x0 SWAP1 SLOAD SWAP1 PUSH2 0x100 EXP SWAP1 DIV PUSH20 0xFFFFFFFFFFFFFFFFFFFFFFFFFFFFFFFFFFFFFFFF AND SWAP1 POP DUP2 PUSH1 0x0 DUP1 PUSH2 0x100 EXP DUP2 SLOAD DUP2 PUSH20 0xFFFFFFFFFFFFFFFFFFFFFFFFFFFFFFFFFFFFFFFF MUL NOT AND SWAP1 DUP4 PUSH20 0xFFFFFFFFFFFFFFFFFFFFFFFFFFFFFFFFFFFFFFFF AND MUL OR SWAP1 SSTORE POP DUP2 PUSH20 0xFFFFFFFFFFFFFFFFFFFFFFFFFFFFFFFFFFFFFFFF AND DUP2 PUSH20 0xFFFFFFFFFFFFFFFFFFFFFFFFFFFFFFFFFFFFFFFF AND PUSH32 0x8BE0079C531659141344CD1FD0A4F28419497F9722A3DAAFE3B4186F6B6457E0 PUSH1 0x40 MLOAD PUSH1 0x40 MLOAD DUP1 SWAP2 SUB SWAP1 LOG3 POP POP JUMP JUMPDEST PUSH1 0x0 CALLER SWAP1 POP SWAP1 JUMP JUMPDEST PUSH1 0x0 PUSH1 0x40 MLOAD SWAP1 POP SWAP1 JUMP JUMPDEST PUSH1 0x0 DUP1 REVERT JUMPDEST PUSH1 0x0 DUP1 REVERT JUMPDEST PUSH1 0x0 DUP2 SWAP1 POP SWAP2 SWAP1 POP JUMP JUMPDEST PUSH2 0xE7C DUP2 PUSH2 0xE69 JUMP JUMPDEST DUP2 EQ PUSH2 0xE87 JUMPI PUSH1 0x0 DUP1 REVERT JUMPDEST POP JUMP JUMPDEST PUSH1 0x0 DUP2 CALLDATALOAD SWAP1 POP PUSH2 0xE99 DUP2 PUSH2 0xE73 JUMP JUMPDEST SWAP3 SWAP2 POP POP JUMP JUMPDEST PUSH1 0x0 PUSH1 0x20 DUP3 DUP5 SUB SLT ISZERO PUSH2 0xEB5 JUMPI PUSH2 0xEB4 PUSH2 0xE5F JUMP JUMPDEST JUMPDEST PUSH1 0x0 PUSH2 0xEC3 DUP5 DUP3 DUP6 ADD PUSH2 0xE8A JUMP JUMPDEST SWAP2 POP POP SWAP3 SWAP2 POP POP JUMP JUMPDEST PUSH1 0x0 DUP2 MLOAD SWAP1 POP SWAP2 SWAP1 POP JUMP JUMPDEST PUSH1 0x0 DUP3 DUP3 MSTORE PUSH1 0x20 DUP3 ADD SWAP1 POP SWAP3 SWAP2 POP POP JUMP JUMPDEST PUSH1 0x0 JUMPDEST DUP4 DUP2 LT ISZERO PUSH2 0xF06 JUMPI DUP1 DUP3 ADD MLOAD DUP2 DUP5 ADD MSTORE PUSH1 0x20 DUP2 ADD SWAP1 POP PUSH2 0xEEB JUMP JUMPDEST PUSH1 0x0 DUP5 DUP5 ADD MSTORE POP POP POP POP JUMP JUMPDEST PUSH1 0x0 PUSH1 0x1F NOT PUSH1 0x1F DUP4 ADD AND SWAP1 POP SWAP2 SWAP1 POP JUMP JUMPDEST PUSH1 0x0 PUSH2 0xF2E DUP3 PUSH2 0xECC JUMP JUMPDEST PUSH2 0xF38 DUP2 DUP6 PUSH2 0xED7 JUMP JUMPDEST SWAP4 POP PUSH2 0xF48 DUP2 DUP6 PUSH1 0x20 DUP7 ADD PUSH2 0xEE8 JUMP JUMPDEST PUSH2 0xF51 DUP2 PUSH2 0xF12 JUMP JUMPDEST DUP5 ADD SWAP2 POP POP SWAP3 SWAP2 POP POP JUMP JUMPDEST PUSH2 0xF65 DUP2 PUSH2 0xE69 JUMP JUMPDEST DUP3 MSTORE POP POP JUMP JUMPDEST PUSH1 0x0 PUSH1 0x40 DUP3 ADD SWAP1 POP DUP2 DUP2 SUB PUSH1 0x0 DUP4 ADD MSTORE PUSH2 0xF85 DUP2 DUP6 PUSH2 0xF23 JUMP JUMPDEST SWAP1 POP PUSH2 0xF94 PUSH1 0x20 DUP4 ADD DUP5 PUSH2 0xF5C JUMP JUMPDEST SWAP4 SWAP3 POP POP POP JUMP JUMPDEST PUSH1 0x0 DUP1 REVERT JUMPDEST PUSH1 0x0 DUP1 REVERT JUMPDEST PUSH32 0x4E487B7100000000000000000000000000000000000000000000000000000000 PUSH1 0x0 MSTORE PUSH1 0x41 PUSH1 0x4 MSTORE PUSH1 0x24 PUSH1 0x0 REVERT JUMPDEST PUSH2 0xFDD DUP3 PUSH2 0xF12 JUMP JUMPDEST DUP2 ADD DUP2 DUP2 LT PUSH8 0xFFFFFFFFFFFFFFFF DUP3 GT OR ISZERO PUSH2 0xFFC JUMPI PUSH2 0xFFB PUSH2 0xFA5 JUMP JUMPDEST JUMPDEST DUP1 PUSH1 0x40 MSTORE POP POP POP JUMP JUMPDEST PUSH1 0x0 PUSH2 0x100F PUSH2 0xE55 JUMP JUMPDEST SWAP1 POP PUSH2 0x101B DUP3 DUP3 PUSH2 0xFD4 JUMP JUMPDEST SWAP2 SWAP1 POP JUMP JUMPDEST PUSH1 0x0 PUSH8 0xFFFFFFFFFFFFFFFF DUP3 GT ISZERO PUSH2 0x103B JUMPI PUSH2 0x103A PUSH2 0xFA5 JUMP JUMPDEST JUMPDEST PUSH2 0x1044 DUP3 PUSH2 0xF12 JUMP JUMPDEST SWAP1 POP PUSH1 0x20 DUP2 ADD SWAP1 POP SWAP2 SWAP1 POP JUMP JUMPDEST DUP3 DUP2 DUP4 CALLDATACOPY PUSH1 0x0 DUP4 DUP4 ADD MSTORE POP POP POP JUMP JUMPDEST PUSH1 0x0 PUSH2 0x1073 PUSH2 0x106E DUP5 PUSH2 0x1020 JUMP JUMPDEST PUSH2 0x1005 JUMP JUMPDEST SWAP1 POP DUP3 DUP2 MSTORE PUSH1 0x20 DUP2 ADD DUP5 DUP5 DUP5 ADD GT ISZERO PUSH2 0x108F JUMPI PUSH2 0x108E PUSH2 0xFA0 JUMP JUMPDEST JUMPDEST PUSH2 0x109A DUP5 DUP3 DUP6 PUSH2 0x1051 JUMP JUMPDEST POP SWAP4 SWAP3 POP POP POP JUMP JUMPDEST PUSH1 0x0 DUP3 PUSH1 0x1F DUP4 ADD SLT PUSH2 0x10B7 JUMPI PUSH2 0x10B6 PUSH2 0xF9B JUMP JUMPDEST JUMPDEST DUP2 CALLDATALOAD PUSH2 0x10C7 DUP5 DUP3 PUSH1 0x20 DUP7 ADD PUSH2 0x1060 JUMP JUMPDEST SWAP2 POP POP SWAP3 SWAP2 POP POP JUMP JUMPDEST PUSH1 0x0 PUSH1 0x20 DUP3 DUP5 SUB SLT ISZERO PUSH2 0x10E6 JUMPI PUSH2 0x10E5 PUSH2 0xE5F JUMP JUMPDEST JUMPDEST PUSH1 0x0 DUP3 ADD CALLDATALOAD PUSH8 0xFFFFFFFFFFFFFFFF DUP2 GT ISZERO PUSH2 0x1104 JUMPI PUSH2 0x1103 PUSH2 0xE64 JUMP JUMPDEST JUMPDEST PUSH2 0x1110 DUP5 DUP3 DUP6 ADD PUSH2 0x10A2 JUMP JUMPDEST SWAP2 POP POP SWAP3 SWAP2 POP POP JUMP JUMPDEST PUSH1 0x0 PUSH20 0xFFFFFFFFFFFFFFFFFFFFFFFFFFFFFFFFFFFFFFFF DUP3 AND SWAP1 POP SWAP2 SWAP1 POP JUMP JUMPDEST PUSH1 0x0 PUSH2 0x1144 DUP3 PUSH2 0x1119 JUMP JUMPDEST SWAP1 POP SWAP2 SWAP1 POP JUMP JUMPDEST PUSH2 0x1154 DUP2 PUSH2 0x1139 JUMP JUMPDEST DUP2 EQ PUSH2 0x115F JUMPI PUSH1 0x0 DUP1 REVERT JUMPDEST POP JUMP JUMPDEST PUSH1 0x0 DUP2 CALLDATALOAD SWAP1 POP PUSH2 0x1171 DUP2 PUSH2 0x114B JUMP JUMPDEST SWAP3 SWAP2 POP POP JUMP JUMPDEST PUSH1 0x0 PUSH1 0x20 DUP3 DUP5 SUB SLT ISZERO PUSH2 0x118D JUMPI PUSH2 0x118C PUSH2 0xE5F JUMP JUMPDEST JUMPDEST PUSH1 0x0 PUSH2 0x119B DUP5 DUP3 DUP6 ADD PUSH2 0x1162 JUMP JUMPDEST SWAP2 POP POP SWAP3 SWAP2 POP POP JUMP JUMPDEST PUSH2 0x11AD DUP2 PUSH2 0x1139 JUMP JUMPDEST DUP3 MSTORE POP POP JUMP JUMPDEST PUSH1 0x0 PUSH1 0x20 DUP3 ADD SWAP1 POP PUSH2 0x11C8 PUSH1 0x0 DUP4 ADD DUP5 PUSH2 0x11A4 JUMP JUMPDEST SWAP3 SWAP2 POP POP JUMP JUMPDEST PUSH1 0x0 PUSH1 0x20 DUP3 ADD SWAP1 POP PUSH2 0x11E3 PUSH1 0x0 DUP4 ADD DUP5 PUSH2 0xF5C JUMP JUMPDEST SWAP3 SWAP2 POP POP JUMP JUMPDEST PUSH32 0x4E487B7100000000000000000000000000000000000000000000000000000000 PUSH1 0x0 MSTORE PUSH1 0x21 PUSH1 0x4 MSTORE PUSH1 0x24 PUSH1 0x0 REVERT JUMPDEST PUSH1 0x6 DUP2 LT PUSH2 0x1229 JUMPI PUSH2 0x1228 PUSH2 0x11E9 JUMP JUMPDEST JUMPDEST POP JUMP JUMPDEST PUSH1 0x0 DUP2 SWAP1 POP PUSH2 0x123A DUP3 PUSH2 0x1218 JUMP JUMPDEST SWAP2 SWAP1 POP JUMP JUMPDEST PUSH1 0x0 PUSH2 0x124A DUP3 PUSH2 0x122C JUMP JUMPDEST SWAP1 POP SWAP2 SWAP1 POP JUMP JUMPDEST PUSH2 0x125A DUP2 PUSH2 0x123F JUMP JUMPDEST DUP3 MSTORE POP POP JUMP JUMPDEST PUSH1 0x0 PUSH1 0x20 DUP3 ADD SWAP1 POP PUSH2 0x1275 PUSH1 0x0 DUP4 ADD DUP5 PUSH2 0x1251 JUMP JUMPDEST SWAP3 SWAP2 POP POP JUMP JUMPDEST PUSH1 0x0 DUP2 ISZERO ISZERO SWAP1 POP SWAP2 SWAP1 POP JUMP JUMPDEST PUSH2 0x1290 DUP2 PUSH2 0x127B JUMP JUMPDEST DUP3 MSTORE POP POP JUMP JUMPDEST PUSH1 0x0 PUSH1 0x60 DUP3 ADD SWAP1 POP PUSH2 0x12AB PUSH1 0x0 DUP4 ADD DUP7 PUSH2 0x1287 JUMP JUMPDEST PUSH2 0x12B8 PUSH1 0x20 DUP4 ADD DUP6 PUSH2 0x1287 JUMP JUMPDEST PUSH2 0x12C5 PUSH1 0x40 DUP4 ADD DUP5 PUSH2 0xF5C JUMP JUMPDEST SWAP5 SWAP4 POP POP POP POP JUMP JUMPDEST PUSH32 0x43616E277420766F746520617420746869732074696D652E0000000000000000 PUSH1 0x0 DUP3 ADD MSTORE POP JUMP JUMPDEST PUSH1 0x0 PUSH2 0x1303 PUSH1 0x18 DUP4 PUSH2 0xED7 JUMP JUMPDEST SWAP2 POP PUSH2 0x130E DUP3 PUSH2 0x12CD JUMP JUMPDEST PUSH1 0x20 DUP3 ADD SWAP1 POP SWAP2 SWAP1 POP JUMP JUMPDEST PUSH1 0x0 PUSH1 0x20 DUP3 ADD SWAP1 POP DUP2 DUP2 SUB PUSH1 0x0 DUP4 ADD MSTORE PUSH2 0x1332 DUP2 PUSH2 0x12F6 JUMP JUMPDEST SWAP1 POP SWAP2 SWAP1 POP JUMP JUMPDEST PUSH32 0x4F6E6C79207265676973746572656420766F746572732063616E20766F74652E PUSH1 0x0 DUP3 ADD MSTORE POP JUMP JUMPDEST PUSH1 0x0 PUSH2 0x136F PUSH1 0x20 DUP4 PUSH2 0xED7 JUMP JUMPDEST SWAP2 POP PUSH2 0x137A DUP3 PUSH2 0x1339 JUMP JUMPDEST PUSH1 0x20 DUP3 ADD SWAP1 POP SWAP2 SWAP1 POP JUMP JUMPDEST PUSH1 0x0 PUSH1 0x20 DUP3 ADD SWAP1 POP DUP2 DUP2 SUB PUSH1 0x0 DUP4 ADD MSTORE PUSH2 0x139E DUP2 PUSH2 0x1362 JUMP JUMPDEST SWAP1 POP SWAP2 SWAP1 POP JUMP JUMPDEST PUSH32 0x54686520766F7465722068617320616C726561647920766F7465642E00000000 PUSH1 0x0 DUP3 ADD MSTORE POP JUMP JUMPDEST PUSH1 0x0 PUSH2 0x13DB PUSH1 0x1C DUP4 PUSH2 0xED7 JUMP JUMPDEST SWAP2 POP PUSH2 0x13E6 DUP3 PUSH2 0x13A5 JUMP JUMPDEST PUSH1 0x20 DUP3 ADD SWAP1 POP SWAP2 SWAP1 POP JUMP JUMPDEST PUSH1 0x0 PUSH1 0x20 DUP3 ADD SWAP1 POP DUP2 DUP2 SUB PUSH1 0x0 DUP4 ADD MSTORE PUSH2 0x140A DUP2 PUSH2 0x13CE JUMP JUMPDEST SWAP1 POP SWAP2 SWAP1 POP JUMP JUMPDEST PUSH32 0x496E76616C69642070726F706F73616C2049442E000000000000000000000000 PUSH1 0x0 DUP3 ADD MSTORE POP JUMP JUMPDEST PUSH1 0x0 PUSH2 0x1447 PUSH1 0x14 DUP4 PUSH2 0xED7 JUMP JUMPDEST SWAP2 POP PUSH2 0x1452 DUP3 PUSH2 0x1411 JUMP JUMPDEST PUSH1 0x20 DUP3 ADD SWAP1 POP SWAP2 SWAP1 POP JUMP JUMPDEST PUSH1 0x0 PUSH1 0x20 DUP3 ADD SWAP1 POP DUP2 DUP2 SUB PUSH1 0x0 DUP4 ADD MSTORE PUSH2 0x1476 DUP2 PUSH2 0x143A JUMP JUMPDEST SWAP1 POP SWAP2 SWAP1 POP JUMP JUMPDEST PUSH32 0x4E487B7100000000000000000000000000000000000000000000000000000000 PUSH1 0x0 MSTORE PUSH1 0x32 PUSH1 0x4 MSTORE PUSH1 0x24 PUSH1 0x0 REVERT JUMPDEST PUSH32 0x4E487B7100000000000000000000000000000000000000000000000000000000 PUSH1 0x0 MSTORE PUSH1 0x11 PUSH1 0x4 MSTORE PUSH1 0x24 PUSH1 0x0 REVERT JUMPDEST PUSH1 0x0 PUSH2 0x14E6 DUP3 PUSH2 0xE69 JUMP JUMPDEST SWAP2 POP PUSH32 0xFFFFFFFFFFFFFFFFFFFFFFFFFFFFFFFFFFFFFFFFFFFFFFFFFFFFFFFFFFFFFFFF DUP3 SUB PUSH2 0x1518 JUMPI PUSH2 0x1517 PUSH2 0x14AC JUMP JUMPDEST JUMPDEST PUSH1 0x1 DUP3 ADD SWAP1 POP SWAP2 SWAP1 POP JUMP JUMPDEST PUSH1 0x0 PUSH1 0x40 DUP3 ADD SWAP1 POP PUSH2 0x1538 PUSH1 0x0 DUP4 ADD DUP6 PUSH2 0x11A4 JUMP JUMPDEST PUSH2 0x1545 PUSH1 0x20 DUP4 ADD DUP5 PUSH2 0xF5C JUMP JUMPDEST SWAP4 SWAP3 POP POP POP JUMP JUMPDEST PUSH32 0x4E487B7100000000000000000000000000000000000000000000000000000000 PUSH1 0x0 MSTORE PUSH1 0x22 PUSH1 0x4 MSTORE PUSH1 0x24 PUSH1 0x0 REVERT JUMPDEST PUSH1 0x0 PUSH1 0x2 DUP3 DIV SWAP1 POP PUSH1 0x1 DUP3 AND DUP1 PUSH2 0x1593 JUMPI PUSH1 0x7F DUP3 AND SWAP2 POP JUMPDEST PUSH1 0x20 DUP3 LT DUP2 SUB PUSH2 0x15A6 JUMPI PUSH2 0x15A5 PUSH2 0x154C JUMP JUMPDEST JUMPDEST POP SWAP2 SWAP1 POP JUMP JUMPDEST PUSH32 0x43616E27742072656769737465722070726F706F73616C732061742074686973 PUSH1 0x0 DUP3 ADD MSTORE PUSH32 0x2074696D652E0000000000000000000000000000000000000000000000000000 PUSH1 0x20 DUP3 ADD MSTORE POP JUMP JUMPDEST PUSH1 0x0 PUSH2 0x1608 PUSH1 0x26 DUP4 PUSH2 0xED7 JUMP JUMPDEST SWAP2 POP PUSH2 0x1613 DUP3 PUSH2 0x15AC JUMP JUMPDEST PUSH1 0x40 DUP3 ADD SWAP1 POP SWAP2 SWAP1 POP JUMP JUMPDEST PUSH1 0x0 PUSH1 0x20 DUP3 ADD SWAP1 POP DUP2 DUP2 SUB PUSH1 0x0 DUP4 ADD MSTORE PUSH2 0x1637 DUP2 PUSH2 0x15FB JUMP JUMPDEST SWAP1 POP SWAP2 SWAP1 POP JUMP JUMPDEST PUSH32 0x4F6E6C79207265676973746572656420766F746572732063616E207375626D69 PUSH1 0x0 DUP3 ADD MSTORE PUSH32 0x742070726F706F73616C732E0000000000000000000000000000000000000000 PUSH1 0x20 DUP3 ADD MSTORE POP JUMP JUMPDEST PUSH1 0x0 PUSH2 0x169A PUSH1 0x2C DUP4 PUSH2 0xED7 JUMP JUMPDEST SWAP2 POP PUSH2 0x16A5 DUP3 PUSH2 0x163E JUMP JUMPDEST PUSH1 0x40 DUP3 ADD SWAP1 POP SWAP2 SWAP1 POP JUMP JUMPDEST PUSH1 0x0 PUSH1 0x20 DUP3 ADD SWAP1 POP DUP2 DUP2 SUB PUSH1 0x0 DUP4 ADD MSTORE PUSH2 0x16C9 DUP2 PUSH2 0x168D JUMP JUMPDEST SWAP1 POP SWAP2 SWAP1 POP JUMP JUMPDEST PUSH1 0x0 DUP2 SWAP1 POP DUP2 PUSH1 0x0 MSTORE PUSH1 0x20 PUSH1 0x0 KECCAK256 SWAP1 POP SWAP2 SWAP1 POP JUMP JUMPDEST PUSH1 0x0 PUSH1 0x20 PUSH1 0x1F DUP4 ADD DIV SWAP1 POP SWAP2 SWAP1 POP JUMP JUMPDEST PUSH1 0x0 DUP3 DUP3 SHL SWAP1 POP SWAP3 SWAP2 POP POP JUMP JUMPDEST PUSH1 0x0 PUSH1 0x8 DUP4 MUL PUSH2 0x1732 PUSH32 0xFFFFFFFFFFFFFFFFFFFFFFFFFFFFFFFFFFFFFFFFFFFFFFFFFFFFFFFFFFFFFFFF DUP3 PUSH2 0x16F5 JUMP JUMPDEST PUSH2 0x173C DUP7 DUP4 PUSH2 0x16F5 JUMP JUMPDEST SWAP6 POP DUP1 NOT DUP5 AND SWAP4 POP DUP1 DUP7 AND DUP5 OR SWAP3 POP POP POP SWAP4 SWAP3 POP POP POP JUMP JUMPDEST PUSH1 0x0 DUP2 SWAP1 POP SWAP2 SWAP1 POP JUMP JUMPDEST PUSH1 0x0 PUSH2 0x1779 PUSH2 0x1774 PUSH2 0x176F DUP5 PUSH2 0xE69 JUMP JUMPDEST PUSH2 0x1754 JUMP JUMPDEST PUSH2 0xE69 JUMP JUMPDEST SWAP1 POP SWAP2 SWAP1 POP JUMP JUMPDEST PUSH1 0x0 DUP2 SWAP1 POP SWAP2 SWAP1 POP JUMP JUMPDEST PUSH2 0x1793 DUP4 PUSH2 0x175E JUMP JUMPDEST PUSH2 0x17A7 PUSH2 0x179F DUP3 PUSH2 0x1780 JUMP JUMPDEST DUP5 DUP5 SLOAD PUSH2 0x1702 JUMP JUMPDEST DUP3 SSTORE POP POP POP POP JUMP JUMPDEST PUSH1 0x0 SWAP1 JUMP JUMPDEST PUSH2 0x17BC PUSH2 0x17AF JUMP JUMPDEST PUSH2 0x17C7 DUP2 DUP5 DUP5 PUSH2 0x178A JUMP JUMPDEST POP POP POP JUMP JUMPDEST JUMPDEST DUP2 DUP2 LT ISZERO PUSH2 0x17EB JUMPI PUSH2 0x17E0 PUSH1 0x0 DUP3 PUSH2 0x17B4 JUMP JUMPDEST PUSH1 0x1 DUP2 ADD SWAP1 POP PUSH2 0x17CD JUMP JUMPDEST POP POP JUMP JUMPDEST PUSH1 0x1F DUP3 GT ISZERO PUSH2 0x1830 JUMPI PUSH2 0x1801 DUP2 PUSH2 0x16D0 JUMP JUMPDEST PUSH2 0x180A DUP5 PUSH2 0x16E5 JUMP JUMPDEST DUP2 ADD PUSH1 0x20 DUP6 LT ISZERO PUSH2 0x1819 JUMPI DUP2 SWAP1 POP JUMPDEST PUSH2 0x182D PUSH2 0x1825 DUP6 PUSH2 0x16E5 JUMP JUMPDEST DUP4 ADD DUP3 PUSH2 0x17CC JUMP JUMPDEST POP POP JUMPDEST POP POP POP JUMP JUMPDEST PUSH1 0x0 DUP3 DUP3 SHR SWAP1 POP SWAP3 SWAP2 POP POP JUMP JUMPDEST PUSH1 0x0 PUSH2 0x1853 PUSH1 0x0 NOT DUP5 PUSH1 0x8 MUL PUSH2 0x1835 JUMP JUMPDEST NOT DUP1 DUP4 AND SWAP2 POP POP SWAP3 SWAP2 POP POP JUMP JUMPDEST PUSH1 0x0 PUSH2 0x186C DUP4 DUP4 PUSH2 0x1842 JUMP JUMPDEST SWAP2 POP DUP3 PUSH1 0x2 MUL DUP3 OR SWAP1 POP SWAP3 SWAP2 POP POP JUMP JUMPDEST PUSH2 0x1885 DUP3 PUSH2 0xECC JUMP JUMPDEST PUSH8 0xFFFFFFFFFFFFFFFF DUP2 GT ISZERO PUSH2 0x189E JUMPI PUSH2 0x189D PUSH2 0xFA5 JUMP JUMPDEST JUMPDEST PUSH2 0x18A8 DUP3 SLOAD PUSH2 0x157B JUMP JUMPDEST PUSH2 0x18B3 DUP3 DUP3 DUP6 PUSH2 0x17EF JUMP JUMPDEST PUSH1 0x0 PUSH1 0x20 SWAP1 POP PUSH1 0x1F DUP4 GT PUSH1 0x1 DUP2 EQ PUSH2 0x18E6 JUMPI PUSH1 0x0 DUP5 ISZERO PUSH2 0x18D4 JUMPI DUP3 DUP8 ADD MLOAD SWAP1 POP JUMPDEST PUSH2 0x18DE DUP6 DUP3 PUSH2 0x1860 JUMP JUMPDEST DUP7 SSTORE POP PUSH2 0x1946 JUMP JUMPDEST PUSH1 0x1F NOT DUP5 AND PUSH2 0x18F4 DUP7 PUSH2 0x16D0 JUMP JUMPDEST PUSH1 0x0 JUMPDEST DUP3 DUP2 LT ISZERO PUSH2 0x191C JUMPI DUP5 DUP10 ADD MLOAD DUP3 SSTORE PUSH1 0x1 DUP3 ADD SWAP2 POP PUSH1 0x20 DUP6 ADD SWAP5 POP PUSH1 0x20 DUP2 ADD SWAP1 POP PUSH2 0x18F7 JUMP JUMPDEST DUP7 DUP4 LT ISZERO PUSH2 0x1939 JUMPI DUP5 DUP10 ADD MLOAD PUSH2 0x1935 PUSH1 0x1F DUP10 AND DUP3 PUSH2 0x1842 JUMP JUMPDEST DUP4 SSTORE POP JUMPDEST PUSH1 0x1 PUSH1 0x2 DUP9 MUL ADD DUP9 SSTORE POP POP POP JUMPDEST POP POP POP POP POP POP JUMP JUMPDEST PUSH1 0x0 PUSH2 0x1959 DUP3 PUSH2 0xE69 JUMP JUMPDEST SWAP2 POP PUSH2 0x1964 DUP4 PUSH2 0xE69 JUMP JUMPDEST SWAP3 POP DUP3 DUP3 SUB SWAP1 POP DUP2 DUP2 GT ISZERO PUSH2 0x197C JUMPI PUSH2 0x197B PUSH2 0x14AC JUMP JUMPDEST JUMPDEST SWAP3 SWAP2 POP POP JUMP JUMPDEST PUSH32 0x43616E277420726567697374657220766F746572732061742074686973207469 PUSH1 0x0 DUP3 ADD MSTORE PUSH32 0x6D652E0000000000000000000000000000000000000000000000000000000000 PUSH1 0x20 DUP3 ADD MSTORE POP JUMP JUMPDEST PUSH1 0x0 PUSH2 0x19DE PUSH1 0x23 DUP4 PUSH2 0xED7 JUMP JUMPDEST SWAP2 POP PUSH2 0x19E9 DUP3 PUSH2 0x1982 JUMP JUMPDEST PUSH1 0x40 DUP3 ADD SWAP1 POP SWAP2 SWAP1 POP JUMP JUMPDEST PUSH1 0x0 PUSH1 0x20 DUP3 ADD SWAP1 POP DUP2 DUP2 SUB PUSH1 0x0 DUP4 ADD MSTORE PUSH2 0x1A0D DUP2 PUSH2 0x19D1 JUMP JUMPDEST SWAP1 POP SWAP2 SWAP1 POP JUMP JUMPDEST PUSH32 0x54686520766F74657220697320616C726561647920726567697374657265642E PUSH1 0x0 DUP3 ADD MSTORE POP JUMP JUMPDEST PUSH1 0x0 PUSH2 0x1A4A PUSH1 0x20 DUP4 PUSH2 0xED7 JUMP JUMPDEST SWAP2 POP PUSH2 0x1A55 DUP3 PUSH2 0x1A14 JUMP JUMPDEST PUSH1 0x20 DUP3 ADD SWAP1 POP SWAP2 SWAP1 POP JUMP JUMPDEST PUSH1 0x0 PUSH1 0x20 DUP3 ADD SWAP1 POP DUP2 DUP2 SUB PUSH1 0x0 DUP4 ADD MSTORE PUSH2 0x1A79 DUP2 PUSH2 0x1A3D JUMP JUMPDEST SWAP1 POP SWAP2 SWAP1 POP JUMP JUMPDEST PUSH32 0x43616E277420676574207468652077696E6E657220617420746869732074696D PUSH1 0x0 DUP3 ADD MSTORE PUSH32 0x652E000000000000000000000000000000000000000000000000000000000000 PUSH1 0x20 DUP3 ADD MSTORE POP JUMP JUMPDEST PUSH1 0x0 PUSH2 0x1ADC PUSH1 0x22 DUP4 PUSH2 0xED7 JUMP JUMPDEST SWAP2 POP PUSH2 0x1AE7 DUP3 PUSH2 0x1A80 JUMP JUMPDEST PUSH1 0x40 DUP3 ADD SWAP1 POP SWAP2 SWAP1 POP JUMP JUMPDEST PUSH1 0x0 PUSH1 0x20 DUP3 ADD SWAP1 POP DUP2 DUP2 SUB PUSH1 0x0 DUP4 ADD MSTORE PUSH2 0x1B0B DUP2 PUSH2 0x1ACF JUMP JUMPDEST SWAP1 POP SWAP2 SWAP1 POP JUMP JUMPDEST PUSH1 0x0 PUSH1 0x40 DUP3 ADD SWAP1 POP PUSH2 0x1B27 PUSH1 0x0 DUP4 ADD DUP6 PUSH2 0x1251 JUMP JUMPDEST PUSH2 0x1B34 PUSH1 0x20 DUP4 ADD DUP5 PUSH2 0x1251 JUMP JUMPDEST SWAP4 SWAP3 POP POP POP JUMP JUMPDEST PUSH32 0x4F776E61626C653A206E6577206F776E657220697320746865207A65726F2061 PUSH1 0x0 DUP3 ADD MSTORE PUSH32 0x6464726573730000000000000000000000000000000000000000000000000000 PUSH1 0x20 DUP3 ADD MSTORE POP JUMP JUMPDEST PUSH1 0x0 PUSH2 0x1B97 PUSH1 0x26 DUP4 PUSH2 0xED7 JUMP JUMPDEST SWAP2 POP PUSH2 0x1BA2 DUP3 PUSH2 0x1B3B JUMP JUMPDEST PUSH1 0x40 DUP3 ADD SWAP1 POP SWAP2 SWAP1 POP JUMP JUMPDEST PUSH1 0x0 PUSH1 0x20 DUP3 ADD SWAP1 POP DUP2 DUP2 SUB PUSH1 0x0 DUP4 ADD MSTORE PUSH2 0x1BC6 DUP2 PUSH2 0x1B8A JUMP JUMPDEST SWAP1 POP SWAP2 SWAP1 POP JUMP JUMPDEST PUSH32 0x4F776E61626C653A2063616C6C6572206973206E6F7420746865206F776E6572 PUSH1 0x0 DUP3 ADD MSTORE POP JUMP JUMPDEST PUSH1 0x0 PUSH2 0x1C03 PUSH1 0x20 DUP4 PUSH2 0xED7 JUMP JUMPDEST SWAP2 POP PUSH2 0x1C0E DUP3 PUSH2 0x1BCD JUMP JUMPDEST PUSH1 0x20 DUP3 ADD SWAP1 POP SWAP2 SWAP1 POP JUMP JUMPDEST PUSH1 0x0 PUSH1 0x20 DUP3 ADD SWAP1 POP DUP2 DUP2 SUB PUSH1 0x0 DUP4 ADD MSTORE PUSH2 0x1C32 DUP2 PUSH2 0x1BF6 JUMP JUMPDEST SWAP1 POP SWAP2 SWAP1 POP JUMP INVALID LOG2 PUSH5 0x6970667358 0x22 SLT KECCAK256 DUP8 0xAC DIFFICULTY 0xA8 CREATE DUP2 0xB4 0xB0 EQ GT 0xAD PUSH24 0xAC1394B8F3E99A80BE5FC98E9611312994D0F4C664736F6C PUSH4 0x43000815 STOP CALLER "
				},
				"gasEstimates": {
					"creation": {
						"codeDepositCost": "1455800",
						"executionCost": "infinite",
						"totalCost": "infinite"
					},
					"external": {
						"endVotingSession()": "infinite",
						"getWinner()": "infinite",
						"owner()": "2633",
						"proposals(uint256)": "infinite",
						"registerProposal(string)": "infinite",
						"registerVoter(address)": "infinite",
						"renounceOwnership()": "30487",
						"startProposalsRegistration()": "infinite",
						"startVotingSession()": "infinite",
						"transferOwnership(address)": "30832",
						"vote(uint256)": "infinite",
						"voters(address)": "infinite",
						"workflowStatus()": "2605"
					}
				},
				"methodIdentifiers": {
					"endVotingSession()": "a7bfab16",
					"getWinner()": "8e7ea5b2",
					"owner()": "8da5cb5b",
					"proposals(uint256)": "013cf08b",
					"registerProposal(string)": "2f95355b",
					"registerVoter(address)": "38db6dd3",
					"renounceOwnership()": "715018a6",
					"startProposalsRegistration()": "e09b8c79",
					"startVotingSession()": "ee74c678",
					"transferOwnership(address)": "f2fde38b",
					"vote(uint256)": "0121b93f",
					"voters(address)": "a3ec138d",
					"workflowStatus()": "a1edffa2"
				}
			},
			"storageLayout": {
				"storage": [
					{
						"astId": 7,
						"contract": "contracts/Voting2.sol:Voting",
						"label": "_owner",
						"offset": 0,
						"slot": "0",
						"type": "t_address"
					},
					{
						"astId": 144,
						"contract": "contracts/Voting2.sol:Voting",
						"label": "voters",
						"offset": 0,
						"slot": "1",
						"type": "t_mapping(t_address,t_struct(Voter)158_storage)"
					},
					{
						"astId": 148,
						"contract": "contracts/Voting2.sol:Voting",
						"label": "proposals",
						"offset": 0,
						"slot": "2",
						"type": "t_array(t_struct(Proposal)163_storage)dyn_storage"
					},
					{
						"astId": 151,
						"contract": "contracts/Voting2.sol:Voting",
						"label": "workflowStatus",
						"offset": 0,
						"slot": "3",
						"type": "t_enum(WorkflowStatus)170"
					}
				],
				"types": {
					"t_address": {
						"encoding": "inplace",
						"label": "address",
						"numberOfBytes": "20"
					},
					"t_array(t_struct(Proposal)163_storage)dyn_storage": {
						"base": "t_struct(Proposal)163_storage",
						"encoding": "dynamic_array",
						"label": "struct Voting.Proposal[]",
						"numberOfBytes": "32"
					},
					"t_bool": {
						"encoding": "inplace",
						"label": "bool",
						"numberOfBytes": "1"
					},
					"t_enum(WorkflowStatus)170": {
						"encoding": "inplace",
						"label": "enum Voting.WorkflowStatus",
						"numberOfBytes": "1"
					},
					"t_mapping(t_address,t_struct(Voter)158_storage)": {
						"encoding": "mapping",
						"key": "t_address",
						"label": "mapping(address => struct Voting.Voter)",
						"numberOfBytes": "32",
						"value": "t_struct(Voter)158_storage"
					},
					"t_string_storage": {
						"encoding": "bytes",
						"label": "string",
						"numberOfBytes": "32"
					},
					"t_struct(Proposal)163_storage": {
						"encoding": "inplace",
						"label": "struct Voting.Proposal",
						"members": [
							{
								"astId": 160,
								"contract": "contracts/Voting2.sol:Voting",
								"label": "description",
								"offset": 0,
								"slot": "0",
								"type": "t_string_storage"
							},
							{
								"astId": 162,
								"contract": "contracts/Voting2.sol:Voting",
								"label": "voteCount",
								"offset": 0,
								"slot": "1",
								"type": "t_uint256"
							}
						],
						"numberOfBytes": "64"
					},
					"t_struct(Voter)158_storage": {
						"encoding": "inplace",
						"label": "struct Voting.Voter",
						"members": [
							{
								"astId": 153,
								"contract": "contracts/Voting2.sol:Voting",
								"label": "isRegistered",
								"offset": 0,
								"slot": "0",
								"type": "t_bool"
							},
							{
								"astId": 155,
								"contract": "contracts/Voting2.sol:Voting",
								"label": "hasVoted",
								"offset": 1,
								"slot": "0",
								"type": "t_bool"
							},
							{
								"astId": 157,
								"contract": "contracts/Voting2.sol:Voting",
								"label": "votedProposalId",
								"offset": 0,
								"slot": "1",
								"type": "t_uint256"
							}
						],
						"numberOfBytes": "64"
					},
					"t_uint256": {
						"encoding": "inplace",
						"label": "uint256",
						"numberOfBytes": "32"
					}
				}
			},
			"userdoc": {
				"kind": "user",
				"methods": {},
				"version": 1
			}
		}
	}
}