{
	"contracts/4_Test.sol": {
		"Voting": {
			"abi": [
				{
					"inputs": [],
					"stateMutability": "nonpayable",
					"type": "constructor"
				},
				{
					"anonymous": false,
					"inputs": [
						{
							"indexed": true,
							"internalType": "address",
							"name": "previousOwner",
							"type": "address"
						},
						{
							"indexed": true,
							"internalType": "address",
							"name": "newOwner",
							"type": "address"
						}
					],
					"name": "OwnershipTransferred",
					"type": "event"
				},
				{
					"anonymous": false,
					"inputs": [
						{
							"indexed": false,
							"internalType": "uint256",
							"name": "proposalId",
							"type": "uint256"
						}
					],
					"name": "ProposalRegistered",
					"type": "event"
				},
				{
					"anonymous": false,
					"inputs": [
						{
							"indexed": false,
							"internalType": "address",
							"name": "voter",
							"type": "address"
						},
						{
							"indexed": false,
							"internalType": "uint256",
							"name": "proposalId",
							"type": "uint256"
						}
					],
					"name": "Voted",
					"type": "event"
				},
				{
					"anonymous": false,
					"inputs": [
						{
							"indexed": false,
							"internalType": "address",
							"name": "voterAddress",
							"type": "address"
						}
					],
					"name": "VoterRegistered",
					"type": "event"
				},
				{
					"anonymous": false,
					"inputs": [
						{
							"indexed": false,
							"internalType": "enum Voting.WorkflowStatus",
							"name": "previousStatus",
							"type": "uint8"
						},
						{
							"indexed": false,
							"internalType": "enum Voting.WorkflowStatus",
							"name": "newStatus",
							"type": "uint8"
						}
					],
					"name": "WorkflowStatusChange",
					"type": "event"
				},
				{
					"inputs": [],
					"name": "closeVotingSession",
					"outputs": [],
					"stateMutability": "nonpayable",
					"type": "function"
				},
				{
					"inputs": [],
					"name": "endProposalsRegistration",
					"outputs": [],
					"stateMutability": "nonpayable",
					"type": "function"
				},
				{
					"inputs": [],
					"name": "endVotingSession",
					"outputs": [],
					"stateMutability": "nonpayable",
					"type": "function"
				},
				{
					"inputs": [],
					"name": "getWinner",
					"outputs": [
						{
							"internalType": "uint256",
							"name": "",
							"type": "uint256"
						}
					],
					"stateMutability": "view",
					"type": "function"
				},
				{
					"inputs": [],
					"name": "owner",
					"outputs": [
						{
							"internalType": "address",
							"name": "",
							"type": "address"
						}
					],
					"stateMutability": "view",
					"type": "function"
				},
				{
					"inputs": [
						{
							"internalType": "uint256",
							"name": "",
							"type": "uint256"
						}
					],
					"name": "proposals",
					"outputs": [
						{
							"internalType": "string",
							"name": "description",
							"type": "string"
						},
						{
							"internalType": "uint256",
							"name": "voteCount",
							"type": "uint256"
						}
					],
					"stateMutability": "view",
					"type": "function"
				},
				{
					"inputs": [
						{
							"internalType": "string",
							"name": "_description",
							"type": "string"
						}
					],
					"name": "registerProposal",
					"outputs": [],
					"stateMutability": "nonpayable",
					"type": "function"
				},
				{
					"inputs": [
						{
							"internalType": "address",
							"name": "_voterAddress",
							"type": "address"
						}
					],
					"name": "registerVoter",
					"outputs": [],
					"stateMutability": "nonpayable",
					"type": "function"
				},
				{
					"inputs": [
						{
							"internalType": "uint256",
							"name": "",
							"type": "uint256"
						}
					],
					"name": "rejectedVotes",
					"outputs": [
						{
							"internalType": "bool",
							"name": "isRejected",
							"type": "bool"
						},
						{
							"internalType": "uint256",
							"name": "voteCount",
							"type": "uint256"
						}
					],
					"stateMutability": "view",
					"type": "function"
				},
				{
					"inputs": [],
					"name": "renounceOwnership",
					"outputs": [],
					"stateMutability": "nonpayable",
					"type": "function"
				},
				{
					"inputs": [],
					"name": "startProposalsRegistration",
					"outputs": [],
					"stateMutability": "nonpayable",
					"type": "function"
				},
				{
					"inputs": [],
					"name": "startVotingSession",
					"outputs": [],
					"stateMutability": "nonpayable",
					"type": "function"
				},
				{
					"inputs": [
						{
							"internalType": "address",
							"name": "newOwner",
							"type": "address"
						}
					],
					"name": "transferOwnership",
					"outputs": [],
					"stateMutability": "nonpayable",
					"type": "function"
				},
				{
					"inputs": [
						{
							"internalType": "uint256",
							"name": "_proposalId",
							"type": "uint256"
						}
					],
					"name": "vote",
					"outputs": [],
					"stateMutability": "nonpayable",
					"type": "function"
				},
				{
					"inputs": [
						{
							"internalType": "uint256",
							"name": "_proposalId",
							"type": "uint256"
						}
					],
					"name": "voteAgainst",
					"outputs": [],
					"stateMutability": "nonpayable",
					"type": "function"
				},
				{
					"inputs": [
						{
							"internalType": "address",
							"name": "",
							"type": "address"
						}
					],
					"name": "voters",
					"outputs": [
						{
							"internalType": "bool",
							"name": "isRegistered",
							"type": "bool"
						},
						{
							"internalType": "bool",
							"name": "hasVoted",
							"type": "bool"
						},
						{
							"internalType": "uint256",
							"name": "votedProposalId",
							"type": "uint256"
						}
					],
					"stateMutability": "view",
					"type": "function"
				},
				{
					"inputs": [],
					"name": "winningProposalId",
					"outputs": [
						{
							"internalType": "uint256",
							"name": "",
							"type": "uint256"
						}
					],
					"stateMutability": "view",
					"type": "function"
				},
				{
					"inputs": [],
					"name": "workflowStatus",
					"outputs": [
						{
							"internalType": "enum Voting.WorkflowStatus",
							"name": "",
							"type": "uint8"
						}
					],
					"stateMutability": "view",
					"type": "function"
				}
			],
			"devdoc": {
				"kind": "dev",
				"methods": {
					"owner()": {
						"details": "Returns the address of the current owner."
					},
					"renounceOwnership()": {
						"details": "Leaves the contract without owner. It will not be possible to call `onlyOwner` functions. Can only be called by the current owner. NOTE: Renouncing ownership will leave the contract without an owner, thereby disabling any functionality that is only available to the owner."
					},
					"transferOwnership(address)": {
						"details": "Transfers ownership of the contract to a new account (`newOwner`). Can only be called by the current owner."
					}
				},
				"version": 1
			},
			"evm": {
				"assembly": "    /* \"contracts/4_Test.sol\":116:5965  contract Voting is Ownable {... */\n  mstore(0x40, 0x80)\n    /* \"contracts/4_Test.sol\":1388:1470  constructor() {... */\n  callvalue\n  dup1\n  iszero\n  tag_1\n  jumpi\n  0x00\n  dup1\n  revert\ntag_1:\n  pop\n    /* \"@openzeppelin/contracts/access/Ownable.sol\":936:968  _transferOwnership(_msgSender()) */\n  tag_5\n    /* \"@openzeppelin/contracts/access/Ownable.sol\":955:967  _msgSender() */\n  tag_6\n    /* \"@openzeppelin/contracts/access/Ownable.sol\":955:965  _msgSender */\n  shl(0x20, tag_7)\n    /* \"@openzeppelin/contracts/access/Ownable.sol\":955:967  _msgSender() */\n  0x20\n  shr\n  jump\t// in\ntag_6:\n    /* \"@openzeppelin/contracts/access/Ownable.sol\":936:954  _transferOwnership */\n  shl(0x20, tag_8)\n    /* \"@openzeppelin/contracts/access/Ownable.sol\":936:968  _transferOwnership(_msgSender()) */\n  0x20\n  shr\n  jump\t// in\ntag_5:\n    /* \"contracts/4_Test.sol\":1430:1462  WorkflowStatus.RegisteringVoters */\n  0x00\n    /* \"contracts/4_Test.sol\":1413:1427  workflowStatus */\n  dup1\n  0x14\n    /* \"contracts/4_Test.sol\":1413:1462  workflowStatus = WorkflowStatus.RegisteringVoters */\n  0x0100\n  exp\n  dup2\n  sload\n  dup2\n  0xff\n  mul\n  not\n  and\n  swap1\n  dup4\n  0x05\n  dup2\n  gt\n  iszero\n  tag_10\n  jumpi\n  tag_11\n  tag_12\n  jump\t// in\ntag_11:\ntag_10:\n  mul\n  or\n  swap1\n  sstore\n  pop\n    /* \"contracts/4_Test.sol\":116:5965  contract Voting is Ownable {... */\n  jump(tag_13)\n    /* \"@openzeppelin/contracts/utils/Context.sol\":640:736  function _msgSender() internal view virtual returns (address) {... */\ntag_7:\n    /* \"@openzeppelin/contracts/utils/Context.sol\":693:700  address */\n  0x00\n    /* \"@openzeppelin/contracts/utils/Context.sol\":719:729  msg.sender */\n  caller\n    /* \"@openzeppelin/contracts/utils/Context.sol\":712:729  return msg.sender */\n  swap1\n  pop\n    /* \"@openzeppelin/contracts/utils/Context.sol\":640:736  function _msgSender() internal view virtual returns (address) {... */\n  swap1\n  jump\t// out\n    /* \"@openzeppelin/contracts/access/Ownable.sol\":2426:2613  function _transferOwnership(address newOwner) internal virtual {... */\ntag_8:\n    /* \"@openzeppelin/contracts/access/Ownable.sol\":2499:2515  address oldOwner */\n  0x00\n    /* \"@openzeppelin/contracts/access/Ownable.sol\":2518:2524  _owner */\n  dup1\n  0x00\n  swap1\n  sload\n  swap1\n  0x0100\n  exp\n  swap1\n  div\n  0xffffffffffffffffffffffffffffffffffffffff\n  and\n    /* \"@openzeppelin/contracts/access/Ownable.sol\":2499:2524  address oldOwner = _owner */\n  swap1\n  pop\n    /* \"@openzeppelin/contracts/access/Ownable.sol\":2543:2551  newOwner */\n  dup2\n    /* \"@openzeppelin/contracts/access/Ownable.sol\":2534:2540  _owner */\n  0x00\n  dup1\n    /* \"@openzeppelin/contracts/access/Ownable.sol\":2534:2551  _owner = newOwner */\n  0x0100\n  exp\n  dup2\n  sload\n  dup2\n  0xffffffffffffffffffffffffffffffffffffffff\n  mul\n  not\n  and\n  swap1\n  dup4\n  0xffffffffffffffffffffffffffffffffffffffff\n  and\n  mul\n  or\n  swap1\n  sstore\n  pop\n    /* \"@openzeppelin/contracts/access/Ownable.sol\":2597:2605  newOwner */\n  dup2\n    /* \"@openzeppelin/contracts/access/Ownable.sol\":2566:2606  OwnershipTransferred(oldOwner, newOwner) */\n  0xffffffffffffffffffffffffffffffffffffffff\n  and\n    /* \"@openzeppelin/contracts/access/Ownable.sol\":2587:2595  oldOwner */\n  dup2\n    /* \"@openzeppelin/contracts/access/Ownable.sol\":2566:2606  OwnershipTransferred(oldOwner, newOwner) */\n  0xffffffffffffffffffffffffffffffffffffffff\n  and\n  0x8be0079c531659141344cd1fd0a4f28419497f9722a3daafe3b4186f6b6457e0\n  mload(0x40)\n  mload(0x40)\n  dup1\n  swap2\n  sub\n  swap1\n  log3\n    /* \"@openzeppelin/contracts/access/Ownable.sol\":2489:2613  {... */\n  pop\n    /* \"@openzeppelin/contracts/access/Ownable.sol\":2426:2613  function _transferOwnership(address newOwner) internal virtual {... */\n  pop\n  jump\t// out\n    /* \"#utility.yul\":7:187   */\ntag_12:\n    /* \"#utility.yul\":55:132   */\n  0x4e487b7100000000000000000000000000000000000000000000000000000000\n    /* \"#utility.yul\":52:53   */\n  0x00\n    /* \"#utility.yul\":45:133   */\n  mstore\n    /* \"#utility.yul\":152:156   */\n  0x21\n    /* \"#utility.yul\":149:150   */\n  0x04\n    /* \"#utility.yul\":142:157   */\n  mstore\n    /* \"#utility.yul\":176:180   */\n  0x24\n    /* \"#utility.yul\":173:174   */\n  0x00\n    /* \"#utility.yul\":166:181   */\n  revert\n    /* \"contracts/4_Test.sol\":116:5965  contract Voting is Ownable {... */\ntag_13:\n  dataSize(sub_0)\n  dup1\n  dataOffset(sub_0)\n  0x00\n  codecopy\n  0x00\n  return\nstop\n\nsub_0: assembly {\n        /* \"contracts/4_Test.sol\":116:5965  contract Voting is Ownable {... */\n      mstore(0x40, 0x80)\n      callvalue\n      dup1\n      iszero\n      tag_1\n      jumpi\n      0x00\n      dup1\n      revert\n    tag_1:\n      pop\n      jumpi(tag_2, lt(calldatasize, 0x04))\n      shr(0xe0, calldataload(0x00))\n      dup1\n      0x8e7ea5b2\n      gt\n      tag_21\n      jumpi\n      dup1\n      0xa7bfab16\n      gt\n      tag_22\n      jumpi\n      dup1\n      0xa7bfab16\n      eq\n      tag_16\n      jumpi\n      dup1\n      0xc64963c5\n      eq\n      tag_17\n      jumpi\n      dup1\n      0xe09b8c79\n      eq\n      tag_18\n      jumpi\n      dup1\n      0xee74c678\n      eq\n      tag_19\n      jumpi\n      dup1\n      0xf2fde38b\n      eq\n      tag_20\n      jumpi\n      jump(tag_2)\n    tag_22:\n      dup1\n      0x8e7ea5b2\n      eq\n      tag_12\n      jumpi\n      dup1\n      0x902a3fb5\n      eq\n      tag_13\n      jumpi\n      dup1\n      0xa1edffa2\n      eq\n      tag_14\n      jumpi\n      dup1\n      0xa3ec138d\n      eq\n      tag_15\n      jumpi\n      jump(tag_2)\n    tag_21:\n      dup1\n      0x4de17bca\n      gt\n      tag_23\n      jumpi\n      dup1\n      0x4de17bca\n      eq\n      tag_7\n      jumpi\n      dup1\n      0x6c297445\n      eq\n      tag_8\n      jumpi\n      dup1\n      0x715018a6\n      eq\n      tag_9\n      jumpi\n      dup1\n      0x750e443a\n      eq\n      tag_10\n      jumpi\n      dup1\n      0x8da5cb5b\n      eq\n      tag_11\n      jumpi\n      jump(tag_2)\n    tag_23:\n      dup1\n      0x0121b93f\n      eq\n      tag_3\n      jumpi\n      dup1\n      0x013cf08b\n      eq\n      tag_4\n      jumpi\n      dup1\n      0x2f95355b\n      eq\n      tag_5\n      jumpi\n      dup1\n      0x38db6dd3\n      eq\n      tag_6\n      jumpi\n    tag_2:\n      0x00\n      dup1\n      revert\n        /* \"contracts/4_Test.sol\":3681:4135  function vote(uint _proposalId) public isRegisteredVoter atState(WorkflowStatus.VotingSessionStarted) {... */\n    tag_3:\n      tag_24\n      0x04\n      dup1\n      calldatasize\n      sub\n      dup2\n      add\n      swap1\n      tag_25\n      swap2\n      swap1\n      tag_26\n      jump\t// in\n    tag_25:\n      tag_27\n      jump\t// in\n    tag_24:\n      stop\n        /* \"contracts/4_Test.sol\":909:936  Proposal[] public proposals */\n    tag_4:\n      tag_28\n      0x04\n      dup1\n      calldatasize\n      sub\n      dup2\n      add\n      swap1\n      tag_29\n      swap2\n      swap1\n      tag_26\n      jump\t// in\n    tag_29:\n      tag_30\n      jump\t// in\n    tag_28:\n      mload(0x40)\n      tag_31\n      swap3\n      swap2\n      swap1\n      tag_32\n      jump\t// in\n    tag_31:\n      mload(0x40)\n      dup1\n      swap2\n      sub\n      swap1\n      return\n        /* \"contracts/4_Test.sol\":2643:2954  function registerProposal(string memory _description) public isRegisteredVoter atState(WorkflowStatus.ProposalsRegistrationStarted) {... */\n    tag_5:\n      tag_33\n      0x04\n      dup1\n      calldatasize\n      sub\n      dup2\n      add\n      swap1\n      tag_34\n      swap2\n      swap1\n      tag_35\n      jump\t// in\n    tag_34:\n      tag_36\n      jump\t// in\n    tag_33:\n      stop\n        /* \"contracts/4_Test.sol\":1522:1817  function registerVoter(address _voterAddress) public onlyOwner atState(WorkflowStatus.RegisteringVoters) {... */\n    tag_6:\n      tag_37\n      0x04\n      dup1\n      calldatasize\n      sub\n      dup2\n      add\n      swap1\n      tag_38\n      swap2\n      swap1\n      tag_39\n      jump\t// in\n    tag_38:\n      tag_40\n      jump\t// in\n    tag_37:\n      stop\n        /* \"contracts/4_Test.sol\":4220:4652  function closeVotingSession() public onlyOwner atState(WorkflowStatus.VotingSessionEnded) {... */\n    tag_7:\n      tag_41\n      tag_42\n      jump\t// in\n    tag_41:\n      stop\n        /* \"contracts/4_Test.sol\":2278:2585  function endProposalsRegistration() public onlyOwner atState(WorkflowStatus.ProposalsRegistrationStarted) {... */\n    tag_8:\n      tag_43\n      tag_44\n      jump\t// in\n    tag_43:\n      stop\n        /* \"@openzeppelin/contracts/access/Ownable.sol\":1824:1925  function renounceOwnership() public virtual onlyOwner {... */\n    tag_9:\n      tag_45\n      tag_46\n      jump\t// in\n    tag_45:\n      stop\n        /* \"contracts/4_Test.sol\":5470:5958  function voteAgainst(uint _proposalId) public isRegisteredVoter atState(WorkflowStatus.VotingSessionStarted) {... */\n    tag_10:\n      tag_47\n      0x04\n      dup1\n      calldatasize\n      sub\n      dup2\n      add\n      swap1\n      tag_48\n      swap2\n      swap1\n      tag_26\n      jump\t// in\n    tag_48:\n      tag_49\n      jump\t// in\n    tag_47:\n      stop\n        /* \"@openzeppelin/contracts/access/Ownable.sol\":1201:1286  function owner() public view virtual returns (address) {... */\n    tag_11:\n      tag_50\n      tag_51\n      jump\t// in\n    tag_50:\n      mload(0x40)\n      tag_52\n      swap2\n      swap1\n      tag_53\n      jump\t// in\n    tag_52:\n      mload(0x40)\n      dup1\n      swap2\n      sub\n      swap1\n      return\n        /* \"contracts/4_Test.sol\":4701:4886  function getWinner() public view returns (uint) {... */\n    tag_12:\n      tag_54\n      tag_55\n      jump\t// in\n    tag_54:\n      mload(0x40)\n      tag_56\n      swap2\n      swap1\n      tag_57\n      jump\t// in\n    tag_56:\n      mload(0x40)\n      dup1\n      swap2\n      sub\n      swap1\n      return\n        /* \"contracts/4_Test.sol\":5368:5418  mapping(uint => RejectedVote) public rejectedVotes */\n    tag_13:\n      tag_58\n      0x04\n      dup1\n      calldatasize\n      sub\n      dup2\n      add\n      swap1\n      tag_59\n      swap2\n      swap1\n      tag_26\n      jump\t// in\n    tag_59:\n      tag_60\n      jump\t// in\n    tag_58:\n      mload(0x40)\n      tag_61\n      swap3\n      swap2\n      swap1\n      tag_62\n      jump\t// in\n    tag_61:\n      mload(0x40)\n      dup1\n      swap2\n      sub\n      swap1\n      return\n        /* \"contracts/4_Test.sol\":683:719  WorkflowStatus public workflowStatus */\n    tag_14:\n      tag_63\n      tag_64\n      jump\t// in\n    tag_63:\n      mload(0x40)\n      tag_65\n      swap2\n      swap1\n      tag_66\n      jump\t// in\n    tag_65:\n      mload(0x40)\n      dup1\n      swap2\n      sub\n      swap1\n      return\n        /* \"contracts/4_Test.sol\":805:844  mapping(address => Voter) public voters */\n    tag_15:\n      tag_67\n      0x04\n      dup1\n      calldatasize\n      sub\n      dup2\n      add\n      swap1\n      tag_68\n      swap2\n      swap1\n      tag_39\n      jump\t// in\n    tag_68:\n      tag_69\n      jump\t// in\n    tag_67:\n      mload(0x40)\n      tag_70\n      swap4\n      swap3\n      swap2\n      swap1\n      tag_71\n      jump\t// in\n    tag_70:\n      mload(0x40)\n      dup1\n      swap2\n      sub\n      swap1\n      return\n        /* \"contracts/4_Test.sol\":3357:3624  function endVotingSession() public onlyOwner atState(WorkflowStatus.VotingSessionStarted) {... */\n    tag_16:\n      tag_72\n      tag_73\n      jump\t// in\n    tag_72:\n      stop\n        /* \"contracts/4_Test.sol\":726:755  uint public winningProposalId */\n    tag_17:\n      tag_74\n      tag_75\n      jump\t// in\n    tag_74:\n      mload(0x40)\n      tag_76\n      swap2\n      swap1\n      tag_57\n      jump\t// in\n    tag_76:\n      mload(0x40)\n      dup1\n      swap2\n      sub\n      swap1\n      return\n        /* \"contracts/4_Test.sol\":1902:2193  function startProposalsRegistration() public onlyOwner atState(WorkflowStatus.RegisteringVoters) {... */\n    tag_18:\n      tag_77\n      tag_78\n      jump\t// in\n    tag_77:\n      stop\n        /* \"contracts/4_Test.sol\":3013:3298  function startVotingSession() public onlyOwner atState(WorkflowStatus.ProposalsRegistrationEnded) {... */\n    tag_19:\n      tag_79\n      tag_80\n      jump\t// in\n    tag_79:\n      stop\n        /* \"@openzeppelin/contracts/access/Ownable.sol\":2074:2272  function transferOwnership(address newOwner) public virtual onlyOwner {... */\n    tag_20:\n      tag_81\n      0x04\n      dup1\n      calldatasize\n      sub\n      dup2\n      add\n      swap1\n      tag_82\n      swap2\n      swap1\n      tag_39\n      jump\t// in\n    tag_82:\n      tag_83\n      jump\t// in\n    tag_81:\n      stop\n        /* \"contracts/4_Test.sol\":3681:4135  function vote(uint _proposalId) public isRegisteredVoter atState(WorkflowStatus.VotingSessionStarted) {... */\n    tag_27:\n        /* \"contracts/4_Test.sol\":1261:1267  voters */\n      0x02\n        /* \"contracts/4_Test.sol\":1261:1279  voters[msg.sender] */\n      0x00\n        /* \"contracts/4_Test.sol\":1268:1278  msg.sender */\n      caller\n        /* \"contracts/4_Test.sol\":1261:1279  voters[msg.sender] */\n      0xffffffffffffffffffffffffffffffffffffffff\n      and\n      0xffffffffffffffffffffffffffffffffffffffff\n      and\n      dup2\n      mstore\n      0x20\n      add\n      swap1\n      dup2\n      mstore\n      0x20\n      add\n      0x00\n      keccak256\n        /* \"contracts/4_Test.sol\":1261:1292  voters[msg.sender].isRegistered */\n      0x00\n      add\n      0x00\n      swap1\n      sload\n      swap1\n      0x0100\n      exp\n      swap1\n      div\n      0xff\n      and\n        /* \"contracts/4_Test.sol\":1253:1328  require(voters[msg.sender].isRegistered, \"You are not a registered voter.\") */\n      tag_85\n      jumpi\n      mload(0x40)\n      0x08c379a000000000000000000000000000000000000000000000000000000000\n      dup2\n      mstore\n      0x04\n      add\n      tag_86\n      swap1\n      tag_87\n      jump\t// in\n    tag_86:\n      mload(0x40)\n      dup1\n      swap2\n      sub\n      swap1\n      revert\n    tag_85:\n        /* \"contracts/4_Test.sol\":3746:3781  WorkflowStatus.VotingSessionStarted */\n      0x03\n        /* \"contracts/4_Test.sol\":1075:1082  _status */\n      dup1\n        /* \"contracts/4_Test.sol\":1057:1082  workflowStatus == _status */\n      0x05\n      dup2\n      gt\n      iszero\n      tag_89\n      jumpi\n      tag_90\n      tag_91\n      jump\t// in\n    tag_90:\n    tag_89:\n        /* \"contracts/4_Test.sol\":1057:1071  workflowStatus */\n      0x00\n      0x14\n      swap1\n      sload\n      swap1\n      0x0100\n      exp\n      swap1\n      div\n      0xff\n      and\n        /* \"contracts/4_Test.sol\":1057:1082  workflowStatus == _status */\n      0x05\n      dup2\n      gt\n      iszero\n      tag_92\n      jumpi\n      tag_93\n      tag_91\n      jump\t// in\n    tag_93:\n    tag_92:\n      eq\n        /* \"contracts/4_Test.sol\":1049:1120  require(workflowStatus == _status, \"Action not allowed at this stage.\") */\n      tag_94\n      jumpi\n      mload(0x40)\n      0x08c379a000000000000000000000000000000000000000000000000000000000\n      dup2\n      mstore\n      0x04\n      add\n      tag_95\n      swap1\n      tag_96\n      jump\t// in\n    tag_95:\n      mload(0x40)\n      dup1\n      swap2\n      sub\n      swap1\n      revert\n    tag_94:\n        /* \"contracts/4_Test.sol\":3816:3825  proposals */\n      0x03\n        /* \"contracts/4_Test.sol\":3816:3832  proposals.length */\n      dup1\n      sload\n      swap1\n      pop\n        /* \"contracts/4_Test.sol\":3802:3813  _proposalId */\n      dup3\n        /* \"contracts/4_Test.sol\":3802:3832  _proposalId < proposals.length */\n      lt\n        /* \"contracts/4_Test.sol\":3794:3857  require(_proposalId < proposals.length, \"Invalid proposal ID.\") */\n      tag_98\n      jumpi\n      mload(0x40)\n      0x08c379a000000000000000000000000000000000000000000000000000000000\n      dup2\n      mstore\n      0x04\n      add\n      tag_99\n      swap1\n      tag_100\n      jump\t// in\n    tag_99:\n      mload(0x40)\n      dup1\n      swap2\n      sub\n      swap1\n      revert\n    tag_98:\n        /* \"contracts/4_Test.sol\":3877:3883  voters */\n      0x02\n        /* \"contracts/4_Test.sol\":3877:3895  voters[msg.sender] */\n      0x00\n        /* \"contracts/4_Test.sol\":3884:3894  msg.sender */\n      caller\n        /* \"contracts/4_Test.sol\":3877:3895  voters[msg.sender] */\n      0xffffffffffffffffffffffffffffffffffffffff\n      and\n      0xffffffffffffffffffffffffffffffffffffffff\n      and\n      dup2\n      mstore\n      0x20\n      add\n      swap1\n      dup2\n      mstore\n      0x20\n      add\n      0x00\n      keccak256\n        /* \"contracts/4_Test.sol\":3877:3904  voters[msg.sender].hasVoted */\n      0x00\n      add\n      0x01\n      swap1\n      sload\n      swap1\n      0x0100\n      exp\n      swap1\n      div\n      0xff\n      and\n        /* \"contracts/4_Test.sol\":3876:3904  !voters[msg.sender].hasVoted */\n      iszero\n        /* \"contracts/4_Test.sol\":3868:3932  require(!voters[msg.sender].hasVoted, \"You have already voted.\") */\n      tag_101\n      jumpi\n      mload(0x40)\n      0x08c379a000000000000000000000000000000000000000000000000000000000\n      dup2\n      mstore\n      0x04\n      add\n      tag_102\n      swap1\n      tag_103\n      jump\t// in\n    tag_102:\n      mload(0x40)\n      dup1\n      swap2\n      sub\n      swap1\n      revert\n    tag_101:\n        /* \"contracts/4_Test.sol\":3973:3977  true */\n      0x01\n        /* \"contracts/4_Test.sol\":3943:3949  voters */\n      0x02\n        /* \"contracts/4_Test.sol\":3943:3961  voters[msg.sender] */\n      0x00\n        /* \"contracts/4_Test.sol\":3950:3960  msg.sender */\n      caller\n        /* \"contracts/4_Test.sol\":3943:3961  voters[msg.sender] */\n      0xffffffffffffffffffffffffffffffffffffffff\n      and\n      0xffffffffffffffffffffffffffffffffffffffff\n      and\n      dup2\n      mstore\n      0x20\n      add\n      swap1\n      dup2\n      mstore\n      0x20\n      add\n      0x00\n      keccak256\n        /* \"contracts/4_Test.sol\":3943:3970  voters[msg.sender].hasVoted */\n      0x00\n      add\n      0x01\n        /* \"contracts/4_Test.sol\":3943:3977  voters[msg.sender].hasVoted = true */\n      0x0100\n      exp\n      dup2\n      sload\n      dup2\n      0xff\n      mul\n      not\n      and\n      swap1\n      dup4\n      iszero\n      iszero\n      mul\n      or\n      swap1\n      sstore\n      pop\n        /* \"contracts/4_Test.sol\":4025:4036  _proposalId */\n      dup2\n        /* \"contracts/4_Test.sol\":3988:3994  voters */\n      0x02\n        /* \"contracts/4_Test.sol\":3988:4006  voters[msg.sender] */\n      0x00\n        /* \"contracts/4_Test.sol\":3995:4005  msg.sender */\n      caller\n        /* \"contracts/4_Test.sol\":3988:4006  voters[msg.sender] */\n      0xffffffffffffffffffffffffffffffffffffffff\n      and\n      0xffffffffffffffffffffffffffffffffffffffff\n      and\n      dup2\n      mstore\n      0x20\n      add\n      swap1\n      dup2\n      mstore\n      0x20\n      add\n      0x00\n      keccak256\n        /* \"contracts/4_Test.sol\":3988:4022  voters[msg.sender].votedProposalId */\n      0x01\n      add\n        /* \"contracts/4_Test.sol\":3988:4036  voters[msg.sender].votedProposalId = _proposalId */\n      dup2\n      swap1\n      sstore\n      pop\n        /* \"contracts/4_Test.sol\":4047:4056  proposals */\n      0x03\n        /* \"contracts/4_Test.sol\":4057:4068  _proposalId */\n      dup3\n        /* \"contracts/4_Test.sol\":4047:4069  proposals[_proposalId] */\n      dup2\n      sload\n      dup2\n      lt\n      tag_104\n      jumpi\n      tag_105\n      tag_106\n      jump\t// in\n    tag_105:\n    tag_104:\n      swap1\n      0x00\n      mstore\n      keccak256(0x00, 0x20)\n      swap1\n      0x02\n      mul\n      add\n        /* \"contracts/4_Test.sol\":4047:4079  proposals[_proposalId].voteCount */\n      0x01\n      add\n      0x00\n        /* \"contracts/4_Test.sol\":4047:4081  proposals[_proposalId].voteCount++ */\n      dup2\n      sload\n      dup1\n      swap3\n      swap2\n      swap1\n      tag_108\n      swap1\n      tag_109\n      jump\t// in\n    tag_108:\n      swap2\n      swap1\n      pop\n      sstore\n      pop\n        /* \"contracts/4_Test.sol\":4097:4127  Voted(msg.sender, _proposalId) */\n      0x4d99b957a2bc29a30ebd96a7be8e68fe50a3c701db28a91436490b7d53870ca4\n        /* \"contracts/4_Test.sol\":4103:4113  msg.sender */\n      caller\n        /* \"contracts/4_Test.sol\":4115:4126  _proposalId */\n      dup4\n        /* \"contracts/4_Test.sol\":4097:4127  Voted(msg.sender, _proposalId) */\n      mload(0x40)\n      tag_110\n      swap3\n      swap2\n      swap1\n      tag_111\n      jump\t// in\n    tag_110:\n      mload(0x40)\n      dup1\n      swap2\n      sub\n      swap1\n      log1\n        /* \"contracts/4_Test.sol\":1339:1340  _ */\n      pop\n        /* \"contracts/4_Test.sol\":3681:4135  function vote(uint _proposalId) public isRegisteredVoter atState(WorkflowStatus.VotingSessionStarted) {... */\n      pop\n      jump\t// out\n        /* \"contracts/4_Test.sol\":909:936  Proposal[] public proposals */\n    tag_30:\n      0x03\n      dup2\n      dup2\n      sload\n      dup2\n      lt\n      tag_112\n      jumpi\n      0x00\n      dup1\n      revert\n    tag_112:\n      swap1\n      0x00\n      mstore\n      keccak256(0x00, 0x20)\n      swap1\n      0x02\n      mul\n      add\n      0x00\n      swap2\n      pop\n      swap1\n      pop\n      dup1\n      0x00\n      add\n      dup1\n      sload\n      tag_114\n      swap1\n      tag_115\n      jump\t// in\n    tag_114:\n      dup1\n      0x1f\n      add\n      0x20\n      dup1\n      swap2\n      div\n      mul\n      0x20\n      add\n      mload(0x40)\n      swap1\n      dup2\n      add\n      0x40\n      mstore\n      dup1\n      swap3\n      swap2\n      swap1\n      dup2\n      dup2\n      mstore\n      0x20\n      add\n      dup3\n      dup1\n      sload\n      tag_116\n      swap1\n      tag_115\n      jump\t// in\n    tag_116:\n      dup1\n      iszero\n      tag_117\n      jumpi\n      dup1\n      0x1f\n      lt\n      tag_118\n      jumpi\n      0x0100\n      dup1\n      dup4\n      sload\n      div\n      mul\n      dup4\n      mstore\n      swap2\n      0x20\n      add\n      swap2\n      jump(tag_117)\n    tag_118:\n      dup3\n      add\n      swap2\n      swap1\n      0x00\n      mstore\n      keccak256(0x00, 0x20)\n      swap1\n    tag_119:\n      dup2\n      sload\n      dup2\n      mstore\n      swap1\n      0x01\n      add\n      swap1\n      0x20\n      add\n      dup1\n      dup4\n      gt\n      tag_119\n      jumpi\n      dup3\n      swap1\n      sub\n      0x1f\n      and\n      dup3\n      add\n      swap2\n    tag_117:\n      pop\n      pop\n      pop\n      pop\n      pop\n      swap1\n      dup1\n      0x01\n      add\n      sload\n      swap1\n      pop\n      dup3\n      jump\t// out\n        /* \"contracts/4_Test.sol\":2643:2954  function registerProposal(string memory _description) public isRegisteredVoter atState(WorkflowStatus.ProposalsRegistrationStarted) {... */\n    tag_36:\n        /* \"contracts/4_Test.sol\":1261:1267  voters */\n      0x02\n        /* \"contracts/4_Test.sol\":1261:1279  voters[msg.sender] */\n      0x00\n        /* \"contracts/4_Test.sol\":1268:1278  msg.sender */\n      caller\n        /* \"contracts/4_Test.sol\":1261:1279  voters[msg.sender] */\n      0xffffffffffffffffffffffffffffffffffffffff\n      and\n      0xffffffffffffffffffffffffffffffffffffffff\n      and\n      dup2\n      mstore\n      0x20\n      add\n      swap1\n      dup2\n      mstore\n      0x20\n      add\n      0x00\n      keccak256\n        /* \"contracts/4_Test.sol\":1261:1292  voters[msg.sender].isRegistered */\n      0x00\n      add\n      0x00\n      swap1\n      sload\n      swap1\n      0x0100\n      exp\n      swap1\n      div\n      0xff\n      and\n        /* \"contracts/4_Test.sol\":1253:1328  require(voters[msg.sender].isRegistered, \"You are not a registered voter.\") */\n      tag_121\n      jumpi\n      mload(0x40)\n      0x08c379a000000000000000000000000000000000000000000000000000000000\n      dup2\n      mstore\n      0x04\n      add\n      tag_122\n      swap1\n      tag_87\n      jump\t// in\n    tag_122:\n      mload(0x40)\n      dup1\n      swap2\n      sub\n      swap1\n      revert\n    tag_121:\n        /* \"contracts/4_Test.sol\":2730:2773  WorkflowStatus.ProposalsRegistrationStarted */\n      0x01\n        /* \"contracts/4_Test.sol\":1075:1082  _status */\n      dup1\n        /* \"contracts/4_Test.sol\":1057:1082  workflowStatus == _status */\n      0x05\n      dup2\n      gt\n      iszero\n      tag_124\n      jumpi\n      tag_125\n      tag_91\n      jump\t// in\n    tag_125:\n    tag_124:\n        /* \"contracts/4_Test.sol\":1057:1071  workflowStatus */\n      0x00\n      0x14\n      swap1\n      sload\n      swap1\n      0x0100\n      exp\n      swap1\n      div\n      0xff\n      and\n        /* \"contracts/4_Test.sol\":1057:1082  workflowStatus == _status */\n      0x05\n      dup2\n      gt\n      iszero\n      tag_126\n      jumpi\n      tag_127\n      tag_91\n      jump\t// in\n    tag_127:\n    tag_126:\n      eq\n        /* \"contracts/4_Test.sol\":1049:1120  require(workflowStatus == _status, \"Action not allowed at this stage.\") */\n      tag_128\n      jumpi\n      mload(0x40)\n      0x08c379a000000000000000000000000000000000000000000000000000000000\n      dup2\n      mstore\n      0x04\n      add\n      tag_129\n      swap1\n      tag_96\n      jump\t// in\n    tag_129:\n      mload(0x40)\n      dup1\n      swap2\n      sub\n      swap1\n      revert\n    tag_128:\n        /* \"contracts/4_Test.sol\":2786:2795  proposals */\n      0x03\n        /* \"contracts/4_Test.sol\":2801:2889  Proposal({... */\n      mload(0x40)\n      dup1\n      0x40\n      add\n      0x40\n      mstore\n      dup1\n        /* \"contracts/4_Test.sol\":2838:2850  _description */\n      dup5\n        /* \"contracts/4_Test.sol\":2801:2889  Proposal({... */\n      dup2\n      mstore\n      0x20\n      add\n        /* \"contracts/4_Test.sol\":2876:2877  0 */\n      0x00\n        /* \"contracts/4_Test.sol\":2801:2889  Proposal({... */\n      dup2\n      mstore\n      pop\n        /* \"contracts/4_Test.sol\":2786:2890  proposals.push(Proposal({... */\n      swap1\n      dup1\n      0x01\n      dup2\n      sload\n      add\n      dup1\n      dup3\n      sstore\n      dup1\n      swap2\n      pop\n      pop\n      0x01\n      swap1\n      sub\n      swap1\n      0x00\n      mstore\n      keccak256(0x00, 0x20)\n      swap1\n      0x02\n      mul\n      add\n      0x00\n      swap1\n      swap2\n      swap1\n      swap2\n      swap1\n      swap2\n      pop\n      0x00\n      dup3\n      add\n      mload\n      dup2\n      0x00\n      add\n      swap1\n      dup2\n      tag_132\n      swap2\n      swap1\n      tag_133\n      jump\t// in\n    tag_132:\n      pop\n      0x20\n      dup3\n      add\n      mload\n      dup2\n      0x01\n      add\n      sstore\n      pop\n      pop\n        /* \"contracts/4_Test.sol\":2906:2946  ProposalRegistered(proposals.length - 1) */\n      0x92e393e9b54e2f801d3ea4beb0c5e71a21cc34a5d34b77d0fb8a3aa1650dc18f\n        /* \"contracts/4_Test.sol\":2944:2945  1 */\n      0x01\n        /* \"contracts/4_Test.sol\":2925:2934  proposals */\n      0x03\n        /* \"contracts/4_Test.sol\":2925:2941  proposals.length */\n      dup1\n      sload\n      swap1\n      pop\n        /* \"contracts/4_Test.sol\":2925:2945  proposals.length - 1 */\n      tag_134\n      swap2\n      swap1\n      tag_135\n      jump\t// in\n    tag_134:\n        /* \"contracts/4_Test.sol\":2906:2946  ProposalRegistered(proposals.length - 1) */\n      mload(0x40)\n      tag_136\n      swap2\n      swap1\n      tag_57\n      jump\t// in\n    tag_136:\n      mload(0x40)\n      dup1\n      swap2\n      sub\n      swap1\n      log1\n        /* \"contracts/4_Test.sol\":1339:1340  _ */\n      pop\n        /* \"contracts/4_Test.sol\":2643:2954  function registerProposal(string memory _description) public isRegisteredVoter atState(WorkflowStatus.ProposalsRegistrationStarted) {... */\n      pop\n      jump\t// out\n        /* \"contracts/4_Test.sol\":1522:1817  function registerVoter(address _voterAddress) public onlyOwner atState(WorkflowStatus.RegisteringVoters) {... */\n    tag_40:\n        /* \"@openzeppelin/contracts/access/Ownable.sol\":1094:1107  _checkOwner() */\n      tag_138\n        /* \"@openzeppelin/contracts/access/Ownable.sol\":1094:1105  _checkOwner */\n      tag_139\n        /* \"@openzeppelin/contracts/access/Ownable.sol\":1094:1107  _checkOwner() */\n      jump\t// in\n    tag_138:\n        /* \"contracts/4_Test.sol\":1593:1625  WorkflowStatus.RegisteringVoters */\n      0x00\n        /* \"contracts/4_Test.sol\":1075:1082  _status */\n      dup1\n        /* \"contracts/4_Test.sol\":1057:1082  workflowStatus == _status */\n      0x05\n      dup2\n      gt\n      iszero\n      tag_141\n      jumpi\n      tag_142\n      tag_91\n      jump\t// in\n    tag_142:\n    tag_141:\n        /* \"contracts/4_Test.sol\":1057:1071  workflowStatus */\n      0x00\n      0x14\n      swap1\n      sload\n      swap1\n      0x0100\n      exp\n      swap1\n      div\n      0xff\n      and\n        /* \"contracts/4_Test.sol\":1057:1082  workflowStatus == _status */\n      0x05\n      dup2\n      gt\n      iszero\n      tag_143\n      jumpi\n      tag_144\n      tag_91\n      jump\t// in\n    tag_144:\n    tag_143:\n      eq\n        /* \"contracts/4_Test.sol\":1049:1120  require(workflowStatus == _status, \"Action not allowed at this stage.\") */\n      tag_145\n      jumpi\n      mload(0x40)\n      0x08c379a000000000000000000000000000000000000000000000000000000000\n      dup2\n      mstore\n      0x04\n      add\n      tag_146\n      swap1\n      tag_96\n      jump\t// in\n    tag_146:\n      mload(0x40)\n      dup1\n      swap2\n      sub\n      swap1\n      revert\n    tag_145:\n        /* \"contracts/4_Test.sol\":1647:1653  voters */\n      0x02\n        /* \"contracts/4_Test.sol\":1647:1668  voters[_voterAddress] */\n      0x00\n        /* \"contracts/4_Test.sol\":1654:1667  _voterAddress */\n      dup4\n        /* \"contracts/4_Test.sol\":1647:1668  voters[_voterAddress] */\n      0xffffffffffffffffffffffffffffffffffffffff\n      and\n      0xffffffffffffffffffffffffffffffffffffffff\n      and\n      dup2\n      mstore\n      0x20\n      add\n      swap1\n      dup2\n      mstore\n      0x20\n      add\n      0x00\n      keccak256\n        /* \"contracts/4_Test.sol\":1647:1681  voters[_voterAddress].isRegistered */\n      0x00\n      add\n      0x00\n      swap1\n      sload\n      swap1\n      0x0100\n      exp\n      swap1\n      div\n      0xff\n      and\n        /* \"contracts/4_Test.sol\":1646:1681  !voters[_voterAddress].isRegistered */\n      iszero\n        /* \"contracts/4_Test.sol\":1638:1711  require(!voters[_voterAddress].isRegistered, \"Voter already registered.\") */\n      tag_148\n      jumpi\n      mload(0x40)\n      0x08c379a000000000000000000000000000000000000000000000000000000000\n      dup2\n      mstore\n      0x04\n      add\n      tag_149\n      swap1\n      tag_150\n      jump\t// in\n    tag_149:\n      mload(0x40)\n      dup1\n      swap2\n      sub\n      swap1\n      revert\n    tag_148:\n        /* \"contracts/4_Test.sol\":1759:1763  true */\n      0x01\n        /* \"contracts/4_Test.sol\":1722:1728  voters */\n      0x02\n        /* \"contracts/4_Test.sol\":1722:1743  voters[_voterAddress] */\n      0x00\n        /* \"contracts/4_Test.sol\":1729:1742  _voterAddress */\n      dup5\n        /* \"contracts/4_Test.sol\":1722:1743  voters[_voterAddress] */\n      0xffffffffffffffffffffffffffffffffffffffff\n      and\n      0xffffffffffffffffffffffffffffffffffffffff\n      and\n      dup2\n      mstore\n      0x20\n      add\n      swap1\n      dup2\n      mstore\n      0x20\n      add\n      0x00\n      keccak256\n        /* \"contracts/4_Test.sol\":1722:1756  voters[_voterAddress].isRegistered */\n      0x00\n      add\n      0x00\n        /* \"contracts/4_Test.sol\":1722:1763  voters[_voterAddress].isRegistered = true */\n      0x0100\n      exp\n      dup2\n      sload\n      dup2\n      0xff\n      mul\n      not\n      and\n      swap1\n      dup4\n      iszero\n      iszero\n      mul\n      or\n      swap1\n      sstore\n      pop\n        /* \"contracts/4_Test.sol\":1779:1809  VoterRegistered(_voterAddress) */\n      0xb6be2187d059cc2a55fe29e0e503b566e1e0f8c8780096e185429350acffd3dd\n        /* \"contracts/4_Test.sol\":1795:1808  _voterAddress */\n      dup3\n        /* \"contracts/4_Test.sol\":1779:1809  VoterRegistered(_voterAddress) */\n      mload(0x40)\n      tag_151\n      swap2\n      swap1\n      tag_53\n      jump\t// in\n    tag_151:\n      mload(0x40)\n      dup1\n      swap2\n      sub\n      swap1\n      log1\n        /* \"@openzeppelin/contracts/access/Ownable.sol\":1117:1118  _ */\n      pop\n        /* \"contracts/4_Test.sol\":1522:1817  function registerVoter(address _voterAddress) public onlyOwner atState(WorkflowStatus.RegisteringVoters) {... */\n      pop\n      jump\t// out\n        /* \"contracts/4_Test.sol\":4220:4652  function closeVotingSession() public onlyOwner atState(WorkflowStatus.VotingSessionEnded) {... */\n    tag_42:\n        /* \"@openzeppelin/contracts/access/Ownable.sol\":1094:1107  _checkOwner() */\n      tag_153\n        /* \"@openzeppelin/contracts/access/Ownable.sol\":1094:1105  _checkOwner */\n      tag_139\n        /* \"@openzeppelin/contracts/access/Ownable.sol\":1094:1107  _checkOwner() */\n      jump\t// in\n    tag_153:\n        /* \"contracts/4_Test.sol\":4275:4308  WorkflowStatus.VotingSessionEnded */\n      0x04\n        /* \"contracts/4_Test.sol\":1075:1082  _status */\n      dup1\n        /* \"contracts/4_Test.sol\":1057:1082  workflowStatus == _status */\n      0x05\n      dup2\n      gt\n      iszero\n      tag_155\n      jumpi\n      tag_156\n      tag_91\n      jump\t// in\n    tag_156:\n    tag_155:\n        /* \"contracts/4_Test.sol\":1057:1071  workflowStatus */\n      0x00\n      0x14\n      swap1\n      sload\n      swap1\n      0x0100\n      exp\n      swap1\n      div\n      0xff\n      and\n        /* \"contracts/4_Test.sol\":1057:1082  workflowStatus == _status */\n      0x05\n      dup2\n      gt\n      iszero\n      tag_157\n      jumpi\n      tag_158\n      tag_91\n      jump\t// in\n    tag_158:\n    tag_157:\n      eq\n        /* \"contracts/4_Test.sol\":1049:1120  require(workflowStatus == _status, \"Action not allowed at this stage.\") */\n      tag_159\n      jumpi\n      mload(0x40)\n      0x08c379a000000000000000000000000000000000000000000000000000000000\n      dup2\n      mstore\n      0x04\n      add\n      tag_160\n      swap1\n      tag_96\n      jump\t// in\n    tag_160:\n      mload(0x40)\n      dup1\n      swap2\n      sub\n      swap1\n      revert\n    tag_159:\n        /* \"contracts/4_Test.sol\":4338:4365  WorkflowStatus.VotesTallied */\n      0x05\n        /* \"contracts/4_Test.sol\":4321:4335  workflowStatus */\n      0x00\n      0x14\n        /* \"contracts/4_Test.sol\":4321:4365  workflowStatus = WorkflowStatus.VotesTallied */\n      0x0100\n      exp\n      dup2\n      sload\n      dup2\n      0xff\n      mul\n      not\n      and\n      swap1\n      dup4\n      0x05\n      dup2\n      gt\n      iszero\n      tag_162\n      jumpi\n      tag_163\n      tag_91\n      jump\t// in\n    tag_163:\n    tag_162:\n      mul\n      or\n      swap1\n      sstore\n      pop\n        /* \"contracts/4_Test.sol\":4376:4397  uint winningVoteCount */\n      0x00\n        /* \"contracts/4_Test.sol\":4417:4423  uint i */\n      dup1\n        /* \"contracts/4_Test.sol\":4412:4645  for (uint i = 0; i < proposals.length; i++) {... */\n    tag_164:\n        /* \"contracts/4_Test.sol\":4433:4442  proposals */\n      0x03\n        /* \"contracts/4_Test.sol\":4433:4449  proposals.length */\n      dup1\n      sload\n      swap1\n      pop\n        /* \"contracts/4_Test.sol\":4429:4430  i */\n      dup2\n        /* \"contracts/4_Test.sol\":4429:4449  i < proposals.length */\n      lt\n        /* \"contracts/4_Test.sol\":4412:4645  for (uint i = 0; i < proposals.length; i++) {... */\n      iszero\n      tag_165\n      jumpi\n        /* \"contracts/4_Test.sol\":4500:4516  winningVoteCount */\n      dup2\n        /* \"contracts/4_Test.sol\":4475:4484  proposals */\n      0x03\n        /* \"contracts/4_Test.sol\":4485:4486  i */\n      dup3\n        /* \"contracts/4_Test.sol\":4475:4487  proposals[i] */\n      dup2\n      sload\n      dup2\n      lt\n      tag_167\n      jumpi\n      tag_168\n      tag_106\n      jump\t// in\n    tag_168:\n    tag_167:\n      swap1\n      0x00\n      mstore\n      keccak256(0x00, 0x20)\n      swap1\n      0x02\n      mul\n      add\n        /* \"contracts/4_Test.sol\":4475:4497  proposals[i].voteCount */\n      0x01\n      add\n      sload\n        /* \"contracts/4_Test.sol\":4475:4516  proposals[i].voteCount > winningVoteCount */\n      gt\n        /* \"contracts/4_Test.sol\":4471:4634  if (proposals[i].voteCount > winningVoteCount) {... */\n      iszero\n      tag_170\n      jumpi\n        /* \"contracts/4_Test.sol\":4556:4565  proposals */\n      0x03\n        /* \"contracts/4_Test.sol\":4566:4567  i */\n      dup2\n        /* \"contracts/4_Test.sol\":4556:4568  proposals[i] */\n      dup2\n      sload\n      dup2\n      lt\n      tag_171\n      jumpi\n      tag_172\n      tag_106\n      jump\t// in\n    tag_172:\n    tag_171:\n      swap1\n      0x00\n      mstore\n      keccak256(0x00, 0x20)\n      swap1\n      0x02\n      mul\n      add\n        /* \"contracts/4_Test.sol\":4556:4578  proposals[i].voteCount */\n      0x01\n      add\n      sload\n        /* \"contracts/4_Test.sol\":4537:4578  winningVoteCount = proposals[i].voteCount */\n      swap2\n      pop\n        /* \"contracts/4_Test.sol\":4617:4618  i */\n      dup1\n        /* \"contracts/4_Test.sol\":4597:4614  winningProposalId */\n      0x01\n        /* \"contracts/4_Test.sol\":4597:4618  winningProposalId = i */\n      dup2\n      swap1\n      sstore\n      pop\n        /* \"contracts/4_Test.sol\":4471:4634  if (proposals[i].voteCount > winningVoteCount) {... */\n    tag_170:\n        /* \"contracts/4_Test.sol\":4451:4454  i++ */\n      dup1\n      dup1\n      tag_174\n      swap1\n      tag_109\n      jump\t// in\n    tag_174:\n      swap2\n      pop\n      pop\n        /* \"contracts/4_Test.sol\":4412:4645  for (uint i = 0; i < proposals.length; i++) {... */\n      jump(tag_164)\n    tag_165:\n      pop\n        /* \"contracts/4_Test.sol\":4310:4652  {... */\n      pop\n        /* \"@openzeppelin/contracts/access/Ownable.sol\":1117:1118  _ */\n      pop\n        /* \"contracts/4_Test.sol\":4220:4652  function closeVotingSession() public onlyOwner atState(WorkflowStatus.VotingSessionEnded) {... */\n      jump\t// out\n        /* \"contracts/4_Test.sol\":2278:2585  function endProposalsRegistration() public onlyOwner atState(WorkflowStatus.ProposalsRegistrationStarted) {... */\n    tag_44:\n        /* \"@openzeppelin/contracts/access/Ownable.sol\":1094:1107  _checkOwner() */\n      tag_176\n        /* \"@openzeppelin/contracts/access/Ownable.sol\":1094:1105  _checkOwner */\n      tag_139\n        /* \"@openzeppelin/contracts/access/Ownable.sol\":1094:1107  _checkOwner() */\n      jump\t// in\n    tag_176:\n        /* \"contracts/4_Test.sol\":2339:2382  WorkflowStatus.ProposalsRegistrationStarted */\n      0x01\n        /* \"contracts/4_Test.sol\":1075:1082  _status */\n      dup1\n        /* \"contracts/4_Test.sol\":1057:1082  workflowStatus == _status */\n      0x05\n      dup2\n      gt\n      iszero\n      tag_178\n      jumpi\n      tag_179\n      tag_91\n      jump\t// in\n    tag_179:\n    tag_178:\n        /* \"contracts/4_Test.sol\":1057:1071  workflowStatus */\n      0x00\n      0x14\n      swap1\n      sload\n      swap1\n      0x0100\n      exp\n      swap1\n      div\n      0xff\n      and\n        /* \"contracts/4_Test.sol\":1057:1082  workflowStatus == _status */\n      0x05\n      dup2\n      gt\n      iszero\n      tag_180\n      jumpi\n      tag_181\n      tag_91\n      jump\t// in\n    tag_181:\n    tag_180:\n      eq\n        /* \"contracts/4_Test.sol\":1049:1120  require(workflowStatus == _status, \"Action not allowed at this stage.\") */\n      tag_182\n      jumpi\n      mload(0x40)\n      0x08c379a000000000000000000000000000000000000000000000000000000000\n      dup2\n      mstore\n      0x04\n      add\n      tag_183\n      swap1\n      tag_96\n      jump\t// in\n    tag_183:\n      mload(0x40)\n      dup1\n      swap2\n      sub\n      swap1\n      revert\n    tag_182:\n        /* \"contracts/4_Test.sol\":2412:2453  WorkflowStatus.ProposalsRegistrationEnded */\n      0x02\n        /* \"contracts/4_Test.sol\":2395:2409  workflowStatus */\n      0x00\n      0x14\n        /* \"contracts/4_Test.sol\":2395:2453  workflowStatus = WorkflowStatus.ProposalsRegistrationEnded */\n      0x0100\n      exp\n      dup2\n      sload\n      dup2\n      0xff\n      mul\n      not\n      and\n      swap1\n      dup4\n      0x05\n      dup2\n      gt\n      iszero\n      tag_185\n      jumpi\n      tag_186\n      tag_91\n      jump\t// in\n    tag_186:\n    tag_185:\n      mul\n      or\n      swap1\n      sstore\n      pop\n        /* \"contracts/4_Test.sol\":2469:2577  WorkflowStatusChange(WorkflowStatus.ProposalsRegistrationStarted, WorkflowStatus.ProposalsRegistrationEnded) */\n      0x0a97a4ee45751e2abf3e4fc8946939630b11b371ea8ae39ccdc3056e98f5cc3f\n        /* \"contracts/4_Test.sol\":2490:2533  WorkflowStatus.ProposalsRegistrationStarted */\n      0x01\n        /* \"contracts/4_Test.sol\":2535:2576  WorkflowStatus.ProposalsRegistrationEnded */\n      0x02\n        /* \"contracts/4_Test.sol\":2469:2577  WorkflowStatusChange(WorkflowStatus.ProposalsRegistrationStarted, WorkflowStatus.ProposalsRegistrationEnded) */\n      mload(0x40)\n      tag_187\n      swap3\n      swap2\n      swap1\n      tag_188\n      jump\t// in\n    tag_187:\n      mload(0x40)\n      dup1\n      swap2\n      sub\n      swap1\n      log1\n        /* \"@openzeppelin/contracts/access/Ownable.sol\":1117:1118  _ */\n      pop\n        /* \"contracts/4_Test.sol\":2278:2585  function endProposalsRegistration() public onlyOwner atState(WorkflowStatus.ProposalsRegistrationStarted) {... */\n      jump\t// out\n        /* \"@openzeppelin/contracts/access/Ownable.sol\":1824:1925  function renounceOwnership() public virtual onlyOwner {... */\n    tag_46:\n        /* \"@openzeppelin/contracts/access/Ownable.sol\":1094:1107  _checkOwner() */\n      tag_190\n        /* \"@openzeppelin/contracts/access/Ownable.sol\":1094:1105  _checkOwner */\n      tag_139\n        /* \"@openzeppelin/contracts/access/Ownable.sol\":1094:1107  _checkOwner() */\n      jump\t// in\n    tag_190:\n        /* \"@openzeppelin/contracts/access/Ownable.sol\":1888:1918  _transferOwnership(address(0)) */\n      tag_192\n        /* \"@openzeppelin/contracts/access/Ownable.sol\":1915:1916  0 */\n      0x00\n        /* \"@openzeppelin/contracts/access/Ownable.sol\":1888:1906  _transferOwnership */\n      tag_193\n        /* \"@openzeppelin/contracts/access/Ownable.sol\":1888:1918  _transferOwnership(address(0)) */\n      jump\t// in\n    tag_192:\n        /* \"@openzeppelin/contracts/access/Ownable.sol\":1824:1925  function renounceOwnership() public virtual onlyOwner {... */\n      jump\t// out\n        /* \"contracts/4_Test.sol\":5470:5958  function voteAgainst(uint _proposalId) public isRegisteredVoter atState(WorkflowStatus.VotingSessionStarted) {... */\n    tag_49:\n        /* \"contracts/4_Test.sol\":1261:1267  voters */\n      0x02\n        /* \"contracts/4_Test.sol\":1261:1279  voters[msg.sender] */\n      0x00\n        /* \"contracts/4_Test.sol\":1268:1278  msg.sender */\n      caller\n        /* \"contracts/4_Test.sol\":1261:1279  voters[msg.sender] */\n      0xffffffffffffffffffffffffffffffffffffffff\n      and\n      0xffffffffffffffffffffffffffffffffffffffff\n      and\n      dup2\n      mstore\n      0x20\n      add\n      swap1\n      dup2\n      mstore\n      0x20\n      add\n      0x00\n      keccak256\n        /* \"contracts/4_Test.sol\":1261:1292  voters[msg.sender].isRegistered */\n      0x00\n      add\n      0x00\n      swap1\n      sload\n      swap1\n      0x0100\n      exp\n      swap1\n      div\n      0xff\n      and\n        /* \"contracts/4_Test.sol\":1253:1328  require(voters[msg.sender].isRegistered, \"You are not a registered voter.\") */\n      tag_195\n      jumpi\n      mload(0x40)\n      0x08c379a000000000000000000000000000000000000000000000000000000000\n      dup2\n      mstore\n      0x04\n      add\n      tag_196\n      swap1\n      tag_87\n      jump\t// in\n    tag_196:\n      mload(0x40)\n      dup1\n      swap2\n      sub\n      swap1\n      revert\n    tag_195:\n        /* \"contracts/4_Test.sol\":5542:5577  WorkflowStatus.VotingSessionStarted */\n      0x03\n        /* \"contracts/4_Test.sol\":1075:1082  _status */\n      dup1\n        /* \"contracts/4_Test.sol\":1057:1082  workflowStatus == _status */\n      0x05\n      dup2\n      gt\n      iszero\n      tag_198\n      jumpi\n      tag_199\n      tag_91\n      jump\t// in\n    tag_199:\n    tag_198:\n        /* \"contracts/4_Test.sol\":1057:1071  workflowStatus */\n      0x00\n      0x14\n      swap1\n      sload\n      swap1\n      0x0100\n      exp\n      swap1\n      div\n      0xff\n      and\n        /* \"contracts/4_Test.sol\":1057:1082  workflowStatus == _status */\n      0x05\n      dup2\n      gt\n      iszero\n      tag_200\n      jumpi\n      tag_201\n      tag_91\n      jump\t// in\n    tag_201:\n    tag_200:\n      eq\n        /* \"contracts/4_Test.sol\":1049:1120  require(workflowStatus == _status, \"Action not allowed at this stage.\") */\n      tag_202\n      jumpi\n      mload(0x40)\n      0x08c379a000000000000000000000000000000000000000000000000000000000\n      dup2\n      mstore\n      0x04\n      add\n      tag_203\n      swap1\n      tag_96\n      jump\t// in\n    tag_203:\n      mload(0x40)\n      dup1\n      swap2\n      sub\n      swap1\n      revert\n    tag_202:\n        /* \"contracts/4_Test.sol\":5608:5617  proposals */\n      0x03\n        /* \"contracts/4_Test.sol\":5608:5624  proposals.length */\n      dup1\n      sload\n      swap1\n      pop\n        /* \"contracts/4_Test.sol\":5594:5605  _proposalId */\n      dup3\n        /* \"contracts/4_Test.sol\":5594:5624  _proposalId < proposals.length */\n      lt\n        /* \"contracts/4_Test.sol\":5586:5649  require(_proposalId < proposals.length, \"Invalid proposal ID.\") */\n      tag_205\n      jumpi\n      mload(0x40)\n      0x08c379a000000000000000000000000000000000000000000000000000000000\n      dup2\n      mstore\n      0x04\n      add\n      tag_206\n      swap1\n      tag_100\n      jump\t// in\n    tag_206:\n      mload(0x40)\n      dup1\n      swap2\n      sub\n      swap1\n      revert\n    tag_205:\n        /* \"contracts/4_Test.sol\":5665:5671  voters */\n      0x02\n        /* \"contracts/4_Test.sol\":5665:5683  voters[msg.sender] */\n      0x00\n        /* \"contracts/4_Test.sol\":5672:5682  msg.sender */\n      caller\n        /* \"contracts/4_Test.sol\":5665:5683  voters[msg.sender] */\n      0xffffffffffffffffffffffffffffffffffffffff\n      and\n      0xffffffffffffffffffffffffffffffffffffffff\n      and\n      dup2\n      mstore\n      0x20\n      add\n      swap1\n      dup2\n      mstore\n      0x20\n      add\n      0x00\n      keccak256\n        /* \"contracts/4_Test.sol\":5665:5692  voters[msg.sender].hasVoted */\n      0x00\n      add\n      0x01\n      swap1\n      sload\n      swap1\n      0x0100\n      exp\n      swap1\n      div\n      0xff\n      and\n        /* \"contracts/4_Test.sol\":5664:5692  !voters[msg.sender].hasVoted */\n      iszero\n        /* \"contracts/4_Test.sol\":5656:5720  require(!voters[msg.sender].hasVoted, \"You have already voted.\") */\n      tag_207\n      jumpi\n      mload(0x40)\n      0x08c379a000000000000000000000000000000000000000000000000000000000\n      dup2\n      mstore\n      0x04\n      add\n      tag_208\n      swap1\n      tag_103\n      jump\t// in\n    tag_208:\n      mload(0x40)\n      dup1\n      swap2\n      sub\n      swap1\n      revert\n    tag_207:\n        /* \"contracts/4_Test.sol\":5757:5761  true */\n      0x01\n        /* \"contracts/4_Test.sol\":5727:5733  voters */\n      0x02\n        /* \"contracts/4_Test.sol\":5727:5745  voters[msg.sender] */\n      0x00\n        /* \"contracts/4_Test.sol\":5734:5744  msg.sender */\n      caller\n        /* \"contracts/4_Test.sol\":5727:5745  voters[msg.sender] */\n      0xffffffffffffffffffffffffffffffffffffffff\n      and\n      0xffffffffffffffffffffffffffffffffffffffff\n      and\n      dup2\n      mstore\n      0x20\n      add\n      swap1\n      dup2\n      mstore\n      0x20\n      add\n      0x00\n      keccak256\n        /* \"contracts/4_Test.sol\":5727:5754  voters[msg.sender].hasVoted */\n      0x00\n      add\n      0x01\n        /* \"contracts/4_Test.sol\":5727:5761  voters[msg.sender].hasVoted = true */\n      0x0100\n      exp\n      dup2\n      sload\n      dup2\n      0xff\n      mul\n      not\n      and\n      swap1\n      dup4\n      iszero\n      iszero\n      mul\n      or\n      swap1\n      sstore\n      pop\n        /* \"contracts/4_Test.sol\":5805:5816  _proposalId */\n      dup2\n        /* \"contracts/4_Test.sol\":5768:5774  voters */\n      0x02\n        /* \"contracts/4_Test.sol\":5768:5786  voters[msg.sender] */\n      0x00\n        /* \"contracts/4_Test.sol\":5775:5785  msg.sender */\n      caller\n        /* \"contracts/4_Test.sol\":5768:5786  voters[msg.sender] */\n      0xffffffffffffffffffffffffffffffffffffffff\n      and\n      0xffffffffffffffffffffffffffffffffffffffff\n      and\n      dup2\n      mstore\n      0x20\n      add\n      swap1\n      dup2\n      mstore\n      0x20\n      add\n      0x00\n      keccak256\n        /* \"contracts/4_Test.sol\":5768:5802  voters[msg.sender].votedProposalId */\n      0x01\n      add\n        /* \"contracts/4_Test.sol\":5768:5816  voters[msg.sender].votedProposalId = _proposalId */\n      dup2\n      swap1\n      sstore\n      pop\n        /* \"contracts/4_Test.sol\":5863:5867  true */\n      0x01\n        /* \"contracts/4_Test.sol\":5823:5836  rejectedVotes */\n      0x04\n        /* \"contracts/4_Test.sol\":5823:5849  rejectedVotes[_proposalId] */\n      0x00\n        /* \"contracts/4_Test.sol\":5837:5848  _proposalId */\n      dup5\n        /* \"contracts/4_Test.sol\":5823:5849  rejectedVotes[_proposalId] */\n      dup2\n      mstore\n      0x20\n      add\n      swap1\n      dup2\n      mstore\n      0x20\n      add\n      0x00\n      keccak256\n        /* \"contracts/4_Test.sol\":5823:5860  rejectedVotes[_proposalId].isRejected */\n      0x00\n      add\n      0x00\n        /* \"contracts/4_Test.sol\":5823:5867  rejectedVotes[_proposalId].isRejected = true */\n      0x0100\n      exp\n      dup2\n      sload\n      dup2\n      0xff\n      mul\n      not\n      and\n      swap1\n      dup4\n      iszero\n      iszero\n      mul\n      or\n      swap1\n      sstore\n      pop\n        /* \"contracts/4_Test.sol\":5874:5887  rejectedVotes */\n      0x04\n        /* \"contracts/4_Test.sol\":5874:5900  rejectedVotes[_proposalId] */\n      0x00\n        /* \"contracts/4_Test.sol\":5888:5899  _proposalId */\n      dup4\n        /* \"contracts/4_Test.sol\":5874:5900  rejectedVotes[_proposalId] */\n      dup2\n      mstore\n      0x20\n      add\n      swap1\n      dup2\n      mstore\n      0x20\n      add\n      0x00\n      keccak256\n        /* \"contracts/4_Test.sol\":5874:5910  rejectedVotes[_proposalId].voteCount */\n      0x01\n      add\n      0x00\n        /* \"contracts/4_Test.sol\":5874:5912  rejectedVotes[_proposalId].voteCount++ */\n      dup2\n      sload\n      dup1\n      swap3\n      swap2\n      swap1\n      tag_209\n      swap1\n      tag_109\n      jump\t// in\n    tag_209:\n      swap2\n      swap1\n      pop\n      sstore\n      pop\n        /* \"contracts/4_Test.sol\":5924:5954  Voted(msg.sender, _proposalId) */\n      0x4d99b957a2bc29a30ebd96a7be8e68fe50a3c701db28a91436490b7d53870ca4\n        /* \"contracts/4_Test.sol\":5930:5940  msg.sender */\n      caller\n        /* \"contracts/4_Test.sol\":5942:5953  _proposalId */\n      dup4\n        /* \"contracts/4_Test.sol\":5924:5954  Voted(msg.sender, _proposalId) */\n      mload(0x40)\n      tag_210\n      swap3\n      swap2\n      swap1\n      tag_111\n      jump\t// in\n    tag_210:\n      mload(0x40)\n      dup1\n      swap2\n      sub\n      swap1\n      log1\n        /* \"contracts/4_Test.sol\":1339:1340  _ */\n      pop\n        /* \"contracts/4_Test.sol\":5470:5958  function voteAgainst(uint _proposalId) public isRegisteredVoter atState(WorkflowStatus.VotingSessionStarted) {... */\n      pop\n      jump\t// out\n        /* \"@openzeppelin/contracts/access/Ownable.sol\":1201:1286  function owner() public view virtual returns (address) {... */\n    tag_51:\n        /* \"@openzeppelin/contracts/access/Ownable.sol\":1247:1254  address */\n      0x00\n        /* \"@openzeppelin/contracts/access/Ownable.sol\":1273:1279  _owner */\n      dup1\n      0x00\n      swap1\n      sload\n      swap1\n      0x0100\n      exp\n      swap1\n      div\n      0xffffffffffffffffffffffffffffffffffffffff\n      and\n        /* \"@openzeppelin/contracts/access/Ownable.sol\":1266:1279  return _owner */\n      swap1\n      pop\n        /* \"@openzeppelin/contracts/access/Ownable.sol\":1201:1286  function owner() public view virtual returns (address) {... */\n      swap1\n      jump\t// out\n        /* \"contracts/4_Test.sol\":4701:4886  function getWinner() public view returns (uint) {... */\n    tag_55:\n        /* \"contracts/4_Test.sol\":4743:4747  uint */\n      0x00\n        /* \"contracts/4_Test.sol\":4786:4813  WorkflowStatus.VotesTallied */\n      0x05\n        /* \"contracts/4_Test.sol\":4768:4813  workflowStatus == WorkflowStatus.VotesTallied */\n      dup1\n      dup2\n      gt\n      iszero\n      tag_213\n      jumpi\n      tag_214\n      tag_91\n      jump\t// in\n    tag_214:\n    tag_213:\n        /* \"contracts/4_Test.sol\":4768:4782  workflowStatus */\n      0x00\n      0x14\n      swap1\n      sload\n      swap1\n      0x0100\n      exp\n      swap1\n      div\n      0xff\n      and\n        /* \"contracts/4_Test.sol\":4768:4813  workflowStatus == WorkflowStatus.VotesTallied */\n      0x05\n      dup2\n      gt\n      iszero\n      tag_215\n      jumpi\n      tag_216\n      tag_91\n      jump\t// in\n    tag_216:\n    tag_215:\n      eq\n        /* \"contracts/4_Test.sol\":4760:4843  require(workflowStatus == WorkflowStatus.VotesTallied, \"Voting is not yet closed.\") */\n      tag_217\n      jumpi\n      mload(0x40)\n      0x08c379a000000000000000000000000000000000000000000000000000000000\n      dup2\n      mstore\n      0x04\n      add\n      tag_218\n      swap1\n      tag_219\n      jump\t// in\n    tag_218:\n      mload(0x40)\n      dup1\n      swap2\n      sub\n      swap1\n      revert\n    tag_217:\n        /* \"contracts/4_Test.sol\":4861:4878  winningProposalId */\n      sload(0x01)\n        /* \"contracts/4_Test.sol\":4854:4878  return winningProposalId */\n      swap1\n      pop\n        /* \"contracts/4_Test.sol\":4701:4886  function getWinner() public view returns (uint) {... */\n      swap1\n      jump\t// out\n        /* \"contracts/4_Test.sol\":5368:5418  mapping(uint => RejectedVote) public rejectedVotes */\n    tag_60:\n      mstore(0x20, 0x04)\n      dup1\n      0x00\n      mstore\n      keccak256(0x00, 0x40)\n      0x00\n      swap2\n      pop\n      swap1\n      pop\n      dup1\n      0x00\n      add\n      0x00\n      swap1\n      sload\n      swap1\n      0x0100\n      exp\n      swap1\n      div\n      0xff\n      and\n      swap1\n      dup1\n      0x01\n      add\n      sload\n      swap1\n      pop\n      dup3\n      jump\t// out\n        /* \"contracts/4_Test.sol\":683:719  WorkflowStatus public workflowStatus */\n    tag_64:\n      0x00\n      0x14\n      swap1\n      sload\n      swap1\n      0x0100\n      exp\n      swap1\n      div\n      0xff\n      and\n      dup2\n      jump\t// out\n        /* \"contracts/4_Test.sol\":805:844  mapping(address => Voter) public voters */\n    tag_69:\n      mstore(0x20, 0x02)\n      dup1\n      0x00\n      mstore\n      keccak256(0x00, 0x40)\n      0x00\n      swap2\n      pop\n      swap1\n      pop\n      dup1\n      0x00\n      add\n      0x00\n      swap1\n      sload\n      swap1\n      0x0100\n      exp\n      swap1\n      div\n      0xff\n      and\n      swap1\n      dup1\n      0x00\n      add\n      0x01\n      swap1\n      sload\n      swap1\n      0x0100\n      exp\n      swap1\n      div\n      0xff\n      and\n      swap1\n      dup1\n      0x01\n      add\n      sload\n      swap1\n      pop\n      dup4\n      jump\t// out\n        /* \"contracts/4_Test.sol\":3357:3624  function endVotingSession() public onlyOwner atState(WorkflowStatus.VotingSessionStarted) {... */\n    tag_73:\n        /* \"@openzeppelin/contracts/access/Ownable.sol\":1094:1107  _checkOwner() */\n      tag_221\n        /* \"@openzeppelin/contracts/access/Ownable.sol\":1094:1105  _checkOwner */\n      tag_139\n        /* \"@openzeppelin/contracts/access/Ownable.sol\":1094:1107  _checkOwner() */\n      jump\t// in\n    tag_221:\n        /* \"contracts/4_Test.sol\":3410:3445  WorkflowStatus.VotingSessionStarted */\n      0x03\n        /* \"contracts/4_Test.sol\":1075:1082  _status */\n      dup1\n        /* \"contracts/4_Test.sol\":1057:1082  workflowStatus == _status */\n      0x05\n      dup2\n      gt\n      iszero\n      tag_223\n      jumpi\n      tag_224\n      tag_91\n      jump\t// in\n    tag_224:\n    tag_223:\n        /* \"contracts/4_Test.sol\":1057:1071  workflowStatus */\n      0x00\n      0x14\n      swap1\n      sload\n      swap1\n      0x0100\n      exp\n      swap1\n      div\n      0xff\n      and\n        /* \"contracts/4_Test.sol\":1057:1082  workflowStatus == _status */\n      0x05\n      dup2\n      gt\n      iszero\n      tag_225\n      jumpi\n      tag_226\n      tag_91\n      jump\t// in\n    tag_226:\n    tag_225:\n      eq\n        /* \"contracts/4_Test.sol\":1049:1120  require(workflowStatus == _status, \"Action not allowed at this stage.\") */\n      tag_227\n      jumpi\n      mload(0x40)\n      0x08c379a000000000000000000000000000000000000000000000000000000000\n      dup2\n      mstore\n      0x04\n      add\n      tag_228\n      swap1\n      tag_96\n      jump\t// in\n    tag_228:\n      mload(0x40)\n      dup1\n      swap2\n      sub\n      swap1\n      revert\n    tag_227:\n        /* \"contracts/4_Test.sol\":3475:3508  WorkflowStatus.VotingSessionEnded */\n      0x04\n        /* \"contracts/4_Test.sol\":3458:3472  workflowStatus */\n      0x00\n      0x14\n        /* \"contracts/4_Test.sol\":3458:3508  workflowStatus = WorkflowStatus.VotingSessionEnded */\n      0x0100\n      exp\n      dup2\n      sload\n      dup2\n      0xff\n      mul\n      not\n      and\n      swap1\n      dup4\n      0x05\n      dup2\n      gt\n      iszero\n      tag_230\n      jumpi\n      tag_231\n      tag_91\n      jump\t// in\n    tag_231:\n    tag_230:\n      mul\n      or\n      swap1\n      sstore\n      pop\n        /* \"contracts/4_Test.sol\":3524:3616  WorkflowStatusChange(WorkflowStatus.VotingSessionStarted, WorkflowStatus.VotingSessionEnded) */\n      0x0a97a4ee45751e2abf3e4fc8946939630b11b371ea8ae39ccdc3056e98f5cc3f\n        /* \"contracts/4_Test.sol\":3545:3580  WorkflowStatus.VotingSessionStarted */\n      0x03\n        /* \"contracts/4_Test.sol\":3582:3615  WorkflowStatus.VotingSessionEnded */\n      0x04\n        /* \"contracts/4_Test.sol\":3524:3616  WorkflowStatusChange(WorkflowStatus.VotingSessionStarted, WorkflowStatus.VotingSessionEnded) */\n      mload(0x40)\n      tag_232\n      swap3\n      swap2\n      swap1\n      tag_188\n      jump\t// in\n    tag_232:\n      mload(0x40)\n      dup1\n      swap2\n      sub\n      swap1\n      log1\n        /* \"@openzeppelin/contracts/access/Ownable.sol\":1117:1118  _ */\n      pop\n        /* \"contracts/4_Test.sol\":3357:3624  function endVotingSession() public onlyOwner atState(WorkflowStatus.VotingSessionStarted) {... */\n      jump\t// out\n        /* \"contracts/4_Test.sol\":726:755  uint public winningProposalId */\n    tag_75:\n      sload(0x01)\n      dup2\n      jump\t// out\n        /* \"contracts/4_Test.sol\":1902:2193  function startProposalsRegistration() public onlyOwner atState(WorkflowStatus.RegisteringVoters) {... */\n    tag_78:\n        /* \"@openzeppelin/contracts/access/Ownable.sol\":1094:1107  _checkOwner() */\n      tag_234\n        /* \"@openzeppelin/contracts/access/Ownable.sol\":1094:1105  _checkOwner */\n      tag_139\n        /* \"@openzeppelin/contracts/access/Ownable.sol\":1094:1107  _checkOwner() */\n      jump\t// in\n    tag_234:\n        /* \"contracts/4_Test.sol\":1965:1997  WorkflowStatus.RegisteringVoters */\n      0x00\n        /* \"contracts/4_Test.sol\":1075:1082  _status */\n      dup1\n        /* \"contracts/4_Test.sol\":1057:1082  workflowStatus == _status */\n      0x05\n      dup2\n      gt\n      iszero\n      tag_236\n      jumpi\n      tag_237\n      tag_91\n      jump\t// in\n    tag_237:\n    tag_236:\n        /* \"contracts/4_Test.sol\":1057:1071  workflowStatus */\n      0x00\n      0x14\n      swap1\n      sload\n      swap1\n      0x0100\n      exp\n      swap1\n      div\n      0xff\n      and\n        /* \"contracts/4_Test.sol\":1057:1082  workflowStatus == _status */\n      0x05\n      dup2\n      gt\n      iszero\n      tag_238\n      jumpi\n      tag_239\n      tag_91\n      jump\t// in\n    tag_239:\n    tag_238:\n      eq\n        /* \"contracts/4_Test.sol\":1049:1120  require(workflowStatus == _status, \"Action not allowed at this stage.\") */\n      tag_240\n      jumpi\n      mload(0x40)\n      0x08c379a000000000000000000000000000000000000000000000000000000000\n      dup2\n      mstore\n      0x04\n      add\n      tag_241\n      swap1\n      tag_96\n      jump\t// in\n    tag_241:\n      mload(0x40)\n      dup1\n      swap2\n      sub\n      swap1\n      revert\n    tag_240:\n        /* \"contracts/4_Test.sol\":2027:2070  WorkflowStatus.ProposalsRegistrationStarted */\n      0x01\n        /* \"contracts/4_Test.sol\":2010:2024  workflowStatus */\n      0x00\n      0x14\n        /* \"contracts/4_Test.sol\":2010:2070  workflowStatus = WorkflowStatus.ProposalsRegistrationStarted */\n      0x0100\n      exp\n      dup2\n      sload\n      dup2\n      0xff\n      mul\n      not\n      and\n      swap1\n      dup4\n      0x05\n      dup2\n      gt\n      iszero\n      tag_243\n      jumpi\n      tag_244\n      tag_91\n      jump\t// in\n    tag_244:\n    tag_243:\n      mul\n      or\n      swap1\n      sstore\n      pop\n        /* \"contracts/4_Test.sol\":2086:2185  WorkflowStatusChange(WorkflowStatus.RegisteringVoters, WorkflowStatus.ProposalsRegistrationStarted) */\n      0x0a97a4ee45751e2abf3e4fc8946939630b11b371ea8ae39ccdc3056e98f5cc3f\n        /* \"contracts/4_Test.sol\":2107:2139  WorkflowStatus.RegisteringVoters */\n      0x00\n        /* \"contracts/4_Test.sol\":2141:2184  WorkflowStatus.ProposalsRegistrationStarted */\n      0x01\n        /* \"contracts/4_Test.sol\":2086:2185  WorkflowStatusChange(WorkflowStatus.RegisteringVoters, WorkflowStatus.ProposalsRegistrationStarted) */\n      mload(0x40)\n      tag_245\n      swap3\n      swap2\n      swap1\n      tag_188\n      jump\t// in\n    tag_245:\n      mload(0x40)\n      dup1\n      swap2\n      sub\n      swap1\n      log1\n        /* \"@openzeppelin/contracts/access/Ownable.sol\":1117:1118  _ */\n      pop\n        /* \"contracts/4_Test.sol\":1902:2193  function startProposalsRegistration() public onlyOwner atState(WorkflowStatus.RegisteringVoters) {... */\n      jump\t// out\n        /* \"contracts/4_Test.sol\":3013:3298  function startVotingSession() public onlyOwner atState(WorkflowStatus.ProposalsRegistrationEnded) {... */\n    tag_80:\n        /* \"@openzeppelin/contracts/access/Ownable.sol\":1094:1107  _checkOwner() */\n      tag_247\n        /* \"@openzeppelin/contracts/access/Ownable.sol\":1094:1105  _checkOwner */\n      tag_139\n        /* \"@openzeppelin/contracts/access/Ownable.sol\":1094:1107  _checkOwner() */\n      jump\t// in\n    tag_247:\n        /* \"contracts/4_Test.sol\":3068:3109  WorkflowStatus.ProposalsRegistrationEnded */\n      0x02\n        /* \"contracts/4_Test.sol\":1075:1082  _status */\n      dup1\n        /* \"contracts/4_Test.sol\":1057:1082  workflowStatus == _status */\n      0x05\n      dup2\n      gt\n      iszero\n      tag_249\n      jumpi\n      tag_250\n      tag_91\n      jump\t// in\n    tag_250:\n    tag_249:\n        /* \"contracts/4_Test.sol\":1057:1071  workflowStatus */\n      0x00\n      0x14\n      swap1\n      sload\n      swap1\n      0x0100\n      exp\n      swap1\n      div\n      0xff\n      and\n        /* \"contracts/4_Test.sol\":1057:1082  workflowStatus == _status */\n      0x05\n      dup2\n      gt\n      iszero\n      tag_251\n      jumpi\n      tag_252\n      tag_91\n      jump\t// in\n    tag_252:\n    tag_251:\n      eq\n        /* \"contracts/4_Test.sol\":1049:1120  require(workflowStatus == _status, \"Action not allowed at this stage.\") */\n      tag_253\n      jumpi\n      mload(0x40)\n      0x08c379a000000000000000000000000000000000000000000000000000000000\n      dup2\n      mstore\n      0x04\n      add\n      tag_254\n      swap1\n      tag_96\n      jump\t// in\n    tag_254:\n      mload(0x40)\n      dup1\n      swap2\n      sub\n      swap1\n      revert\n    tag_253:\n        /* \"contracts/4_Test.sol\":3139:3174  WorkflowStatus.VotingSessionStarted */\n      0x03\n        /* \"contracts/4_Test.sol\":3122:3136  workflowStatus */\n      0x00\n      0x14\n        /* \"contracts/4_Test.sol\":3122:3174  workflowStatus = WorkflowStatus.VotingSessionStarted */\n      0x0100\n      exp\n      dup2\n      sload\n      dup2\n      0xff\n      mul\n      not\n      and\n      swap1\n      dup4\n      0x05\n      dup2\n      gt\n      iszero\n      tag_256\n      jumpi\n      tag_257\n      tag_91\n      jump\t// in\n    tag_257:\n    tag_256:\n      mul\n      or\n      swap1\n      sstore\n      pop\n        /* \"contracts/4_Test.sol\":3190:3290  WorkflowStatusChange(WorkflowStatus.ProposalsRegistrationEnded, WorkflowStatus.VotingSessionStarted) */\n      0x0a97a4ee45751e2abf3e4fc8946939630b11b371ea8ae39ccdc3056e98f5cc3f\n        /* \"contracts/4_Test.sol\":3211:3252  WorkflowStatus.ProposalsRegistrationEnded */\n      0x02\n        /* \"contracts/4_Test.sol\":3254:3289  WorkflowStatus.VotingSessionStarted */\n      0x03\n        /* \"contracts/4_Test.sol\":3190:3290  WorkflowStatusChange(WorkflowStatus.ProposalsRegistrationEnded, WorkflowStatus.VotingSessionStarted) */\n      mload(0x40)\n      tag_258\n      swap3\n      swap2\n      swap1\n      tag_188\n      jump\t// in\n    tag_258:\n      mload(0x40)\n      dup1\n      swap2\n      sub\n      swap1\n      log1\n        /* \"@openzeppelin/contracts/access/Ownable.sol\":1117:1118  _ */\n      pop\n        /* \"contracts/4_Test.sol\":3013:3298  function startVotingSession() public onlyOwner atState(WorkflowStatus.ProposalsRegistrationEnded) {... */\n      jump\t// out\n        /* \"@openzeppelin/contracts/access/Ownable.sol\":2074:2272  function transferOwnership(address newOwner) public virtual onlyOwner {... */\n    tag_83:\n        /* \"@openzeppelin/contracts/access/Ownable.sol\":1094:1107  _checkOwner() */\n      tag_260\n        /* \"@openzeppelin/contracts/access/Ownable.sol\":1094:1105  _checkOwner */\n      tag_139\n        /* \"@openzeppelin/contracts/access/Ownable.sol\":1094:1107  _checkOwner() */\n      jump\t// in\n    tag_260:\n        /* \"@openzeppelin/contracts/access/Ownable.sol\":2182:2183  0 */\n      0x00\n        /* \"@openzeppelin/contracts/access/Ownable.sol\":2162:2184  newOwner != address(0) */\n      0xffffffffffffffffffffffffffffffffffffffff\n      and\n        /* \"@openzeppelin/contracts/access/Ownable.sol\":2162:2170  newOwner */\n      dup2\n        /* \"@openzeppelin/contracts/access/Ownable.sol\":2162:2184  newOwner != address(0) */\n      0xffffffffffffffffffffffffffffffffffffffff\n      and\n      sub\n        /* \"@openzeppelin/contracts/access/Ownable.sol\":2154:2227  require(newOwner != address(0), \"Ownable: new owner is the zero address\") */\n      tag_262\n      jumpi\n      mload(0x40)\n      0x08c379a000000000000000000000000000000000000000000000000000000000\n      dup2\n      mstore\n      0x04\n      add\n      tag_263\n      swap1\n      tag_264\n      jump\t// in\n    tag_263:\n      mload(0x40)\n      dup1\n      swap2\n      sub\n      swap1\n      revert\n    tag_262:\n        /* \"@openzeppelin/contracts/access/Ownable.sol\":2237:2265  _transferOwnership(newOwner) */\n      tag_265\n        /* \"@openzeppelin/contracts/access/Ownable.sol\":2256:2264  newOwner */\n      dup2\n        /* \"@openzeppelin/contracts/access/Ownable.sol\":2237:2255  _transferOwnership */\n      tag_193\n        /* \"@openzeppelin/contracts/access/Ownable.sol\":2237:2265  _transferOwnership(newOwner) */\n      jump\t// in\n    tag_265:\n        /* \"@openzeppelin/contracts/access/Ownable.sol\":2074:2272  function transferOwnership(address newOwner) public virtual onlyOwner {... */\n      pop\n      jump\t// out\n        /* \"@openzeppelin/contracts/access/Ownable.sol\":1359:1489  function _checkOwner() internal view virtual {... */\n    tag_139:\n        /* \"@openzeppelin/contracts/access/Ownable.sol\":1433:1445  _msgSender() */\n      tag_267\n        /* \"@openzeppelin/contracts/access/Ownable.sol\":1433:1443  _msgSender */\n      tag_268\n        /* \"@openzeppelin/contracts/access/Ownable.sol\":1433:1445  _msgSender() */\n      jump\t// in\n    tag_267:\n        /* \"@openzeppelin/contracts/access/Ownable.sol\":1422:1445  owner() == _msgSender() */\n      0xffffffffffffffffffffffffffffffffffffffff\n      and\n        /* \"@openzeppelin/contracts/access/Ownable.sol\":1422:1429  owner() */\n      tag_269\n        /* \"@openzeppelin/contracts/access/Ownable.sol\":1422:1427  owner */\n      tag_51\n        /* \"@openzeppelin/contracts/access/Ownable.sol\":1422:1429  owner() */\n      jump\t// in\n    tag_269:\n        /* \"@openzeppelin/contracts/access/Ownable.sol\":1422:1445  owner() == _msgSender() */\n      0xffffffffffffffffffffffffffffffffffffffff\n      and\n      eq\n        /* \"@openzeppelin/contracts/access/Ownable.sol\":1414:1482  require(owner() == _msgSender(), \"Ownable: caller is not the owner\") */\n      tag_270\n      jumpi\n      mload(0x40)\n      0x08c379a000000000000000000000000000000000000000000000000000000000\n      dup2\n      mstore\n      0x04\n      add\n      tag_271\n      swap1\n      tag_272\n      jump\t// in\n    tag_271:\n      mload(0x40)\n      dup1\n      swap2\n      sub\n      swap1\n      revert\n    tag_270:\n        /* \"@openzeppelin/contracts/access/Ownable.sol\":1359:1489  function _checkOwner() internal view virtual {... */\n      jump\t// out\n        /* \"@openzeppelin/contracts/access/Ownable.sol\":2426:2613  function _transferOwnership(address newOwner) internal virtual {... */\n    tag_193:\n        /* \"@openzeppelin/contracts/access/Ownable.sol\":2499:2515  address oldOwner */\n      0x00\n        /* \"@openzeppelin/contracts/access/Ownable.sol\":2518:2524  _owner */\n      dup1\n      0x00\n      swap1\n      sload\n      swap1\n      0x0100\n      exp\n      swap1\n      div\n      0xffffffffffffffffffffffffffffffffffffffff\n      and\n        /* \"@openzeppelin/contracts/access/Ownable.sol\":2499:2524  address oldOwner = _owner */\n      swap1\n      pop\n        /* \"@openzeppelin/contracts/access/Ownable.sol\":2543:2551  newOwner */\n      dup2\n        /* \"@openzeppelin/contracts/access/Ownable.sol\":2534:2540  _owner */\n      0x00\n      dup1\n        /* \"@openzeppelin/contracts/access/Ownable.sol\":2534:2551  _owner = newOwner */\n      0x0100\n      exp\n      dup2\n      sload\n      dup2\n      0xffffffffffffffffffffffffffffffffffffffff\n      mul\n      not\n      and\n      swap1\n      dup4\n      0xffffffffffffffffffffffffffffffffffffffff\n      and\n      mul\n      or\n      swap1\n      sstore\n      pop\n        /* \"@openzeppelin/contracts/access/Ownable.sol\":2597:2605  newOwner */\n      dup2\n        /* \"@openzeppelin/contracts/access/Ownable.sol\":2566:2606  OwnershipTransferred(oldOwner, newOwner) */\n      0xffffffffffffffffffffffffffffffffffffffff\n      and\n        /* \"@openzeppelin/contracts/access/Ownable.sol\":2587:2595  oldOwner */\n      dup2\n        /* \"@openzeppelin/contracts/access/Ownable.sol\":2566:2606  OwnershipTransferred(oldOwner, newOwner) */\n      0xffffffffffffffffffffffffffffffffffffffff\n      and\n      0x8be0079c531659141344cd1fd0a4f28419497f9722a3daafe3b4186f6b6457e0\n      mload(0x40)\n      mload(0x40)\n      dup1\n      swap2\n      sub\n      swap1\n      log3\n        /* \"@openzeppelin/contracts/access/Ownable.sol\":2489:2613  {... */\n      pop\n        /* \"@openzeppelin/contracts/access/Ownable.sol\":2426:2613  function _transferOwnership(address newOwner) internal virtual {... */\n      pop\n      jump\t// out\n        /* \"@openzeppelin/contracts/utils/Context.sol\":640:736  function _msgSender() internal view virtual returns (address) {... */\n    tag_268:\n        /* \"@openzeppelin/contracts/utils/Context.sol\":693:700  address */\n      0x00\n        /* \"@openzeppelin/contracts/utils/Context.sol\":719:729  msg.sender */\n      caller\n        /* \"@openzeppelin/contracts/utils/Context.sol\":712:729  return msg.sender */\n      swap1\n      pop\n        /* \"@openzeppelin/contracts/utils/Context.sol\":640:736  function _msgSender() internal view virtual returns (address) {... */\n      swap1\n      jump\t// out\n        /* \"#utility.yul\":7:82   */\n    tag_275:\n        /* \"#utility.yul\":40:46   */\n      0x00\n        /* \"#utility.yul\":73:75   */\n      0x40\n        /* \"#utility.yul\":67:76   */\n      mload\n        /* \"#utility.yul\":57:76   */\n      swap1\n      pop\n        /* \"#utility.yul\":7:82   */\n      swap1\n      jump\t// out\n        /* \"#utility.yul\":88:205   */\n    tag_276:\n        /* \"#utility.yul\":197:198   */\n      0x00\n        /* \"#utility.yul\":194:195   */\n      dup1\n        /* \"#utility.yul\":187:199   */\n      revert\n        /* \"#utility.yul\":211:328   */\n    tag_277:\n        /* \"#utility.yul\":320:321   */\n      0x00\n        /* \"#utility.yul\":317:318   */\n      dup1\n        /* \"#utility.yul\":310:322   */\n      revert\n        /* \"#utility.yul\":334:411   */\n    tag_278:\n        /* \"#utility.yul\":371:378   */\n      0x00\n        /* \"#utility.yul\":400:405   */\n      dup2\n        /* \"#utility.yul\":389:405   */\n      swap1\n      pop\n        /* \"#utility.yul\":334:411   */\n      swap2\n      swap1\n      pop\n      jump\t// out\n        /* \"#utility.yul\":417:539   */\n    tag_279:\n        /* \"#utility.yul\":490:514   */\n      tag_346\n        /* \"#utility.yul\":508:513   */\n      dup2\n        /* \"#utility.yul\":490:514   */\n      tag_278\n      jump\t// in\n    tag_346:\n        /* \"#utility.yul\":483:488   */\n      dup2\n        /* \"#utility.yul\":480:515   */\n      eq\n        /* \"#utility.yul\":470:533   */\n      tag_347\n      jumpi\n        /* \"#utility.yul\":529:530   */\n      0x00\n        /* \"#utility.yul\":526:527   */\n      dup1\n        /* \"#utility.yul\":519:531   */\n      revert\n        /* \"#utility.yul\":470:533   */\n    tag_347:\n        /* \"#utility.yul\":417:539   */\n      pop\n      jump\t// out\n        /* \"#utility.yul\":545:684   */\n    tag_280:\n        /* \"#utility.yul\":591:596   */\n      0x00\n        /* \"#utility.yul\":629:635   */\n      dup2\n        /* \"#utility.yul\":616:636   */\n      calldataload\n        /* \"#utility.yul\":607:636   */\n      swap1\n      pop\n        /* \"#utility.yul\":645:678   */\n      tag_349\n        /* \"#utility.yul\":672:677   */\n      dup2\n        /* \"#utility.yul\":645:678   */\n      tag_279\n      jump\t// in\n    tag_349:\n        /* \"#utility.yul\":545:684   */\n      swap3\n      swap2\n      pop\n      pop\n      jump\t// out\n        /* \"#utility.yul\":690:1019   */\n    tag_26:\n        /* \"#utility.yul\":749:755   */\n      0x00\n        /* \"#utility.yul\":798:800   */\n      0x20\n        /* \"#utility.yul\":786:795   */\n      dup3\n        /* \"#utility.yul\":777:784   */\n      dup5\n        /* \"#utility.yul\":773:796   */\n      sub\n        /* \"#utility.yul\":769:801   */\n      slt\n        /* \"#utility.yul\":766:885   */\n      iszero\n      tag_351\n      jumpi\n        /* \"#utility.yul\":804:883   */\n      tag_352\n      tag_276\n      jump\t// in\n    tag_352:\n        /* \"#utility.yul\":766:885   */\n    tag_351:\n        /* \"#utility.yul\":924:925   */\n      0x00\n        /* \"#utility.yul\":949:1002   */\n      tag_353\n        /* \"#utility.yul\":994:1001   */\n      dup5\n        /* \"#utility.yul\":985:991   */\n      dup3\n        /* \"#utility.yul\":974:983   */\n      dup6\n        /* \"#utility.yul\":970:992   */\n      add\n        /* \"#utility.yul\":949:1002   */\n      tag_280\n      jump\t// in\n    tag_353:\n        /* \"#utility.yul\":939:1002   */\n      swap2\n      pop\n        /* \"#utility.yul\":895:1012   */\n      pop\n        /* \"#utility.yul\":690:1019   */\n      swap3\n      swap2\n      pop\n      pop\n      jump\t// out\n        /* \"#utility.yul\":1025:1124   */\n    tag_281:\n        /* \"#utility.yul\":1077:1083   */\n      0x00\n        /* \"#utility.yul\":1111:1116   */\n      dup2\n        /* \"#utility.yul\":1105:1117   */\n      mload\n        /* \"#utility.yul\":1095:1117   */\n      swap1\n      pop\n        /* \"#utility.yul\":1025:1124   */\n      swap2\n      swap1\n      pop\n      jump\t// out\n        /* \"#utility.yul\":1130:1299   */\n    tag_282:\n        /* \"#utility.yul\":1214:1225   */\n      0x00\n        /* \"#utility.yul\":1248:1254   */\n      dup3\n        /* \"#utility.yul\":1243:1246   */\n      dup3\n        /* \"#utility.yul\":1236:1255   */\n      mstore\n        /* \"#utility.yul\":1288:1292   */\n      0x20\n        /* \"#utility.yul\":1283:1286   */\n      dup3\n        /* \"#utility.yul\":1279:1293   */\n      add\n        /* \"#utility.yul\":1264:1293   */\n      swap1\n      pop\n        /* \"#utility.yul\":1130:1299   */\n      swap3\n      swap2\n      pop\n      pop\n      jump\t// out\n        /* \"#utility.yul\":1305:1551   */\n    tag_283:\n        /* \"#utility.yul\":1386:1387   */\n      0x00\n        /* \"#utility.yul\":1396:1509   */\n    tag_357:\n        /* \"#utility.yul\":1410:1416   */\n      dup4\n        /* \"#utility.yul\":1407:1408   */\n      dup2\n        /* \"#utility.yul\":1404:1417   */\n      lt\n        /* \"#utility.yul\":1396:1509   */\n      iszero\n      tag_359\n      jumpi\n        /* \"#utility.yul\":1495:1496   */\n      dup1\n        /* \"#utility.yul\":1490:1493   */\n      dup3\n        /* \"#utility.yul\":1486:1497   */\n      add\n        /* \"#utility.yul\":1480:1498   */\n      mload\n        /* \"#utility.yul\":1476:1477   */\n      dup2\n        /* \"#utility.yul\":1471:1474   */\n      dup5\n        /* \"#utility.yul\":1467:1478   */\n      add\n        /* \"#utility.yul\":1460:1499   */\n      mstore\n        /* \"#utility.yul\":1432:1434   */\n      0x20\n        /* \"#utility.yul\":1429:1430   */\n      dup2\n        /* \"#utility.yul\":1425:1435   */\n      add\n        /* \"#utility.yul\":1420:1435   */\n      swap1\n      pop\n        /* \"#utility.yul\":1396:1509   */\n      jump(tag_357)\n    tag_359:\n        /* \"#utility.yul\":1543:1544   */\n      0x00\n        /* \"#utility.yul\":1534:1540   */\n      dup5\n        /* \"#utility.yul\":1529:1532   */\n      dup5\n        /* \"#utility.yul\":1525:1541   */\n      add\n        /* \"#utility.yul\":1518:1545   */\n      mstore\n        /* \"#utility.yul\":1367:1551   */\n      pop\n        /* \"#utility.yul\":1305:1551   */\n      pop\n      pop\n      pop\n      jump\t// out\n        /* \"#utility.yul\":1557:1659   */\n    tag_284:\n        /* \"#utility.yul\":1598:1604   */\n      0x00\n        /* \"#utility.yul\":1649:1651   */\n      0x1f\n        /* \"#utility.yul\":1645:1652   */\n      not\n        /* \"#utility.yul\":1640:1642   */\n      0x1f\n        /* \"#utility.yul\":1633:1638   */\n      dup4\n        /* \"#utility.yul\":1629:1643   */\n      add\n        /* \"#utility.yul\":1625:1653   */\n      and\n        /* \"#utility.yul\":1615:1653   */\n      swap1\n      pop\n        /* \"#utility.yul\":1557:1659   */\n      swap2\n      swap1\n      pop\n      jump\t// out\n        /* \"#utility.yul\":1665:2042   */\n    tag_285:\n        /* \"#utility.yul\":1753:1756   */\n      0x00\n        /* \"#utility.yul\":1781:1820   */\n      tag_362\n        /* \"#utility.yul\":1814:1819   */\n      dup3\n        /* \"#utility.yul\":1781:1820   */\n      tag_281\n      jump\t// in\n    tag_362:\n        /* \"#utility.yul\":1836:1907   */\n      tag_363\n        /* \"#utility.yul\":1900:1906   */\n      dup2\n        /* \"#utility.yul\":1895:1898   */\n      dup6\n        /* \"#utility.yul\":1836:1907   */\n      tag_282\n      jump\t// in\n    tag_363:\n        /* \"#utility.yul\":1829:1907   */\n      swap4\n      pop\n        /* \"#utility.yul\":1916:1981   */\n      tag_364\n        /* \"#utility.yul\":1974:1980   */\n      dup2\n        /* \"#utility.yul\":1969:1972   */\n      dup6\n        /* \"#utility.yul\":1962:1966   */\n      0x20\n        /* \"#utility.yul\":1955:1960   */\n      dup7\n        /* \"#utility.yul\":1951:1967   */\n      add\n        /* \"#utility.yul\":1916:1981   */\n      tag_283\n      jump\t// in\n    tag_364:\n        /* \"#utility.yul\":2006:2035   */\n      tag_365\n        /* \"#utility.yul\":2028:2034   */\n      dup2\n        /* \"#utility.yul\":2006:2035   */\n      tag_284\n      jump\t// in\n    tag_365:\n        /* \"#utility.yul\":2001:2004   */\n      dup5\n        /* \"#utility.yul\":1997:2036   */\n      add\n        /* \"#utility.yul\":1990:2036   */\n      swap2\n      pop\n        /* \"#utility.yul\":1757:2042   */\n      pop\n        /* \"#utility.yul\":1665:2042   */\n      swap3\n      swap2\n      pop\n      pop\n      jump\t// out\n        /* \"#utility.yul\":2048:2166   */\n    tag_286:\n        /* \"#utility.yul\":2135:2159   */\n      tag_367\n        /* \"#utility.yul\":2153:2158   */\n      dup2\n        /* \"#utility.yul\":2135:2159   */\n      tag_278\n      jump\t// in\n    tag_367:\n        /* \"#utility.yul\":2130:2133   */\n      dup3\n        /* \"#utility.yul\":2123:2160   */\n      mstore\n        /* \"#utility.yul\":2048:2166   */\n      pop\n      pop\n      jump\t// out\n        /* \"#utility.yul\":2172:2595   */\n    tag_32:\n        /* \"#utility.yul\":2313:2317   */\n      0x00\n        /* \"#utility.yul\":2351:2353   */\n      0x40\n        /* \"#utility.yul\":2340:2349   */\n      dup3\n        /* \"#utility.yul\":2336:2354   */\n      add\n        /* \"#utility.yul\":2328:2354   */\n      swap1\n      pop\n        /* \"#utility.yul\":2400:2409   */\n      dup2\n        /* \"#utility.yul\":2394:2398   */\n      dup2\n        /* \"#utility.yul\":2390:2410   */\n      sub\n        /* \"#utility.yul\":2386:2387   */\n      0x00\n        /* \"#utility.yul\":2375:2384   */\n      dup4\n        /* \"#utility.yul\":2371:2388   */\n      add\n        /* \"#utility.yul\":2364:2411   */\n      mstore\n        /* \"#utility.yul\":2428:2506   */\n      tag_369\n        /* \"#utility.yul\":2501:2505   */\n      dup2\n        /* \"#utility.yul\":2492:2498   */\n      dup6\n        /* \"#utility.yul\":2428:2506   */\n      tag_285\n      jump\t// in\n    tag_369:\n        /* \"#utility.yul\":2420:2506   */\n      swap1\n      pop\n        /* \"#utility.yul\":2516:2588   */\n      tag_370\n        /* \"#utility.yul\":2584:2586   */\n      0x20\n        /* \"#utility.yul\":2573:2582   */\n      dup4\n        /* \"#utility.yul\":2569:2587   */\n      add\n        /* \"#utility.yul\":2560:2566   */\n      dup5\n        /* \"#utility.yul\":2516:2588   */\n      tag_286\n      jump\t// in\n    tag_370:\n        /* \"#utility.yul\":2172:2595   */\n      swap4\n      swap3\n      pop\n      pop\n      pop\n      jump\t// out\n        /* \"#utility.yul\":2601:2718   */\n    tag_287:\n        /* \"#utility.yul\":2710:2711   */\n      0x00\n        /* \"#utility.yul\":2707:2708   */\n      dup1\n        /* \"#utility.yul\":2700:2712   */\n      revert\n        /* \"#utility.yul\":2724:2841   */\n    tag_288:\n        /* \"#utility.yul\":2833:2834   */\n      0x00\n        /* \"#utility.yul\":2830:2831   */\n      dup1\n        /* \"#utility.yul\":2823:2835   */\n      revert\n        /* \"#utility.yul\":2847:3027   */\n    tag_289:\n        /* \"#utility.yul\":2895:2972   */\n      0x4e487b7100000000000000000000000000000000000000000000000000000000\n        /* \"#utility.yul\":2892:2893   */\n      0x00\n        /* \"#utility.yul\":2885:2973   */\n      mstore\n        /* \"#utility.yul\":2992:2996   */\n      0x41\n        /* \"#utility.yul\":2989:2990   */\n      0x04\n        /* \"#utility.yul\":2982:2997   */\n      mstore\n        /* \"#utility.yul\":3016:3020   */\n      0x24\n        /* \"#utility.yul\":3013:3014   */\n      0x00\n        /* \"#utility.yul\":3006:3021   */\n      revert\n        /* \"#utility.yul\":3033:3314   */\n    tag_290:\n        /* \"#utility.yul\":3116:3143   */\n      tag_375\n        /* \"#utility.yul\":3138:3142   */\n      dup3\n        /* \"#utility.yul\":3116:3143   */\n      tag_284\n      jump\t// in\n    tag_375:\n        /* \"#utility.yul\":3108:3114   */\n      dup2\n        /* \"#utility.yul\":3104:3144   */\n      add\n        /* \"#utility.yul\":3246:3252   */\n      dup2\n        /* \"#utility.yul\":3234:3244   */\n      dup2\n        /* \"#utility.yul\":3231:3253   */\n      lt\n        /* \"#utility.yul\":3210:3228   */\n      0xffffffffffffffff\n        /* \"#utility.yul\":3198:3208   */\n      dup3\n        /* \"#utility.yul\":3195:3229   */\n      gt\n        /* \"#utility.yul\":3192:3254   */\n      or\n        /* \"#utility.yul\":3189:3277   */\n      iszero\n      tag_376\n      jumpi\n        /* \"#utility.yul\":3257:3275   */\n      tag_377\n      tag_289\n      jump\t// in\n    tag_377:\n        /* \"#utility.yul\":3189:3277   */\n    tag_376:\n        /* \"#utility.yul\":3297:3307   */\n      dup1\n        /* \"#utility.yul\":3293:3295   */\n      0x40\n        /* \"#utility.yul\":3286:3308   */\n      mstore\n        /* \"#utility.yul\":3076:3314   */\n      pop\n        /* \"#utility.yul\":3033:3314   */\n      pop\n      pop\n      jump\t// out\n        /* \"#utility.yul\":3320:3449   */\n    tag_291:\n        /* \"#utility.yul\":3354:3360   */\n      0x00\n        /* \"#utility.yul\":3381:3401   */\n      tag_379\n      tag_275\n      jump\t// in\n    tag_379:\n        /* \"#utility.yul\":3371:3401   */\n      swap1\n      pop\n        /* \"#utility.yul\":3410:3443   */\n      tag_380\n        /* \"#utility.yul\":3438:3442   */\n      dup3\n        /* \"#utility.yul\":3430:3436   */\n      dup3\n        /* \"#utility.yul\":3410:3443   */\n      tag_290\n      jump\t// in\n    tag_380:\n        /* \"#utility.yul\":3320:3449   */\n      swap2\n      swap1\n      pop\n      jump\t// out\n        /* \"#utility.yul\":3455:3763   */\n    tag_292:\n        /* \"#utility.yul\":3517:3521   */\n      0x00\n        /* \"#utility.yul\":3607:3625   */\n      0xffffffffffffffff\n        /* \"#utility.yul\":3599:3605   */\n      dup3\n        /* \"#utility.yul\":3596:3626   */\n      gt\n        /* \"#utility.yul\":3593:3649   */\n      iszero\n      tag_382\n      jumpi\n        /* \"#utility.yul\":3629:3647   */\n      tag_383\n      tag_289\n      jump\t// in\n    tag_383:\n        /* \"#utility.yul\":3593:3649   */\n    tag_382:\n        /* \"#utility.yul\":3667:3696   */\n      tag_384\n        /* \"#utility.yul\":3689:3695   */\n      dup3\n        /* \"#utility.yul\":3667:3696   */\n      tag_284\n      jump\t// in\n    tag_384:\n        /* \"#utility.yul\":3659:3696   */\n      swap1\n      pop\n        /* \"#utility.yul\":3751:3755   */\n      0x20\n        /* \"#utility.yul\":3745:3749   */\n      dup2\n        /* \"#utility.yul\":3741:3756   */\n      add\n        /* \"#utility.yul\":3733:3756   */\n      swap1\n      pop\n        /* \"#utility.yul\":3455:3763   */\n      swap2\n      swap1\n      pop\n      jump\t// out\n        /* \"#utility.yul\":3769:3915   */\n    tag_293:\n        /* \"#utility.yul\":3866:3872   */\n      dup3\n        /* \"#utility.yul\":3861:3864   */\n      dup2\n        /* \"#utility.yul\":3856:3859   */\n      dup4\n        /* \"#utility.yul\":3843:3873   */\n      calldatacopy\n        /* \"#utility.yul\":3907:3908   */\n      0x00\n        /* \"#utility.yul\":3898:3904   */\n      dup4\n        /* \"#utility.yul\":3893:3896   */\n      dup4\n        /* \"#utility.yul\":3889:3905   */\n      add\n        /* \"#utility.yul\":3882:3909   */\n      mstore\n        /* \"#utility.yul\":3769:3915   */\n      pop\n      pop\n      pop\n      jump\t// out\n        /* \"#utility.yul\":3921:4346   */\n    tag_294:\n        /* \"#utility.yul\":3999:4004   */\n      0x00\n        /* \"#utility.yul\":4024:4090   */\n      tag_387\n        /* \"#utility.yul\":4040:4089   */\n      tag_388\n        /* \"#utility.yul\":4082:4088   */\n      dup5\n        /* \"#utility.yul\":4040:4089   */\n      tag_292\n      jump\t// in\n    tag_388:\n        /* \"#utility.yul\":4024:4090   */\n      tag_291\n      jump\t// in\n    tag_387:\n        /* \"#utility.yul\":4015:4090   */\n      swap1\n      pop\n        /* \"#utility.yul\":4113:4119   */\n      dup3\n        /* \"#utility.yul\":4106:4111   */\n      dup2\n        /* \"#utility.yul\":4099:4120   */\n      mstore\n        /* \"#utility.yul\":4151:4155   */\n      0x20\n        /* \"#utility.yul\":4144:4149   */\n      dup2\n        /* \"#utility.yul\":4140:4156   */\n      add\n        /* \"#utility.yul\":4189:4192   */\n      dup5\n        /* \"#utility.yul\":4180:4186   */\n      dup5\n        /* \"#utility.yul\":4175:4178   */\n      dup5\n        /* \"#utility.yul\":4171:4187   */\n      add\n        /* \"#utility.yul\":4168:4193   */\n      gt\n        /* \"#utility.yul\":4165:4277   */\n      iszero\n      tag_389\n      jumpi\n        /* \"#utility.yul\":4196:4275   */\n      tag_390\n      tag_288\n      jump\t// in\n    tag_390:\n        /* \"#utility.yul\":4165:4277   */\n    tag_389:\n        /* \"#utility.yul\":4286:4340   */\n      tag_391\n        /* \"#utility.yul\":4333:4339   */\n      dup5\n        /* \"#utility.yul\":4328:4331   */\n      dup3\n        /* \"#utility.yul\":4323:4326   */\n      dup6\n        /* \"#utility.yul\":4286:4340   */\n      tag_293\n      jump\t// in\n    tag_391:\n        /* \"#utility.yul\":4005:4346   */\n      pop\n        /* \"#utility.yul\":3921:4346   */\n      swap4\n      swap3\n      pop\n      pop\n      pop\n      jump\t// out\n        /* \"#utility.yul\":4366:4706   */\n    tag_295:\n        /* \"#utility.yul\":4422:4427   */\n      0x00\n        /* \"#utility.yul\":4471:4474   */\n      dup3\n        /* \"#utility.yul\":4464:4468   */\n      0x1f\n        /* \"#utility.yul\":4456:4462   */\n      dup4\n        /* \"#utility.yul\":4452:4469   */\n      add\n        /* \"#utility.yul\":4448:4475   */\n      slt\n        /* \"#utility.yul\":4438:4560   */\n      tag_393\n      jumpi\n        /* \"#utility.yul\":4479:4558   */\n      tag_394\n      tag_287\n      jump\t// in\n    tag_394:\n        /* \"#utility.yul\":4438:4560   */\n    tag_393:\n        /* \"#utility.yul\":4596:4602   */\n      dup2\n        /* \"#utility.yul\":4583:4603   */\n      calldataload\n        /* \"#utility.yul\":4621:4700   */\n      tag_395\n        /* \"#utility.yul\":4696:4699   */\n      dup5\n        /* \"#utility.yul\":4688:4694   */\n      dup3\n        /* \"#utility.yul\":4681:4685   */\n      0x20\n        /* \"#utility.yul\":4673:4679   */\n      dup7\n        /* \"#utility.yul\":4669:4686   */\n      add\n        /* \"#utility.yul\":4621:4700   */\n      tag_294\n      jump\t// in\n    tag_395:\n        /* \"#utility.yul\":4612:4700   */\n      swap2\n      pop\n        /* \"#utility.yul\":4428:4706   */\n      pop\n        /* \"#utility.yul\":4366:4706   */\n      swap3\n      swap2\n      pop\n      pop\n      jump\t// out\n        /* \"#utility.yul\":4712:5221   */\n    tag_35:\n        /* \"#utility.yul\":4781:4787   */\n      0x00\n        /* \"#utility.yul\":4830:4832   */\n      0x20\n        /* \"#utility.yul\":4818:4827   */\n      dup3\n        /* \"#utility.yul\":4809:4816   */\n      dup5\n        /* \"#utility.yul\":4805:4828   */\n      sub\n        /* \"#utility.yul\":4801:4833   */\n      slt\n        /* \"#utility.yul\":4798:4917   */\n      iszero\n      tag_397\n      jumpi\n        /* \"#utility.yul\":4836:4915   */\n      tag_398\n      tag_276\n      jump\t// in\n    tag_398:\n        /* \"#utility.yul\":4798:4917   */\n    tag_397:\n        /* \"#utility.yul\":4984:4985   */\n      0x00\n        /* \"#utility.yul\":4973:4982   */\n      dup3\n        /* \"#utility.yul\":4969:4986   */\n      add\n        /* \"#utility.yul\":4956:4987   */\n      calldataload\n        /* \"#utility.yul\":5014:5032   */\n      0xffffffffffffffff\n        /* \"#utility.yul\":5006:5012   */\n      dup2\n        /* \"#utility.yul\":5003:5033   */\n      gt\n        /* \"#utility.yul\":5000:5117   */\n      iszero\n      tag_399\n      jumpi\n        /* \"#utility.yul\":5036:5115   */\n      tag_400\n      tag_277\n      jump\t// in\n    tag_400:\n        /* \"#utility.yul\":5000:5117   */\n    tag_399:\n        /* \"#utility.yul\":5141:5204   */\n      tag_401\n        /* \"#utility.yul\":5196:5203   */\n      dup5\n        /* \"#utility.yul\":5187:5193   */\n      dup3\n        /* \"#utility.yul\":5176:5185   */\n      dup6\n        /* \"#utility.yul\":5172:5194   */\n      add\n        /* \"#utility.yul\":5141:5204   */\n      tag_295\n      jump\t// in\n    tag_401:\n        /* \"#utility.yul\":5131:5204   */\n      swap2\n      pop\n        /* \"#utility.yul\":4927:5214   */\n      pop\n        /* \"#utility.yul\":4712:5221   */\n      swap3\n      swap2\n      pop\n      pop\n      jump\t// out\n        /* \"#utility.yul\":5227:5353   */\n    tag_296:\n        /* \"#utility.yul\":5264:5271   */\n      0x00\n        /* \"#utility.yul\":5304:5346   */\n      0xffffffffffffffffffffffffffffffffffffffff\n        /* \"#utility.yul\":5297:5302   */\n      dup3\n        /* \"#utility.yul\":5293:5347   */\n      and\n        /* \"#utility.yul\":5282:5347   */\n      swap1\n      pop\n        /* \"#utility.yul\":5227:5353   */\n      swap2\n      swap1\n      pop\n      jump\t// out\n        /* \"#utility.yul\":5359:5455   */\n    tag_297:\n        /* \"#utility.yul\":5396:5403   */\n      0x00\n        /* \"#utility.yul\":5425:5449   */\n      tag_404\n        /* \"#utility.yul\":5443:5448   */\n      dup3\n        /* \"#utility.yul\":5425:5449   */\n      tag_296\n      jump\t// in\n    tag_404:\n        /* \"#utility.yul\":5414:5449   */\n      swap1\n      pop\n        /* \"#utility.yul\":5359:5455   */\n      swap2\n      swap1\n      pop\n      jump\t// out\n        /* \"#utility.yul\":5461:5583   */\n    tag_298:\n        /* \"#utility.yul\":5534:5558   */\n      tag_406\n        /* \"#utility.yul\":5552:5557   */\n      dup2\n        /* \"#utility.yul\":5534:5558   */\n      tag_297\n      jump\t// in\n    tag_406:\n        /* \"#utility.yul\":5527:5532   */\n      dup2\n        /* \"#utility.yul\":5524:5559   */\n      eq\n        /* \"#utility.yul\":5514:5577   */\n      tag_407\n      jumpi\n        /* \"#utility.yul\":5573:5574   */\n      0x00\n        /* \"#utility.yul\":5570:5571   */\n      dup1\n        /* \"#utility.yul\":5563:5575   */\n      revert\n        /* \"#utility.yul\":5514:5577   */\n    tag_407:\n        /* \"#utility.yul\":5461:5583   */\n      pop\n      jump\t// out\n        /* \"#utility.yul\":5589:5728   */\n    tag_299:\n        /* \"#utility.yul\":5635:5640   */\n      0x00\n        /* \"#utility.yul\":5673:5679   */\n      dup2\n        /* \"#utility.yul\":5660:5680   */\n      calldataload\n        /* \"#utility.yul\":5651:5680   */\n      swap1\n      pop\n        /* \"#utility.yul\":5689:5722   */\n      tag_409\n        /* \"#utility.yul\":5716:5721   */\n      dup2\n        /* \"#utility.yul\":5689:5722   */\n      tag_298\n      jump\t// in\n    tag_409:\n        /* \"#utility.yul\":5589:5728   */\n      swap3\n      swap2\n      pop\n      pop\n      jump\t// out\n        /* \"#utility.yul\":5734:6063   */\n    tag_39:\n        /* \"#utility.yul\":5793:5799   */\n      0x00\n        /* \"#utility.yul\":5842:5844   */\n      0x20\n        /* \"#utility.yul\":5830:5839   */\n      dup3\n        /* \"#utility.yul\":5821:5828   */\n      dup5\n        /* \"#utility.yul\":5817:5840   */\n      sub\n        /* \"#utility.yul\":5813:5845   */\n      slt\n        /* \"#utility.yul\":5810:5929   */\n      iszero\n      tag_411\n      jumpi\n        /* \"#utility.yul\":5848:5927   */\n      tag_412\n      tag_276\n      jump\t// in\n    tag_412:\n        /* \"#utility.yul\":5810:5929   */\n    tag_411:\n        /* \"#utility.yul\":5968:5969   */\n      0x00\n        /* \"#utility.yul\":5993:6046   */\n      tag_413\n        /* \"#utility.yul\":6038:6045   */\n      dup5\n        /* \"#utility.yul\":6029:6035   */\n      dup3\n        /* \"#utility.yul\":6018:6027   */\n      dup6\n        /* \"#utility.yul\":6014:6036   */\n      add\n        /* \"#utility.yul\":5993:6046   */\n      tag_299\n      jump\t// in\n    tag_413:\n        /* \"#utility.yul\":5983:6046   */\n      swap2\n      pop\n        /* \"#utility.yul\":5939:6056   */\n      pop\n        /* \"#utility.yul\":5734:6063   */\n      swap3\n      swap2\n      pop\n      pop\n      jump\t// out\n        /* \"#utility.yul\":6069:6187   */\n    tag_300:\n        /* \"#utility.yul\":6156:6180   */\n      tag_415\n        /* \"#utility.yul\":6174:6179   */\n      dup2\n        /* \"#utility.yul\":6156:6180   */\n      tag_297\n      jump\t// in\n    tag_415:\n        /* \"#utility.yul\":6151:6154   */\n      dup3\n        /* \"#utility.yul\":6144:6181   */\n      mstore\n        /* \"#utility.yul\":6069:6187   */\n      pop\n      pop\n      jump\t// out\n        /* \"#utility.yul\":6193:6415   */\n    tag_53:\n        /* \"#utility.yul\":6286:6290   */\n      0x00\n        /* \"#utility.yul\":6324:6326   */\n      0x20\n        /* \"#utility.yul\":6313:6322   */\n      dup3\n        /* \"#utility.yul\":6309:6327   */\n      add\n        /* \"#utility.yul\":6301:6327   */\n      swap1\n      pop\n        /* \"#utility.yul\":6337:6408   */\n      tag_417\n        /* \"#utility.yul\":6405:6406   */\n      0x00\n        /* \"#utility.yul\":6394:6403   */\n      dup4\n        /* \"#utility.yul\":6390:6407   */\n      add\n        /* \"#utility.yul\":6381:6387   */\n      dup5\n        /* \"#utility.yul\":6337:6408   */\n      tag_300\n      jump\t// in\n    tag_417:\n        /* \"#utility.yul\":6193:6415   */\n      swap3\n      swap2\n      pop\n      pop\n      jump\t// out\n        /* \"#utility.yul\":6421:6643   */\n    tag_57:\n        /* \"#utility.yul\":6514:6518   */\n      0x00\n        /* \"#utility.yul\":6552:6554   */\n      0x20\n        /* \"#utility.yul\":6541:6550   */\n      dup3\n        /* \"#utility.yul\":6537:6555   */\n      add\n        /* \"#utility.yul\":6529:6555   */\n      swap1\n      pop\n        /* \"#utility.yul\":6565:6636   */\n      tag_419\n        /* \"#utility.yul\":6633:6634   */\n      0x00\n        /* \"#utility.yul\":6622:6631   */\n      dup4\n        /* \"#utility.yul\":6618:6635   */\n      add\n        /* \"#utility.yul\":6609:6615   */\n      dup5\n        /* \"#utility.yul\":6565:6636   */\n      tag_286\n      jump\t// in\n    tag_419:\n        /* \"#utility.yul\":6421:6643   */\n      swap3\n      swap2\n      pop\n      pop\n      jump\t// out\n        /* \"#utility.yul\":6649:6739   */\n    tag_301:\n        /* \"#utility.yul\":6683:6690   */\n      0x00\n        /* \"#utility.yul\":6726:6731   */\n      dup2\n        /* \"#utility.yul\":6719:6732   */\n      iszero\n        /* \"#utility.yul\":6712:6733   */\n      iszero\n        /* \"#utility.yul\":6701:6733   */\n      swap1\n      pop\n        /* \"#utility.yul\":6649:6739   */\n      swap2\n      swap1\n      pop\n      jump\t// out\n        /* \"#utility.yul\":6745:6854   */\n    tag_302:\n        /* \"#utility.yul\":6826:6847   */\n      tag_422\n        /* \"#utility.yul\":6841:6846   */\n      dup2\n        /* \"#utility.yul\":6826:6847   */\n      tag_301\n      jump\t// in\n    tag_422:\n        /* \"#utility.yul\":6821:6824   */\n      dup3\n        /* \"#utility.yul\":6814:6848   */\n      mstore\n        /* \"#utility.yul\":6745:6854   */\n      pop\n      pop\n      jump\t// out\n        /* \"#utility.yul\":6860:7180   */\n    tag_62:\n        /* \"#utility.yul\":6975:6979   */\n      0x00\n        /* \"#utility.yul\":7013:7015   */\n      0x40\n        /* \"#utility.yul\":7002:7011   */\n      dup3\n        /* \"#utility.yul\":6998:7016   */\n      add\n        /* \"#utility.yul\":6990:7016   */\n      swap1\n      pop\n        /* \"#utility.yul\":7026:7091   */\n      tag_424\n        /* \"#utility.yul\":7088:7089   */\n      0x00\n        /* \"#utility.yul\":7077:7086   */\n      dup4\n        /* \"#utility.yul\":7073:7090   */\n      add\n        /* \"#utility.yul\":7064:7070   */\n      dup6\n        /* \"#utility.yul\":7026:7091   */\n      tag_302\n      jump\t// in\n    tag_424:\n        /* \"#utility.yul\":7101:7173   */\n      tag_425\n        /* \"#utility.yul\":7169:7171   */\n      0x20\n        /* \"#utility.yul\":7158:7167   */\n      dup4\n        /* \"#utility.yul\":7154:7172   */\n      add\n        /* \"#utility.yul\":7145:7151   */\n      dup5\n        /* \"#utility.yul\":7101:7173   */\n      tag_286\n      jump\t// in\n    tag_425:\n        /* \"#utility.yul\":6860:7180   */\n      swap4\n      swap3\n      pop\n      pop\n      pop\n      jump\t// out\n        /* \"#utility.yul\":7186:7366   */\n    tag_91:\n        /* \"#utility.yul\":7234:7311   */\n      0x4e487b7100000000000000000000000000000000000000000000000000000000\n        /* \"#utility.yul\":7231:7232   */\n      0x00\n        /* \"#utility.yul\":7224:7312   */\n      mstore\n        /* \"#utility.yul\":7331:7335   */\n      0x21\n        /* \"#utility.yul\":7328:7329   */\n      0x04\n        /* \"#utility.yul\":7321:7336   */\n      mstore\n        /* \"#utility.yul\":7355:7359   */\n      0x24\n        /* \"#utility.yul\":7352:7353   */\n      0x00\n        /* \"#utility.yul\":7345:7360   */\n      revert\n        /* \"#utility.yul\":7372:7495   */\n    tag_303:\n        /* \"#utility.yul\":7463:7464   */\n      0x06\n        /* \"#utility.yul\":7456:7461   */\n      dup2\n        /* \"#utility.yul\":7453:7465   */\n      lt\n        /* \"#utility.yul\":7443:7489   */\n      tag_428\n      jumpi\n        /* \"#utility.yul\":7469:7487   */\n      tag_429\n      tag_91\n      jump\t// in\n    tag_429:\n        /* \"#utility.yul\":7443:7489   */\n    tag_428:\n        /* \"#utility.yul\":7372:7495   */\n      pop\n      jump\t// out\n        /* \"#utility.yul\":7501:7648   */\n    tag_304:\n        /* \"#utility.yul\":7556:7563   */\n      0x00\n        /* \"#utility.yul\":7585:7590   */\n      dup2\n        /* \"#utility.yul\":7574:7590   */\n      swap1\n      pop\n        /* \"#utility.yul\":7591:7642   */\n      tag_431\n        /* \"#utility.yul\":7636:7641   */\n      dup3\n        /* \"#utility.yul\":7591:7642   */\n      tag_303\n      jump\t// in\n    tag_431:\n        /* \"#utility.yul\":7501:7648   */\n      swap2\n      swap1\n      pop\n      jump\t// out\n        /* \"#utility.yul\":7654:7801   */\n    tag_305:\n        /* \"#utility.yul\":7720:7729   */\n      0x00\n        /* \"#utility.yul\":7753:7795   */\n      tag_433\n        /* \"#utility.yul\":7789:7794   */\n      dup3\n        /* \"#utility.yul\":7753:7795   */\n      tag_304\n      jump\t// in\n    tag_433:\n        /* \"#utility.yul\":7740:7795   */\n      swap1\n      pop\n        /* \"#utility.yul\":7654:7801   */\n      swap2\n      swap1\n      pop\n      jump\t// out\n        /* \"#utility.yul\":7807:7970   */\n    tag_306:\n        /* \"#utility.yul\":7910:7963   */\n      tag_435\n        /* \"#utility.yul\":7957:7962   */\n      dup2\n        /* \"#utility.yul\":7910:7963   */\n      tag_305\n      jump\t// in\n    tag_435:\n        /* \"#utility.yul\":7905:7908   */\n      dup3\n        /* \"#utility.yul\":7898:7964   */\n      mstore\n        /* \"#utility.yul\":7807:7970   */\n      pop\n      pop\n      jump\t// out\n        /* \"#utility.yul\":7976:8230   */\n    tag_66:\n        /* \"#utility.yul\":8085:8089   */\n      0x00\n        /* \"#utility.yul\":8123:8125   */\n      0x20\n        /* \"#utility.yul\":8112:8121   */\n      dup3\n        /* \"#utility.yul\":8108:8126   */\n      add\n        /* \"#utility.yul\":8100:8126   */\n      swap1\n      pop\n        /* \"#utility.yul\":8136:8223   */\n      tag_437\n        /* \"#utility.yul\":8220:8221   */\n      0x00\n        /* \"#utility.yul\":8209:8218   */\n      dup4\n        /* \"#utility.yul\":8205:8222   */\n      add\n        /* \"#utility.yul\":8196:8202   */\n      dup5\n        /* \"#utility.yul\":8136:8223   */\n      tag_306\n      jump\t// in\n    tag_437:\n        /* \"#utility.yul\":7976:8230   */\n      swap3\n      swap2\n      pop\n      pop\n      jump\t// out\n        /* \"#utility.yul\":8236:8654   */\n    tag_71:\n        /* \"#utility.yul\":8373:8377   */\n      0x00\n        /* \"#utility.yul\":8411:8413   */\n      0x60\n        /* \"#utility.yul\":8400:8409   */\n      dup3\n        /* \"#utility.yul\":8396:8414   */\n      add\n        /* \"#utility.yul\":8388:8414   */\n      swap1\n      pop\n        /* \"#utility.yul\":8424:8489   */\n      tag_439\n        /* \"#utility.yul\":8486:8487   */\n      0x00\n        /* \"#utility.yul\":8475:8484   */\n      dup4\n        /* \"#utility.yul\":8471:8488   */\n      add\n        /* \"#utility.yul\":8462:8468   */\n      dup7\n        /* \"#utility.yul\":8424:8489   */\n      tag_302\n      jump\t// in\n    tag_439:\n        /* \"#utility.yul\":8499:8565   */\n      tag_440\n        /* \"#utility.yul\":8561:8563   */\n      0x20\n        /* \"#utility.yul\":8550:8559   */\n      dup4\n        /* \"#utility.yul\":8546:8564   */\n      add\n        /* \"#utility.yul\":8537:8543   */\n      dup6\n        /* \"#utility.yul\":8499:8565   */\n      tag_302\n      jump\t// in\n    tag_440:\n        /* \"#utility.yul\":8575:8647   */\n      tag_441\n        /* \"#utility.yul\":8643:8645   */\n      0x40\n        /* \"#utility.yul\":8632:8641   */\n      dup4\n        /* \"#utility.yul\":8628:8646   */\n      add\n        /* \"#utility.yul\":8619:8625   */\n      dup5\n        /* \"#utility.yul\":8575:8647   */\n      tag_286\n      jump\t// in\n    tag_441:\n        /* \"#utility.yul\":8236:8654   */\n      swap5\n      swap4\n      pop\n      pop\n      pop\n      pop\n      jump\t// out\n        /* \"#utility.yul\":8660:8841   */\n    tag_307:\n        /* \"#utility.yul\":8800:8833   */\n      0x596f7520617265206e6f742061207265676973746572656420766f7465722e00\n        /* \"#utility.yul\":8796:8797   */\n      0x00\n        /* \"#utility.yul\":8788:8794   */\n      dup3\n        /* \"#utility.yul\":8784:8798   */\n      add\n        /* \"#utility.yul\":8777:8834   */\n      mstore\n        /* \"#utility.yul\":8660:8841   */\n      pop\n      jump\t// out\n        /* \"#utility.yul\":8847:9213   */\n    tag_308:\n        /* \"#utility.yul\":8989:8992   */\n      0x00\n        /* \"#utility.yul\":9010:9077   */\n      tag_444\n        /* \"#utility.yul\":9074:9076   */\n      0x1f\n        /* \"#utility.yul\":9069:9072   */\n      dup4\n        /* \"#utility.yul\":9010:9077   */\n      tag_282\n      jump\t// in\n    tag_444:\n        /* \"#utility.yul\":9003:9077   */\n      swap2\n      pop\n        /* \"#utility.yul\":9086:9179   */\n      tag_445\n        /* \"#utility.yul\":9175:9178   */\n      dup3\n        /* \"#utility.yul\":9086:9179   */\n      tag_307\n      jump\t// in\n    tag_445:\n        /* \"#utility.yul\":9204:9206   */\n      0x20\n        /* \"#utility.yul\":9199:9202   */\n      dup3\n        /* \"#utility.yul\":9195:9207   */\n      add\n        /* \"#utility.yul\":9188:9207   */\n      swap1\n      pop\n        /* \"#utility.yul\":8847:9213   */\n      swap2\n      swap1\n      pop\n      jump\t// out\n        /* \"#utility.yul\":9219:9638   */\n    tag_87:\n        /* \"#utility.yul\":9385:9389   */\n      0x00\n        /* \"#utility.yul\":9423:9425   */\n      0x20\n        /* \"#utility.yul\":9412:9421   */\n      dup3\n        /* \"#utility.yul\":9408:9426   */\n      add\n        /* \"#utility.yul\":9400:9426   */\n      swap1\n      pop\n        /* \"#utility.yul\":9472:9481   */\n      dup2\n        /* \"#utility.yul\":9466:9470   */\n      dup2\n        /* \"#utility.yul\":9462:9482   */\n      sub\n        /* \"#utility.yul\":9458:9459   */\n      0x00\n        /* \"#utility.yul\":9447:9456   */\n      dup4\n        /* \"#utility.yul\":9443:9460   */\n      add\n        /* \"#utility.yul\":9436:9483   */\n      mstore\n        /* \"#utility.yul\":9500:9631   */\n      tag_447\n        /* \"#utility.yul\":9626:9630   */\n      dup2\n        /* \"#utility.yul\":9500:9631   */\n      tag_308\n      jump\t// in\n    tag_447:\n        /* \"#utility.yul\":9492:9631   */\n      swap1\n      pop\n        /* \"#utility.yul\":9219:9638   */\n      swap2\n      swap1\n      pop\n      jump\t// out\n        /* \"#utility.yul\":9644:9864   */\n    tag_309:\n        /* \"#utility.yul\":9784:9818   */\n      0x416374696f6e206e6f7420616c6c6f7765642061742074686973207374616765\n        /* \"#utility.yul\":9780:9781   */\n      0x00\n        /* \"#utility.yul\":9772:9778   */\n      dup3\n        /* \"#utility.yul\":9768:9782   */\n      add\n        /* \"#utility.yul\":9761:9819   */\n      mstore\n        /* \"#utility.yul\":9853:9856   */\n      0x2e00000000000000000000000000000000000000000000000000000000000000\n        /* \"#utility.yul\":9848:9850   */\n      0x20\n        /* \"#utility.yul\":9840:9846   */\n      dup3\n        /* \"#utility.yul\":9836:9851   */\n      add\n        /* \"#utility.yul\":9829:9857   */\n      mstore\n        /* \"#utility.yul\":9644:9864   */\n      pop\n      jump\t// out\n        /* \"#utility.yul\":9870:10236   */\n    tag_310:\n        /* \"#utility.yul\":10012:10015   */\n      0x00\n        /* \"#utility.yul\":10033:10100   */\n      tag_450\n        /* \"#utility.yul\":10097:10099   */\n      0x21\n        /* \"#utility.yul\":10092:10095   */\n      dup4\n        /* \"#utility.yul\":10033:10100   */\n      tag_282\n      jump\t// in\n    tag_450:\n        /* \"#utility.yul\":10026:10100   */\n      swap2\n      pop\n        /* \"#utility.yul\":10109:10202   */\n      tag_451\n        /* \"#utility.yul\":10198:10201   */\n      dup3\n        /* \"#utility.yul\":10109:10202   */\n      tag_309\n      jump\t// in\n    tag_451:\n        /* \"#utility.yul\":10227:10229   */\n      0x40\n        /* \"#utility.yul\":10222:10225   */\n      dup3\n        /* \"#utility.yul\":10218:10230   */\n      add\n        /* \"#utility.yul\":10211:10230   */\n      swap1\n      pop\n        /* \"#utility.yul\":9870:10236   */\n      swap2\n      swap1\n      pop\n      jump\t// out\n        /* \"#utility.yul\":10242:10661   */\n    tag_96:\n        /* \"#utility.yul\":10408:10412   */\n      0x00\n        /* \"#utility.yul\":10446:10448   */\n      0x20\n        /* \"#utility.yul\":10435:10444   */\n      dup3\n        /* \"#utility.yul\":10431:10449   */\n      add\n        /* \"#utility.yul\":10423:10449   */\n      swap1\n      pop\n        /* \"#utility.yul\":10495:10504   */\n      dup2\n        /* \"#utility.yul\":10489:10493   */\n      dup2\n        /* \"#utility.yul\":10485:10505   */\n      sub\n        /* \"#utility.yul\":10481:10482   */\n      0x00\n        /* \"#utility.yul\":10470:10479   */\n      dup4\n        /* \"#utility.yul\":10466:10483   */\n      add\n        /* \"#utility.yul\":10459:10506   */\n      mstore\n        /* \"#utility.yul\":10523:10654   */\n      tag_453\n        /* \"#utility.yul\":10649:10653   */\n      dup2\n        /* \"#utility.yul\":10523:10654   */\n      tag_310\n      jump\t// in\n    tag_453:\n        /* \"#utility.yul\":10515:10654   */\n      swap1\n      pop\n        /* \"#utility.yul\":10242:10661   */\n      swap2\n      swap1\n      pop\n      jump\t// out\n        /* \"#utility.yul\":10667:10837   */\n    tag_311:\n        /* \"#utility.yul\":10807:10829   */\n      0x496e76616c69642070726f706f73616c2049442e000000000000000000000000\n        /* \"#utility.yul\":10803:10804   */\n      0x00\n        /* \"#utility.yul\":10795:10801   */\n      dup3\n        /* \"#utility.yul\":10791:10805   */\n      add\n        /* \"#utility.yul\":10784:10830   */\n      mstore\n        /* \"#utility.yul\":10667:10837   */\n      pop\n      jump\t// out\n        /* \"#utility.yul\":10843:11209   */\n    tag_312:\n        /* \"#utility.yul\":10985:10988   */\n      0x00\n        /* \"#utility.yul\":11006:11073   */\n      tag_456\n        /* \"#utility.yul\":11070:11072   */\n      0x14\n        /* \"#utility.yul\":11065:11068   */\n      dup4\n        /* \"#utility.yul\":11006:11073   */\n      tag_282\n      jump\t// in\n    tag_456:\n        /* \"#utility.yul\":10999:11073   */\n      swap2\n      pop\n        /* \"#utility.yul\":11082:11175   */\n      tag_457\n        /* \"#utility.yul\":11171:11174   */\n      dup3\n        /* \"#utility.yul\":11082:11175   */\n      tag_311\n      jump\t// in\n    tag_457:\n        /* \"#utility.yul\":11200:11202   */\n      0x20\n        /* \"#utility.yul\":11195:11198   */\n      dup3\n        /* \"#utility.yul\":11191:11203   */\n      add\n        /* \"#utility.yul\":11184:11203   */\n      swap1\n      pop\n        /* \"#utility.yul\":10843:11209   */\n      swap2\n      swap1\n      pop\n      jump\t// out\n        /* \"#utility.yul\":11215:11634   */\n    tag_100:\n        /* \"#utility.yul\":11381:11385   */\n      0x00\n        /* \"#utility.yul\":11419:11421   */\n      0x20\n        /* \"#utility.yul\":11408:11417   */\n      dup3\n        /* \"#utility.yul\":11404:11422   */\n      add\n        /* \"#utility.yul\":11396:11422   */\n      swap1\n      pop\n        /* \"#utility.yul\":11468:11477   */\n      dup2\n        /* \"#utility.yul\":11462:11466   */\n      dup2\n        /* \"#utility.yul\":11458:11478   */\n      sub\n        /* \"#utility.yul\":11454:11455   */\n      0x00\n        /* \"#utility.yul\":11443:11452   */\n      dup4\n        /* \"#utility.yul\":11439:11456   */\n      add\n        /* \"#utility.yul\":11432:11479   */\n      mstore\n        /* \"#utility.yul\":11496:11627   */\n      tag_459\n        /* \"#utility.yul\":11622:11626   */\n      dup2\n        /* \"#utility.yul\":11496:11627   */\n      tag_312\n      jump\t// in\n    tag_459:\n        /* \"#utility.yul\":11488:11627   */\n      swap1\n      pop\n        /* \"#utility.yul\":11215:11634   */\n      swap2\n      swap1\n      pop\n      jump\t// out\n        /* \"#utility.yul\":11640:11813   */\n    tag_313:\n        /* \"#utility.yul\":11780:11805   */\n      0x596f75206861766520616c726561647920766f7465642e000000000000000000\n        /* \"#utility.yul\":11776:11777   */\n      0x00\n        /* \"#utility.yul\":11768:11774   */\n      dup3\n        /* \"#utility.yul\":11764:11778   */\n      add\n        /* \"#utility.yul\":11757:11806   */\n      mstore\n        /* \"#utility.yul\":11640:11813   */\n      pop\n      jump\t// out\n        /* \"#utility.yul\":11819:12185   */\n    tag_314:\n        /* \"#utility.yul\":11961:11964   */\n      0x00\n        /* \"#utility.yul\":11982:12049   */\n      tag_462\n        /* \"#utility.yul\":12046:12048   */\n      0x17\n        /* \"#utility.yul\":12041:12044   */\n      dup4\n        /* \"#utility.yul\":11982:12049   */\n      tag_282\n      jump\t// in\n    tag_462:\n        /* \"#utility.yul\":11975:12049   */\n      swap2\n      pop\n        /* \"#utility.yul\":12058:12151   */\n      tag_463\n        /* \"#utility.yul\":12147:12150   */\n      dup3\n        /* \"#utility.yul\":12058:12151   */\n      tag_313\n      jump\t// in\n    tag_463:\n        /* \"#utility.yul\":12176:12178   */\n      0x20\n        /* \"#utility.yul\":12171:12174   */\n      dup3\n        /* \"#utility.yul\":12167:12179   */\n      add\n        /* \"#utility.yul\":12160:12179   */\n      swap1\n      pop\n        /* \"#utility.yul\":11819:12185   */\n      swap2\n      swap1\n      pop\n      jump\t// out\n        /* \"#utility.yul\":12191:12610   */\n    tag_103:\n        /* \"#utility.yul\":12357:12361   */\n      0x00\n        /* \"#utility.yul\":12395:12397   */\n      0x20\n        /* \"#utility.yul\":12384:12393   */\n      dup3\n        /* \"#utility.yul\":12380:12398   */\n      add\n        /* \"#utility.yul\":12372:12398   */\n      swap1\n      pop\n        /* \"#utility.yul\":12444:12453   */\n      dup2\n        /* \"#utility.yul\":12438:12442   */\n      dup2\n        /* \"#utility.yul\":12434:12454   */\n      sub\n        /* \"#utility.yul\":12430:12431   */\n      0x00\n        /* \"#utility.yul\":12419:12428   */\n      dup4\n        /* \"#utility.yul\":12415:12432   */\n      add\n        /* \"#utility.yul\":12408:12455   */\n      mstore\n        /* \"#utility.yul\":12472:12603   */\n      tag_465\n        /* \"#utility.yul\":12598:12602   */\n      dup2\n        /* \"#utility.yul\":12472:12603   */\n      tag_314\n      jump\t// in\n    tag_465:\n        /* \"#utility.yul\":12464:12603   */\n      swap1\n      pop\n        /* \"#utility.yul\":12191:12610   */\n      swap2\n      swap1\n      pop\n      jump\t// out\n        /* \"#utility.yul\":12616:12796   */\n    tag_106:\n        /* \"#utility.yul\":12664:12741   */\n      0x4e487b7100000000000000000000000000000000000000000000000000000000\n        /* \"#utility.yul\":12661:12662   */\n      0x00\n        /* \"#utility.yul\":12654:12742   */\n      mstore\n        /* \"#utility.yul\":12761:12765   */\n      0x32\n        /* \"#utility.yul\":12758:12759   */\n      0x04\n        /* \"#utility.yul\":12751:12766   */\n      mstore\n        /* \"#utility.yul\":12785:12789   */\n      0x24\n        /* \"#utility.yul\":12782:12783   */\n      0x00\n        /* \"#utility.yul\":12775:12790   */\n      revert\n        /* \"#utility.yul\":12802:12982   */\n    tag_315:\n        /* \"#utility.yul\":12850:12927   */\n      0x4e487b7100000000000000000000000000000000000000000000000000000000\n        /* \"#utility.yul\":12847:12848   */\n      0x00\n        /* \"#utility.yul\":12840:12928   */\n      mstore\n        /* \"#utility.yul\":12947:12951   */\n      0x11\n        /* \"#utility.yul\":12944:12945   */\n      0x04\n        /* \"#utility.yul\":12937:12952   */\n      mstore\n        /* \"#utility.yul\":12971:12975   */\n      0x24\n        /* \"#utility.yul\":12968:12969   */\n      0x00\n        /* \"#utility.yul\":12961:12976   */\n      revert\n        /* \"#utility.yul\":12988:13221   */\n    tag_109:\n        /* \"#utility.yul\":13027:13030   */\n      0x00\n        /* \"#utility.yul\":13050:13074   */\n      tag_469\n        /* \"#utility.yul\":13068:13073   */\n      dup3\n        /* \"#utility.yul\":13050:13074   */\n      tag_278\n      jump\t// in\n    tag_469:\n        /* \"#utility.yul\":13041:13074   */\n      swap2\n      pop\n        /* \"#utility.yul\":13096:13162   */\n      0xffffffffffffffffffffffffffffffffffffffffffffffffffffffffffffffff\n        /* \"#utility.yul\":13089:13094   */\n      dup3\n        /* \"#utility.yul\":13086:13163   */\n      sub\n        /* \"#utility.yul\":13083:13186   */\n      tag_470\n      jumpi\n        /* \"#utility.yul\":13166:13184   */\n      tag_471\n      tag_315\n      jump\t// in\n    tag_471:\n        /* \"#utility.yul\":13083:13186   */\n    tag_470:\n        /* \"#utility.yul\":13213:13214   */\n      0x01\n        /* \"#utility.yul\":13206:13211   */\n      dup3\n        /* \"#utility.yul\":13202:13215   */\n      add\n        /* \"#utility.yul\":13195:13215   */\n      swap1\n      pop\n        /* \"#utility.yul\":12988:13221   */\n      swap2\n      swap1\n      pop\n      jump\t// out\n        /* \"#utility.yul\":13227:13559   */\n    tag_111:\n        /* \"#utility.yul\":13348:13352   */\n      0x00\n        /* \"#utility.yul\":13386:13388   */\n      0x40\n        /* \"#utility.yul\":13375:13384   */\n      dup3\n        /* \"#utility.yul\":13371:13389   */\n      add\n        /* \"#utility.yul\":13363:13389   */\n      swap1\n      pop\n        /* \"#utility.yul\":13399:13470   */\n      tag_473\n        /* \"#utility.yul\":13467:13468   */\n      0x00\n        /* \"#utility.yul\":13456:13465   */\n      dup4\n        /* \"#utility.yul\":13452:13469   */\n      add\n        /* \"#utility.yul\":13443:13449   */\n      dup6\n        /* \"#utility.yul\":13399:13470   */\n      tag_300\n      jump\t// in\n    tag_473:\n        /* \"#utility.yul\":13480:13552   */\n      tag_474\n        /* \"#utility.yul\":13548:13550   */\n      0x20\n        /* \"#utility.yul\":13537:13546   */\n      dup4\n        /* \"#utility.yul\":13533:13551   */\n      add\n        /* \"#utility.yul\":13524:13530   */\n      dup5\n        /* \"#utility.yul\":13480:13552   */\n      tag_286\n      jump\t// in\n    tag_474:\n        /* \"#utility.yul\":13227:13559   */\n      swap4\n      swap3\n      pop\n      pop\n      pop\n      jump\t// out\n        /* \"#utility.yul\":13565:13745   */\n    tag_316:\n        /* \"#utility.yul\":13613:13690   */\n      0x4e487b7100000000000000000000000000000000000000000000000000000000\n        /* \"#utility.yul\":13610:13611   */\n      0x00\n        /* \"#utility.yul\":13603:13691   */\n      mstore\n        /* \"#utility.yul\":13710:13714   */\n      0x22\n        /* \"#utility.yul\":13707:13708   */\n      0x04\n        /* \"#utility.yul\":13700:13715   */\n      mstore\n        /* \"#utility.yul\":13734:13738   */\n      0x24\n        /* \"#utility.yul\":13731:13732   */\n      0x00\n        /* \"#utility.yul\":13724:13739   */\n      revert\n        /* \"#utility.yul\":13751:14071   */\n    tag_115:\n        /* \"#utility.yul\":13795:13801   */\n      0x00\n        /* \"#utility.yul\":13832:13833   */\n      0x02\n        /* \"#utility.yul\":13826:13830   */\n      dup3\n        /* \"#utility.yul\":13822:13834   */\n      div\n        /* \"#utility.yul\":13812:13834   */\n      swap1\n      pop\n        /* \"#utility.yul\":13879:13880   */\n      0x01\n        /* \"#utility.yul\":13873:13877   */\n      dup3\n        /* \"#utility.yul\":13869:13881   */\n      and\n        /* \"#utility.yul\":13900:13918   */\n      dup1\n        /* \"#utility.yul\":13890:13971   */\n      tag_477\n      jumpi\n        /* \"#utility.yul\":13956:13960   */\n      0x7f\n        /* \"#utility.yul\":13948:13954   */\n      dup3\n        /* \"#utility.yul\":13944:13961   */\n      and\n        /* \"#utility.yul\":13934:13961   */\n      swap2\n      pop\n        /* \"#utility.yul\":13890:13971   */\n    tag_477:\n        /* \"#utility.yul\":14018:14020   */\n      0x20\n        /* \"#utility.yul\":14010:14016   */\n      dup3\n        /* \"#utility.yul\":14007:14021   */\n      lt\n        /* \"#utility.yul\":13987:14005   */\n      dup2\n        /* \"#utility.yul\":13984:14022   */\n      sub\n        /* \"#utility.yul\":13981:14065   */\n      tag_478\n      jumpi\n        /* \"#utility.yul\":14037:14055   */\n      tag_479\n      tag_316\n      jump\t// in\n    tag_479:\n        /* \"#utility.yul\":13981:14065   */\n    tag_478:\n        /* \"#utility.yul\":13802:14071   */\n      pop\n        /* \"#utility.yul\":13751:14071   */\n      swap2\n      swap1\n      pop\n      jump\t// out\n        /* \"#utility.yul\":14077:14218   */\n    tag_317:\n        /* \"#utility.yul\":14126:14130   */\n      0x00\n        /* \"#utility.yul\":14149:14152   */\n      dup2\n        /* \"#utility.yul\":14141:14152   */\n      swap1\n      pop\n        /* \"#utility.yul\":14172:14175   */\n      dup2\n        /* \"#utility.yul\":14169:14170   */\n      0x00\n        /* \"#utility.yul\":14162:14176   */\n      mstore\n        /* \"#utility.yul\":14206:14210   */\n      0x20\n        /* \"#utility.yul\":14203:14204   */\n      0x00\n        /* \"#utility.yul\":14193:14211   */\n      keccak256\n        /* \"#utility.yul\":14185:14211   */\n      swap1\n      pop\n        /* \"#utility.yul\":14077:14218   */\n      swap2\n      swap1\n      pop\n      jump\t// out\n        /* \"#utility.yul\":14224:14317   */\n    tag_318:\n        /* \"#utility.yul\":14261:14267   */\n      0x00\n        /* \"#utility.yul\":14308:14310   */\n      0x20\n        /* \"#utility.yul\":14303:14305   */\n      0x1f\n        /* \"#utility.yul\":14296:14301   */\n      dup4\n        /* \"#utility.yul\":14292:14306   */\n      add\n        /* \"#utility.yul\":14288:14311   */\n      div\n        /* \"#utility.yul\":14278:14311   */\n      swap1\n      pop\n        /* \"#utility.yul\":14224:14317   */\n      swap2\n      swap1\n      pop\n      jump\t// out\n        /* \"#utility.yul\":14323:14430   */\n    tag_319:\n        /* \"#utility.yul\":14367:14375   */\n      0x00\n        /* \"#utility.yul\":14417:14422   */\n      dup3\n        /* \"#utility.yul\":14411:14415   */\n      dup3\n        /* \"#utility.yul\":14407:14423   */\n      shl\n        /* \"#utility.yul\":14386:14423   */\n      swap1\n      pop\n        /* \"#utility.yul\":14323:14430   */\n      swap3\n      swap2\n      pop\n      pop\n      jump\t// out\n        /* \"#utility.yul\":14436:14829   */\n    tag_320:\n        /* \"#utility.yul\":14505:14511   */\n      0x00\n        /* \"#utility.yul\":14555:14556   */\n      0x08\n        /* \"#utility.yul\":14543:14553   */\n      dup4\n        /* \"#utility.yul\":14539:14557   */\n      mul\n        /* \"#utility.yul\":14578:14675   */\n      tag_484\n        /* \"#utility.yul\":14608:14674   */\n      0xffffffffffffffffffffffffffffffffffffffffffffffffffffffffffffffff\n        /* \"#utility.yul\":14597:14606   */\n      dup3\n        /* \"#utility.yul\":14578:14675   */\n      tag_319\n      jump\t// in\n    tag_484:\n        /* \"#utility.yul\":14696:14735   */\n      tag_485\n        /* \"#utility.yul\":14726:14734   */\n      dup7\n        /* \"#utility.yul\":14715:14724   */\n      dup4\n        /* \"#utility.yul\":14696:14735   */\n      tag_319\n      jump\t// in\n    tag_485:\n        /* \"#utility.yul\":14684:14735   */\n      swap6\n      pop\n        /* \"#utility.yul\":14768:14772   */\n      dup1\n        /* \"#utility.yul\":14764:14773   */\n      not\n        /* \"#utility.yul\":14757:14762   */\n      dup5\n        /* \"#utility.yul\":14753:14774   */\n      and\n        /* \"#utility.yul\":14744:14774   */\n      swap4\n      pop\n        /* \"#utility.yul\":14817:14821   */\n      dup1\n        /* \"#utility.yul\":14807:14815   */\n      dup7\n        /* \"#utility.yul\":14803:14822   */\n      and\n        /* \"#utility.yul\":14796:14801   */\n      dup5\n        /* \"#utility.yul\":14793:14823   */\n      or\n        /* \"#utility.yul\":14783:14823   */\n      swap3\n      pop\n        /* \"#utility.yul\":14512:14829   */\n      pop\n      pop\n        /* \"#utility.yul\":14436:14829   */\n      swap4\n      swap3\n      pop\n      pop\n      pop\n      jump\t// out\n        /* \"#utility.yul\":14835:14895   */\n    tag_321:\n        /* \"#utility.yul\":14863:14866   */\n      0x00\n        /* \"#utility.yul\":14884:14889   */\n      dup2\n        /* \"#utility.yul\":14877:14889   */\n      swap1\n      pop\n        /* \"#utility.yul\":14835:14895   */\n      swap2\n      swap1\n      pop\n      jump\t// out\n        /* \"#utility.yul\":14901:15043   */\n    tag_322:\n        /* \"#utility.yul\":14951:14960   */\n      0x00\n        /* \"#utility.yul\":14984:15037   */\n      tag_488\n        /* \"#utility.yul\":15002:15036   */\n      tag_489\n        /* \"#utility.yul\":15011:15035   */\n      tag_490\n        /* \"#utility.yul\":15029:15034   */\n      dup5\n        /* \"#utility.yul\":15011:15035   */\n      tag_278\n      jump\t// in\n    tag_490:\n        /* \"#utility.yul\":15002:15036   */\n      tag_321\n      jump\t// in\n    tag_489:\n        /* \"#utility.yul\":14984:15037   */\n      tag_278\n      jump\t// in\n    tag_488:\n        /* \"#utility.yul\":14971:15037   */\n      swap1\n      pop\n        /* \"#utility.yul\":14901:15043   */\n      swap2\n      swap1\n      pop\n      jump\t// out\n        /* \"#utility.yul\":15049:15124   */\n    tag_323:\n        /* \"#utility.yul\":15092:15095   */\n      0x00\n        /* \"#utility.yul\":15113:15118   */\n      dup2\n        /* \"#utility.yul\":15106:15118   */\n      swap1\n      pop\n        /* \"#utility.yul\":15049:15124   */\n      swap2\n      swap1\n      pop\n      jump\t// out\n        /* \"#utility.yul\":15130:15399   */\n    tag_324:\n        /* \"#utility.yul\":15240:15279   */\n      tag_493\n        /* \"#utility.yul\":15271:15278   */\n      dup4\n        /* \"#utility.yul\":15240:15279   */\n      tag_322\n      jump\t// in\n    tag_493:\n        /* \"#utility.yul\":15301:15392   */\n      tag_494\n        /* \"#utility.yul\":15350:15391   */\n      tag_495\n        /* \"#utility.yul\":15374:15390   */\n      dup3\n        /* \"#utility.yul\":15350:15391   */\n      tag_323\n      jump\t// in\n    tag_495:\n        /* \"#utility.yul\":15342:15348   */\n      dup5\n        /* \"#utility.yul\":15335:15339   */\n      dup5\n        /* \"#utility.yul\":15329:15340   */\n      sload\n        /* \"#utility.yul\":15301:15392   */\n      tag_320\n      jump\t// in\n    tag_494:\n        /* \"#utility.yul\":15295:15299   */\n      dup3\n        /* \"#utility.yul\":15288:15393   */\n      sstore\n        /* \"#utility.yul\":15206:15399   */\n      pop\n        /* \"#utility.yul\":15130:15399   */\n      pop\n      pop\n      pop\n      jump\t// out\n        /* \"#utility.yul\":15405:15478   */\n    tag_325:\n        /* \"#utility.yul\":15450:15453   */\n      0x00\n        /* \"#utility.yul\":15405:15478   */\n      swap1\n      jump\t// out\n        /* \"#utility.yul\":15484:15673   */\n    tag_326:\n        /* \"#utility.yul\":15561:15593   */\n      tag_498\n      tag_325\n      jump\t// in\n    tag_498:\n        /* \"#utility.yul\":15602:15667   */\n      tag_499\n        /* \"#utility.yul\":15660:15666   */\n      dup2\n        /* \"#utility.yul\":15652:15658   */\n      dup5\n        /* \"#utility.yul\":15646:15650   */\n      dup5\n        /* \"#utility.yul\":15602:15667   */\n      tag_324\n      jump\t// in\n    tag_499:\n        /* \"#utility.yul\":15537:15673   */\n      pop\n        /* \"#utility.yul\":15484:15673   */\n      pop\n      pop\n      jump\t// out\n        /* \"#utility.yul\":15679:15865   */\n    tag_327:\n        /* \"#utility.yul\":15739:15859   */\n    tag_501:\n        /* \"#utility.yul\":15756:15759   */\n      dup2\n        /* \"#utility.yul\":15749:15754   */\n      dup2\n        /* \"#utility.yul\":15746:15760   */\n      lt\n        /* \"#utility.yul\":15739:15859   */\n      iszero\n      tag_503\n      jumpi\n        /* \"#utility.yul\":15810:15849   */\n      tag_504\n        /* \"#utility.yul\":15847:15848   */\n      0x00\n        /* \"#utility.yul\":15840:15845   */\n      dup3\n        /* \"#utility.yul\":15810:15849   */\n      tag_326\n      jump\t// in\n    tag_504:\n        /* \"#utility.yul\":15783:15784   */\n      0x01\n        /* \"#utility.yul\":15776:15781   */\n      dup2\n        /* \"#utility.yul\":15772:15785   */\n      add\n        /* \"#utility.yul\":15763:15785   */\n      swap1\n      pop\n        /* \"#utility.yul\":15739:15859   */\n      jump(tag_501)\n    tag_503:\n        /* \"#utility.yul\":15679:15865   */\n      pop\n      pop\n      jump\t// out\n        /* \"#utility.yul\":15871:16414   */\n    tag_328:\n        /* \"#utility.yul\":15972:15974   */\n      0x1f\n        /* \"#utility.yul\":15967:15970   */\n      dup3\n        /* \"#utility.yul\":15964:15975   */\n      gt\n        /* \"#utility.yul\":15961:16407   */\n      iszero\n      tag_506\n      jumpi\n        /* \"#utility.yul\":16006:16044   */\n      tag_507\n        /* \"#utility.yul\":16038:16043   */\n      dup2\n        /* \"#utility.yul\":16006:16044   */\n      tag_317\n      jump\t// in\n    tag_507:\n        /* \"#utility.yul\":16090:16119   */\n      tag_508\n        /* \"#utility.yul\":16108:16118   */\n      dup5\n        /* \"#utility.yul\":16090:16119   */\n      tag_318\n      jump\t// in\n    tag_508:\n        /* \"#utility.yul\":16080:16088   */\n      dup2\n        /* \"#utility.yul\":16076:16120   */\n      add\n        /* \"#utility.yul\":16273:16275   */\n      0x20\n        /* \"#utility.yul\":16261:16271   */\n      dup6\n        /* \"#utility.yul\":16258:16276   */\n      lt\n        /* \"#utility.yul\":16255:16304   */\n      iszero\n      tag_509\n      jumpi\n        /* \"#utility.yul\":16294:16302   */\n      dup2\n        /* \"#utility.yul\":16279:16302   */\n      swap1\n      pop\n        /* \"#utility.yul\":16255:16304   */\n    tag_509:\n        /* \"#utility.yul\":16317:16397   */\n      tag_510\n        /* \"#utility.yul\":16373:16395   */\n      tag_511\n        /* \"#utility.yul\":16391:16394   */\n      dup6\n        /* \"#utility.yul\":16373:16395   */\n      tag_318\n      jump\t// in\n    tag_511:\n        /* \"#utility.yul\":16363:16371   */\n      dup4\n        /* \"#utility.yul\":16359:16396   */\n      add\n        /* \"#utility.yul\":16346:16357   */\n      dup3\n        /* \"#utility.yul\":16317:16397   */\n      tag_327\n      jump\t// in\n    tag_510:\n        /* \"#utility.yul\":15976:16407   */\n      pop\n      pop\n        /* \"#utility.yul\":15961:16407   */\n    tag_506:\n        /* \"#utility.yul\":15871:16414   */\n      pop\n      pop\n      pop\n      jump\t// out\n        /* \"#utility.yul\":16420:16537   */\n    tag_329:\n        /* \"#utility.yul\":16474:16482   */\n      0x00\n        /* \"#utility.yul\":16524:16529   */\n      dup3\n        /* \"#utility.yul\":16518:16522   */\n      dup3\n        /* \"#utility.yul\":16514:16530   */\n      shr\n        /* \"#utility.yul\":16493:16530   */\n      swap1\n      pop\n        /* \"#utility.yul\":16420:16537   */\n      swap3\n      swap2\n      pop\n      pop\n      jump\t// out\n        /* \"#utility.yul\":16543:16712   */\n    tag_330:\n        /* \"#utility.yul\":16587:16593   */\n      0x00\n        /* \"#utility.yul\":16620:16671   */\n      tag_514\n        /* \"#utility.yul\":16668:16669   */\n      0x00\n        /* \"#utility.yul\":16664:16670   */\n      not\n        /* \"#utility.yul\":16656:16661   */\n      dup5\n        /* \"#utility.yul\":16653:16654   */\n      0x08\n        /* \"#utility.yul\":16649:16662   */\n      mul\n        /* \"#utility.yul\":16620:16671   */\n      tag_329\n      jump\t// in\n    tag_514:\n        /* \"#utility.yul\":16616:16672   */\n      not\n        /* \"#utility.yul\":16701:16705   */\n      dup1\n        /* \"#utility.yul\":16695:16699   */\n      dup4\n        /* \"#utility.yul\":16691:16706   */\n      and\n        /* \"#utility.yul\":16681:16706   */\n      swap2\n      pop\n        /* \"#utility.yul\":16594:16712   */\n      pop\n        /* \"#utility.yul\":16543:16712   */\n      swap3\n      swap2\n      pop\n      pop\n      jump\t// out\n        /* \"#utility.yul\":16717:17012   */\n    tag_331:\n        /* \"#utility.yul\":16793:16797   */\n      0x00\n        /* \"#utility.yul\":16939:16968   */\n      tag_516\n        /* \"#utility.yul\":16964:16967   */\n      dup4\n        /* \"#utility.yul\":16958:16962   */\n      dup4\n        /* \"#utility.yul\":16939:16968   */\n      tag_330\n      jump\t// in\n    tag_516:\n        /* \"#utility.yul\":16931:16968   */\n      swap2\n      pop\n        /* \"#utility.yul\":17001:17004   */\n      dup3\n        /* \"#utility.yul\":16998:16999   */\n      0x02\n        /* \"#utility.yul\":16994:17005   */\n      mul\n        /* \"#utility.yul\":16988:16992   */\n      dup3\n        /* \"#utility.yul\":16985:17006   */\n      or\n        /* \"#utility.yul\":16977:17006   */\n      swap1\n      pop\n        /* \"#utility.yul\":16717:17012   */\n      swap3\n      swap2\n      pop\n      pop\n      jump\t// out\n        /* \"#utility.yul\":17017:18412   */\n    tag_133:\n        /* \"#utility.yul\":17134:17171   */\n      tag_518\n        /* \"#utility.yul\":17167:17170   */\n      dup3\n        /* \"#utility.yul\":17134:17171   */\n      tag_281\n      jump\t// in\n    tag_518:\n        /* \"#utility.yul\":17236:17254   */\n      0xffffffffffffffff\n        /* \"#utility.yul\":17228:17234   */\n      dup2\n        /* \"#utility.yul\":17225:17255   */\n      gt\n        /* \"#utility.yul\":17222:17278   */\n      iszero\n      tag_519\n      jumpi\n        /* \"#utility.yul\":17258:17276   */\n      tag_520\n      tag_289\n      jump\t// in\n    tag_520:\n        /* \"#utility.yul\":17222:17278   */\n    tag_519:\n        /* \"#utility.yul\":17302:17340   */\n      tag_521\n        /* \"#utility.yul\":17334:17338   */\n      dup3\n        /* \"#utility.yul\":17328:17339   */\n      sload\n        /* \"#utility.yul\":17302:17340   */\n      tag_115\n      jump\t// in\n    tag_521:\n        /* \"#utility.yul\":17387:17454   */\n      tag_522\n        /* \"#utility.yul\":17447:17453   */\n      dup3\n        /* \"#utility.yul\":17439:17445   */\n      dup3\n        /* \"#utility.yul\":17433:17437   */\n      dup6\n        /* \"#utility.yul\":17387:17454   */\n      tag_328\n      jump\t// in\n    tag_522:\n        /* \"#utility.yul\":17481:17482   */\n      0x00\n        /* \"#utility.yul\":17505:17509   */\n      0x20\n        /* \"#utility.yul\":17492:17509   */\n      swap1\n      pop\n        /* \"#utility.yul\":17537:17539   */\n      0x1f\n        /* \"#utility.yul\":17529:17535   */\n      dup4\n        /* \"#utility.yul\":17526:17540   */\n      gt\n        /* \"#utility.yul\":17554:17555   */\n      0x01\n        /* \"#utility.yul\":17549:18167   */\n      dup2\n      eq\n      tag_524\n      jumpi\n        /* \"#utility.yul\":18211:18212   */\n      0x00\n        /* \"#utility.yul\":18228:18234   */\n      dup5\n        /* \"#utility.yul\":18225:18302   */\n      iszero\n      tag_525\n      jumpi\n        /* \"#utility.yul\":18277:18286   */\n      dup3\n        /* \"#utility.yul\":18272:18275   */\n      dup8\n        /* \"#utility.yul\":18268:18287   */\n      add\n        /* \"#utility.yul\":18262:18288   */\n      mload\n        /* \"#utility.yul\":18253:18288   */\n      swap1\n      pop\n        /* \"#utility.yul\":18225:18302   */\n    tag_525:\n        /* \"#utility.yul\":18328:18395   */\n      tag_526\n        /* \"#utility.yul\":18388:18394   */\n      dup6\n        /* \"#utility.yul\":18381:18386   */\n      dup3\n        /* \"#utility.yul\":18328:18395   */\n      tag_331\n      jump\t// in\n    tag_526:\n        /* \"#utility.yul\":18322:18326   */\n      dup7\n        /* \"#utility.yul\":18315:18396   */\n      sstore\n        /* \"#utility.yul\":18184:18406   */\n      pop\n        /* \"#utility.yul\":17519:18406   */\n      jump(tag_523)\n        /* \"#utility.yul\":17549:18167   */\n    tag_524:\n        /* \"#utility.yul\":17601:17605   */\n      0x1f\n        /* \"#utility.yul\":17597:17606   */\n      not\n        /* \"#utility.yul\":17589:17595   */\n      dup5\n        /* \"#utility.yul\":17585:17607   */\n      and\n        /* \"#utility.yul\":17635:17672   */\n      tag_527\n        /* \"#utility.yul\":17667:17671   */\n      dup7\n        /* \"#utility.yul\":17635:17672   */\n      tag_317\n      jump\t// in\n    tag_527:\n        /* \"#utility.yul\":17694:17695   */\n      0x00\n        /* \"#utility.yul\":17708:17916   */\n    tag_528:\n        /* \"#utility.yul\":17722:17729   */\n      dup3\n        /* \"#utility.yul\":17719:17720   */\n      dup2\n        /* \"#utility.yul\":17716:17730   */\n      lt\n        /* \"#utility.yul\":17708:17916   */\n      iszero\n      tag_530\n      jumpi\n        /* \"#utility.yul\":17801:17810   */\n      dup5\n        /* \"#utility.yul\":17796:17799   */\n      dup10\n        /* \"#utility.yul\":17792:17811   */\n      add\n        /* \"#utility.yul\":17786:17812   */\n      mload\n        /* \"#utility.yul\":17778:17784   */\n      dup3\n        /* \"#utility.yul\":17771:17813   */\n      sstore\n        /* \"#utility.yul\":17852:17853   */\n      0x01\n        /* \"#utility.yul\":17844:17850   */\n      dup3\n        /* \"#utility.yul\":17840:17854   */\n      add\n        /* \"#utility.yul\":17830:17854   */\n      swap2\n      pop\n        /* \"#utility.yul\":17899:17901   */\n      0x20\n        /* \"#utility.yul\":17888:17897   */\n      dup6\n        /* \"#utility.yul\":17884:17902   */\n      add\n        /* \"#utility.yul\":17871:17902   */\n      swap5\n      pop\n        /* \"#utility.yul\":17745:17749   */\n      0x20\n        /* \"#utility.yul\":17742:17743   */\n      dup2\n        /* \"#utility.yul\":17738:17750   */\n      add\n        /* \"#utility.yul\":17733:17750   */\n      swap1\n      pop\n        /* \"#utility.yul\":17708:17916   */\n      jump(tag_528)\n    tag_530:\n        /* \"#utility.yul\":17944:17950   */\n      dup7\n        /* \"#utility.yul\":17935:17942   */\n      dup4\n        /* \"#utility.yul\":17932:17951   */\n      lt\n        /* \"#utility.yul\":17929:18108   */\n      iszero\n      tag_531\n      jumpi\n        /* \"#utility.yul\":18002:18011   */\n      dup5\n        /* \"#utility.yul\":17997:18000   */\n      dup10\n        /* \"#utility.yul\":17993:18012   */\n      add\n        /* \"#utility.yul\":17987:18013   */\n      mload\n        /* \"#utility.yul\":18045:18093   */\n      tag_532\n        /* \"#utility.yul\":18087:18091   */\n      0x1f\n        /* \"#utility.yul\":18079:18085   */\n      dup10\n        /* \"#utility.yul\":18075:18092   */\n      and\n        /* \"#utility.yul\":18064:18073   */\n      dup3\n        /* \"#utility.yul\":18045:18093   */\n      tag_330\n      jump\t// in\n    tag_532:\n        /* \"#utility.yul\":18037:18043   */\n      dup4\n        /* \"#utility.yul\":18030:18094   */\n      sstore\n        /* \"#utility.yul\":17952:18108   */\n      pop\n        /* \"#utility.yul\":17929:18108   */\n    tag_531:\n        /* \"#utility.yul\":18154:18155   */\n      0x01\n        /* \"#utility.yul\":18150:18151   */\n      0x02\n        /* \"#utility.yul\":18142:18148   */\n      dup9\n        /* \"#utility.yul\":18138:18152   */\n      mul\n        /* \"#utility.yul\":18134:18156   */\n      add\n        /* \"#utility.yul\":18128:18132   */\n      dup9\n        /* \"#utility.yul\":18121:18157   */\n      sstore\n        /* \"#utility.yul\":17556:18167   */\n      pop\n      pop\n      pop\n        /* \"#utility.yul\":17519:18406   */\n    tag_523:\n      pop\n        /* \"#utility.yul\":17109:18412   */\n      pop\n      pop\n      pop\n        /* \"#utility.yul\":17017:18412   */\n      pop\n      pop\n      jump\t// out\n        /* \"#utility.yul\":18418:18612   */\n    tag_135:\n        /* \"#utility.yul\":18458:18462   */\n      0x00\n        /* \"#utility.yul\":18478:18498   */\n      tag_534\n        /* \"#utility.yul\":18496:18497   */\n      dup3\n        /* \"#utility.yul\":18478:18498   */\n      tag_278\n      jump\t// in\n    tag_534:\n        /* \"#utility.yul\":18473:18498   */\n      swap2\n      pop\n        /* \"#utility.yul\":18512:18532   */\n      tag_535\n        /* \"#utility.yul\":18530:18531   */\n      dup4\n        /* \"#utility.yul\":18512:18532   */\n      tag_278\n      jump\t// in\n    tag_535:\n        /* \"#utility.yul\":18507:18532   */\n      swap3\n      pop\n        /* \"#utility.yul\":18556:18557   */\n      dup3\n        /* \"#utility.yul\":18553:18554   */\n      dup3\n        /* \"#utility.yul\":18549:18558   */\n      sub\n        /* \"#utility.yul\":18541:18558   */\n      swap1\n      pop\n        /* \"#utility.yul\":18580:18581   */\n      dup2\n        /* \"#utility.yul\":18574:18578   */\n      dup2\n        /* \"#utility.yul\":18571:18582   */\n      gt\n        /* \"#utility.yul\":18568:18605   */\n      iszero\n      tag_536\n      jumpi\n        /* \"#utility.yul\":18585:18603   */\n      tag_537\n      tag_315\n      jump\t// in\n    tag_537:\n        /* \"#utility.yul\":18568:18605   */\n    tag_536:\n        /* \"#utility.yul\":18418:18612   */\n      swap3\n      swap2\n      pop\n      pop\n      jump\t// out\n        /* \"#utility.yul\":18618:18793   */\n    tag_332:\n        /* \"#utility.yul\":18758:18785   */\n      0x566f74657220616c726561647920726567697374657265642e00000000000000\n        /* \"#utility.yul\":18754:18755   */\n      0x00\n        /* \"#utility.yul\":18746:18752   */\n      dup3\n        /* \"#utility.yul\":18742:18756   */\n      add\n        /* \"#utility.yul\":18735:18786   */\n      mstore\n        /* \"#utility.yul\":18618:18793   */\n      pop\n      jump\t// out\n        /* \"#utility.yul\":18799:19165   */\n    tag_333:\n        /* \"#utility.yul\":18941:18944   */\n      0x00\n        /* \"#utility.yul\":18962:19029   */\n      tag_540\n        /* \"#utility.yul\":19026:19028   */\n      0x19\n        /* \"#utility.yul\":19021:19024   */\n      dup4\n        /* \"#utility.yul\":18962:19029   */\n      tag_282\n      jump\t// in\n    tag_540:\n        /* \"#utility.yul\":18955:19029   */\n      swap2\n      pop\n        /* \"#utility.yul\":19038:19131   */\n      tag_541\n        /* \"#utility.yul\":19127:19130   */\n      dup3\n        /* \"#utility.yul\":19038:19131   */\n      tag_332\n      jump\t// in\n    tag_541:\n        /* \"#utility.yul\":19156:19158   */\n      0x20\n        /* \"#utility.yul\":19151:19154   */\n      dup3\n        /* \"#utility.yul\":19147:19159   */\n      add\n        /* \"#utility.yul\":19140:19159   */\n      swap1\n      pop\n        /* \"#utility.yul\":18799:19165   */\n      swap2\n      swap1\n      pop\n      jump\t// out\n        /* \"#utility.yul\":19171:19590   */\n    tag_150:\n        /* \"#utility.yul\":19337:19341   */\n      0x00\n        /* \"#utility.yul\":19375:19377   */\n      0x20\n        /* \"#utility.yul\":19364:19373   */\n      dup3\n        /* \"#utility.yul\":19360:19378   */\n      add\n        /* \"#utility.yul\":19352:19378   */\n      swap1\n      pop\n        /* \"#utility.yul\":19424:19433   */\n      dup2\n        /* \"#utility.yul\":19418:19422   */\n      dup2\n        /* \"#utility.yul\":19414:19434   */\n      sub\n        /* \"#utility.yul\":19410:19411   */\n      0x00\n        /* \"#utility.yul\":19399:19408   */\n      dup4\n        /* \"#utility.yul\":19395:19412   */\n      add\n        /* \"#utility.yul\":19388:19435   */\n      mstore\n        /* \"#utility.yul\":19452:19583   */\n      tag_543\n        /* \"#utility.yul\":19578:19582   */\n      dup2\n        /* \"#utility.yul\":19452:19583   */\n      tag_333\n      jump\t// in\n    tag_543:\n        /* \"#utility.yul\":19444:19583   */\n      swap1\n      pop\n        /* \"#utility.yul\":19171:19590   */\n      swap2\n      swap1\n      pop\n      jump\t// out\n        /* \"#utility.yul\":19596:19992   */\n    tag_188:\n        /* \"#utility.yul\":19749:19753   */\n      0x00\n        /* \"#utility.yul\":19787:19789   */\n      0x40\n        /* \"#utility.yul\":19776:19785   */\n      dup3\n        /* \"#utility.yul\":19772:19790   */\n      add\n        /* \"#utility.yul\":19764:19790   */\n      swap1\n      pop\n        /* \"#utility.yul\":19800:19887   */\n      tag_545\n        /* \"#utility.yul\":19884:19885   */\n      0x00\n        /* \"#utility.yul\":19873:19882   */\n      dup4\n        /* \"#utility.yul\":19869:19886   */\n      add\n        /* \"#utility.yul\":19860:19866   */\n      dup6\n        /* \"#utility.yul\":19800:19887   */\n      tag_306\n      jump\t// in\n    tag_545:\n        /* \"#utility.yul\":19897:19985   */\n      tag_546\n        /* \"#utility.yul\":19981:19983   */\n      0x20\n        /* \"#utility.yul\":19970:19979   */\n      dup4\n        /* \"#utility.yul\":19966:19984   */\n      add\n        /* \"#utility.yul\":19957:19963   */\n      dup5\n        /* \"#utility.yul\":19897:19985   */\n      tag_306\n      jump\t// in\n    tag_546:\n        /* \"#utility.yul\":19596:19992   */\n      swap4\n      swap3\n      pop\n      pop\n      pop\n      jump\t// out\n        /* \"#utility.yul\":19998:20173   */\n    tag_334:\n        /* \"#utility.yul\":20138:20165   */\n      0x566f74696e67206973206e6f742079657420636c6f7365642e00000000000000\n        /* \"#utility.yul\":20134:20135   */\n      0x00\n        /* \"#utility.yul\":20126:20132   */\n      dup3\n        /* \"#utility.yul\":20122:20136   */\n      add\n        /* \"#utility.yul\":20115:20166   */\n      mstore\n        /* \"#utility.yul\":19998:20173   */\n      pop\n      jump\t// out\n        /* \"#utility.yul\":20179:20545   */\n    tag_335:\n        /* \"#utility.yul\":20321:20324   */\n      0x00\n        /* \"#utility.yul\":20342:20409   */\n      tag_549\n        /* \"#utility.yul\":20406:20408   */\n      0x19\n        /* \"#utility.yul\":20401:20404   */\n      dup4\n        /* \"#utility.yul\":20342:20409   */\n      tag_282\n      jump\t// in\n    tag_549:\n        /* \"#utility.yul\":20335:20409   */\n      swap2\n      pop\n        /* \"#utility.yul\":20418:20511   */\n      tag_550\n        /* \"#utility.yul\":20507:20510   */\n      dup3\n        /* \"#utility.yul\":20418:20511   */\n      tag_334\n      jump\t// in\n    tag_550:\n        /* \"#utility.yul\":20536:20538   */\n      0x20\n        /* \"#utility.yul\":20531:20534   */\n      dup3\n        /* \"#utility.yul\":20527:20539   */\n      add\n        /* \"#utility.yul\":20520:20539   */\n      swap1\n      pop\n        /* \"#utility.yul\":20179:20545   */\n      swap2\n      swap1\n      pop\n      jump\t// out\n        /* \"#utility.yul\":20551:20970   */\n    tag_219:\n        /* \"#utility.yul\":20717:20721   */\n      0x00\n        /* \"#utility.yul\":20755:20757   */\n      0x20\n        /* \"#utility.yul\":20744:20753   */\n      dup3\n        /* \"#utility.yul\":20740:20758   */\n      add\n        /* \"#utility.yul\":20732:20758   */\n      swap1\n      pop\n        /* \"#utility.yul\":20804:20813   */\n      dup2\n        /* \"#utility.yul\":20798:20802   */\n      dup2\n        /* \"#utility.yul\":20794:20814   */\n      sub\n        /* \"#utility.yul\":20790:20791   */\n      0x00\n        /* \"#utility.yul\":20779:20788   */\n      dup4\n        /* \"#utility.yul\":20775:20792   */\n      add\n        /* \"#utility.yul\":20768:20815   */\n      mstore\n        /* \"#utility.yul\":20832:20963   */\n      tag_552\n        /* \"#utility.yul\":20958:20962   */\n      dup2\n        /* \"#utility.yul\":20832:20963   */\n      tag_335\n      jump\t// in\n    tag_552:\n        /* \"#utility.yul\":20824:20963   */\n      swap1\n      pop\n        /* \"#utility.yul\":20551:20970   */\n      swap2\n      swap1\n      pop\n      jump\t// out\n        /* \"#utility.yul\":20976:21201   */\n    tag_336:\n        /* \"#utility.yul\":21116:21150   */\n      0x4f776e61626c653a206e6577206f776e657220697320746865207a65726f2061\n        /* \"#utility.yul\":21112:21113   */\n      0x00\n        /* \"#utility.yul\":21104:21110   */\n      dup3\n        /* \"#utility.yul\":21100:21114   */\n      add\n        /* \"#utility.yul\":21093:21151   */\n      mstore\n        /* \"#utility.yul\":21185:21193   */\n      0x6464726573730000000000000000000000000000000000000000000000000000\n        /* \"#utility.yul\":21180:21182   */\n      0x20\n        /* \"#utility.yul\":21172:21178   */\n      dup3\n        /* \"#utility.yul\":21168:21183   */\n      add\n        /* \"#utility.yul\":21161:21194   */\n      mstore\n        /* \"#utility.yul\":20976:21201   */\n      pop\n      jump\t// out\n        /* \"#utility.yul\":21207:21573   */\n    tag_337:\n        /* \"#utility.yul\":21349:21352   */\n      0x00\n        /* \"#utility.yul\":21370:21437   */\n      tag_555\n        /* \"#utility.yul\":21434:21436   */\n      0x26\n        /* \"#utility.yul\":21429:21432   */\n      dup4\n        /* \"#utility.yul\":21370:21437   */\n      tag_282\n      jump\t// in\n    tag_555:\n        /* \"#utility.yul\":21363:21437   */\n      swap2\n      pop\n        /* \"#utility.yul\":21446:21539   */\n      tag_556\n        /* \"#utility.yul\":21535:21538   */\n      dup3\n        /* \"#utility.yul\":21446:21539   */\n      tag_336\n      jump\t// in\n    tag_556:\n        /* \"#utility.yul\":21564:21566   */\n      0x40\n        /* \"#utility.yul\":21559:21562   */\n      dup3\n        /* \"#utility.yul\":21555:21567   */\n      add\n        /* \"#utility.yul\":21548:21567   */\n      swap1\n      pop\n        /* \"#utility.yul\":21207:21573   */\n      swap2\n      swap1\n      pop\n      jump\t// out\n        /* \"#utility.yul\":21579:21998   */\n    tag_264:\n        /* \"#utility.yul\":21745:21749   */\n      0x00\n        /* \"#utility.yul\":21783:21785   */\n      0x20\n        /* \"#utility.yul\":21772:21781   */\n      dup3\n        /* \"#utility.yul\":21768:21786   */\n      add\n        /* \"#utility.yul\":21760:21786   */\n      swap1\n      pop\n        /* \"#utility.yul\":21832:21841   */\n      dup2\n        /* \"#utility.yul\":21826:21830   */\n      dup2\n        /* \"#utility.yul\":21822:21842   */\n      sub\n        /* \"#utility.yul\":21818:21819   */\n      0x00\n        /* \"#utility.yul\":21807:21816   */\n      dup4\n        /* \"#utility.yul\":21803:21820   */\n      add\n        /* \"#utility.yul\":21796:21843   */\n      mstore\n        /* \"#utility.yul\":21860:21991   */\n      tag_558\n        /* \"#utility.yul\":21986:21990   */\n      dup2\n        /* \"#utility.yul\":21860:21991   */\n      tag_337\n      jump\t// in\n    tag_558:\n        /* \"#utility.yul\":21852:21991   */\n      swap1\n      pop\n        /* \"#utility.yul\":21579:21998   */\n      swap2\n      swap1\n      pop\n      jump\t// out\n        /* \"#utility.yul\":22004:22186   */\n    tag_338:\n        /* \"#utility.yul\":22144:22178   */\n      0x4f776e61626c653a2063616c6c6572206973206e6f7420746865206f776e6572\n        /* \"#utility.yul\":22140:22141   */\n      0x00\n        /* \"#utility.yul\":22132:22138   */\n      dup3\n        /* \"#utility.yul\":22128:22142   */\n      add\n        /* \"#utility.yul\":22121:22179   */\n      mstore\n        /* \"#utility.yul\":22004:22186   */\n      pop\n      jump\t// out\n        /* \"#utility.yul\":22192:22558   */\n    tag_339:\n        /* \"#utility.yul\":22334:22337   */\n      0x00\n        /* \"#utility.yul\":22355:22422   */\n      tag_561\n        /* \"#utility.yul\":22419:22421   */\n      0x20\n        /* \"#utility.yul\":22414:22417   */\n      dup4\n        /* \"#utility.yul\":22355:22422   */\n      tag_282\n      jump\t// in\n    tag_561:\n        /* \"#utility.yul\":22348:22422   */\n      swap2\n      pop\n        /* \"#utility.yul\":22431:22524   */\n      tag_562\n        /* \"#utility.yul\":22520:22523   */\n      dup3\n        /* \"#utility.yul\":22431:22524   */\n      tag_338\n      jump\t// in\n    tag_562:\n        /* \"#utility.yul\":22549:22551   */\n      0x20\n        /* \"#utility.yul\":22544:22547   */\n      dup3\n        /* \"#utility.yul\":22540:22552   */\n      add\n        /* \"#utility.yul\":22533:22552   */\n      swap1\n      pop\n        /* \"#utility.yul\":22192:22558   */\n      swap2\n      swap1\n      pop\n      jump\t// out\n        /* \"#utility.yul\":22564:22983   */\n    tag_272:\n        /* \"#utility.yul\":22730:22734   */\n      0x00\n        /* \"#utility.yul\":22768:22770   */\n      0x20\n        /* \"#utility.yul\":22757:22766   */\n      dup3\n        /* \"#utility.yul\":22753:22771   */\n      add\n        /* \"#utility.yul\":22745:22771   */\n      swap1\n      pop\n        /* \"#utility.yul\":22817:22826   */\n      dup2\n        /* \"#utility.yul\":22811:22815   */\n      dup2\n        /* \"#utility.yul\":22807:22827   */\n      sub\n        /* \"#utility.yul\":22803:22804   */\n      0x00\n        /* \"#utility.yul\":22792:22801   */\n      dup4\n        /* \"#utility.yul\":22788:22805   */\n      add\n        /* \"#utility.yul\":22781:22828   */\n      mstore\n        /* \"#utility.yul\":22845:22976   */\n      tag_564\n        /* \"#utility.yul\":22971:22975   */\n      dup2\n        /* \"#utility.yul\":22845:22976   */\n      tag_339\n      jump\t// in\n    tag_564:\n        /* \"#utility.yul\":22837:22976   */\n      swap1\n      pop\n        /* \"#utility.yul\":22564:22983   */\n      swap2\n      swap1\n      pop\n      jump\t// out\n\n    auxdata: 0xa2646970667358221220791b0f48bb72fe76ebe6ba07f32b5d3eda5f448e4f35adb1838806852ea2afa764736f6c63430008150033\n}\n",
				"bytecode": {
					"linkReferences": {},
					"object": "60806040523480156200001157600080fd5b5062000032620000266200006560201b60201c565b6200006d60201b60201c565b60008060146101000a81548160ff021916908360058111156200005a576200005962000131565b5b021790555062000160565b600033905090565b60008060009054906101000a900473ffffffffffffffffffffffffffffffffffffffff169050816000806101000a81548173ffffffffffffffffffffffffffffffffffffffff021916908373ffffffffffffffffffffffffffffffffffffffff1602179055508173ffffffffffffffffffffffffffffffffffffffff168173ffffffffffffffffffffffffffffffffffffffff167f8be0079c531659141344cd1fd0a4f28419497f9722a3daafe3b4186f6b6457e060405160405180910390a35050565b7f4e487b7100000000000000000000000000000000000000000000000000000000600052602160045260246000fd5b61218780620001706000396000f3fe608060405234801561001057600080fd5b50600436106101165760003560e01c80638e7ea5b2116100a2578063a7bfab1611610071578063a7bfab1614610297578063c64963c5146102a1578063e09b8c79146102bf578063ee74c678146102c9578063f2fde38b146102d357610116565b80638e7ea5b2146101f8578063902a3fb514610216578063a1edffa214610247578063a3ec138d1461026557610116565b80634de17bca116100e95780634de17bca146101a05780636c297445146101aa578063715018a6146101b4578063750e443a146101be5780638da5cb5b146101da57610116565b80630121b93f1461011b578063013cf08b146101375780632f95355b1461016857806338db6dd314610184575b600080fd5b61013560048036038101906101309190611544565b6102ef565b005b610151600480360381019061014c9190611544565b6105e6565b60405161015f929190611610565b60405180910390f35b610182600480360381019061017d9190611775565b6106a2565b005b61019e6004803603810190610199919061181c565b610857565b005b6101a86109fc565b005b6101b2610b2c565b005b6101bc610c14565b005b6101d860048036038101906101d39190611544565b610c28565b005b6101e2610f3f565b6040516101ef9190611858565b60405180910390f35b610200610f68565b60405161020d9190611873565b60405180910390f35b610230600480360381019061022b9190611544565b610fe7565b60405161023e9291906118a9565b60405180910390f35b61024f611018565b60405161025c9190611949565b60405180910390f35b61027f600480360381019061027a919061181c565b61102b565b60405161028e93929190611964565b60405180910390f35b61029f61106f565b005b6102a9611157565b6040516102b69190611873565b60405180910390f35b6102c761115d565b005b6102d1611245565b005b6102ed60048036038101906102e8919061181c565b61132d565b005b600260003373ffffffffffffffffffffffffffffffffffffffff1673ffffffffffffffffffffffffffffffffffffffff16815260200190815260200160002060000160009054906101000a900460ff1661037e576040517f08c379a0000000000000000000000000000000000000000000000000000000008152600401610375906119e7565b60405180910390fd5b6003806005811115610393576103926118d2565b5b600060149054906101000a900460ff1660058111156103b5576103b46118d2565b5b146103f5576040517f08c379a00000000000000000000000000000000000000000000000000000000081526004016103ec90611a79565b60405180910390fd5b600380549050821061043c576040517f08c379a000000000000000000000000000000000000000000000000000000000815260040161043390611ae5565b60405180910390fd5b600260003373ffffffffffffffffffffffffffffffffffffffff1673ffffffffffffffffffffffffffffffffffffffff16815260200190815260200160002060000160019054906101000a900460ff16156104cc576040517f08c379a00000000000000000000000000000000000000000000000000000000081526004016104c390611b51565b60405180910390fd5b6001600260003373ffffffffffffffffffffffffffffffffffffffff1673ffffffffffffffffffffffffffffffffffffffff16815260200190815260200160002060000160016101000a81548160ff02191690831515021790555081600260003373ffffffffffffffffffffffffffffffffffffffff1673ffffffffffffffffffffffffffffffffffffffff168152602001908152602001600020600101819055506003828154811061058257610581611b71565b5b906000526020600020906002020160010160008154809291906105a490611bcf565b91905055507f4d99b957a2bc29a30ebd96a7be8e68fe50a3c701db28a91436490b7d53870ca433836040516105da929190611c17565b60405180910390a15050565b600381815481106105f657600080fd5b906000526020600020906002020160009150905080600001805461061990611c6f565b80601f016020809104026020016040519081016040528092919081815260200182805461064590611c6f565b80156106925780601f1061066757610100808354040283529160200191610692565b820191906000526020600020905b81548152906001019060200180831161067557829003601f168201915b5050505050908060010154905082565b600260003373ffffffffffffffffffffffffffffffffffffffff1673ffffffffffffffffffffffffffffffffffffffff16815260200190815260200160002060000160009054906101000a900460ff16610731576040517f08c379a0000000000000000000000000000000000000000000000000000000008152600401610728906119e7565b60405180910390fd5b6001806005811115610746576107456118d2565b5b600060149054906101000a900460ff166005811115610768576107676118d2565b5b146107a8576040517f08c379a000000000000000000000000000000000000000000000000000000000815260040161079f90611a79565b60405180910390fd5b600360405180604001604052808481526020016000815250908060018154018082558091505060019003906000526020600020906002020160009091909190915060008201518160000190816107fe9190611e4c565b506020820151816001015550507f92e393e9b54e2f801d3ea4beb0c5e71a21cc34a5d34b77d0fb8a3aa1650dc18f600160038054905061083e9190611f1e565b60405161084b9190611873565b60405180910390a15050565b61085f6113b0565b6000806005811115610874576108736118d2565b5b600060149054906101000a900460ff166005811115610896576108956118d2565b5b146108d6576040517f08c379a00000000000000000000000000000000000000000000000000000000081526004016108cd90611a79565b60405180910390fd5b600260008373ffffffffffffffffffffffffffffffffffffffff1673ffffffffffffffffffffffffffffffffffffffff16815260200190815260200160002060000160009054906101000a900460ff1615610966576040517f08c379a000000000000000000000000000000000000000000000000000000000815260040161095d90611f9e565b60405180910390fd5b6001600260008473ffffffffffffffffffffffffffffffffffffffff1673ffffffffffffffffffffffffffffffffffffffff16815260200190815260200160002060000160006101000a81548160ff0219169083151502179055507fb6be2187d059cc2a55fe29e0e503b566e1e0f8c8780096e185429350acffd3dd826040516109f09190611858565b60405180910390a15050565b610a046113b0565b6004806005811115610a1957610a186118d2565b5b600060149054906101000a900460ff166005811115610a3b57610a3a6118d2565b5b14610a7b576040517f08c379a0000000000000000000000000000000000000000000000000000000008152600401610a7290611a79565b60405180910390fd5b6005600060146101000a81548160ff02191690836005811115610aa157610aa06118d2565b5b02179055506000805b600380549050811015610b27578160038281548110610acc57610acb611b71565b5b9060005260206000209060020201600101541115610b145760038181548110610af857610af7611b71565b5b9060005260206000209060020201600101549150806001819055505b8080610b1f90611bcf565b915050610aaa565b505050565b610b346113b0565b6001806005811115610b4957610b486118d2565b5b600060149054906101000a900460ff166005811115610b6b57610b6a6118d2565b5b14610bab576040517f08c379a0000000000000000000000000000000000000000000000000000000008152600401610ba290611a79565b60405180910390fd5b6002600060146101000a81548160ff02191690836005811115610bd157610bd06118d2565b5b02179055507f0a97a4ee45751e2abf3e4fc8946939630b11b371ea8ae39ccdc3056e98f5cc3f60016002604051610c09929190611fbe565b60405180910390a150565b610c1c6113b0565b610c26600061142e565b565b600260003373ffffffffffffffffffffffffffffffffffffffff1673ffffffffffffffffffffffffffffffffffffffff16815260200190815260200160002060000160009054906101000a900460ff16610cb7576040517f08c379a0000000000000000000000000000000000000000000000000000000008152600401610cae906119e7565b60405180910390fd5b6003806005811115610ccc57610ccb6118d2565b5b600060149054906101000a900460ff166005811115610cee57610ced6118d2565b5b14610d2e576040517f08c379a0000000000000000000000000000000000000000000000000000000008152600401610d2590611a79565b60405180910390fd5b6003805490508210610d75576040517f08c379a0000000000000000000000000000000000000000000000000000000008152600401610d6c90611ae5565b60405180910390fd5b600260003373ffffffffffffffffffffffffffffffffffffffff1673ffffffffffffffffffffffffffffffffffffffff16815260200190815260200160002060000160019054906101000a900460ff1615610e05576040517f08c379a0000000000000000000000000000000000000000000000000000000008152600401610dfc90611b51565b60405180910390fd5b6001600260003373ffffffffffffffffffffffffffffffffffffffff1673ffffffffffffffffffffffffffffffffffffffff16815260200190815260200160002060000160016101000a81548160ff02191690831515021790555081600260003373ffffffffffffffffffffffffffffffffffffffff1673ffffffffffffffffffffffffffffffffffffffff1681526020019081526020016000206001018190555060016004600084815260200190815260200160002060000160006101000a81548160ff021916908315150217905550600460008381526020019081526020016000206001016000815480929190610efd90611bcf565b91905055507f4d99b957a2bc29a30ebd96a7be8e68fe50a3c701db28a91436490b7d53870ca43383604051610f33929190611c17565b60405180910390a15050565b60008060009054906101000a900473ffffffffffffffffffffffffffffffffffffffff16905090565b6000600580811115610f7d57610f7c6118d2565b5b600060149054906101000a900460ff166005811115610f9f57610f9e6118d2565b5b14610fdf576040517f08c379a0000000000000000000000000000000000000000000000000000000008152600401610fd690612033565b60405180910390fd5b600154905090565b60046020528060005260406000206000915090508060000160009054906101000a900460ff16908060010154905082565b600060149054906101000a900460ff1681565b60026020528060005260406000206000915090508060000160009054906101000a900460ff16908060000160019054906101000a900460ff16908060010154905083565b6110776113b0565b600380600581111561108c5761108b6118d2565b5b600060149054906101000a900460ff1660058111156110ae576110ad6118d2565b5b146110ee576040517f08c379a00000000000000000000000000000000000000000000000000000000081526004016110e590611a79565b60405180910390fd5b6004600060146101000a81548160ff02191690836005811115611114576111136118d2565b5b02179055507f0a97a4ee45751e2abf3e4fc8946939630b11b371ea8ae39ccdc3056e98f5cc3f6003600460405161114c929190611fbe565b60405180910390a150565b60015481565b6111656113b0565b600080600581111561117a576111796118d2565b5b600060149054906101000a900460ff16600581111561119c5761119b6118d2565b5b146111dc576040517f08c379a00000000000000000000000000000000000000000000000000000000081526004016111d390611a79565b60405180910390fd5b6001600060146101000a81548160ff02191690836005811115611202576112016118d2565b5b02179055507f0a97a4ee45751e2abf3e4fc8946939630b11b371ea8ae39ccdc3056e98f5cc3f6000600160405161123a929190611fbe565b60405180910390a150565b61124d6113b0565b6002806005811115611262576112616118d2565b5b600060149054906101000a900460ff166005811115611284576112836118d2565b5b146112c4576040517f08c379a00000000000000000000000000000000000000000000000000000000081526004016112bb90611a79565b60405180910390fd5b6003600060146101000a81548160ff021916908360058111156112ea576112e96118d2565b5b02179055507f0a97a4ee45751e2abf3e4fc8946939630b11b371ea8ae39ccdc3056e98f5cc3f60026003604051611322929190611fbe565b60405180910390a150565b6113356113b0565b600073ffffffffffffffffffffffffffffffffffffffff168173ffffffffffffffffffffffffffffffffffffffff16036113a4576040517f08c379a000000000000000000000000000000000000000000000000000000000815260040161139b906120c5565b60405180910390fd5b6113ad8161142e565b50565b6113b86114f2565b73ffffffffffffffffffffffffffffffffffffffff166113d6610f3f565b73ffffffffffffffffffffffffffffffffffffffff161461142c576040517f08c379a000000000000000000000000000000000000000000000000000000000815260040161142390612131565b60405180910390fd5b565b60008060009054906101000a900473ffffffffffffffffffffffffffffffffffffffff169050816000806101000a81548173ffffffffffffffffffffffffffffffffffffffff021916908373ffffffffffffffffffffffffffffffffffffffff1602179055508173ffffffffffffffffffffffffffffffffffffffff168173ffffffffffffffffffffffffffffffffffffffff167f8be0079c531659141344cd1fd0a4f28419497f9722a3daafe3b4186f6b6457e060405160405180910390a35050565b600033905090565b6000604051905090565b600080fd5b600080fd5b6000819050919050565b6115218161150e565b811461152c57600080fd5b50565b60008135905061153e81611518565b92915050565b60006020828403121561155a57611559611504565b5b60006115688482850161152f565b91505092915050565b600081519050919050565b600082825260208201905092915050565b60005b838110156115ab578082015181840152602081019050611590565b60008484015250505050565b6000601f19601f8301169050919050565b60006115d382611571565b6115dd818561157c565b93506115ed81856020860161158d565b6115f6816115b7565b840191505092915050565b61160a8161150e565b82525050565b6000604082019050818103600083015261162a81856115c8565b90506116396020830184611601565b9392505050565b600080fd5b600080fd5b7f4e487b7100000000000000000000000000000000000000000000000000000000600052604160045260246000fd5b611682826115b7565b810181811067ffffffffffffffff821117156116a1576116a061164a565b5b80604052505050565b60006116b46114fa565b90506116c08282611679565b919050565b600067ffffffffffffffff8211156116e0576116df61164a565b5b6116e9826115b7565b9050602081019050919050565b82818337600083830152505050565b6000611718611713846116c5565b6116aa565b90508281526020810184848401111561173457611733611645565b5b61173f8482856116f6565b509392505050565b600082601f83011261175c5761175b611640565b5b813561176c848260208601611705565b91505092915050565b60006020828403121561178b5761178a611504565b5b600082013567ffffffffffffffff8111156117a9576117a8611509565b5b6117b584828501611747565b91505092915050565b600073ffffffffffffffffffffffffffffffffffffffff82169050919050565b60006117e9826117be565b9050919050565b6117f9816117de565b811461180457600080fd5b50565b600081359050611816816117f0565b92915050565b60006020828403121561183257611831611504565b5b600061184084828501611807565b91505092915050565b611852816117de565b82525050565b600060208201905061186d6000830184611849565b92915050565b60006020820190506118886000830184611601565b92915050565b60008115159050919050565b6118a38161188e565b82525050565b60006040820190506118be600083018561189a565b6118cb6020830184611601565b9392505050565b7f4e487b7100000000000000000000000000000000000000000000000000000000600052602160045260246000fd5b60068110611912576119116118d2565b5b50565b600081905061192382611901565b919050565b600061193382611915565b9050919050565b61194381611928565b82525050565b600060208201905061195e600083018461193a565b92915050565b6000606082019050611979600083018661189a565b611986602083018561189a565b6119936040830184611601565b949350505050565b7f596f7520617265206e6f742061207265676973746572656420766f7465722e00600082015250565b60006119d1601f8361157c565b91506119dc8261199b565b602082019050919050565b60006020820190508181036000830152611a00816119c4565b9050919050565b7f416374696f6e206e6f7420616c6c6f776564206174207468697320737461676560008201527f2e00000000000000000000000000000000000000000000000000000000000000602082015250565b6000611a6360218361157c565b9150611a6e82611a07565b604082019050919050565b60006020820190508181036000830152611a9281611a56565b9050919050565b7f496e76616c69642070726f706f73616c2049442e000000000000000000000000600082015250565b6000611acf60148361157c565b9150611ada82611a99565b602082019050919050565b60006020820190508181036000830152611afe81611ac2565b9050919050565b7f596f75206861766520616c726561647920766f7465642e000000000000000000600082015250565b6000611b3b60178361157c565b9150611b4682611b05565b602082019050919050565b60006020820190508181036000830152611b6a81611b2e565b9050919050565b7f4e487b7100000000000000000000000000000000000000000000000000000000600052603260045260246000fd5b7f4e487b7100000000000000000000000000000000000000000000000000000000600052601160045260246000fd5b6000611bda8261150e565b91507fffffffffffffffffffffffffffffffffffffffffffffffffffffffffffffffff8203611c0c57611c0b611ba0565b5b600182019050919050565b6000604082019050611c2c6000830185611849565b611c396020830184611601565b9392505050565b7f4e487b7100000000000000000000000000000000000000000000000000000000600052602260045260246000fd5b60006002820490506001821680611c8757607f821691505b602082108103611c9a57611c99611c40565b5b50919050565b60008190508160005260206000209050919050565b60006020601f8301049050919050565b600082821b905092915050565b600060088302611d027fffffffffffffffffffffffffffffffffffffffffffffffffffffffffffffffff82611cc5565b611d0c8683611cc5565b95508019841693508086168417925050509392505050565b6000819050919050565b6000611d49611d44611d3f8461150e565b611d24565b61150e565b9050919050565b6000819050919050565b611d6383611d2e565b611d77611d6f82611d50565b848454611cd2565b825550505050565b600090565b611d8c611d7f565b611d97818484611d5a565b505050565b5b81811015611dbb57611db0600082611d84565b600181019050611d9d565b5050565b601f821115611e0057611dd181611ca0565b611dda84611cb5565b81016020851015611de9578190505b611dfd611df585611cb5565b830182611d9c565b50505b505050565b600082821c905092915050565b6000611e2360001984600802611e05565b1980831691505092915050565b6000611e3c8383611e12565b9150826002028217905092915050565b611e5582611571565b67ffffffffffffffff811115611e6e57611e6d61164a565b5b611e788254611c6f565b611e83828285611dbf565b600060209050601f831160018114611eb65760008415611ea4578287015190505b611eae8582611e30565b865550611f16565b601f198416611ec486611ca0565b60005b82811015611eec57848901518255600182019150602085019450602081019050611ec7565b86831015611f095784890151611f05601f891682611e12565b8355505b6001600288020188555050505b505050505050565b6000611f298261150e565b9150611f348361150e565b9250828203905081811115611f4c57611f4b611ba0565b5b92915050565b7f566f74657220616c726561647920726567697374657265642e00000000000000600082015250565b6000611f8860198361157c565b9150611f9382611f52565b602082019050919050565b60006020820190508181036000830152611fb781611f7b565b9050919050565b6000604082019050611fd3600083018561193a565b611fe0602083018461193a565b9392505050565b7f566f74696e67206973206e6f742079657420636c6f7365642e00000000000000600082015250565b600061201d60198361157c565b915061202882611fe7565b602082019050919050565b6000602082019050818103600083015261204c81612010565b9050919050565b7f4f776e61626c653a206e6577206f776e657220697320746865207a65726f206160008201527f6464726573730000000000000000000000000000000000000000000000000000602082015250565b60006120af60268361157c565b91506120ba82612053565b604082019050919050565b600060208201905081810360008301526120de816120a2565b9050919050565b7f4f776e61626c653a2063616c6c6572206973206e6f7420746865206f776e6572600082015250565b600061211b60208361157c565b9150612126826120e5565b602082019050919050565b6000602082019050818103600083015261214a8161210e565b905091905056fea2646970667358221220791b0f48bb72fe76ebe6ba07f32b5d3eda5f448e4f35adb1838806852ea2afa764736f6c63430008150033",
					"opcodes": "PUSH1 0x80 PUSH1 0x40 MSTORE CALLVALUE DUP1 ISZERO PUSH3 0x11 JUMPI PUSH1 0x0 DUP1 REVERT JUMPDEST POP PUSH3 0x32 PUSH3 0x26 PUSH3 0x65 PUSH1 0x20 SHL PUSH1 0x20 SHR JUMP JUMPDEST PUSH3 0x6D PUSH1 0x20 SHL PUSH1 0x20 SHR JUMP JUMPDEST PUSH1 0x0 DUP1 PUSH1 0x14 PUSH2 0x100 EXP DUP2 SLOAD DUP2 PUSH1 0xFF MUL NOT AND SWAP1 DUP4 PUSH1 0x5 DUP2 GT ISZERO PUSH3 0x5A JUMPI PUSH3 0x59 PUSH3 0x131 JUMP JUMPDEST JUMPDEST MUL OR SWAP1 SSTORE POP PUSH3 0x160 JUMP JUMPDEST PUSH1 0x0 CALLER SWAP1 POP SWAP1 JUMP JUMPDEST PUSH1 0x0 DUP1 PUSH1 0x0 SWAP1 SLOAD SWAP1 PUSH2 0x100 EXP SWAP1 DIV PUSH20 0xFFFFFFFFFFFFFFFFFFFFFFFFFFFFFFFFFFFFFFFF AND SWAP1 POP DUP2 PUSH1 0x0 DUP1 PUSH2 0x100 EXP DUP2 SLOAD DUP2 PUSH20 0xFFFFFFFFFFFFFFFFFFFFFFFFFFFFFFFFFFFFFFFF MUL NOT AND SWAP1 DUP4 PUSH20 0xFFFFFFFFFFFFFFFFFFFFFFFFFFFFFFFFFFFFFFFF AND MUL OR SWAP1 SSTORE POP DUP2 PUSH20 0xFFFFFFFFFFFFFFFFFFFFFFFFFFFFFFFFFFFFFFFF AND DUP2 PUSH20 0xFFFFFFFFFFFFFFFFFFFFFFFFFFFFFFFFFFFFFFFF AND PUSH32 0x8BE0079C531659141344CD1FD0A4F28419497F9722A3DAAFE3B4186F6B6457E0 PUSH1 0x40 MLOAD PUSH1 0x40 MLOAD DUP1 SWAP2 SUB SWAP1 LOG3 POP POP JUMP JUMPDEST PUSH32 0x4E487B7100000000000000000000000000000000000000000000000000000000 PUSH1 0x0 MSTORE PUSH1 0x21 PUSH1 0x4 MSTORE PUSH1 0x24 PUSH1 0x0 REVERT JUMPDEST PUSH2 0x2187 DUP1 PUSH3 0x170 PUSH1 0x0 CODECOPY PUSH1 0x0 RETURN INVALID PUSH1 0x80 PUSH1 0x40 MSTORE CALLVALUE DUP1 ISZERO PUSH2 0x10 JUMPI PUSH1 0x0 DUP1 REVERT JUMPDEST POP PUSH1 0x4 CALLDATASIZE LT PUSH2 0x116 JUMPI PUSH1 0x0 CALLDATALOAD PUSH1 0xE0 SHR DUP1 PUSH4 0x8E7EA5B2 GT PUSH2 0xA2 JUMPI DUP1 PUSH4 0xA7BFAB16 GT PUSH2 0x71 JUMPI DUP1 PUSH4 0xA7BFAB16 EQ PUSH2 0x297 JUMPI DUP1 PUSH4 0xC64963C5 EQ PUSH2 0x2A1 JUMPI DUP1 PUSH4 0xE09B8C79 EQ PUSH2 0x2BF JUMPI DUP1 PUSH4 0xEE74C678 EQ PUSH2 0x2C9 JUMPI DUP1 PUSH4 0xF2FDE38B EQ PUSH2 0x2D3 JUMPI PUSH2 0x116 JUMP JUMPDEST DUP1 PUSH4 0x8E7EA5B2 EQ PUSH2 0x1F8 JUMPI DUP1 PUSH4 0x902A3FB5 EQ PUSH2 0x216 JUMPI DUP1 PUSH4 0xA1EDFFA2 EQ PUSH2 0x247 JUMPI DUP1 PUSH4 0xA3EC138D EQ PUSH2 0x265 JUMPI PUSH2 0x116 JUMP JUMPDEST DUP1 PUSH4 0x4DE17BCA GT PUSH2 0xE9 JUMPI DUP1 PUSH4 0x4DE17BCA EQ PUSH2 0x1A0 JUMPI DUP1 PUSH4 0x6C297445 EQ PUSH2 0x1AA JUMPI DUP1 PUSH4 0x715018A6 EQ PUSH2 0x1B4 JUMPI DUP1 PUSH4 0x750E443A EQ PUSH2 0x1BE JUMPI DUP1 PUSH4 0x8DA5CB5B EQ PUSH2 0x1DA JUMPI PUSH2 0x116 JUMP JUMPDEST DUP1 PUSH4 0x121B93F EQ PUSH2 0x11B JUMPI DUP1 PUSH4 0x13CF08B EQ PUSH2 0x137 JUMPI DUP1 PUSH4 0x2F95355B EQ PUSH2 0x168 JUMPI DUP1 PUSH4 0x38DB6DD3 EQ PUSH2 0x184 JUMPI JUMPDEST PUSH1 0x0 DUP1 REVERT JUMPDEST PUSH2 0x135 PUSH1 0x4 DUP1 CALLDATASIZE SUB DUP2 ADD SWAP1 PUSH2 0x130 SWAP2 SWAP1 PUSH2 0x1544 JUMP JUMPDEST PUSH2 0x2EF JUMP JUMPDEST STOP JUMPDEST PUSH2 0x151 PUSH1 0x4 DUP1 CALLDATASIZE SUB DUP2 ADD SWAP1 PUSH2 0x14C SWAP2 SWAP1 PUSH2 0x1544 JUMP JUMPDEST PUSH2 0x5E6 JUMP JUMPDEST PUSH1 0x40 MLOAD PUSH2 0x15F SWAP3 SWAP2 SWAP1 PUSH2 0x1610 JUMP JUMPDEST PUSH1 0x40 MLOAD DUP1 SWAP2 SUB SWAP1 RETURN JUMPDEST PUSH2 0x182 PUSH1 0x4 DUP1 CALLDATASIZE SUB DUP2 ADD SWAP1 PUSH2 0x17D SWAP2 SWAP1 PUSH2 0x1775 JUMP JUMPDEST PUSH2 0x6A2 JUMP JUMPDEST STOP JUMPDEST PUSH2 0x19E PUSH1 0x4 DUP1 CALLDATASIZE SUB DUP2 ADD SWAP1 PUSH2 0x199 SWAP2 SWAP1 PUSH2 0x181C JUMP JUMPDEST PUSH2 0x857 JUMP JUMPDEST STOP JUMPDEST PUSH2 0x1A8 PUSH2 0x9FC JUMP JUMPDEST STOP JUMPDEST PUSH2 0x1B2 PUSH2 0xB2C JUMP JUMPDEST STOP JUMPDEST PUSH2 0x1BC PUSH2 0xC14 JUMP JUMPDEST STOP JUMPDEST PUSH2 0x1D8 PUSH1 0x4 DUP1 CALLDATASIZE SUB DUP2 ADD SWAP1 PUSH2 0x1D3 SWAP2 SWAP1 PUSH2 0x1544 JUMP JUMPDEST PUSH2 0xC28 JUMP JUMPDEST STOP JUMPDEST PUSH2 0x1E2 PUSH2 0xF3F JUMP JUMPDEST PUSH1 0x40 MLOAD PUSH2 0x1EF SWAP2 SWAP1 PUSH2 0x1858 JUMP JUMPDEST PUSH1 0x40 MLOAD DUP1 SWAP2 SUB SWAP1 RETURN JUMPDEST PUSH2 0x200 PUSH2 0xF68 JUMP JUMPDEST PUSH1 0x40 MLOAD PUSH2 0x20D SWAP2 SWAP1 PUSH2 0x1873 JUMP JUMPDEST PUSH1 0x40 MLOAD DUP1 SWAP2 SUB SWAP1 RETURN JUMPDEST PUSH2 0x230 PUSH1 0x4 DUP1 CALLDATASIZE SUB DUP2 ADD SWAP1 PUSH2 0x22B SWAP2 SWAP1 PUSH2 0x1544 JUMP JUMPDEST PUSH2 0xFE7 JUMP JUMPDEST PUSH1 0x40 MLOAD PUSH2 0x23E SWAP3 SWAP2 SWAP1 PUSH2 0x18A9 JUMP JUMPDEST PUSH1 0x40 MLOAD DUP1 SWAP2 SUB SWAP1 RETURN JUMPDEST PUSH2 0x24F PUSH2 0x1018 JUMP JUMPDEST PUSH1 0x40 MLOAD PUSH2 0x25C SWAP2 SWAP1 PUSH2 0x1949 JUMP JUMPDEST PUSH1 0x40 MLOAD DUP1 SWAP2 SUB SWAP1 RETURN JUMPDEST PUSH2 0x27F PUSH1 0x4 DUP1 CALLDATASIZE SUB DUP2 ADD SWAP1 PUSH2 0x27A SWAP2 SWAP1 PUSH2 0x181C JUMP JUMPDEST PUSH2 0x102B JUMP JUMPDEST PUSH1 0x40 MLOAD PUSH2 0x28E SWAP4 SWAP3 SWAP2 SWAP1 PUSH2 0x1964 JUMP JUMPDEST PUSH1 0x40 MLOAD DUP1 SWAP2 SUB SWAP1 RETURN JUMPDEST PUSH2 0x29F PUSH2 0x106F JUMP JUMPDEST STOP JUMPDEST PUSH2 0x2A9 PUSH2 0x1157 JUMP JUMPDEST PUSH1 0x40 MLOAD PUSH2 0x2B6 SWAP2 SWAP1 PUSH2 0x1873 JUMP JUMPDEST PUSH1 0x40 MLOAD DUP1 SWAP2 SUB SWAP1 RETURN JUMPDEST PUSH2 0x2C7 PUSH2 0x115D JUMP JUMPDEST STOP JUMPDEST PUSH2 0x2D1 PUSH2 0x1245 JUMP JUMPDEST STOP JUMPDEST PUSH2 0x2ED PUSH1 0x4 DUP1 CALLDATASIZE SUB DUP2 ADD SWAP1 PUSH2 0x2E8 SWAP2 SWAP1 PUSH2 0x181C JUMP JUMPDEST PUSH2 0x132D JUMP JUMPDEST STOP JUMPDEST PUSH1 0x2 PUSH1 0x0 CALLER PUSH20 0xFFFFFFFFFFFFFFFFFFFFFFFFFFFFFFFFFFFFFFFF AND PUSH20 0xFFFFFFFFFFFFFFFFFFFFFFFFFFFFFFFFFFFFFFFF AND DUP2 MSTORE PUSH1 0x20 ADD SWAP1 DUP2 MSTORE PUSH1 0x20 ADD PUSH1 0x0 KECCAK256 PUSH1 0x0 ADD PUSH1 0x0 SWAP1 SLOAD SWAP1 PUSH2 0x100 EXP SWAP1 DIV PUSH1 0xFF AND PUSH2 0x37E JUMPI PUSH1 0x40 MLOAD PUSH32 0x8C379A000000000000000000000000000000000000000000000000000000000 DUP2 MSTORE PUSH1 0x4 ADD PUSH2 0x375 SWAP1 PUSH2 0x19E7 JUMP JUMPDEST PUSH1 0x40 MLOAD DUP1 SWAP2 SUB SWAP1 REVERT JUMPDEST PUSH1 0x3 DUP1 PUSH1 0x5 DUP2 GT ISZERO PUSH2 0x393 JUMPI PUSH2 0x392 PUSH2 0x18D2 JUMP JUMPDEST JUMPDEST PUSH1 0x0 PUSH1 0x14 SWAP1 SLOAD SWAP1 PUSH2 0x100 EXP SWAP1 DIV PUSH1 0xFF AND PUSH1 0x5 DUP2 GT ISZERO PUSH2 0x3B5 JUMPI PUSH2 0x3B4 PUSH2 0x18D2 JUMP JUMPDEST JUMPDEST EQ PUSH2 0x3F5 JUMPI PUSH1 0x40 MLOAD PUSH32 0x8C379A000000000000000000000000000000000000000000000000000000000 DUP2 MSTORE PUSH1 0x4 ADD PUSH2 0x3EC SWAP1 PUSH2 0x1A79 JUMP JUMPDEST PUSH1 0x40 MLOAD DUP1 SWAP2 SUB SWAP1 REVERT JUMPDEST PUSH1 0x3 DUP1 SLOAD SWAP1 POP DUP3 LT PUSH2 0x43C JUMPI PUSH1 0x40 MLOAD PUSH32 0x8C379A000000000000000000000000000000000000000000000000000000000 DUP2 MSTORE PUSH1 0x4 ADD PUSH2 0x433 SWAP1 PUSH2 0x1AE5 JUMP JUMPDEST PUSH1 0x40 MLOAD DUP1 SWAP2 SUB SWAP1 REVERT JUMPDEST PUSH1 0x2 PUSH1 0x0 CALLER PUSH20 0xFFFFFFFFFFFFFFFFFFFFFFFFFFFFFFFFFFFFFFFF AND PUSH20 0xFFFFFFFFFFFFFFFFFFFFFFFFFFFFFFFFFFFFFFFF AND DUP2 MSTORE PUSH1 0x20 ADD SWAP1 DUP2 MSTORE PUSH1 0x20 ADD PUSH1 0x0 KECCAK256 PUSH1 0x0 ADD PUSH1 0x1 SWAP1 SLOAD SWAP1 PUSH2 0x100 EXP SWAP1 DIV PUSH1 0xFF AND ISZERO PUSH2 0x4CC JUMPI PUSH1 0x40 MLOAD PUSH32 0x8C379A000000000000000000000000000000000000000000000000000000000 DUP2 MSTORE PUSH1 0x4 ADD PUSH2 0x4C3 SWAP1 PUSH2 0x1B51 JUMP JUMPDEST PUSH1 0x40 MLOAD DUP1 SWAP2 SUB SWAP1 REVERT JUMPDEST PUSH1 0x1 PUSH1 0x2 PUSH1 0x0 CALLER PUSH20 0xFFFFFFFFFFFFFFFFFFFFFFFFFFFFFFFFFFFFFFFF AND PUSH20 0xFFFFFFFFFFFFFFFFFFFFFFFFFFFFFFFFFFFFFFFF AND DUP2 MSTORE PUSH1 0x20 ADD SWAP1 DUP2 MSTORE PUSH1 0x20 ADD PUSH1 0x0 KECCAK256 PUSH1 0x0 ADD PUSH1 0x1 PUSH2 0x100 EXP DUP2 SLOAD DUP2 PUSH1 0xFF MUL NOT AND SWAP1 DUP4 ISZERO ISZERO MUL OR SWAP1 SSTORE POP DUP2 PUSH1 0x2 PUSH1 0x0 CALLER PUSH20 0xFFFFFFFFFFFFFFFFFFFFFFFFFFFFFFFFFFFFFFFF AND PUSH20 0xFFFFFFFFFFFFFFFFFFFFFFFFFFFFFFFFFFFFFFFF AND DUP2 MSTORE PUSH1 0x20 ADD SWAP1 DUP2 MSTORE PUSH1 0x20 ADD PUSH1 0x0 KECCAK256 PUSH1 0x1 ADD DUP2 SWAP1 SSTORE POP PUSH1 0x3 DUP3 DUP2 SLOAD DUP2 LT PUSH2 0x582 JUMPI PUSH2 0x581 PUSH2 0x1B71 JUMP JUMPDEST JUMPDEST SWAP1 PUSH1 0x0 MSTORE PUSH1 0x20 PUSH1 0x0 KECCAK256 SWAP1 PUSH1 0x2 MUL ADD PUSH1 0x1 ADD PUSH1 0x0 DUP2 SLOAD DUP1 SWAP3 SWAP2 SWAP1 PUSH2 0x5A4 SWAP1 PUSH2 0x1BCF JUMP JUMPDEST SWAP2 SWAP1 POP SSTORE POP PUSH32 0x4D99B957A2BC29A30EBD96A7BE8E68FE50A3C701DB28A91436490B7D53870CA4 CALLER DUP4 PUSH1 0x40 MLOAD PUSH2 0x5DA SWAP3 SWAP2 SWAP1 PUSH2 0x1C17 JUMP JUMPDEST PUSH1 0x40 MLOAD DUP1 SWAP2 SUB SWAP1 LOG1 POP POP JUMP JUMPDEST PUSH1 0x3 DUP2 DUP2 SLOAD DUP2 LT PUSH2 0x5F6 JUMPI PUSH1 0x0 DUP1 REVERT JUMPDEST SWAP1 PUSH1 0x0 MSTORE PUSH1 0x20 PUSH1 0x0 KECCAK256 SWAP1 PUSH1 0x2 MUL ADD PUSH1 0x0 SWAP2 POP SWAP1 POP DUP1 PUSH1 0x0 ADD DUP1 SLOAD PUSH2 0x619 SWAP1 PUSH2 0x1C6F JUMP JUMPDEST DUP1 PUSH1 0x1F ADD PUSH1 0x20 DUP1 SWAP2 DIV MUL PUSH1 0x20 ADD PUSH1 0x40 MLOAD SWAP1 DUP2 ADD PUSH1 0x40 MSTORE DUP1 SWAP3 SWAP2 SWAP1 DUP2 DUP2 MSTORE PUSH1 0x20 ADD DUP3 DUP1 SLOAD PUSH2 0x645 SWAP1 PUSH2 0x1C6F JUMP JUMPDEST DUP1 ISZERO PUSH2 0x692 JUMPI DUP1 PUSH1 0x1F LT PUSH2 0x667 JUMPI PUSH2 0x100 DUP1 DUP4 SLOAD DIV MUL DUP4 MSTORE SWAP2 PUSH1 0x20 ADD SWAP2 PUSH2 0x692 JUMP JUMPDEST DUP3 ADD SWAP2 SWAP1 PUSH1 0x0 MSTORE PUSH1 0x20 PUSH1 0x0 KECCAK256 SWAP1 JUMPDEST DUP2 SLOAD DUP2 MSTORE SWAP1 PUSH1 0x1 ADD SWAP1 PUSH1 0x20 ADD DUP1 DUP4 GT PUSH2 0x675 JUMPI DUP3 SWAP1 SUB PUSH1 0x1F AND DUP3 ADD SWAP2 JUMPDEST POP POP POP POP POP SWAP1 DUP1 PUSH1 0x1 ADD SLOAD SWAP1 POP DUP3 JUMP JUMPDEST PUSH1 0x2 PUSH1 0x0 CALLER PUSH20 0xFFFFFFFFFFFFFFFFFFFFFFFFFFFFFFFFFFFFFFFF AND PUSH20 0xFFFFFFFFFFFFFFFFFFFFFFFFFFFFFFFFFFFFFFFF AND DUP2 MSTORE PUSH1 0x20 ADD SWAP1 DUP2 MSTORE PUSH1 0x20 ADD PUSH1 0x0 KECCAK256 PUSH1 0x0 ADD PUSH1 0x0 SWAP1 SLOAD SWAP1 PUSH2 0x100 EXP SWAP1 DIV PUSH1 0xFF AND PUSH2 0x731 JUMPI PUSH1 0x40 MLOAD PUSH32 0x8C379A000000000000000000000000000000000000000000000000000000000 DUP2 MSTORE PUSH1 0x4 ADD PUSH2 0x728 SWAP1 PUSH2 0x19E7 JUMP JUMPDEST PUSH1 0x40 MLOAD DUP1 SWAP2 SUB SWAP1 REVERT JUMPDEST PUSH1 0x1 DUP1 PUSH1 0x5 DUP2 GT ISZERO PUSH2 0x746 JUMPI PUSH2 0x745 PUSH2 0x18D2 JUMP JUMPDEST JUMPDEST PUSH1 0x0 PUSH1 0x14 SWAP1 SLOAD SWAP1 PUSH2 0x100 EXP SWAP1 DIV PUSH1 0xFF AND PUSH1 0x5 DUP2 GT ISZERO PUSH2 0x768 JUMPI PUSH2 0x767 PUSH2 0x18D2 JUMP JUMPDEST JUMPDEST EQ PUSH2 0x7A8 JUMPI PUSH1 0x40 MLOAD PUSH32 0x8C379A000000000000000000000000000000000000000000000000000000000 DUP2 MSTORE PUSH1 0x4 ADD PUSH2 0x79F SWAP1 PUSH2 0x1A79 JUMP JUMPDEST PUSH1 0x40 MLOAD DUP1 SWAP2 SUB SWAP1 REVERT JUMPDEST PUSH1 0x3 PUSH1 0x40 MLOAD DUP1 PUSH1 0x40 ADD PUSH1 0x40 MSTORE DUP1 DUP5 DUP2 MSTORE PUSH1 0x20 ADD PUSH1 0x0 DUP2 MSTORE POP SWAP1 DUP1 PUSH1 0x1 DUP2 SLOAD ADD DUP1 DUP3 SSTORE DUP1 SWAP2 POP POP PUSH1 0x1 SWAP1 SUB SWAP1 PUSH1 0x0 MSTORE PUSH1 0x20 PUSH1 0x0 KECCAK256 SWAP1 PUSH1 0x2 MUL ADD PUSH1 0x0 SWAP1 SWAP2 SWAP1 SWAP2 SWAP1 SWAP2 POP PUSH1 0x0 DUP3 ADD MLOAD DUP2 PUSH1 0x0 ADD SWAP1 DUP2 PUSH2 0x7FE SWAP2 SWAP1 PUSH2 0x1E4C JUMP JUMPDEST POP PUSH1 0x20 DUP3 ADD MLOAD DUP2 PUSH1 0x1 ADD SSTORE POP POP PUSH32 0x92E393E9B54E2F801D3EA4BEB0C5E71A21CC34A5D34B77D0FB8A3AA1650DC18F PUSH1 0x1 PUSH1 0x3 DUP1 SLOAD SWAP1 POP PUSH2 0x83E SWAP2 SWAP1 PUSH2 0x1F1E JUMP JUMPDEST PUSH1 0x40 MLOAD PUSH2 0x84B SWAP2 SWAP1 PUSH2 0x1873 JUMP JUMPDEST PUSH1 0x40 MLOAD DUP1 SWAP2 SUB SWAP1 LOG1 POP POP JUMP JUMPDEST PUSH2 0x85F PUSH2 0x13B0 JUMP JUMPDEST PUSH1 0x0 DUP1 PUSH1 0x5 DUP2 GT ISZERO PUSH2 0x874 JUMPI PUSH2 0x873 PUSH2 0x18D2 JUMP JUMPDEST JUMPDEST PUSH1 0x0 PUSH1 0x14 SWAP1 SLOAD SWAP1 PUSH2 0x100 EXP SWAP1 DIV PUSH1 0xFF AND PUSH1 0x5 DUP2 GT ISZERO PUSH2 0x896 JUMPI PUSH2 0x895 PUSH2 0x18D2 JUMP JUMPDEST JUMPDEST EQ PUSH2 0x8D6 JUMPI PUSH1 0x40 MLOAD PUSH32 0x8C379A000000000000000000000000000000000000000000000000000000000 DUP2 MSTORE PUSH1 0x4 ADD PUSH2 0x8CD SWAP1 PUSH2 0x1A79 JUMP JUMPDEST PUSH1 0x40 MLOAD DUP1 SWAP2 SUB SWAP1 REVERT JUMPDEST PUSH1 0x2 PUSH1 0x0 DUP4 PUSH20 0xFFFFFFFFFFFFFFFFFFFFFFFFFFFFFFFFFFFFFFFF AND PUSH20 0xFFFFFFFFFFFFFFFFFFFFFFFFFFFFFFFFFFFFFFFF AND DUP2 MSTORE PUSH1 0x20 ADD SWAP1 DUP2 MSTORE PUSH1 0x20 ADD PUSH1 0x0 KECCAK256 PUSH1 0x0 ADD PUSH1 0x0 SWAP1 SLOAD SWAP1 PUSH2 0x100 EXP SWAP1 DIV PUSH1 0xFF AND ISZERO PUSH2 0x966 JUMPI PUSH1 0x40 MLOAD PUSH32 0x8C379A000000000000000000000000000000000000000000000000000000000 DUP2 MSTORE PUSH1 0x4 ADD PUSH2 0x95D SWAP1 PUSH2 0x1F9E JUMP JUMPDEST PUSH1 0x40 MLOAD DUP1 SWAP2 SUB SWAP1 REVERT JUMPDEST PUSH1 0x1 PUSH1 0x2 PUSH1 0x0 DUP5 PUSH20 0xFFFFFFFFFFFFFFFFFFFFFFFFFFFFFFFFFFFFFFFF AND PUSH20 0xFFFFFFFFFFFFFFFFFFFFFFFFFFFFFFFFFFFFFFFF AND DUP2 MSTORE PUSH1 0x20 ADD SWAP1 DUP2 MSTORE PUSH1 0x20 ADD PUSH1 0x0 KECCAK256 PUSH1 0x0 ADD PUSH1 0x0 PUSH2 0x100 EXP DUP2 SLOAD DUP2 PUSH1 0xFF MUL NOT AND SWAP1 DUP4 ISZERO ISZERO MUL OR SWAP1 SSTORE POP PUSH32 0xB6BE2187D059CC2A55FE29E0E503B566E1E0F8C8780096E185429350ACFFD3DD DUP3 PUSH1 0x40 MLOAD PUSH2 0x9F0 SWAP2 SWAP1 PUSH2 0x1858 JUMP JUMPDEST PUSH1 0x40 MLOAD DUP1 SWAP2 SUB SWAP1 LOG1 POP POP JUMP JUMPDEST PUSH2 0xA04 PUSH2 0x13B0 JUMP JUMPDEST PUSH1 0x4 DUP1 PUSH1 0x5 DUP2 GT ISZERO PUSH2 0xA19 JUMPI PUSH2 0xA18 PUSH2 0x18D2 JUMP JUMPDEST JUMPDEST PUSH1 0x0 PUSH1 0x14 SWAP1 SLOAD SWAP1 PUSH2 0x100 EXP SWAP1 DIV PUSH1 0xFF AND PUSH1 0x5 DUP2 GT ISZERO PUSH2 0xA3B JUMPI PUSH2 0xA3A PUSH2 0x18D2 JUMP JUMPDEST JUMPDEST EQ PUSH2 0xA7B JUMPI PUSH1 0x40 MLOAD PUSH32 0x8C379A000000000000000000000000000000000000000000000000000000000 DUP2 MSTORE PUSH1 0x4 ADD PUSH2 0xA72 SWAP1 PUSH2 0x1A79 JUMP JUMPDEST PUSH1 0x40 MLOAD DUP1 SWAP2 SUB SWAP1 REVERT JUMPDEST PUSH1 0x5 PUSH1 0x0 PUSH1 0x14 PUSH2 0x100 EXP DUP2 SLOAD DUP2 PUSH1 0xFF MUL NOT AND SWAP1 DUP4 PUSH1 0x5 DUP2 GT ISZERO PUSH2 0xAA1 JUMPI PUSH2 0xAA0 PUSH2 0x18D2 JUMP JUMPDEST JUMPDEST MUL OR SWAP1 SSTORE POP PUSH1 0x0 DUP1 JUMPDEST PUSH1 0x3 DUP1 SLOAD SWAP1 POP DUP2 LT ISZERO PUSH2 0xB27 JUMPI DUP2 PUSH1 0x3 DUP3 DUP2 SLOAD DUP2 LT PUSH2 0xACC JUMPI PUSH2 0xACB PUSH2 0x1B71 JUMP JUMPDEST JUMPDEST SWAP1 PUSH1 0x0 MSTORE PUSH1 0x20 PUSH1 0x0 KECCAK256 SWAP1 PUSH1 0x2 MUL ADD PUSH1 0x1 ADD SLOAD GT ISZERO PUSH2 0xB14 JUMPI PUSH1 0x3 DUP2 DUP2 SLOAD DUP2 LT PUSH2 0xAF8 JUMPI PUSH2 0xAF7 PUSH2 0x1B71 JUMP JUMPDEST JUMPDEST SWAP1 PUSH1 0x0 MSTORE PUSH1 0x20 PUSH1 0x0 KECCAK256 SWAP1 PUSH1 0x2 MUL ADD PUSH1 0x1 ADD SLOAD SWAP2 POP DUP1 PUSH1 0x1 DUP2 SWAP1 SSTORE POP JUMPDEST DUP1 DUP1 PUSH2 0xB1F SWAP1 PUSH2 0x1BCF JUMP JUMPDEST SWAP2 POP POP PUSH2 0xAAA JUMP JUMPDEST POP POP POP JUMP JUMPDEST PUSH2 0xB34 PUSH2 0x13B0 JUMP JUMPDEST PUSH1 0x1 DUP1 PUSH1 0x5 DUP2 GT ISZERO PUSH2 0xB49 JUMPI PUSH2 0xB48 PUSH2 0x18D2 JUMP JUMPDEST JUMPDEST PUSH1 0x0 PUSH1 0x14 SWAP1 SLOAD SWAP1 PUSH2 0x100 EXP SWAP1 DIV PUSH1 0xFF AND PUSH1 0x5 DUP2 GT ISZERO PUSH2 0xB6B JUMPI PUSH2 0xB6A PUSH2 0x18D2 JUMP JUMPDEST JUMPDEST EQ PUSH2 0xBAB JUMPI PUSH1 0x40 MLOAD PUSH32 0x8C379A000000000000000000000000000000000000000000000000000000000 DUP2 MSTORE PUSH1 0x4 ADD PUSH2 0xBA2 SWAP1 PUSH2 0x1A79 JUMP JUMPDEST PUSH1 0x40 MLOAD DUP1 SWAP2 SUB SWAP1 REVERT JUMPDEST PUSH1 0x2 PUSH1 0x0 PUSH1 0x14 PUSH2 0x100 EXP DUP2 SLOAD DUP2 PUSH1 0xFF MUL NOT AND SWAP1 DUP4 PUSH1 0x5 DUP2 GT ISZERO PUSH2 0xBD1 JUMPI PUSH2 0xBD0 PUSH2 0x18D2 JUMP JUMPDEST JUMPDEST MUL OR SWAP1 SSTORE POP PUSH32 0xA97A4EE45751E2ABF3E4FC8946939630B11B371EA8AE39CCDC3056E98F5CC3F PUSH1 0x1 PUSH1 0x2 PUSH1 0x40 MLOAD PUSH2 0xC09 SWAP3 SWAP2 SWAP1 PUSH2 0x1FBE JUMP JUMPDEST PUSH1 0x40 MLOAD DUP1 SWAP2 SUB SWAP1 LOG1 POP JUMP JUMPDEST PUSH2 0xC1C PUSH2 0x13B0 JUMP JUMPDEST PUSH2 0xC26 PUSH1 0x0 PUSH2 0x142E JUMP JUMPDEST JUMP JUMPDEST PUSH1 0x2 PUSH1 0x0 CALLER PUSH20 0xFFFFFFFFFFFFFFFFFFFFFFFFFFFFFFFFFFFFFFFF AND PUSH20 0xFFFFFFFFFFFFFFFFFFFFFFFFFFFFFFFFFFFFFFFF AND DUP2 MSTORE PUSH1 0x20 ADD SWAP1 DUP2 MSTORE PUSH1 0x20 ADD PUSH1 0x0 KECCAK256 PUSH1 0x0 ADD PUSH1 0x0 SWAP1 SLOAD SWAP1 PUSH2 0x100 EXP SWAP1 DIV PUSH1 0xFF AND PUSH2 0xCB7 JUMPI PUSH1 0x40 MLOAD PUSH32 0x8C379A000000000000000000000000000000000000000000000000000000000 DUP2 MSTORE PUSH1 0x4 ADD PUSH2 0xCAE SWAP1 PUSH2 0x19E7 JUMP JUMPDEST PUSH1 0x40 MLOAD DUP1 SWAP2 SUB SWAP1 REVERT JUMPDEST PUSH1 0x3 DUP1 PUSH1 0x5 DUP2 GT ISZERO PUSH2 0xCCC JUMPI PUSH2 0xCCB PUSH2 0x18D2 JUMP JUMPDEST JUMPDEST PUSH1 0x0 PUSH1 0x14 SWAP1 SLOAD SWAP1 PUSH2 0x100 EXP SWAP1 DIV PUSH1 0xFF AND PUSH1 0x5 DUP2 GT ISZERO PUSH2 0xCEE JUMPI PUSH2 0xCED PUSH2 0x18D2 JUMP JUMPDEST JUMPDEST EQ PUSH2 0xD2E JUMPI PUSH1 0x40 MLOAD PUSH32 0x8C379A000000000000000000000000000000000000000000000000000000000 DUP2 MSTORE PUSH1 0x4 ADD PUSH2 0xD25 SWAP1 PUSH2 0x1A79 JUMP JUMPDEST PUSH1 0x40 MLOAD DUP1 SWAP2 SUB SWAP1 REVERT JUMPDEST PUSH1 0x3 DUP1 SLOAD SWAP1 POP DUP3 LT PUSH2 0xD75 JUMPI PUSH1 0x40 MLOAD PUSH32 0x8C379A000000000000000000000000000000000000000000000000000000000 DUP2 MSTORE PUSH1 0x4 ADD PUSH2 0xD6C SWAP1 PUSH2 0x1AE5 JUMP JUMPDEST PUSH1 0x40 MLOAD DUP1 SWAP2 SUB SWAP1 REVERT JUMPDEST PUSH1 0x2 PUSH1 0x0 CALLER PUSH20 0xFFFFFFFFFFFFFFFFFFFFFFFFFFFFFFFFFFFFFFFF AND PUSH20 0xFFFFFFFFFFFFFFFFFFFFFFFFFFFFFFFFFFFFFFFF AND DUP2 MSTORE PUSH1 0x20 ADD SWAP1 DUP2 MSTORE PUSH1 0x20 ADD PUSH1 0x0 KECCAK256 PUSH1 0x0 ADD PUSH1 0x1 SWAP1 SLOAD SWAP1 PUSH2 0x100 EXP SWAP1 DIV PUSH1 0xFF AND ISZERO PUSH2 0xE05 JUMPI PUSH1 0x40 MLOAD PUSH32 0x8C379A000000000000000000000000000000000000000000000000000000000 DUP2 MSTORE PUSH1 0x4 ADD PUSH2 0xDFC SWAP1 PUSH2 0x1B51 JUMP JUMPDEST PUSH1 0x40 MLOAD DUP1 SWAP2 SUB SWAP1 REVERT JUMPDEST PUSH1 0x1 PUSH1 0x2 PUSH1 0x0 CALLER PUSH20 0xFFFFFFFFFFFFFFFFFFFFFFFFFFFFFFFFFFFFFFFF AND PUSH20 0xFFFFFFFFFFFFFFFFFFFFFFFFFFFFFFFFFFFFFFFF AND DUP2 MSTORE PUSH1 0x20 ADD SWAP1 DUP2 MSTORE PUSH1 0x20 ADD PUSH1 0x0 KECCAK256 PUSH1 0x0 ADD PUSH1 0x1 PUSH2 0x100 EXP DUP2 SLOAD DUP2 PUSH1 0xFF MUL NOT AND SWAP1 DUP4 ISZERO ISZERO MUL OR SWAP1 SSTORE POP DUP2 PUSH1 0x2 PUSH1 0x0 CALLER PUSH20 0xFFFFFFFFFFFFFFFFFFFFFFFFFFFFFFFFFFFFFFFF AND PUSH20 0xFFFFFFFFFFFFFFFFFFFFFFFFFFFFFFFFFFFFFFFF AND DUP2 MSTORE PUSH1 0x20 ADD SWAP1 DUP2 MSTORE PUSH1 0x20 ADD PUSH1 0x0 KECCAK256 PUSH1 0x1 ADD DUP2 SWAP1 SSTORE POP PUSH1 0x1 PUSH1 0x4 PUSH1 0x0 DUP5 DUP2 MSTORE PUSH1 0x20 ADD SWAP1 DUP2 MSTORE PUSH1 0x20 ADD PUSH1 0x0 KECCAK256 PUSH1 0x0 ADD PUSH1 0x0 PUSH2 0x100 EXP DUP2 SLOAD DUP2 PUSH1 0xFF MUL NOT AND SWAP1 DUP4 ISZERO ISZERO MUL OR SWAP1 SSTORE POP PUSH1 0x4 PUSH1 0x0 DUP4 DUP2 MSTORE PUSH1 0x20 ADD SWAP1 DUP2 MSTORE PUSH1 0x20 ADD PUSH1 0x0 KECCAK256 PUSH1 0x1 ADD PUSH1 0x0 DUP2 SLOAD DUP1 SWAP3 SWAP2 SWAP1 PUSH2 0xEFD SWAP1 PUSH2 0x1BCF JUMP JUMPDEST SWAP2 SWAP1 POP SSTORE POP PUSH32 0x4D99B957A2BC29A30EBD96A7BE8E68FE50A3C701DB28A91436490B7D53870CA4 CALLER DUP4 PUSH1 0x40 MLOAD PUSH2 0xF33 SWAP3 SWAP2 SWAP1 PUSH2 0x1C17 JUMP JUMPDEST PUSH1 0x40 MLOAD DUP1 SWAP2 SUB SWAP1 LOG1 POP POP JUMP JUMPDEST PUSH1 0x0 DUP1 PUSH1 0x0 SWAP1 SLOAD SWAP1 PUSH2 0x100 EXP SWAP1 DIV PUSH20 0xFFFFFFFFFFFFFFFFFFFFFFFFFFFFFFFFFFFFFFFF AND SWAP1 POP SWAP1 JUMP JUMPDEST PUSH1 0x0 PUSH1 0x5 DUP1 DUP2 GT ISZERO PUSH2 0xF7D JUMPI PUSH2 0xF7C PUSH2 0x18D2 JUMP JUMPDEST JUMPDEST PUSH1 0x0 PUSH1 0x14 SWAP1 SLOAD SWAP1 PUSH2 0x100 EXP SWAP1 DIV PUSH1 0xFF AND PUSH1 0x5 DUP2 GT ISZERO PUSH2 0xF9F JUMPI PUSH2 0xF9E PUSH2 0x18D2 JUMP JUMPDEST JUMPDEST EQ PUSH2 0xFDF JUMPI PUSH1 0x40 MLOAD PUSH32 0x8C379A000000000000000000000000000000000000000000000000000000000 DUP2 MSTORE PUSH1 0x4 ADD PUSH2 0xFD6 SWAP1 PUSH2 0x2033 JUMP JUMPDEST PUSH1 0x40 MLOAD DUP1 SWAP2 SUB SWAP1 REVERT JUMPDEST PUSH1 0x1 SLOAD SWAP1 POP SWAP1 JUMP JUMPDEST PUSH1 0x4 PUSH1 0x20 MSTORE DUP1 PUSH1 0x0 MSTORE PUSH1 0x40 PUSH1 0x0 KECCAK256 PUSH1 0x0 SWAP2 POP SWAP1 POP DUP1 PUSH1 0x0 ADD PUSH1 0x0 SWAP1 SLOAD SWAP1 PUSH2 0x100 EXP SWAP1 DIV PUSH1 0xFF AND SWAP1 DUP1 PUSH1 0x1 ADD SLOAD SWAP1 POP DUP3 JUMP JUMPDEST PUSH1 0x0 PUSH1 0x14 SWAP1 SLOAD SWAP1 PUSH2 0x100 EXP SWAP1 DIV PUSH1 0xFF AND DUP2 JUMP JUMPDEST PUSH1 0x2 PUSH1 0x20 MSTORE DUP1 PUSH1 0x0 MSTORE PUSH1 0x40 PUSH1 0x0 KECCAK256 PUSH1 0x0 SWAP2 POP SWAP1 POP DUP1 PUSH1 0x0 ADD PUSH1 0x0 SWAP1 SLOAD SWAP1 PUSH2 0x100 EXP SWAP1 DIV PUSH1 0xFF AND SWAP1 DUP1 PUSH1 0x0 ADD PUSH1 0x1 SWAP1 SLOAD SWAP1 PUSH2 0x100 EXP SWAP1 DIV PUSH1 0xFF AND SWAP1 DUP1 PUSH1 0x1 ADD SLOAD SWAP1 POP DUP4 JUMP JUMPDEST PUSH2 0x1077 PUSH2 0x13B0 JUMP JUMPDEST PUSH1 0x3 DUP1 PUSH1 0x5 DUP2 GT ISZERO PUSH2 0x108C JUMPI PUSH2 0x108B PUSH2 0x18D2 JUMP JUMPDEST JUMPDEST PUSH1 0x0 PUSH1 0x14 SWAP1 SLOAD SWAP1 PUSH2 0x100 EXP SWAP1 DIV PUSH1 0xFF AND PUSH1 0x5 DUP2 GT ISZERO PUSH2 0x10AE JUMPI PUSH2 0x10AD PUSH2 0x18D2 JUMP JUMPDEST JUMPDEST EQ PUSH2 0x10EE JUMPI PUSH1 0x40 MLOAD PUSH32 0x8C379A000000000000000000000000000000000000000000000000000000000 DUP2 MSTORE PUSH1 0x4 ADD PUSH2 0x10E5 SWAP1 PUSH2 0x1A79 JUMP JUMPDEST PUSH1 0x40 MLOAD DUP1 SWAP2 SUB SWAP1 REVERT JUMPDEST PUSH1 0x4 PUSH1 0x0 PUSH1 0x14 PUSH2 0x100 EXP DUP2 SLOAD DUP2 PUSH1 0xFF MUL NOT AND SWAP1 DUP4 PUSH1 0x5 DUP2 GT ISZERO PUSH2 0x1114 JUMPI PUSH2 0x1113 PUSH2 0x18D2 JUMP JUMPDEST JUMPDEST MUL OR SWAP1 SSTORE POP PUSH32 0xA97A4EE45751E2ABF3E4FC8946939630B11B371EA8AE39CCDC3056E98F5CC3F PUSH1 0x3 PUSH1 0x4 PUSH1 0x40 MLOAD PUSH2 0x114C SWAP3 SWAP2 SWAP1 PUSH2 0x1FBE JUMP JUMPDEST PUSH1 0x40 MLOAD DUP1 SWAP2 SUB SWAP1 LOG1 POP JUMP JUMPDEST PUSH1 0x1 SLOAD DUP2 JUMP JUMPDEST PUSH2 0x1165 PUSH2 0x13B0 JUMP JUMPDEST PUSH1 0x0 DUP1 PUSH1 0x5 DUP2 GT ISZERO PUSH2 0x117A JUMPI PUSH2 0x1179 PUSH2 0x18D2 JUMP JUMPDEST JUMPDEST PUSH1 0x0 PUSH1 0x14 SWAP1 SLOAD SWAP1 PUSH2 0x100 EXP SWAP1 DIV PUSH1 0xFF AND PUSH1 0x5 DUP2 GT ISZERO PUSH2 0x119C JUMPI PUSH2 0x119B PUSH2 0x18D2 JUMP JUMPDEST JUMPDEST EQ PUSH2 0x11DC JUMPI PUSH1 0x40 MLOAD PUSH32 0x8C379A000000000000000000000000000000000000000000000000000000000 DUP2 MSTORE PUSH1 0x4 ADD PUSH2 0x11D3 SWAP1 PUSH2 0x1A79 JUMP JUMPDEST PUSH1 0x40 MLOAD DUP1 SWAP2 SUB SWAP1 REVERT JUMPDEST PUSH1 0x1 PUSH1 0x0 PUSH1 0x14 PUSH2 0x100 EXP DUP2 SLOAD DUP2 PUSH1 0xFF MUL NOT AND SWAP1 DUP4 PUSH1 0x5 DUP2 GT ISZERO PUSH2 0x1202 JUMPI PUSH2 0x1201 PUSH2 0x18D2 JUMP JUMPDEST JUMPDEST MUL OR SWAP1 SSTORE POP PUSH32 0xA97A4EE45751E2ABF3E4FC8946939630B11B371EA8AE39CCDC3056E98F5CC3F PUSH1 0x0 PUSH1 0x1 PUSH1 0x40 MLOAD PUSH2 0x123A SWAP3 SWAP2 SWAP1 PUSH2 0x1FBE JUMP JUMPDEST PUSH1 0x40 MLOAD DUP1 SWAP2 SUB SWAP1 LOG1 POP JUMP JUMPDEST PUSH2 0x124D PUSH2 0x13B0 JUMP JUMPDEST PUSH1 0x2 DUP1 PUSH1 0x5 DUP2 GT ISZERO PUSH2 0x1262 JUMPI PUSH2 0x1261 PUSH2 0x18D2 JUMP JUMPDEST JUMPDEST PUSH1 0x0 PUSH1 0x14 SWAP1 SLOAD SWAP1 PUSH2 0x100 EXP SWAP1 DIV PUSH1 0xFF AND PUSH1 0x5 DUP2 GT ISZERO PUSH2 0x1284 JUMPI PUSH2 0x1283 PUSH2 0x18D2 JUMP JUMPDEST JUMPDEST EQ PUSH2 0x12C4 JUMPI PUSH1 0x40 MLOAD PUSH32 0x8C379A000000000000000000000000000000000000000000000000000000000 DUP2 MSTORE PUSH1 0x4 ADD PUSH2 0x12BB SWAP1 PUSH2 0x1A79 JUMP JUMPDEST PUSH1 0x40 MLOAD DUP1 SWAP2 SUB SWAP1 REVERT JUMPDEST PUSH1 0x3 PUSH1 0x0 PUSH1 0x14 PUSH2 0x100 EXP DUP2 SLOAD DUP2 PUSH1 0xFF MUL NOT AND SWAP1 DUP4 PUSH1 0x5 DUP2 GT ISZERO PUSH2 0x12EA JUMPI PUSH2 0x12E9 PUSH2 0x18D2 JUMP JUMPDEST JUMPDEST MUL OR SWAP1 SSTORE POP PUSH32 0xA97A4EE45751E2ABF3E4FC8946939630B11B371EA8AE39CCDC3056E98F5CC3F PUSH1 0x2 PUSH1 0x3 PUSH1 0x40 MLOAD PUSH2 0x1322 SWAP3 SWAP2 SWAP1 PUSH2 0x1FBE JUMP JUMPDEST PUSH1 0x40 MLOAD DUP1 SWAP2 SUB SWAP1 LOG1 POP JUMP JUMPDEST PUSH2 0x1335 PUSH2 0x13B0 JUMP JUMPDEST PUSH1 0x0 PUSH20 0xFFFFFFFFFFFFFFFFFFFFFFFFFFFFFFFFFFFFFFFF AND DUP2 PUSH20 0xFFFFFFFFFFFFFFFFFFFFFFFFFFFFFFFFFFFFFFFF AND SUB PUSH2 0x13A4 JUMPI PUSH1 0x40 MLOAD PUSH32 0x8C379A000000000000000000000000000000000000000000000000000000000 DUP2 MSTORE PUSH1 0x4 ADD PUSH2 0x139B SWAP1 PUSH2 0x20C5 JUMP JUMPDEST PUSH1 0x40 MLOAD DUP1 SWAP2 SUB SWAP1 REVERT JUMPDEST PUSH2 0x13AD DUP2 PUSH2 0x142E JUMP JUMPDEST POP JUMP JUMPDEST PUSH2 0x13B8 PUSH2 0x14F2 JUMP JUMPDEST PUSH20 0xFFFFFFFFFFFFFFFFFFFFFFFFFFFFFFFFFFFFFFFF AND PUSH2 0x13D6 PUSH2 0xF3F JUMP JUMPDEST PUSH20 0xFFFFFFFFFFFFFFFFFFFFFFFFFFFFFFFFFFFFFFFF AND EQ PUSH2 0x142C JUMPI PUSH1 0x40 MLOAD PUSH32 0x8C379A000000000000000000000000000000000000000000000000000000000 DUP2 MSTORE PUSH1 0x4 ADD PUSH2 0x1423 SWAP1 PUSH2 0x2131 JUMP JUMPDEST PUSH1 0x40 MLOAD DUP1 SWAP2 SUB SWAP1 REVERT JUMPDEST JUMP JUMPDEST PUSH1 0x0 DUP1 PUSH1 0x0 SWAP1 SLOAD SWAP1 PUSH2 0x100 EXP SWAP1 DIV PUSH20 0xFFFFFFFFFFFFFFFFFFFFFFFFFFFFFFFFFFFFFFFF AND SWAP1 POP DUP2 PUSH1 0x0 DUP1 PUSH2 0x100 EXP DUP2 SLOAD DUP2 PUSH20 0xFFFFFFFFFFFFFFFFFFFFFFFFFFFFFFFFFFFFFFFF MUL NOT AND SWAP1 DUP4 PUSH20 0xFFFFFFFFFFFFFFFFFFFFFFFFFFFFFFFFFFFFFFFF AND MUL OR SWAP1 SSTORE POP DUP2 PUSH20 0xFFFFFFFFFFFFFFFFFFFFFFFFFFFFFFFFFFFFFFFF AND DUP2 PUSH20 0xFFFFFFFFFFFFFFFFFFFFFFFFFFFFFFFFFFFFFFFF AND PUSH32 0x8BE0079C531659141344CD1FD0A4F28419497F9722A3DAAFE3B4186F6B6457E0 PUSH1 0x40 MLOAD PUSH1 0x40 MLOAD DUP1 SWAP2 SUB SWAP1 LOG3 POP POP JUMP JUMPDEST PUSH1 0x0 CALLER SWAP1 POP SWAP1 JUMP JUMPDEST PUSH1 0x0 PUSH1 0x40 MLOAD SWAP1 POP SWAP1 JUMP JUMPDEST PUSH1 0x0 DUP1 REVERT JUMPDEST PUSH1 0x0 DUP1 REVERT JUMPDEST PUSH1 0x0 DUP2 SWAP1 POP SWAP2 SWAP1 POP JUMP JUMPDEST PUSH2 0x1521 DUP2 PUSH2 0x150E JUMP JUMPDEST DUP2 EQ PUSH2 0x152C JUMPI PUSH1 0x0 DUP1 REVERT JUMPDEST POP JUMP JUMPDEST PUSH1 0x0 DUP2 CALLDATALOAD SWAP1 POP PUSH2 0x153E DUP2 PUSH2 0x1518 JUMP JUMPDEST SWAP3 SWAP2 POP POP JUMP JUMPDEST PUSH1 0x0 PUSH1 0x20 DUP3 DUP5 SUB SLT ISZERO PUSH2 0x155A JUMPI PUSH2 0x1559 PUSH2 0x1504 JUMP JUMPDEST JUMPDEST PUSH1 0x0 PUSH2 0x1568 DUP5 DUP3 DUP6 ADD PUSH2 0x152F JUMP JUMPDEST SWAP2 POP POP SWAP3 SWAP2 POP POP JUMP JUMPDEST PUSH1 0x0 DUP2 MLOAD SWAP1 POP SWAP2 SWAP1 POP JUMP JUMPDEST PUSH1 0x0 DUP3 DUP3 MSTORE PUSH1 0x20 DUP3 ADD SWAP1 POP SWAP3 SWAP2 POP POP JUMP JUMPDEST PUSH1 0x0 JUMPDEST DUP4 DUP2 LT ISZERO PUSH2 0x15AB JUMPI DUP1 DUP3 ADD MLOAD DUP2 DUP5 ADD MSTORE PUSH1 0x20 DUP2 ADD SWAP1 POP PUSH2 0x1590 JUMP JUMPDEST PUSH1 0x0 DUP5 DUP5 ADD MSTORE POP POP POP POP JUMP JUMPDEST PUSH1 0x0 PUSH1 0x1F NOT PUSH1 0x1F DUP4 ADD AND SWAP1 POP SWAP2 SWAP1 POP JUMP JUMPDEST PUSH1 0x0 PUSH2 0x15D3 DUP3 PUSH2 0x1571 JUMP JUMPDEST PUSH2 0x15DD DUP2 DUP6 PUSH2 0x157C JUMP JUMPDEST SWAP4 POP PUSH2 0x15ED DUP2 DUP6 PUSH1 0x20 DUP7 ADD PUSH2 0x158D JUMP JUMPDEST PUSH2 0x15F6 DUP2 PUSH2 0x15B7 JUMP JUMPDEST DUP5 ADD SWAP2 POP POP SWAP3 SWAP2 POP POP JUMP JUMPDEST PUSH2 0x160A DUP2 PUSH2 0x150E JUMP JUMPDEST DUP3 MSTORE POP POP JUMP JUMPDEST PUSH1 0x0 PUSH1 0x40 DUP3 ADD SWAP1 POP DUP2 DUP2 SUB PUSH1 0x0 DUP4 ADD MSTORE PUSH2 0x162A DUP2 DUP6 PUSH2 0x15C8 JUMP JUMPDEST SWAP1 POP PUSH2 0x1639 PUSH1 0x20 DUP4 ADD DUP5 PUSH2 0x1601 JUMP JUMPDEST SWAP4 SWAP3 POP POP POP JUMP JUMPDEST PUSH1 0x0 DUP1 REVERT JUMPDEST PUSH1 0x0 DUP1 REVERT JUMPDEST PUSH32 0x4E487B7100000000000000000000000000000000000000000000000000000000 PUSH1 0x0 MSTORE PUSH1 0x41 PUSH1 0x4 MSTORE PUSH1 0x24 PUSH1 0x0 REVERT JUMPDEST PUSH2 0x1682 DUP3 PUSH2 0x15B7 JUMP JUMPDEST DUP2 ADD DUP2 DUP2 LT PUSH8 0xFFFFFFFFFFFFFFFF DUP3 GT OR ISZERO PUSH2 0x16A1 JUMPI PUSH2 0x16A0 PUSH2 0x164A JUMP JUMPDEST JUMPDEST DUP1 PUSH1 0x40 MSTORE POP POP POP JUMP JUMPDEST PUSH1 0x0 PUSH2 0x16B4 PUSH2 0x14FA JUMP JUMPDEST SWAP1 POP PUSH2 0x16C0 DUP3 DUP3 PUSH2 0x1679 JUMP JUMPDEST SWAP2 SWAP1 POP JUMP JUMPDEST PUSH1 0x0 PUSH8 0xFFFFFFFFFFFFFFFF DUP3 GT ISZERO PUSH2 0x16E0 JUMPI PUSH2 0x16DF PUSH2 0x164A JUMP JUMPDEST JUMPDEST PUSH2 0x16E9 DUP3 PUSH2 0x15B7 JUMP JUMPDEST SWAP1 POP PUSH1 0x20 DUP2 ADD SWAP1 POP SWAP2 SWAP1 POP JUMP JUMPDEST DUP3 DUP2 DUP4 CALLDATACOPY PUSH1 0x0 DUP4 DUP4 ADD MSTORE POP POP POP JUMP JUMPDEST PUSH1 0x0 PUSH2 0x1718 PUSH2 0x1713 DUP5 PUSH2 0x16C5 JUMP JUMPDEST PUSH2 0x16AA JUMP JUMPDEST SWAP1 POP DUP3 DUP2 MSTORE PUSH1 0x20 DUP2 ADD DUP5 DUP5 DUP5 ADD GT ISZERO PUSH2 0x1734 JUMPI PUSH2 0x1733 PUSH2 0x1645 JUMP JUMPDEST JUMPDEST PUSH2 0x173F DUP5 DUP3 DUP6 PUSH2 0x16F6 JUMP JUMPDEST POP SWAP4 SWAP3 POP POP POP JUMP JUMPDEST PUSH1 0x0 DUP3 PUSH1 0x1F DUP4 ADD SLT PUSH2 0x175C JUMPI PUSH2 0x175B PUSH2 0x1640 JUMP JUMPDEST JUMPDEST DUP2 CALLDATALOAD PUSH2 0x176C DUP5 DUP3 PUSH1 0x20 DUP7 ADD PUSH2 0x1705 JUMP JUMPDEST SWAP2 POP POP SWAP3 SWAP2 POP POP JUMP JUMPDEST PUSH1 0x0 PUSH1 0x20 DUP3 DUP5 SUB SLT ISZERO PUSH2 0x178B JUMPI PUSH2 0x178A PUSH2 0x1504 JUMP JUMPDEST JUMPDEST PUSH1 0x0 DUP3 ADD CALLDATALOAD PUSH8 0xFFFFFFFFFFFFFFFF DUP2 GT ISZERO PUSH2 0x17A9 JUMPI PUSH2 0x17A8 PUSH2 0x1509 JUMP JUMPDEST JUMPDEST PUSH2 0x17B5 DUP5 DUP3 DUP6 ADD PUSH2 0x1747 JUMP JUMPDEST SWAP2 POP POP SWAP3 SWAP2 POP POP JUMP JUMPDEST PUSH1 0x0 PUSH20 0xFFFFFFFFFFFFFFFFFFFFFFFFFFFFFFFFFFFFFFFF DUP3 AND SWAP1 POP SWAP2 SWAP1 POP JUMP JUMPDEST PUSH1 0x0 PUSH2 0x17E9 DUP3 PUSH2 0x17BE JUMP JUMPDEST SWAP1 POP SWAP2 SWAP1 POP JUMP JUMPDEST PUSH2 0x17F9 DUP2 PUSH2 0x17DE JUMP JUMPDEST DUP2 EQ PUSH2 0x1804 JUMPI PUSH1 0x0 DUP1 REVERT JUMPDEST POP JUMP JUMPDEST PUSH1 0x0 DUP2 CALLDATALOAD SWAP1 POP PUSH2 0x1816 DUP2 PUSH2 0x17F0 JUMP JUMPDEST SWAP3 SWAP2 POP POP JUMP JUMPDEST PUSH1 0x0 PUSH1 0x20 DUP3 DUP5 SUB SLT ISZERO PUSH2 0x1832 JUMPI PUSH2 0x1831 PUSH2 0x1504 JUMP JUMPDEST JUMPDEST PUSH1 0x0 PUSH2 0x1840 DUP5 DUP3 DUP6 ADD PUSH2 0x1807 JUMP JUMPDEST SWAP2 POP POP SWAP3 SWAP2 POP POP JUMP JUMPDEST PUSH2 0x1852 DUP2 PUSH2 0x17DE JUMP JUMPDEST DUP3 MSTORE POP POP JUMP JUMPDEST PUSH1 0x0 PUSH1 0x20 DUP3 ADD SWAP1 POP PUSH2 0x186D PUSH1 0x0 DUP4 ADD DUP5 PUSH2 0x1849 JUMP JUMPDEST SWAP3 SWAP2 POP POP JUMP JUMPDEST PUSH1 0x0 PUSH1 0x20 DUP3 ADD SWAP1 POP PUSH2 0x1888 PUSH1 0x0 DUP4 ADD DUP5 PUSH2 0x1601 JUMP JUMPDEST SWAP3 SWAP2 POP POP JUMP JUMPDEST PUSH1 0x0 DUP2 ISZERO ISZERO SWAP1 POP SWAP2 SWAP1 POP JUMP JUMPDEST PUSH2 0x18A3 DUP2 PUSH2 0x188E JUMP JUMPDEST DUP3 MSTORE POP POP JUMP JUMPDEST PUSH1 0x0 PUSH1 0x40 DUP3 ADD SWAP1 POP PUSH2 0x18BE PUSH1 0x0 DUP4 ADD DUP6 PUSH2 0x189A JUMP JUMPDEST PUSH2 0x18CB PUSH1 0x20 DUP4 ADD DUP5 PUSH2 0x1601 JUMP JUMPDEST SWAP4 SWAP3 POP POP POP JUMP JUMPDEST PUSH32 0x4E487B7100000000000000000000000000000000000000000000000000000000 PUSH1 0x0 MSTORE PUSH1 0x21 PUSH1 0x4 MSTORE PUSH1 0x24 PUSH1 0x0 REVERT JUMPDEST PUSH1 0x6 DUP2 LT PUSH2 0x1912 JUMPI PUSH2 0x1911 PUSH2 0x18D2 JUMP JUMPDEST JUMPDEST POP JUMP JUMPDEST PUSH1 0x0 DUP2 SWAP1 POP PUSH2 0x1923 DUP3 PUSH2 0x1901 JUMP JUMPDEST SWAP2 SWAP1 POP JUMP JUMPDEST PUSH1 0x0 PUSH2 0x1933 DUP3 PUSH2 0x1915 JUMP JUMPDEST SWAP1 POP SWAP2 SWAP1 POP JUMP JUMPDEST PUSH2 0x1943 DUP2 PUSH2 0x1928 JUMP JUMPDEST DUP3 MSTORE POP POP JUMP JUMPDEST PUSH1 0x0 PUSH1 0x20 DUP3 ADD SWAP1 POP PUSH2 0x195E PUSH1 0x0 DUP4 ADD DUP5 PUSH2 0x193A JUMP JUMPDEST SWAP3 SWAP2 POP POP JUMP JUMPDEST PUSH1 0x0 PUSH1 0x60 DUP3 ADD SWAP1 POP PUSH2 0x1979 PUSH1 0x0 DUP4 ADD DUP7 PUSH2 0x189A JUMP JUMPDEST PUSH2 0x1986 PUSH1 0x20 DUP4 ADD DUP6 PUSH2 0x189A JUMP JUMPDEST PUSH2 0x1993 PUSH1 0x40 DUP4 ADD DUP5 PUSH2 0x1601 JUMP JUMPDEST SWAP5 SWAP4 POP POP POP POP JUMP JUMPDEST PUSH32 0x596F7520617265206E6F742061207265676973746572656420766F7465722E00 PUSH1 0x0 DUP3 ADD MSTORE POP JUMP JUMPDEST PUSH1 0x0 PUSH2 0x19D1 PUSH1 0x1F DUP4 PUSH2 0x157C JUMP JUMPDEST SWAP2 POP PUSH2 0x19DC DUP3 PUSH2 0x199B JUMP JUMPDEST PUSH1 0x20 DUP3 ADD SWAP1 POP SWAP2 SWAP1 POP JUMP JUMPDEST PUSH1 0x0 PUSH1 0x20 DUP3 ADD SWAP1 POP DUP2 DUP2 SUB PUSH1 0x0 DUP4 ADD MSTORE PUSH2 0x1A00 DUP2 PUSH2 0x19C4 JUMP JUMPDEST SWAP1 POP SWAP2 SWAP1 POP JUMP JUMPDEST PUSH32 0x416374696F6E206E6F7420616C6C6F7765642061742074686973207374616765 PUSH1 0x0 DUP3 ADD MSTORE PUSH32 0x2E00000000000000000000000000000000000000000000000000000000000000 PUSH1 0x20 DUP3 ADD MSTORE POP JUMP JUMPDEST PUSH1 0x0 PUSH2 0x1A63 PUSH1 0x21 DUP4 PUSH2 0x157C JUMP JUMPDEST SWAP2 POP PUSH2 0x1A6E DUP3 PUSH2 0x1A07 JUMP JUMPDEST PUSH1 0x40 DUP3 ADD SWAP1 POP SWAP2 SWAP1 POP JUMP JUMPDEST PUSH1 0x0 PUSH1 0x20 DUP3 ADD SWAP1 POP DUP2 DUP2 SUB PUSH1 0x0 DUP4 ADD MSTORE PUSH2 0x1A92 DUP2 PUSH2 0x1A56 JUMP JUMPDEST SWAP1 POP SWAP2 SWAP1 POP JUMP JUMPDEST PUSH32 0x496E76616C69642070726F706F73616C2049442E000000000000000000000000 PUSH1 0x0 DUP3 ADD MSTORE POP JUMP JUMPDEST PUSH1 0x0 PUSH2 0x1ACF PUSH1 0x14 DUP4 PUSH2 0x157C JUMP JUMPDEST SWAP2 POP PUSH2 0x1ADA DUP3 PUSH2 0x1A99 JUMP JUMPDEST PUSH1 0x20 DUP3 ADD SWAP1 POP SWAP2 SWAP1 POP JUMP JUMPDEST PUSH1 0x0 PUSH1 0x20 DUP3 ADD SWAP1 POP DUP2 DUP2 SUB PUSH1 0x0 DUP4 ADD MSTORE PUSH2 0x1AFE DUP2 PUSH2 0x1AC2 JUMP JUMPDEST SWAP1 POP SWAP2 SWAP1 POP JUMP JUMPDEST PUSH32 0x596F75206861766520616C726561647920766F7465642E000000000000000000 PUSH1 0x0 DUP3 ADD MSTORE POP JUMP JUMPDEST PUSH1 0x0 PUSH2 0x1B3B PUSH1 0x17 DUP4 PUSH2 0x157C JUMP JUMPDEST SWAP2 POP PUSH2 0x1B46 DUP3 PUSH2 0x1B05 JUMP JUMPDEST PUSH1 0x20 DUP3 ADD SWAP1 POP SWAP2 SWAP1 POP JUMP JUMPDEST PUSH1 0x0 PUSH1 0x20 DUP3 ADD SWAP1 POP DUP2 DUP2 SUB PUSH1 0x0 DUP4 ADD MSTORE PUSH2 0x1B6A DUP2 PUSH2 0x1B2E JUMP JUMPDEST SWAP1 POP SWAP2 SWAP1 POP JUMP JUMPDEST PUSH32 0x4E487B7100000000000000000000000000000000000000000000000000000000 PUSH1 0x0 MSTORE PUSH1 0x32 PUSH1 0x4 MSTORE PUSH1 0x24 PUSH1 0x0 REVERT JUMPDEST PUSH32 0x4E487B7100000000000000000000000000000000000000000000000000000000 PUSH1 0x0 MSTORE PUSH1 0x11 PUSH1 0x4 MSTORE PUSH1 0x24 PUSH1 0x0 REVERT JUMPDEST PUSH1 0x0 PUSH2 0x1BDA DUP3 PUSH2 0x150E JUMP JUMPDEST SWAP2 POP PUSH32 0xFFFFFFFFFFFFFFFFFFFFFFFFFFFFFFFFFFFFFFFFFFFFFFFFFFFFFFFFFFFFFFFF DUP3 SUB PUSH2 0x1C0C JUMPI PUSH2 0x1C0B PUSH2 0x1BA0 JUMP JUMPDEST JUMPDEST PUSH1 0x1 DUP3 ADD SWAP1 POP SWAP2 SWAP1 POP JUMP JUMPDEST PUSH1 0x0 PUSH1 0x40 DUP3 ADD SWAP1 POP PUSH2 0x1C2C PUSH1 0x0 DUP4 ADD DUP6 PUSH2 0x1849 JUMP JUMPDEST PUSH2 0x1C39 PUSH1 0x20 DUP4 ADD DUP5 PUSH2 0x1601 JUMP JUMPDEST SWAP4 SWAP3 POP POP POP JUMP JUMPDEST PUSH32 0x4E487B7100000000000000000000000000000000000000000000000000000000 PUSH1 0x0 MSTORE PUSH1 0x22 PUSH1 0x4 MSTORE PUSH1 0x24 PUSH1 0x0 REVERT JUMPDEST PUSH1 0x0 PUSH1 0x2 DUP3 DIV SWAP1 POP PUSH1 0x1 DUP3 AND DUP1 PUSH2 0x1C87 JUMPI PUSH1 0x7F DUP3 AND SWAP2 POP JUMPDEST PUSH1 0x20 DUP3 LT DUP2 SUB PUSH2 0x1C9A JUMPI PUSH2 0x1C99 PUSH2 0x1C40 JUMP JUMPDEST JUMPDEST POP SWAP2 SWAP1 POP JUMP JUMPDEST PUSH1 0x0 DUP2 SWAP1 POP DUP2 PUSH1 0x0 MSTORE PUSH1 0x20 PUSH1 0x0 KECCAK256 SWAP1 POP SWAP2 SWAP1 POP JUMP JUMPDEST PUSH1 0x0 PUSH1 0x20 PUSH1 0x1F DUP4 ADD DIV SWAP1 POP SWAP2 SWAP1 POP JUMP JUMPDEST PUSH1 0x0 DUP3 DUP3 SHL SWAP1 POP SWAP3 SWAP2 POP POP JUMP JUMPDEST PUSH1 0x0 PUSH1 0x8 DUP4 MUL PUSH2 0x1D02 PUSH32 0xFFFFFFFFFFFFFFFFFFFFFFFFFFFFFFFFFFFFFFFFFFFFFFFFFFFFFFFFFFFFFFFF DUP3 PUSH2 0x1CC5 JUMP JUMPDEST PUSH2 0x1D0C DUP7 DUP4 PUSH2 0x1CC5 JUMP JUMPDEST SWAP6 POP DUP1 NOT DUP5 AND SWAP4 POP DUP1 DUP7 AND DUP5 OR SWAP3 POP POP POP SWAP4 SWAP3 POP POP POP JUMP JUMPDEST PUSH1 0x0 DUP2 SWAP1 POP SWAP2 SWAP1 POP JUMP JUMPDEST PUSH1 0x0 PUSH2 0x1D49 PUSH2 0x1D44 PUSH2 0x1D3F DUP5 PUSH2 0x150E JUMP JUMPDEST PUSH2 0x1D24 JUMP JUMPDEST PUSH2 0x150E JUMP JUMPDEST SWAP1 POP SWAP2 SWAP1 POP JUMP JUMPDEST PUSH1 0x0 DUP2 SWAP1 POP SWAP2 SWAP1 POP JUMP JUMPDEST PUSH2 0x1D63 DUP4 PUSH2 0x1D2E JUMP JUMPDEST PUSH2 0x1D77 PUSH2 0x1D6F DUP3 PUSH2 0x1D50 JUMP JUMPDEST DUP5 DUP5 SLOAD PUSH2 0x1CD2 JUMP JUMPDEST DUP3 SSTORE POP POP POP POP JUMP JUMPDEST PUSH1 0x0 SWAP1 JUMP JUMPDEST PUSH2 0x1D8C PUSH2 0x1D7F JUMP JUMPDEST PUSH2 0x1D97 DUP2 DUP5 DUP5 PUSH2 0x1D5A JUMP JUMPDEST POP POP POP JUMP JUMPDEST JUMPDEST DUP2 DUP2 LT ISZERO PUSH2 0x1DBB JUMPI PUSH2 0x1DB0 PUSH1 0x0 DUP3 PUSH2 0x1D84 JUMP JUMPDEST PUSH1 0x1 DUP2 ADD SWAP1 POP PUSH2 0x1D9D JUMP JUMPDEST POP POP JUMP JUMPDEST PUSH1 0x1F DUP3 GT ISZERO PUSH2 0x1E00 JUMPI PUSH2 0x1DD1 DUP2 PUSH2 0x1CA0 JUMP JUMPDEST PUSH2 0x1DDA DUP5 PUSH2 0x1CB5 JUMP JUMPDEST DUP2 ADD PUSH1 0x20 DUP6 LT ISZERO PUSH2 0x1DE9 JUMPI DUP2 SWAP1 POP JUMPDEST PUSH2 0x1DFD PUSH2 0x1DF5 DUP6 PUSH2 0x1CB5 JUMP JUMPDEST DUP4 ADD DUP3 PUSH2 0x1D9C JUMP JUMPDEST POP POP JUMPDEST POP POP POP JUMP JUMPDEST PUSH1 0x0 DUP3 DUP3 SHR SWAP1 POP SWAP3 SWAP2 POP POP JUMP JUMPDEST PUSH1 0x0 PUSH2 0x1E23 PUSH1 0x0 NOT DUP5 PUSH1 0x8 MUL PUSH2 0x1E05 JUMP JUMPDEST NOT DUP1 DUP4 AND SWAP2 POP POP SWAP3 SWAP2 POP POP JUMP JUMPDEST PUSH1 0x0 PUSH2 0x1E3C DUP4 DUP4 PUSH2 0x1E12 JUMP JUMPDEST SWAP2 POP DUP3 PUSH1 0x2 MUL DUP3 OR SWAP1 POP SWAP3 SWAP2 POP POP JUMP JUMPDEST PUSH2 0x1E55 DUP3 PUSH2 0x1571 JUMP JUMPDEST PUSH8 0xFFFFFFFFFFFFFFFF DUP2 GT ISZERO PUSH2 0x1E6E JUMPI PUSH2 0x1E6D PUSH2 0x164A JUMP JUMPDEST JUMPDEST PUSH2 0x1E78 DUP3 SLOAD PUSH2 0x1C6F JUMP JUMPDEST PUSH2 0x1E83 DUP3 DUP3 DUP6 PUSH2 0x1DBF JUMP JUMPDEST PUSH1 0x0 PUSH1 0x20 SWAP1 POP PUSH1 0x1F DUP4 GT PUSH1 0x1 DUP2 EQ PUSH2 0x1EB6 JUMPI PUSH1 0x0 DUP5 ISZERO PUSH2 0x1EA4 JUMPI DUP3 DUP8 ADD MLOAD SWAP1 POP JUMPDEST PUSH2 0x1EAE DUP6 DUP3 PUSH2 0x1E30 JUMP JUMPDEST DUP7 SSTORE POP PUSH2 0x1F16 JUMP JUMPDEST PUSH1 0x1F NOT DUP5 AND PUSH2 0x1EC4 DUP7 PUSH2 0x1CA0 JUMP JUMPDEST PUSH1 0x0 JUMPDEST DUP3 DUP2 LT ISZERO PUSH2 0x1EEC JUMPI DUP5 DUP10 ADD MLOAD DUP3 SSTORE PUSH1 0x1 DUP3 ADD SWAP2 POP PUSH1 0x20 DUP6 ADD SWAP5 POP PUSH1 0x20 DUP2 ADD SWAP1 POP PUSH2 0x1EC7 JUMP JUMPDEST DUP7 DUP4 LT ISZERO PUSH2 0x1F09 JUMPI DUP5 DUP10 ADD MLOAD PUSH2 0x1F05 PUSH1 0x1F DUP10 AND DUP3 PUSH2 0x1E12 JUMP JUMPDEST DUP4 SSTORE POP JUMPDEST PUSH1 0x1 PUSH1 0x2 DUP9 MUL ADD DUP9 SSTORE POP POP POP JUMPDEST POP POP POP POP POP POP JUMP JUMPDEST PUSH1 0x0 PUSH2 0x1F29 DUP3 PUSH2 0x150E JUMP JUMPDEST SWAP2 POP PUSH2 0x1F34 DUP4 PUSH2 0x150E JUMP JUMPDEST SWAP3 POP DUP3 DUP3 SUB SWAP1 POP DUP2 DUP2 GT ISZERO PUSH2 0x1F4C JUMPI PUSH2 0x1F4B PUSH2 0x1BA0 JUMP JUMPDEST JUMPDEST SWAP3 SWAP2 POP POP JUMP JUMPDEST PUSH32 0x566F74657220616C726561647920726567697374657265642E00000000000000 PUSH1 0x0 DUP3 ADD MSTORE POP JUMP JUMPDEST PUSH1 0x0 PUSH2 0x1F88 PUSH1 0x19 DUP4 PUSH2 0x157C JUMP JUMPDEST SWAP2 POP PUSH2 0x1F93 DUP3 PUSH2 0x1F52 JUMP JUMPDEST PUSH1 0x20 DUP3 ADD SWAP1 POP SWAP2 SWAP1 POP JUMP JUMPDEST PUSH1 0x0 PUSH1 0x20 DUP3 ADD SWAP1 POP DUP2 DUP2 SUB PUSH1 0x0 DUP4 ADD MSTORE PUSH2 0x1FB7 DUP2 PUSH2 0x1F7B JUMP JUMPDEST SWAP1 POP SWAP2 SWAP1 POP JUMP JUMPDEST PUSH1 0x0 PUSH1 0x40 DUP3 ADD SWAP1 POP PUSH2 0x1FD3 PUSH1 0x0 DUP4 ADD DUP6 PUSH2 0x193A JUMP JUMPDEST PUSH2 0x1FE0 PUSH1 0x20 DUP4 ADD DUP5 PUSH2 0x193A JUMP JUMPDEST SWAP4 SWAP3 POP POP POP JUMP JUMPDEST PUSH32 0x566F74696E67206973206E6F742079657420636C6F7365642E00000000000000 PUSH1 0x0 DUP3 ADD MSTORE POP JUMP JUMPDEST PUSH1 0x0 PUSH2 0x201D PUSH1 0x19 DUP4 PUSH2 0x157C JUMP JUMPDEST SWAP2 POP PUSH2 0x2028 DUP3 PUSH2 0x1FE7 JUMP JUMPDEST PUSH1 0x20 DUP3 ADD SWAP1 POP SWAP2 SWAP1 POP JUMP JUMPDEST PUSH1 0x0 PUSH1 0x20 DUP3 ADD SWAP1 POP DUP2 DUP2 SUB PUSH1 0x0 DUP4 ADD MSTORE PUSH2 0x204C DUP2 PUSH2 0x2010 JUMP JUMPDEST SWAP1 POP SWAP2 SWAP1 POP JUMP JUMPDEST PUSH32 0x4F776E61626C653A206E6577206F776E657220697320746865207A65726F2061 PUSH1 0x0 DUP3 ADD MSTORE PUSH32 0x6464726573730000000000000000000000000000000000000000000000000000 PUSH1 0x20 DUP3 ADD MSTORE POP JUMP JUMPDEST PUSH1 0x0 PUSH2 0x20AF PUSH1 0x26 DUP4 PUSH2 0x157C JUMP JUMPDEST SWAP2 POP PUSH2 0x20BA DUP3 PUSH2 0x2053 JUMP JUMPDEST PUSH1 0x40 DUP3 ADD SWAP1 POP SWAP2 SWAP1 POP JUMP JUMPDEST PUSH1 0x0 PUSH1 0x20 DUP3 ADD SWAP1 POP DUP2 DUP2 SUB PUSH1 0x0 DUP4 ADD MSTORE PUSH2 0x20DE DUP2 PUSH2 0x20A2 JUMP JUMPDEST SWAP1 POP SWAP2 SWAP1 POP JUMP JUMPDEST PUSH32 0x4F776E61626C653A2063616C6C6572206973206E6F7420746865206F776E6572 PUSH1 0x0 DUP3 ADD MSTORE POP JUMP JUMPDEST PUSH1 0x0 PUSH2 0x211B PUSH1 0x20 DUP4 PUSH2 0x157C JUMP JUMPDEST SWAP2 POP PUSH2 0x2126 DUP3 PUSH2 0x20E5 JUMP JUMPDEST PUSH1 0x20 DUP3 ADD SWAP1 POP SWAP2 SWAP1 POP JUMP JUMPDEST PUSH1 0x0 PUSH1 0x20 DUP3 ADD SWAP1 POP DUP2 DUP2 SUB PUSH1 0x0 DUP4 ADD MSTORE PUSH2 0x214A DUP2 PUSH2 0x210E JUMP JUMPDEST SWAP1 POP SWAP2 SWAP1 POP JUMP INVALID LOG2 PUSH5 0x6970667358 0x22 SLT KECCAK256 PUSH26 0x1B0F48BB72FE76EBE6BA07F32B5D3EDA5F448E4F35ADB1838806 DUP6 0x2E LOG2 0xAF 0xA7 PUSH5 0x736F6C6343 STOP ADDMOD ISZERO STOP CALLER "
				},
				"gasEstimates": {
					"creation": {
						"codeDepositCost": "1716600",
						"executionCost": "infinite",
						"totalCost": "infinite"
					},
					"external": {
						"closeVotingSession()": "infinite",
						"endProposalsRegistration()": "infinite",
						"endVotingSession()": "infinite",
						"getWinner()": "4721",
						"owner()": "2633",
						"proposals(uint256)": "infinite",
						"registerProposal(string)": "infinite",
						"registerVoter(address)": "infinite",
						"rejectedVotes(uint256)": "infinite",
						"renounceOwnership()": "30465",
						"startProposalsRegistration()": "infinite",
						"startVotingSession()": "infinite",
						"transferOwnership(address)": "30854",
						"vote(uint256)": "infinite",
						"voteAgainst(uint256)": "infinite",
						"voters(address)": "infinite",
						"winningProposalId()": "2473",
						"workflowStatus()": "2677"
					}
				},
				"methodIdentifiers": {
					"closeVotingSession()": "4de17bca",
					"endProposalsRegistration()": "6c297445",
					"endVotingSession()": "a7bfab16",
					"getWinner()": "8e7ea5b2",
					"owner()": "8da5cb5b",
					"proposals(uint256)": "013cf08b",
					"registerProposal(string)": "2f95355b",
					"registerVoter(address)": "38db6dd3",
					"rejectedVotes(uint256)": "902a3fb5",
					"renounceOwnership()": "715018a6",
					"startProposalsRegistration()": "e09b8c79",
					"startVotingSession()": "ee74c678",
					"transferOwnership(address)": "f2fde38b",
					"vote(uint256)": "0121b93f",
					"voteAgainst(uint256)": "750e443a",
					"voters(address)": "a3ec138d",
					"winningProposalId()": "c64963c5",
					"workflowStatus()": "a1edffa2"
				}
			},
			"storageLayout": {
				"storage": [
					{
						"astId": 7,
						"contract": "contracts/4_Test.sol:Voting",
						"label": "_owner",
						"offset": 0,
						"slot": "0",
						"type": "t_address"
					},
					{
						"astId": 161,
						"contract": "contracts/4_Test.sol:Voting",
						"label": "workflowStatus",
						"offset": 20,
						"slot": "0",
						"type": "t_enum(WorkflowStatus)158"
					},
					{
						"astId": 163,
						"contract": "contracts/4_Test.sol:Voting",
						"label": "winningProposalId",
						"offset": 0,
						"slot": "1",
						"type": "t_uint256"
					},
					{
						"astId": 168,
						"contract": "contracts/4_Test.sol:Voting",
						"label": "voters",
						"offset": 0,
						"slot": "2",
						"type": "t_mapping(t_address,t_struct(Voter)146_storage)"
					},
					{
						"astId": 172,
						"contract": "contracts/4_Test.sol:Voting",
						"label": "proposals",
						"offset": 0,
						"slot": "3",
						"type": "t_array(t_struct(Proposal)151_storage)dyn_storage"
					},
					{
						"astId": 513,
						"contract": "contracts/4_Test.sol:Voting",
						"label": "rejectedVotes",
						"offset": 0,
						"slot": "4",
						"type": "t_mapping(t_uint256,t_struct(RejectedVote)508_storage)"
					}
				],
				"types": {
					"t_address": {
						"encoding": "inplace",
						"label": "address",
						"numberOfBytes": "20"
					},
					"t_array(t_struct(Proposal)151_storage)dyn_storage": {
						"base": "t_struct(Proposal)151_storage",
						"encoding": "dynamic_array",
						"label": "struct Voting.Proposal[]",
						"numberOfBytes": "32"
					},
					"t_bool": {
						"encoding": "inplace",
						"label": "bool",
						"numberOfBytes": "1"
					},
					"t_enum(WorkflowStatus)158": {
						"encoding": "inplace",
						"label": "enum Voting.WorkflowStatus",
						"numberOfBytes": "1"
					},
					"t_mapping(t_address,t_struct(Voter)146_storage)": {
						"encoding": "mapping",
						"key": "t_address",
						"label": "mapping(address => struct Voting.Voter)",
						"numberOfBytes": "32",
						"value": "t_struct(Voter)146_storage"
					},
					"t_mapping(t_uint256,t_struct(RejectedVote)508_storage)": {
						"encoding": "mapping",
						"key": "t_uint256",
						"label": "mapping(uint256 => struct Voting.RejectedVote)",
						"numberOfBytes": "32",
						"value": "t_struct(RejectedVote)508_storage"
					},
					"t_string_storage": {
						"encoding": "bytes",
						"label": "string",
						"numberOfBytes": "32"
					},
					"t_struct(Proposal)151_storage": {
						"encoding": "inplace",
						"label": "struct Voting.Proposal",
						"members": [
							{
								"astId": 148,
								"contract": "contracts/4_Test.sol:Voting",
								"label": "description",
								"offset": 0,
								"slot": "0",
								"type": "t_string_storage"
							},
							{
								"astId": 150,
								"contract": "contracts/4_Test.sol:Voting",
								"label": "voteCount",
								"offset": 0,
								"slot": "1",
								"type": "t_uint256"
							}
						],
						"numberOfBytes": "64"
					},
					"t_struct(RejectedVote)508_storage": {
						"encoding": "inplace",
						"label": "struct Voting.RejectedVote",
						"members": [
							{
								"astId": 505,
								"contract": "contracts/4_Test.sol:Voting",
								"label": "isRejected",
								"offset": 0,
								"slot": "0",
								"type": "t_bool"
							},
							{
								"astId": 507,
								"contract": "contracts/4_Test.sol:Voting",
								"label": "voteCount",
								"offset": 0,
								"slot": "1",
								"type": "t_uint256"
							}
						],
						"numberOfBytes": "64"
					},
					"t_struct(Voter)146_storage": {
						"encoding": "inplace",
						"label": "struct Voting.Voter",
						"members": [
							{
								"astId": 141,
								"contract": "contracts/4_Test.sol:Voting",
								"label": "isRegistered",
								"offset": 0,
								"slot": "0",
								"type": "t_bool"
							},
							{
								"astId": 143,
								"contract": "contracts/4_Test.sol:Voting",
								"label": "hasVoted",
								"offset": 1,
								"slot": "0",
								"type": "t_bool"
							},
							{
								"astId": 145,
								"contract": "contracts/4_Test.sol:Voting",
								"label": "votedProposalId",
								"offset": 0,
								"slot": "1",
								"type": "t_uint256"
							}
						],
						"numberOfBytes": "64"
					},
					"t_uint256": {
						"encoding": "inplace",
						"label": "uint256",
						"numberOfBytes": "32"
					}
				}
			},
			"userdoc": {
				"kind": "user",
				"methods": {},
				"version": 1
			}
		}
	}
}